{
  "_format": "hh-sol-artifact-1",
  "contractName": "Membership",
  "sourceName": "contracts/Membership.sol",
  "abi": [
    {
      "inputs": [
        {
          "internalType": "address",
          "name": "_myGovAddress",
          "type": "address"
        },
        {
          "internalType": "address",
          "name": "_usdAddress",
          "type": "address"
        }
      ],
      "stateMutability": "nonpayable",
      "type": "constructor"
    },
    {
      "inputs": [
        {
          "internalType": "address",
          "name": "spender",
          "type": "address"
        },
        {
          "internalType": "uint256",
          "name": "allowance",
          "type": "uint256"
        },
        {
          "internalType": "uint256",
          "name": "needed",
          "type": "uint256"
        }
      ],
      "name": "ERC20InsufficientAllowance",
      "type": "error"
    },
    {
      "inputs": [
        {
          "internalType": "address",
          "name": "sender",
          "type": "address"
        },
        {
          "internalType": "uint256",
          "name": "balance",
          "type": "uint256"
        },
        {
          "internalType": "uint256",
          "name": "needed",
          "type": "uint256"
        }
      ],
      "name": "ERC20InsufficientBalance",
      "type": "error"
    },
    {
      "inputs": [
        {
          "internalType": "address",
          "name": "approver",
          "type": "address"
        }
      ],
      "name": "ERC20InvalidApprover",
      "type": "error"
    },
    {
      "inputs": [
        {
          "internalType": "address",
          "name": "receiver",
          "type": "address"
        }
      ],
      "name": "ERC20InvalidReceiver",
      "type": "error"
    },
    {
      "inputs": [
        {
          "internalType": "address",
          "name": "sender",
          "type": "address"
        }
      ],
      "name": "ERC20InvalidSender",
      "type": "error"
    },
    {
      "inputs": [
        {
          "internalType": "address",
          "name": "spender",
          "type": "address"
        }
      ],
      "name": "ERC20InvalidSpender",
      "type": "error"
    },
    {
      "anonymous": false,
      "inputs": [
        {
          "indexed": true,
          "internalType": "address",
          "name": "owner",
          "type": "address"
        },
        {
          "indexed": true,
          "internalType": "address",
          "name": "spender",
          "type": "address"
        },
        {
          "indexed": false,
          "internalType": "uint256",
          "name": "value",
          "type": "uint256"
        }
      ],
      "name": "Approval",
      "type": "event"
    },
    {
      "anonymous": false,
      "inputs": [
        {
          "indexed": true,
          "internalType": "address",
          "name": "from",
          "type": "address"
        },
        {
          "indexed": true,
          "internalType": "address",
          "name": "to",
          "type": "address"
        },
        {
          "indexed": false,
          "internalType": "uint256",
          "name": "value",
          "type": "uint256"
        }
      ],
      "name": "Transfer",
      "type": "event"
    },
    {
      "inputs": [
        {
          "internalType": "address",
          "name": "sender",
          "type": "address"
        },
        {
          "internalType": "address",
          "name": "recipient",
          "type": "address"
        },
        {
          "internalType": "uint256",
          "name": "mygovamount",
          "type": "uint256"
        }
      ],
      "name": "_transferMyGov",
      "outputs": [],
      "stateMutability": "payable",
      "type": "function"
    },
    {
      "inputs": [
        {
          "internalType": "address",
          "name": "sender",
          "type": "address"
        },
        {
          "internalType": "address",
          "name": "recipient",
          "type": "address"
        },
        {
          "internalType": "uint256",
          "name": "usdamount",
          "type": "uint256"
        }
      ],
      "name": "_transferUSD",
      "outputs": [],
      "stateMutability": "payable",
      "type": "function"
    },
    {
      "inputs": [
        {
          "internalType": "uint256",
          "name": "",
          "type": "uint256"
        }
      ],
      "name": "allAddresses",
      "outputs": [
        {
          "internalType": "address",
          "name": "",
          "type": "address"
        }
      ],
      "stateMutability": "view",
      "type": "function"
    },
    {
      "inputs": [
        {
          "internalType": "address",
          "name": "owner",
          "type": "address"
        },
        {
          "internalType": "address",
          "name": "spender",
          "type": "address"
        }
      ],
      "name": "allowance",
      "outputs": [
        {
          "internalType": "uint256",
          "name": "",
          "type": "uint256"
        }
      ],
      "stateMutability": "view",
      "type": "function"
    },
    {
      "inputs": [
        {
          "internalType": "address",
          "name": "spender",
          "type": "address"
        },
        {
          "internalType": "uint256",
          "name": "value",
          "type": "uint256"
        }
      ],
      "name": "approve",
      "outputs": [
        {
          "internalType": "bool",
          "name": "",
          "type": "bool"
        }
      ],
      "stateMutability": "nonpayable",
      "type": "function"
    },
    {
      "inputs": [
        {
          "internalType": "address",
          "name": "account",
          "type": "address"
        }
      ],
      "name": "balanceOf",
      "outputs": [
        {
          "internalType": "uint256",
          "name": "",
          "type": "uint256"
        }
      ],
      "stateMutability": "view",
      "type": "function"
    },
    {
      "inputs": [],
      "name": "decimals",
      "outputs": [
        {
          "internalType": "uint8",
          "name": "",
          "type": "uint8"
        }
      ],
      "stateMutability": "view",
      "type": "function"
    },
    {
      "inputs": [
        {
          "internalType": "uint256",
          "name": "amount",
          "type": "uint256"
        }
      ],
      "name": "donateMyGovToken",
      "outputs": [],
      "stateMutability": "nonpayable",
      "type": "function"
    },
    {
      "inputs": [
        {
          "internalType": "uint256",
          "name": "amount",
          "type": "uint256"
        }
      ],
      "name": "donateUSD",
      "outputs": [],
      "stateMutability": "nonpayable",
      "type": "function"
    },
    {
      "inputs": [],
      "name": "faucet",
      "outputs": [],
      "stateMutability": "nonpayable",
      "type": "function"
    },
    {
      "inputs": [
        {
          "internalType": "address",
          "name": "",
          "type": "address"
        }
      ],
      "name": "memberstatus",
      "outputs": [
        {
          "internalType": "bool",
          "name": "",
          "type": "bool"
        }
      ],
      "stateMutability": "view",
      "type": "function"
    },
    {
      "inputs": [
        {
          "internalType": "address",
          "name": "account",
          "type": "address"
        }
      ],
      "name": "myGovBalanceOf",
      "outputs": [
        {
          "internalType": "uint256",
          "name": "",
          "type": "uint256"
        }
      ],
      "stateMutability": "view",
      "type": "function"
    },
    {
      "inputs": [],
      "name": "myGovToken",
      "outputs": [
        {
          "internalType": "contract MyGovToken",
          "name": "",
          "type": "address"
        }
      ],
      "stateMutability": "view",
      "type": "function"
    },
    {
      "inputs": [],
      "name": "name",
      "outputs": [
        {
          "internalType": "string",
          "name": "",
          "type": "string"
        }
      ],
      "stateMutability": "view",
      "type": "function"
    },
    {
      "inputs": [],
      "name": "symbol",
      "outputs": [
        {
          "internalType": "string",
          "name": "",
          "type": "string"
        }
      ],
      "stateMutability": "view",
      "type": "function"
    },
    {
      "inputs": [],
      "name": "totalSupply",
      "outputs": [
        {
          "internalType": "uint256",
          "name": "",
          "type": "uint256"
        }
      ],
      "stateMutability": "view",
      "type": "function"
    },
    {
      "inputs": [
        {
          "internalType": "address",
          "name": "to",
          "type": "address"
        },
        {
          "internalType": "uint256",
          "name": "value",
          "type": "uint256"
        }
      ],
      "name": "transfer",
      "outputs": [
        {
          "internalType": "bool",
          "name": "",
          "type": "bool"
        }
      ],
      "stateMutability": "nonpayable",
      "type": "function"
    },
    {
      "inputs": [
        {
          "internalType": "address",
          "name": "sender",
          "type": "address"
        },
        {
          "internalType": "address",
          "name": "recipient",
          "type": "address"
        },
        {
          "internalType": "uint256",
          "name": "usdamount",
          "type": "uint256"
        },
        {
          "internalType": "uint256",
          "name": "mygovamount",
          "type": "uint256"
        }
      ],
      "name": "transferAll",
      "outputs": [],
      "stateMutability": "nonpayable",
      "type": "function"
    },
    {
      "inputs": [
        {
          "internalType": "address",
          "name": "from",
          "type": "address"
        },
        {
          "internalType": "address",
          "name": "to",
          "type": "address"
        },
        {
          "internalType": "uint256",
          "name": "value",
          "type": "uint256"
        }
      ],
      "name": "transferFrom",
      "outputs": [
        {
          "internalType": "bool",
          "name": "",
          "type": "bool"
        }
      ],
      "stateMutability": "nonpayable",
      "type": "function"
    },
    {
      "inputs": [],
      "name": "updateAndGetTotalMembers",
      "outputs": [
        {
          "internalType": "uint256",
          "name": "totalMembers",
          "type": "uint256"
        }
      ],
      "stateMutability": "nonpayable",
      "type": "function"
    },
    {
      "inputs": [
        {
          "internalType": "address",
          "name": "account",
          "type": "address"
        }
      ],
      "name": "usdBalanceOf",
      "outputs": [
        {
          "internalType": "uint256",
          "name": "",
          "type": "uint256"
        }
      ],
      "stateMutability": "view",
      "type": "function"
    },
    {
      "inputs": [],
      "name": "usdStableCoin",
      "outputs": [
        {
          "internalType": "contract USDStablecoin",
          "name": "",
          "type": "address"
        }
      ],
      "stateMutability": "view",
      "type": "function"
    }
  ],
  "bytecode": "0x60806040523480156200001157600080fd5b5060405162002575380380620025758339818101604052810190620000379190620001bd565b6040518060400160405280600b81526020017f4d79476f7620546f6b656e0000000000000000000000000000000000000000008152506040518060400160405280600281526020017f4d470000000000000000000000000000000000000000000000000000000000008152508160039081620000b491906200047e565b508060049081620000c691906200047e565b50505081600560006101000a81548173ffffffffffffffffffffffffffffffffffffffff021916908373ffffffffffffffffffffffffffffffffffffffff16021790555080600660006101000a81548173ffffffffffffffffffffffffffffffffffffffff021916908373ffffffffffffffffffffffffffffffffffffffff160217905550505062000565565b600080fd5b600073ffffffffffffffffffffffffffffffffffffffff82169050919050565b6000620001858262000158565b9050919050565b620001978162000178565b8114620001a357600080fd5b50565b600081519050620001b7816200018c565b92915050565b60008060408385031215620001d757620001d662000153565b5b6000620001e785828601620001a6565b9250506020620001fa85828601620001a6565b9150509250929050565b600081519050919050565b7f4e487b7100000000000000000000000000000000000000000000000000000000600052604160045260246000fd5b7f4e487b7100000000000000000000000000000000000000000000000000000000600052602260045260246000fd5b600060028204905060018216806200028657607f821691505b6020821081036200029c576200029b6200023e565b5b50919050565b60008190508160005260206000209050919050565b60006020601f8301049050919050565b600082821b905092915050565b600060088302620003067fffffffffffffffffffffffffffffffffffffffffffffffffffffffffffffffff82620002c7565b620003128683620002c7565b95508019841693508086168417925050509392505050565b6000819050919050565b6000819050919050565b60006200035f6200035962000353846200032a565b62000334565b6200032a565b9050919050565b6000819050919050565b6200037b836200033e565b620003936200038a8262000366565b848454620002d4565b825550505050565b600090565b620003aa6200039b565b620003b781848462000370565b505050565b5b81811015620003df57620003d3600082620003a0565b600181019050620003bd565b5050565b601f8211156200042e57620003f881620002a2565b6200040384620002b7565b8101602085101562000413578190505b6200042b6200042285620002b7565b830182620003bc565b50505b505050565b600082821c905092915050565b6000620004536000198460080262000433565b1980831691505092915050565b60006200046e838362000440565b9150826002028217905092915050565b620004898262000204565b67ffffffffffffffff811115620004a557620004a46200020f565b5b620004b182546200026d565b620004be828285620003e3565b600060209050601f831160018114620004f65760008415620004e1578287015190505b620004ed858262000460565b8655506200055d565b601f1984166200050686620002a2565b60005b82811015620005305784890151825560018201915060208501945060208101905062000509565b868310156200055057848901516200054c601f89168262000440565b8355505b6001600288020188555050505b505050505050565b61200080620005756000396000f3fe6080604052600436106101355760003560e01c80638f827018116100ab578063d915902e1161006f578063d915902e14610448578063dacc537014610471578063dcb57dc0146104ae578063dd62ed3e146104d9578063de5f72fd14610516578063e166c3b01461052d57610135565b80638f8270181461035c57806395d89b4114610399578063975d82be146103c4578063a9059cbb146103ef578063aeeeebe71461042c57610135565b806323b872dd116100fd57806323b872dd14610235578063313ce5671461027257806339c94d2d1461029d5780635a3b6534146102c65780635dec5c39146102e257806370a082311461031f57610135565b8063060fbe581461013a57806306fdde0314610165578063095ea7b314610190578063158a18b6146101cd57806318160ddd1461020a575b600080fd5b34801561014657600080fd5b5061014f610556565b60405161015c919061183e565b60405180910390f35b34801561017157600080fd5b5061017a610710565b60405161018791906118e9565b60405180910390f35b34801561019c57600080fd5b506101b760048036038101906101b2919061199a565b6107a2565b6040516101c491906119f5565b60405180910390f35b3480156101d957600080fd5b506101f460048036038101906101ef9190611a10565b6107c5565b604051610201919061183e565b60405180910390f35b34801561021657600080fd5b5061021f61080e565b60405161022c919061183e565b60405180910390f35b34801561024157600080fd5b5061025c60048036038101906102579190611a3d565b610818565b60405161026991906119f5565b60405180910390f35b34801561027e57600080fd5b50610287610847565b6040516102949190611aac565b60405180910390f35b3480156102a957600080fd5b506102c460048036038101906102bf9190611ac7565b610850565b005b6102e060048036038101906102db9190611a3d565b6109ab565b005b3480156102ee57600080fd5b5061030960048036038101906103049190611a10565b610b81565b604051610316919061183e565b60405180910390f35b34801561032b57600080fd5b5061034660048036038101906103419190611a10565b610bca565b604051610353919061183e565b60405180910390f35b34801561036857600080fd5b50610383600480360381019061037e9190611a10565b610c12565b60405161039091906119f5565b60405180910390f35b3480156103a557600080fd5b506103ae610c32565b6040516103bb91906118e9565b60405180910390f35b3480156103d057600080fd5b506103d9610cc4565b6040516103e69190611b53565b60405180910390f35b3480156103fb57600080fd5b506104166004803603810190610411919061199a565b610cea565b60405161042391906119f5565b60405180910390f35b61044660048036038101906104419190611a3d565b610d0d565b005b34801561045457600080fd5b5061046f600480360381019061046a9190611ac7565b610ee3565b005b34801561047d57600080fd5b5061049860048036038101906104939190611ac7565b61103e565b6040516104a59190611b7d565b60405180910390f35b3480156104ba57600080fd5b506104c361107d565b6040516104d09190611bb9565b60405180910390f35b3480156104e557600080fd5b5061050060048036038101906104fb9190611bd4565b6110a3565b60405161050d919061183e565b60405180910390f35b34801561052257600080fd5b5061052b61112a565b005b34801561053957600080fd5b50610554600480360381019061054f9190611c14565b6111e6565b005b600080600090505b60098054905081101561070c5760016105b46009838154811061058457610583611c7b565b5b9060005260206000200160009054906101000a900473ffffffffffffffffffffffffffffffffffffffff16610bca565b10610662576001600a6000600984815481106105d3576105d2611c7b565b5b9060005260206000200160009054906101000a900473ffffffffffffffffffffffffffffffffffffffff1673ffffffffffffffffffffffffffffffffffffffff1673ffffffffffffffffffffffffffffffffffffffff16815260200190815260200160002060006101000a81548160ff021916908315150217905550818061065a90611cd9565b9250506106f9565b6000600a60006009848154811061067c5761067b611c7b565b5b9060005260206000200160009054906101000a900473ffffffffffffffffffffffffffffffffffffffff1673ffffffffffffffffffffffffffffffffffffffff1673ffffffffffffffffffffffffffffffffffffffff16815260200190815260200160002060006101000a81548160ff0219169083151502179055505b808061070490611cd9565b91505061055e565b5090565b60606003805461071f90611d50565b80601f016020809104026020016040519081016040528092919081815260200182805461074b90611d50565b80156107985780601f1061076d57610100808354040283529160200191610798565b820191906000526020600020905b81548152906001019060200180831161077b57829003601f168201915b5050505050905090565b6000806107ad611205565b90506107ba81858561120d565b600191505092915050565b6000600860008373ffffffffffffffffffffffffffffffffffffffff1673ffffffffffffffffffffffffffffffffffffffff168152602001908152602001600020549050919050565b6000600254905090565b600080610823611205565b905061083085828561121f565b61083b8585856112b3565b60019150509392505050565b60006012905090565b6000811161085d57600080fd5b80600560009054906101000a900473ffffffffffffffffffffffffffffffffffffffff1673ffffffffffffffffffffffffffffffffffffffff166370a08231336040518263ffffffff1660e01b81526004016108b99190611b7d565b602060405180830381865afa1580156108d6573d6000803e3d6000fd5b505050506040513d601f19601f820116820180604052508101906108fa9190611d96565b101561090557600080fd5b600560009054906101000a900473ffffffffffffffffffffffffffffffffffffffff1673ffffffffffffffffffffffffffffffffffffffff166323b872dd3330846040518463ffffffff1660e01b815260040161096493929190611dc3565b6020604051808303816000875af1158015610983573d6000803e3d6000fd5b505050506040513d601f19601f820116820180604052508101906109a79190611e26565b5050565b80600760008573ffffffffffffffffffffffffffffffffffffffff1673ffffffffffffffffffffffffffffffffffffffff168152602001908152602001600020541015610a2d576040517f08c379a0000000000000000000000000000000000000000000000000000000008152600401610a2490611e9f565b60405180910390fd5b80600760008573ffffffffffffffffffffffffffffffffffffffff1673ffffffffffffffffffffffffffffffffffffffff1681526020019081526020016000206000828254610a7c9190611ebf565b9250508190555080600760008473ffffffffffffffffffffffffffffffffffffffff1673ffffffffffffffffffffffffffffffffffffffff1681526020019081526020016000206000828254610ad29190611ef3565b92505081905550600560009054906101000a900473ffffffffffffffffffffffffffffffffffffffff1673ffffffffffffffffffffffffffffffffffffffff166323b872dd8484846040518463ffffffff1660e01b8152600401610b3893929190611dc3565b6020604051808303816000875af1158015610b57573d6000803e3d6000fd5b505050506040513d601f19601f82011682018060405250810190610b7b9190611e26565b50505050565b6000600760008373ffffffffffffffffffffffffffffffffffffffff1673ffffffffffffffffffffffffffffffffffffffff168152602001908152602001600020549050919050565b60008060008373ffffffffffffffffffffffffffffffffffffffff1673ffffffffffffffffffffffffffffffffffffffff168152602001908152602001600020549050919050565b600a6020528060005260406000206000915054906101000a900460ff1681565b606060048054610c4190611d50565b80601f0160208091040260200160405190810160405280929190818152602001828054610c6d90611d50565b8015610cba5780601f10610c8f57610100808354040283529160200191610cba565b820191906000526020600020905b815481529060010190602001808311610c9d57829003601f168201915b5050505050905090565b600560009054906101000a900473ffffffffffffffffffffffffffffffffffffffff1681565b600080610cf5611205565b9050610d028185856112b3565b600191505092915050565b80600860008573ffffffffffffffffffffffffffffffffffffffff1673ffffffffffffffffffffffffffffffffffffffff168152602001908152602001600020541015610d8f576040517f08c379a0000000000000000000000000000000000000000000000000000000008152600401610d8690611f73565b60405180910390fd5b80600860008573ffffffffffffffffffffffffffffffffffffffff1673ffffffffffffffffffffffffffffffffffffffff1681526020019081526020016000206000828254610dde9190611ebf565b9250508190555080600860008473ffffffffffffffffffffffffffffffffffffffff1673ffffffffffffffffffffffffffffffffffffffff1681526020019081526020016000206000828254610e349190611ef3565b92505081905550600660009054906101000a900473ffffffffffffffffffffffffffffffffffffffff1673ffffffffffffffffffffffffffffffffffffffff166323b872dd8484846040518463ffffffff1660e01b8152600401610e9a93929190611dc3565b6020604051808303816000875af1158015610eb9573d6000803e3d6000fd5b505050506040513d601f19601f82011682018060405250810190610edd9190611e26565b50505050565b60008111610ef057600080fd5b80600660009054906101000a900473ffffffffffffffffffffffffffffffffffffffff1673ffffffffffffffffffffffffffffffffffffffff166370a08231336040518263ffffffff1660e01b8152600401610f4c9190611b7d565b602060405180830381865afa158015610f69573d6000803e3d6000fd5b505050506040513d601f19601f82011682018060405250810190610f8d9190611d96565b1015610f9857600080fd5b600660009054906101000a900473ffffffffffffffffffffffffffffffffffffffff1673ffffffffffffffffffffffffffffffffffffffff166323b872dd3330846040518463ffffffff1660e01b8152600401610ff793929190611dc3565b6020604051808303816000875af1158015611016573d6000803e3d6000fd5b505050506040513d601f19601f8201168201806040525081019061103a9190611e26565b5050565b6009818154811061104e57600080fd5b906000526020600020016000915054906101000a900473ffffffffffffffffffffffffffffffffffffffff1681565b600660009054906101000a900473ffffffffffffffffffffffffffffffffffffffff1681565b6000600160008473ffffffffffffffffffffffffffffffffffffffff1673ffffffffffffffffffffffffffffffffffffffff16815260200190815260200160002060008373ffffffffffffffffffffffffffffffffffffffff1673ffffffffffffffffffffffffffffffffffffffff16815260200190815260200160002054905092915050565b600b60003373ffffffffffffffffffffffffffffffffffffffff1673ffffffffffffffffffffffffffffffffffffffff16815260200190815260200160002060009054906101000a900460ff161561118157600080fd5b61118c3360016113a7565b6001600b60003373ffffffffffffffffffffffffffffffffffffffff1673ffffffffffffffffffffffffffffffffffffffff16815260200190815260200160002060006101000a81548160ff021916908315150217905550565b3393506111f48484836109ab565b6111ff848484610d0d565b50505050565b600033905090565b61121a8383836001611429565b505050565b600061122b84846110a3565b90507fffffffffffffffffffffffffffffffffffffffffffffffffffffffffffffffff81146112ad578181101561129d578281836040517ffb8f41b200000000000000000000000000000000000000000000000000000000815260040161129493929190611f93565b60405180910390fd5b6112ac84848484036000611429565b5b50505050565b600073ffffffffffffffffffffffffffffffffffffffff168373ffffffffffffffffffffffffffffffffffffffff16036113255760006040517f96c6fd1e00000000000000000000000000000000000000000000000000000000815260040161131c9190611b7d565b60405180910390fd5b600073ffffffffffffffffffffffffffffffffffffffff168273ffffffffffffffffffffffffffffffffffffffff16036113975760006040517fec442f0500000000000000000000000000000000000000000000000000000000815260040161138e9190611b7d565b60405180910390fd5b6113a2838383611600565b505050565b600073ffffffffffffffffffffffffffffffffffffffff168273ffffffffffffffffffffffffffffffffffffffff16036114195760006040517fec442f050000000000000000000000000000000000000000000000000000000081526004016114109190611b7d565b60405180910390fd5b61142560008383611600565b5050565b600073ffffffffffffffffffffffffffffffffffffffff168473ffffffffffffffffffffffffffffffffffffffff160361149b5760006040517fe602df050000000000000000000000000000000000000000000000000000000081526004016114929190611b7d565b60405180910390fd5b600073ffffffffffffffffffffffffffffffffffffffff168373ffffffffffffffffffffffffffffffffffffffff160361150d5760006040517f94280d620000000000000000000000000000000000000000000000000000000081526004016115049190611b7d565b60405180910390fd5b81600160008673ffffffffffffffffffffffffffffffffffffffff1673ffffffffffffffffffffffffffffffffffffffff16815260200190815260200160002060008573ffffffffffffffffffffffffffffffffffffffff1673ffffffffffffffffffffffffffffffffffffffff1681526020019081526020016000208190555080156115fa578273ffffffffffffffffffffffffffffffffffffffff168473ffffffffffffffffffffffffffffffffffffffff167f8c5be1e5ebec7d5bd14f71427d1e84f3dd0314c0f7b2291e5b200ac8c7c3b925846040516115f1919061183e565b60405180910390a35b50505050565b600073ffffffffffffffffffffffffffffffffffffffff168373ffffffffffffffffffffffffffffffffffffffff16036116525780600260008282546116469190611ef3565b92505081905550611725565b60008060008573ffffffffffffffffffffffffffffffffffffffff1673ffffffffffffffffffffffffffffffffffffffff168152602001908152602001600020549050818110156116de578381836040517fe450d38c0000000000000000000000000000000000000000000000000000000081526004016116d593929190611f93565b60405180910390fd5b8181036000808673ffffffffffffffffffffffffffffffffffffffff1673ffffffffffffffffffffffffffffffffffffffff16815260200190815260200160002081905550505b600073ffffffffffffffffffffffffffffffffffffffff168273ffffffffffffffffffffffffffffffffffffffff160361176e57806002600082825403925050819055506117bb565b806000808473ffffffffffffffffffffffffffffffffffffffff1673ffffffffffffffffffffffffffffffffffffffff168152602001908152602001600020600082825401925050819055505b8173ffffffffffffffffffffffffffffffffffffffff168373ffffffffffffffffffffffffffffffffffffffff167fddf252ad1be2c89b69c2b068fc378daa952ba7f163c4a11628f55a4df523b3ef83604051611818919061183e565b60405180910390a3505050565b6000819050919050565b61183881611825565b82525050565b6000602082019050611853600083018461182f565b92915050565b600081519050919050565b600082825260208201905092915050565b60005b83811015611893578082015181840152602081019050611878565b60008484015250505050565b6000601f19601f8301169050919050565b60006118bb82611859565b6118c58185611864565b93506118d5818560208601611875565b6118de8161189f565b840191505092915050565b6000602082019050818103600083015261190381846118b0565b905092915050565b600080fd5b600073ffffffffffffffffffffffffffffffffffffffff82169050919050565b600061193b82611910565b9050919050565b61194b81611930565b811461195657600080fd5b50565b60008135905061196881611942565b92915050565b61197781611825565b811461198257600080fd5b50565b6000813590506119948161196e565b92915050565b600080604083850312156119b1576119b061190b565b5b60006119bf85828601611959565b92505060206119d085828601611985565b9150509250929050565b60008115159050919050565b6119ef816119da565b82525050565b6000602082019050611a0a60008301846119e6565b92915050565b600060208284031215611a2657611a2561190b565b5b6000611a3484828501611959565b91505092915050565b600080600060608486031215611a5657611a5561190b565b5b6000611a6486828701611959565b9350506020611a7586828701611959565b9250506040611a8686828701611985565b9150509250925092565b600060ff82169050919050565b611aa681611a90565b82525050565b6000602082019050611ac16000830184611a9d565b92915050565b600060208284031215611add57611adc61190b565b5b6000611aeb84828501611985565b91505092915050565b6000819050919050565b6000611b19611b14611b0f84611910565b611af4565b611910565b9050919050565b6000611b2b82611afe565b9050919050565b6000611b3d82611b20565b9050919050565b611b4d81611b32565b82525050565b6000602082019050611b686000830184611b44565b92915050565b611b7781611930565b82525050565b6000602082019050611b926000830184611b6e565b92915050565b6000611ba382611b20565b9050919050565b611bb381611b98565b82525050565b6000602082019050611bce6000830184611baa565b92915050565b60008060408385031215611beb57611bea61190b565b5b6000611bf985828601611959565b9250506020611c0a85828601611959565b9150509250929050565b60008060008060808587031215611c2e57611c2d61190b565b5b6000611c3c87828801611959565b9450506020611c4d87828801611959565b9350506040611c5e87828801611985565b9250506060611c6f87828801611985565b91505092959194509250565b7f4e487b7100000000000000000000000000000000000000000000000000000000600052603260045260246000fd5b7f4e487b7100000000000000000000000000000000000000000000000000000000600052601160045260246000fd5b6000611ce482611825565b91507fffffffffffffffffffffffffffffffffffffffffffffffffffffffffffffffff8203611d1657611d15611caa565b5b600182019050919050565b7f4e487b7100000000000000000000000000000000000000000000000000000000600052602260045260246000fd5b60006002820490506001821680611d6857607f821691505b602082108103611d7b57611d7a611d21565b5b50919050565b600081519050611d908161196e565b92915050565b600060208284031215611dac57611dab61190b565b5b6000611dba84828501611d81565b91505092915050565b6000606082019050611dd86000830186611b6e565b611de56020830185611b6e565b611df2604083018461182f565b949350505050565b611e03816119da565b8114611e0e57600080fd5b50565b600081519050611e2081611dfa565b92915050565b600060208284031215611e3c57611e3b61190b565b5b6000611e4a84828501611e11565b91505092915050565b7f496e73756666696369656e74204d79476f762062616c616e6365000000000000600082015250565b6000611e89601a83611864565b9150611e9482611e53565b602082019050919050565b60006020820190508181036000830152611eb881611e7c565b9050919050565b6000611eca82611825565b9150611ed583611825565b9250828203905081811115611eed57611eec611caa565b5b92915050565b6000611efe82611825565b9150611f0983611825565b9250828201905080821115611f2157611f20611caa565b5b92915050565b7f496e73756666696369656e74205553442062616c616e63650000000000000000600082015250565b6000611f5d601883611864565b9150611f6882611f27565b602082019050919050565b60006020820190508181036000830152611f8c81611f50565b9050919050565b6000606082019050611fa86000830186611b6e565b611fb5602083018561182f565b611fc2604083018461182f565b94935050505056fea2646970667358221220463782a52ec2eef881092dbe66dc626543d7c72ad99b70cd48fe55f200bd171364736f6c63430008140033",
  "linkReferences": {},
  "deployedLinkReferences": {}
}