{
  "_format": "hh-sol-artifact-1",
  "contractName": "Surveys",
  "sourceName": "contracts/Survey.sol",
  "abi": [
    {
      "inputs": [
        {
          "internalType": "address",
          "name": "_myGovTokenAddress",
          "type": "address"
        },
        {
          "internalType": "address",
          "name": "_usdStableCoinAddress",
          "type": "address"
        }
      ],
      "stateMutability": "nonpayable",
      "type": "constructor"
    },
    {
      "inputs": [
        {
          "internalType": "address",
          "name": "spender",
          "type": "address"
        },
        {
          "internalType": "uint256",
          "name": "allowance",
          "type": "uint256"
        },
        {
          "internalType": "uint256",
          "name": "needed",
          "type": "uint256"
        }
      ],
      "name": "ERC20InsufficientAllowance",
      "type": "error"
    },
    {
      "inputs": [
        {
          "internalType": "address",
          "name": "sender",
          "type": "address"
        },
        {
          "internalType": "uint256",
          "name": "balance",
          "type": "uint256"
        },
        {
          "internalType": "uint256",
          "name": "needed",
          "type": "uint256"
        }
      ],
      "name": "ERC20InsufficientBalance",
      "type": "error"
    },
    {
      "inputs": [
        {
          "internalType": "address",
          "name": "approver",
          "type": "address"
        }
      ],
      "name": "ERC20InvalidApprover",
      "type": "error"
    },
    {
      "inputs": [
        {
          "internalType": "address",
          "name": "receiver",
          "type": "address"
        }
      ],
      "name": "ERC20InvalidReceiver",
      "type": "error"
    },
    {
      "inputs": [
        {
          "internalType": "address",
          "name": "sender",
          "type": "address"
        }
      ],
      "name": "ERC20InvalidSender",
      "type": "error"
    },
    {
      "inputs": [
        {
          "internalType": "address",
          "name": "spender",
          "type": "address"
        }
      ],
      "name": "ERC20InvalidSpender",
      "type": "error"
    },
    {
      "anonymous": false,
      "inputs": [
        {
          "indexed": true,
          "internalType": "address",
          "name": "owner",
          "type": "address"
        },
        {
          "indexed": true,
          "internalType": "address",
          "name": "spender",
          "type": "address"
        },
        {
          "indexed": false,
          "internalType": "uint256",
          "name": "value",
          "type": "uint256"
        }
      ],
      "name": "Approval",
      "type": "event"
    },
    {
      "anonymous": false,
      "inputs": [
        {
          "indexed": true,
          "internalType": "uint256",
          "name": "surveyId",
          "type": "uint256"
        },
        {
          "indexed": true,
          "internalType": "address",
          "name": "surveyOwner",
          "type": "address"
        }
      ],
      "name": "SurveySubmitted",
      "type": "event"
    },
    {
      "anonymous": false,
      "inputs": [
        {
          "indexed": true,
          "internalType": "uint256",
          "name": "surveyId",
          "type": "uint256"
        },
        {
          "indexed": true,
          "internalType": "address",
          "name": "surveyTaker",
          "type": "address"
        },
        {
          "indexed": false,
          "internalType": "uint256[]",
          "name": "choices",
          "type": "uint256[]"
        }
      ],
      "name": "SurveyTaken",
      "type": "event"
    },
    {
      "anonymous": false,
      "inputs": [
        {
          "indexed": true,
          "internalType": "address",
          "name": "from",
          "type": "address"
        },
        {
          "indexed": true,
          "internalType": "address",
          "name": "to",
          "type": "address"
        },
        {
          "indexed": false,
          "internalType": "uint256",
          "name": "value",
          "type": "uint256"
        }
      ],
      "name": "Transfer",
      "type": "event"
    },
    {
      "inputs": [
        {
          "internalType": "address",
          "name": "sender",
          "type": "address"
        },
        {
          "internalType": "address",
          "name": "recipient",
          "type": "address"
        },
        {
          "internalType": "uint256",
          "name": "mygovamount",
          "type": "uint256"
        }
      ],
      "name": "_transferMyGov",
      "outputs": [],
      "stateMutability": "payable",
      "type": "function"
    },
    {
      "inputs": [
        {
          "internalType": "address",
          "name": "sender",
          "type": "address"
        },
        {
          "internalType": "address",
          "name": "recipient",
          "type": "address"
        },
        {
          "internalType": "uint256",
          "name": "usdamount",
          "type": "uint256"
        }
      ],
      "name": "_transferUSD",
      "outputs": [],
      "stateMutability": "payable",
      "type": "function"
    },
    {
      "inputs": [
        {
          "internalType": "uint256",
          "name": "",
          "type": "uint256"
        }
      ],
      "name": "allAddresses",
      "outputs": [
        {
          "internalType": "address",
          "name": "",
          "type": "address"
        }
      ],
      "stateMutability": "view",
      "type": "function"
    },
    {
      "inputs": [
        {
          "internalType": "address",
          "name": "owner",
          "type": "address"
        },
        {
          "internalType": "address",
          "name": "spender",
          "type": "address"
        }
      ],
      "name": "allowance",
      "outputs": [
        {
          "internalType": "uint256",
          "name": "",
          "type": "uint256"
        }
      ],
      "stateMutability": "view",
      "type": "function"
    },
    {
      "inputs": [
        {
          "internalType": "address",
          "name": "spender",
          "type": "address"
        },
        {
          "internalType": "uint256",
          "name": "value",
          "type": "uint256"
        }
      ],
      "name": "approve",
      "outputs": [
        {
          "internalType": "bool",
          "name": "",
          "type": "bool"
        }
      ],
      "stateMutability": "nonpayable",
      "type": "function"
    },
    {
      "inputs": [
        {
          "internalType": "address",
          "name": "account",
          "type": "address"
        }
      ],
      "name": "balanceOf",
      "outputs": [
        {
          "internalType": "uint256",
          "name": "",
          "type": "uint256"
        }
      ],
      "stateMutability": "view",
      "type": "function"
    },
    {
      "inputs": [],
      "name": "decimals",
      "outputs": [
        {
          "internalType": "uint8",
          "name": "",
          "type": "uint8"
        }
      ],
      "stateMutability": "view",
      "type": "function"
    },
    {
      "inputs": [
        {
          "internalType": "uint256",
          "name": "amount",
          "type": "uint256"
        }
      ],
      "name": "donateMyGovToken",
      "outputs": [],
      "stateMutability": "nonpayable",
      "type": "function"
    },
    {
      "inputs": [
        {
          "internalType": "uint256",
          "name": "amount",
          "type": "uint256"
        }
      ],
      "name": "donateUSD",
      "outputs": [],
      "stateMutability": "nonpayable",
      "type": "function"
    },
    {
      "inputs": [],
      "name": "faucet",
      "outputs": [],
      "stateMutability": "nonpayable",
      "type": "function"
    },
    {
      "inputs": [],
      "name": "getNoOfSurveys",
      "outputs": [
        {
          "internalType": "uint256",
          "name": "numSurveys",
          "type": "uint256"
        }
      ],
      "stateMutability": "view",
      "type": "function"
    },
    {
      "inputs": [
        {
          "internalType": "uint256",
          "name": "surveyId",
          "type": "uint256"
        }
      ],
      "name": "getSurveyInfo",
      "outputs": [
        {
          "internalType": "string",
          "name": "ipfsHash",
          "type": "string"
        },
        {
          "internalType": "uint256",
          "name": "surveyDeadline",
          "type": "uint256"
        },
        {
          "internalType": "uint256",
          "name": "numChoices",
          "type": "uint256"
        },
        {
          "internalType": "uint256",
          "name": "atMostChoice",
          "type": "uint256"
        }
      ],
      "stateMutability": "view",
      "type": "function"
    },
    {
      "inputs": [
        {
          "internalType": "uint256",
          "name": "surveyId",
          "type": "uint256"
        }
      ],
      "name": "getSurveyOwner",
      "outputs": [
        {
          "internalType": "address",
          "name": "surveyOwner",
          "type": "address"
        }
      ],
      "stateMutability": "view",
      "type": "function"
    },
    {
      "inputs": [
        {
          "internalType": "uint256",
          "name": "surveyId",
          "type": "uint256"
        }
      ],
      "name": "getSurveyResults",
      "outputs": [
        {
          "internalType": "uint256",
          "name": "numTaken",
          "type": "uint256"
        },
        {
          "internalType": "uint256[]",
          "name": "results",
          "type": "uint256[]"
        }
      ],
      "stateMutability": "view",
      "type": "function"
    },
    {
      "inputs": [
        {
          "internalType": "address",
          "name": "",
          "type": "address"
        },
        {
          "internalType": "uint256",
          "name": "",
          "type": "uint256"
        }
      ],
      "name": "hasTakenSurvey",
      "outputs": [
        {
          "internalType": "bool",
          "name": "",
          "type": "bool"
        }
      ],
      "stateMutability": "view",
      "type": "function"
    },
    {
      "inputs": [
        {
          "internalType": "address",
          "name": "",
          "type": "address"
        }
      ],
      "name": "memberstatus",
      "outputs": [
        {
          "internalType": "bool",
          "name": "",
          "type": "bool"
        }
      ],
      "stateMutability": "view",
      "type": "function"
    },
    {
      "inputs": [
        {
          "internalType": "address",
          "name": "account",
          "type": "address"
        }
      ],
      "name": "myGovBalanceOf",
      "outputs": [
        {
          "internalType": "uint256",
          "name": "",
          "type": "uint256"
        }
      ],
      "stateMutability": "view",
      "type": "function"
    },
    {
      "inputs": [],
      "name": "myGovToken",
      "outputs": [
        {
          "internalType": "contract MyGovToken",
          "name": "",
          "type": "address"
        }
      ],
      "stateMutability": "view",
      "type": "function"
    },
    {
      "inputs": [],
      "name": "name",
      "outputs": [
        {
          "internalType": "string",
          "name": "",
          "type": "string"
        }
      ],
      "stateMutability": "view",
      "type": "function"
    },
    {
      "inputs": [
        {
          "internalType": "string",
          "name": "ipfsHash",
          "type": "string"
        },
        {
          "internalType": "uint256",
          "name": "surveyDeadline",
          "type": "uint256"
        },
        {
          "internalType": "uint256",
          "name": "numChoices",
          "type": "uint256"
        },
        {
          "internalType": "uint256",
          "name": "atMostChoice",
          "type": "uint256"
        }
      ],
      "name": "submitSurvey",
      "outputs": [
        {
          "internalType": "uint256",
          "name": "surveyId",
          "type": "uint256"
        }
      ],
      "stateMutability": "nonpayable",
      "type": "function"
    },
    {
      "inputs": [
        {
          "internalType": "uint256",
          "name": "",
          "type": "uint256"
        }
      ],
      "name": "surveys",
      "outputs": [
        {
          "internalType": "string",
          "name": "ipfsHash",
          "type": "string"
        },
        {
          "internalType": "uint256",
          "name": "surveyDeadline",
          "type": "uint256"
        },
        {
          "internalType": "uint256",
          "name": "numChoices",
          "type": "uint256"
        },
        {
          "internalType": "uint256",
          "name": "atMostChoice",
          "type": "uint256"
        },
        {
          "internalType": "address",
          "name": "owner",
          "type": "address"
        },
        {
          "internalType": "uint256",
          "name": "takersCount",
          "type": "uint256"
        }
      ],
      "stateMutability": "view",
      "type": "function"
    },
    {
      "inputs": [],
      "name": "symbol",
      "outputs": [
        {
          "internalType": "string",
          "name": "",
          "type": "string"
        }
      ],
      "stateMutability": "view",
      "type": "function"
    },
    {
      "inputs": [
        {
          "internalType": "uint256",
          "name": "surveyId",
          "type": "uint256"
        },
        {
          "internalType": "uint256[]",
          "name": "choices",
          "type": "uint256[]"
        }
      ],
      "name": "takeSurvey",
      "outputs": [],
      "stateMutability": "nonpayable",
      "type": "function"
    },
    {
      "inputs": [],
      "name": "totalSupply",
      "outputs": [
        {
          "internalType": "uint256",
          "name": "",
          "type": "uint256"
        }
      ],
      "stateMutability": "view",
      "type": "function"
    },
    {
      "inputs": [
        {
          "internalType": "address",
          "name": "to",
          "type": "address"
        },
        {
          "internalType": "uint256",
          "name": "value",
          "type": "uint256"
        }
      ],
      "name": "transfer",
      "outputs": [
        {
          "internalType": "bool",
          "name": "",
          "type": "bool"
        }
      ],
      "stateMutability": "nonpayable",
      "type": "function"
    },
    {
      "inputs": [
        {
          "internalType": "address",
          "name": "sender",
          "type": "address"
        },
        {
          "internalType": "address",
          "name": "recipient",
          "type": "address"
        },
        {
          "internalType": "uint256",
          "name": "usdamount",
          "type": "uint256"
        },
        {
          "internalType": "uint256",
          "name": "mygovamount",
          "type": "uint256"
        }
      ],
      "name": "transferAll",
      "outputs": [],
      "stateMutability": "nonpayable",
      "type": "function"
    },
    {
      "inputs": [
        {
          "internalType": "address",
          "name": "from",
          "type": "address"
        },
        {
          "internalType": "address",
          "name": "to",
          "type": "address"
        },
        {
          "internalType": "uint256",
          "name": "value",
          "type": "uint256"
        }
      ],
      "name": "transferFrom",
      "outputs": [
        {
          "internalType": "bool",
          "name": "",
          "type": "bool"
        }
      ],
      "stateMutability": "nonpayable",
      "type": "function"
    },
    {
      "inputs": [],
      "name": "updateAndGetTotalMembers",
      "outputs": [
        {
          "internalType": "uint256",
          "name": "totalMembers",
          "type": "uint256"
        }
      ],
      "stateMutability": "nonpayable",
      "type": "function"
    },
    {
      "inputs": [
        {
          "internalType": "address",
          "name": "account",
          "type": "address"
        }
      ],
      "name": "usdBalanceOf",
      "outputs": [
        {
          "internalType": "uint256",
          "name": "",
          "type": "uint256"
        }
      ],
      "stateMutability": "view",
      "type": "function"
    },
    {
      "inputs": [],
      "name": "usdStableCoin",
      "outputs": [
        {
          "internalType": "contract USDStablecoin",
          "name": "",
          "type": "address"
        }
      ],
      "stateMutability": "view",
      "type": "function"
    }
  ],
  "bytecode": "0x60806040523480156200001157600080fd5b5060405162003b6738038062003b67833981810160405281019062000037919062000243565b81816040518060400160405280600b81526020017f4d79476f7620546f6b656e0000000000000000000000000000000000000000008152506040518060400160405280600281526020017f4d470000000000000000000000000000000000000000000000000000000000008152508160039081620000b6919062000504565b508060049081620000c8919062000504565b50505081600560006101000a81548173ffffffffffffffffffffffffffffffffffffffff021916908373ffffffffffffffffffffffffffffffffffffffff16021790555080600660006101000a81548173ffffffffffffffffffffffffffffffffffffffff021916908373ffffffffffffffffffffffffffffffffffffffff160217905550505081600c60006101000a81548173ffffffffffffffffffffffffffffffffffffffff021916908373ffffffffffffffffffffffffffffffffffffffff16021790555080600d60006101000a81548173ffffffffffffffffffffffffffffffffffffffff021916908373ffffffffffffffffffffffffffffffffffffffff1602179055505050620005eb565b600080fd5b600073ffffffffffffffffffffffffffffffffffffffff82169050919050565b60006200020b82620001de565b9050919050565b6200021d81620001fe565b81146200022957600080fd5b50565b6000815190506200023d8162000212565b92915050565b600080604083850312156200025d576200025c620001d9565b5b60006200026d858286016200022c565b925050602062000280858286016200022c565b9150509250929050565b600081519050919050565b7f4e487b7100000000000000000000000000000000000000000000000000000000600052604160045260246000fd5b7f4e487b7100000000000000000000000000000000000000000000000000000000600052602260045260246000fd5b600060028204905060018216806200030c57607f821691505b602082108103620003225762000321620002c4565b5b50919050565b60008190508160005260206000209050919050565b60006020601f8301049050919050565b600082821b905092915050565b6000600883026200038c7fffffffffffffffffffffffffffffffffffffffffffffffffffffffffffffffff826200034d565b6200039886836200034d565b95508019841693508086168417925050509392505050565b6000819050919050565b6000819050919050565b6000620003e5620003df620003d984620003b0565b620003ba565b620003b0565b9050919050565b6000819050919050565b6200040183620003c4565b620004196200041082620003ec565b8484546200035a565b825550505050565b600090565b6200043062000421565b6200043d818484620003f6565b505050565b5b8181101562000465576200045960008262000426565b60018101905062000443565b5050565b601f821115620004b4576200047e8162000328565b62000489846200033d565b8101602085101562000499578190505b620004b1620004a8856200033d565b83018262000442565b50505b505050565b600082821c905092915050565b6000620004d960001984600802620004b9565b1980831691505092915050565b6000620004f48383620004c6565b9150826002028217905092915050565b6200050f826200028a565b67ffffffffffffffff8111156200052b576200052a62000295565b5b620005378254620002f3565b6200054482828562000469565b600060209050601f8311600181146200057c576000841562000567578287015190505b620005738582620004e6565b865550620005e3565b601f1984166200058c8662000328565b60005b82811015620005b6578489015182556001820191506020850194506020810190506200058f565b86831015620005d65784890151620005d2601f891682620004c6565b8355505b6001600288020188555050505b505050505050565b61356c80620005fb6000396000f3fe6080604052600436106101cd5760003560e01c806386e68b90116100f7578063aeeeebe711610095578063dd62ed3e11610064578063dd62ed3e146106ff578063de5f72fd1461073c578063e166c3b014610753578063ef269ae31461077c576101cd565b8063aeeeebe714610652578063d915902e1461066e578063dacc537014610697578063dcb57dc0146106d4576101cd565b806395d89b41116100d157806395d89b4114610582578063975d82be146105ad5780639fd0915d146105d8578063a9059cbb14610615576101cd565b806386e68b90146104c6578063875b5076146105085780638f82701814610545576101cd565b8063313ce5671161016f5780635dec5c391161013e5780635dec5c39146103e5578063702798df1461042257806370a082311461044b57806370a56c7314610488576101cd565b8063313ce5671461034a57806339c94d2d146103755780635a3b65341461039e5780635d801b37146103ba576101cd565b8063158a18b6116101ab578063158a18b61461026557806318160ddd146102a257806323b872dd146102cd5780632e8f34131461030a576101cd565b8063060fbe58146101d257806306fdde03146101fd578063095ea7b314610228575b600080fd5b3480156101de57600080fd5b506101e76107b9565b6040516101f491906125a3565b60405180910390f35b34801561020957600080fd5b50610212610973565b60405161021f919061264e565b60405180910390f35b34801561023457600080fd5b5061024f600480360381019061024a919061270e565b610a05565b60405161025c9190612769565b60405180910390f35b34801561027157600080fd5b5061028c60048036038101906102879190612784565b610a28565b60405161029991906125a3565b60405180910390f35b3480156102ae57600080fd5b506102b7610a71565b6040516102c491906125a3565b60405180910390f35b3480156102d957600080fd5b506102f460048036038101906102ef91906127b1565b610a7b565b6040516103019190612769565b60405180910390f35b34801561031657600080fd5b50610331600480360381019061032c9190612804565b610aaa565b6040516103419493929190612831565b60405180910390f35b34801561035657600080fd5b5061035f610bf4565b60405161036c9190612899565b60405180910390f35b34801561038157600080fd5b5061039c60048036038101906103979190612804565b610bfd565b005b6103b860048036038101906103b391906127b1565b610d58565b005b3480156103c657600080fd5b506103cf610f2e565b6040516103dc91906125a3565b60405180910390f35b3480156103f157600080fd5b5061040c60048036038101906104079190612784565b610f3b565b60405161041991906125a3565b60405180910390f35b34801561042e57600080fd5b50610449600480360381019061044491906129fc565b610f84565b005b34801561045757600080fd5b50610472600480360381019061046d9190612784565b6111f4565b60405161047f91906125a3565b60405180910390f35b34801561049457600080fd5b506104af60048036038101906104aa9190612804565b61123c565b6040516104bd929190612b16565b60405180910390f35b3480156104d257600080fd5b506104ed60048036038101906104e89190612804565b6112f7565b6040516104ff96959493929190612b55565b60405180910390f35b34801561051457600080fd5b5061052f600480360381019061052a9190612804565b6113eb565b60405161053c9190612bbd565b60405180910390f35b34801561055157600080fd5b5061056c60048036038101906105679190612784565b61144b565b6040516105799190612769565b60405180910390f35b34801561058e57600080fd5b5061059761146b565b6040516105a4919061264e565b60405180910390f35b3480156105b957600080fd5b506105c26114fd565b6040516105cf9190612c37565b60405180910390f35b3480156105e457600080fd5b506105ff60048036038101906105fa919061270e565b611523565b60405161060c9190612769565b60405180910390f35b34801561062157600080fd5b5061063c6004803603810190610637919061270e565b611552565b6040516106499190612769565b60405180910390f35b61066c600480360381019061066791906127b1565b611575565b005b34801561067a57600080fd5b5061069560048036038101906106909190612804565b61174b565b005b3480156106a357600080fd5b506106be60048036038101906106b99190612804565b6118a6565b6040516106cb9190612bbd565b60405180910390f35b3480156106e057600080fd5b506106e96118e5565b6040516106f69190612c73565b60405180910390f35b34801561070b57600080fd5b5061072660048036038101906107219190612c8e565b61190b565b60405161073391906125a3565b60405180910390f35b34801561074857600080fd5b50610751611992565b005b34801561075f57600080fd5b5061077a60048036038101906107759190612cce565b611a4e565b005b34801561078857600080fd5b506107a3600480360381019061079e9190612dea565b611a6d565b6040516107b091906125a3565b60405180910390f35b600080600090505b60098054905081101561096f576001610817600983815481106107e7576107e6612e6d565b5b9060005260206000200160009054906101000a900473ffffffffffffffffffffffffffffffffffffffff166111f4565b106108c5576001600a60006009848154811061083657610835612e6d565b5b9060005260206000200160009054906101000a900473ffffffffffffffffffffffffffffffffffffffff1673ffffffffffffffffffffffffffffffffffffffff1673ffffffffffffffffffffffffffffffffffffffff16815260200190815260200160002060006101000a81548160ff02191690831515021790555081806108bd90612ecb565b92505061095c565b6000600a6000600984815481106108df576108de612e6d565b5b9060005260206000200160009054906101000a900473ffffffffffffffffffffffffffffffffffffffff1673ffffffffffffffffffffffffffffffffffffffff1673ffffffffffffffffffffffffffffffffffffffff16815260200190815260200160002060006101000a81548160ff0219169083151502179055505b808061096790612ecb565b9150506107c1565b5090565b60606003805461098290612f42565b80601f01602080910402602001604051908101604052809291908181526020018280546109ae90612f42565b80156109fb5780601f106109d0576101008083540402835291602001916109fb565b820191906000526020600020905b8154815290600101906020018083116109de57829003601f168201915b5050505050905090565b600080610a10611f00565b9050610a1d818585611f08565b600191505092915050565b6000600860008373ffffffffffffffffffffffffffffffffffffffff1673ffffffffffffffffffffffffffffffffffffffff168152602001908152602001600020549050919050565b6000600254905090565b600080610a86611f00565b9050610a93858285611f1a565b610a9e858585611fae565b60019150509392505050565b60606000806000600e805490508510610ac257600080fd5b600e8581548110610ad657610ad5612e6d565b5b9060005260206000209060070201600001600e8681548110610afb57610afa612e6d565b5b906000526020600020906007020160010154600e8781548110610b2157610b20612e6d565b5b906000526020600020906007020160020154600e8881548110610b4757610b46612e6d565b5b906000526020600020906007020160030154838054610b6590612f42565b80601f0160208091040260200160405190810160405280929190818152602001828054610b9190612f42565b8015610bde5780601f10610bb357610100808354040283529160200191610bde565b820191906000526020600020905b815481529060010190602001808311610bc157829003601f168201915b5050505050935093509350935093509193509193565b60006012905090565b60008111610c0a57600080fd5b80600560009054906101000a900473ffffffffffffffffffffffffffffffffffffffff1673ffffffffffffffffffffffffffffffffffffffff166370a08231336040518263ffffffff1660e01b8152600401610c669190612bbd565b602060405180830381865afa158015610c83573d6000803e3d6000fd5b505050506040513d601f19601f82011682018060405250810190610ca79190612f88565b1015610cb257600080fd5b600560009054906101000a900473ffffffffffffffffffffffffffffffffffffffff1673ffffffffffffffffffffffffffffffffffffffff166323b872dd3330846040518463ffffffff1660e01b8152600401610d1193929190612fb5565b6020604051808303816000875af1158015610d30573d6000803e3d6000fd5b505050506040513d601f19601f82011682018060405250810190610d549190613018565b5050565b80600760008573ffffffffffffffffffffffffffffffffffffffff1673ffffffffffffffffffffffffffffffffffffffff168152602001908152602001600020541015610dda576040517f08c379a0000000000000000000000000000000000000000000000000000000008152600401610dd190613091565b60405180910390fd5b80600760008573ffffffffffffffffffffffffffffffffffffffff1673ffffffffffffffffffffffffffffffffffffffff1681526020019081526020016000206000828254610e2991906130b1565b9250508190555080600760008473ffffffffffffffffffffffffffffffffffffffff1673ffffffffffffffffffffffffffffffffffffffff1681526020019081526020016000206000828254610e7f91906130e5565b92505081905550600560009054906101000a900473ffffffffffffffffffffffffffffffffffffffff1673ffffffffffffffffffffffffffffffffffffffff166323b872dd8484846040518463ffffffff1660e01b8152600401610ee593929190612fb5565b6020604051808303816000875af1158015610f04573d6000803e3d6000fd5b505050506040513d601f19601f82011682018060405250810190610f289190613018565b50505050565b6000600e80549050905090565b6000600760008373ffffffffffffffffffffffffffffffffffffffff1673ffffffffffffffffffffffffffffffffffffffff168152602001908152602001600020549050919050565b600e805490508210610f9557600080fd5b6000600e8381548110610fab57610faa612e6d565b5b906000526020600020906007020190508060010154421115801561101f57503373ffffffffffffffffffffffffffffffffffffffff168160050160009054906101000a900473ffffffffffffffffffffffffffffffffffffffff1673ffffffffffffffffffffffffffffffffffffffff1614155b80156110865750600f60003373ffffffffffffffffffffffffffffffffffffffff1673ffffffffffffffffffffffffffffffffffffffff168152602001908152602001600020600084815260200190815260200160002060009054906101000a900460ff16155b8015611093575060008251115b80156110a457508060030154825111155b6110ad57600080fd5b60005b825181101561111c57816004018382815181106110d0576110cf612e6d565b5b6020026020010151815481106110e9576110e8612e6d565b5b90600052602060002001600081548092919061110490612ecb565b9190505550808061111490612ecb565b9150506110b0565b5080600601600081548092919061113290612ecb565b91905055506001600f60003373ffffffffffffffffffffffffffffffffffffffff1673ffffffffffffffffffffffffffffffffffffffff168152602001908152602001600020600085815260200190815260200160002060006101000a81548160ff0219169083151502179055503373ffffffffffffffffffffffffffffffffffffffff16837f9dd4fa598ec5e67711f29c8bf918a00e611632c37588d321e6d45ae933246ef6846040516111e79190613119565b60405180910390a3505050565b60008060008373ffffffffffffffffffffffffffffffffffffffff1673ffffffffffffffffffffffffffffffffffffffff168152602001908152602001600020549050919050565b60006060600e80549050831061125157600080fd5b600e838154811061126557611264612e6d565b5b906000526020600020906007020160060154600e848154811061128b5761128a612e6d565b5b9060005260206000209060070201600401808054806020026020016040519081016040528092919081815260200182805480156112e757602002820191906000526020600020905b8154815260200190600101908083116112d3575b5050505050905091509150915091565b600e818154811061130757600080fd5b906000526020600020906007020160009150905080600001805461132a90612f42565b80601f016020809104026020016040519081016040528092919081815260200182805461135690612f42565b80156113a35780601f10611378576101008083540402835291602001916113a3565b820191906000526020600020905b81548152906001019060200180831161138657829003601f168201915b5050505050908060010154908060020154908060030154908060050160009054906101000a900473ffffffffffffffffffffffffffffffffffffffff16908060060154905086565b6000600e8054905082106113fe57600080fd5b600e828154811061141257611411612e6d565b5b906000526020600020906007020160050160009054906101000a900473ffffffffffffffffffffffffffffffffffffffff169050919050565b600a6020528060005260406000206000915054906101000a900460ff1681565b60606004805461147a90612f42565b80601f01602080910402602001604051908101604052809291908181526020018280546114a690612f42565b80156114f35780601f106114c8576101008083540402835291602001916114f3565b820191906000526020600020905b8154815290600101906020018083116114d657829003601f168201915b5050505050905090565b600560009054906101000a900473ffffffffffffffffffffffffffffffffffffffff1681565b600f6020528160005260406000206020528060005260406000206000915091509054906101000a900460ff1681565b60008061155d611f00565b905061156a818585611fae565b600191505092915050565b80600860008573ffffffffffffffffffffffffffffffffffffffff1673ffffffffffffffffffffffffffffffffffffffff1681526020019081526020016000205410156115f7576040517f08c379a00000000000000000000000000000000000000000000000000000000081526004016115ee90613187565b60405180910390fd5b80600860008573ffffffffffffffffffffffffffffffffffffffff1673ffffffffffffffffffffffffffffffffffffffff168152602001908152602001600020600082825461164691906130b1565b9250508190555080600860008473ffffffffffffffffffffffffffffffffffffffff1673ffffffffffffffffffffffffffffffffffffffff168152602001908152602001600020600082825461169c91906130e5565b92505081905550600660009054906101000a900473ffffffffffffffffffffffffffffffffffffffff1673ffffffffffffffffffffffffffffffffffffffff166323b872dd8484846040518463ffffffff1660e01b815260040161170293929190612fb5565b6020604051808303816000875af1158015611721573d6000803e3d6000fd5b505050506040513d601f19601f820116820180604052508101906117459190613018565b50505050565b6000811161175857600080fd5b80600660009054906101000a900473ffffffffffffffffffffffffffffffffffffffff1673ffffffffffffffffffffffffffffffffffffffff166370a08231336040518263ffffffff1660e01b81526004016117b49190612bbd565b602060405180830381865afa1580156117d1573d6000803e3d6000fd5b505050506040513d601f19601f820116820180604052508101906117f59190612f88565b101561180057600080fd5b600660009054906101000a900473ffffffffffffffffffffffffffffffffffffffff1673ffffffffffffffffffffffffffffffffffffffff166323b872dd3330846040518463ffffffff1660e01b815260040161185f93929190612fb5565b6020604051808303816000875af115801561187e573d6000803e3d6000fd5b505050506040513d601f19601f820116820180604052508101906118a29190613018565b5050565b600981815481106118b657600080fd5b906000526020600020016000915054906101000a900473ffffffffffffffffffffffffffffffffffffffff1681565b600660009054906101000a900473ffffffffffffffffffffffffffffffffffffffff1681565b6000600160008473ffffffffffffffffffffffffffffffffffffffff1673ffffffffffffffffffffffffffffffffffffffff16815260200190815260200160002060008373ffffffffffffffffffffffffffffffffffffffff1673ffffffffffffffffffffffffffffffffffffffff16815260200190815260200160002054905092915050565b600b60003373ffffffffffffffffffffffffffffffffffffffff1673ffffffffffffffffffffffffffffffffffffffff16815260200190815260200160002060009054906101000a900460ff16156119e957600080fd5b6119f43360016120a2565b6001600b60003373ffffffffffffffffffffffffffffffffffffffff1673ffffffffffffffffffffffffffffffffffffffff16815260200190815260200160002060006101000a81548160ff021916908315150217905550565b339350611a5c848483610d58565b611a67848484611575565b50505050565b60008342108015611a7f575060028310155b8015611a8c575060018210155b8015611a985750818310155b8015611b4057506002600560009054906101000a900473ffffffffffffffffffffffffffffffffffffffff1673ffffffffffffffffffffffffffffffffffffffff166370a08231336040518263ffffffff1660e01b8152600401611afc9190612bbd565b602060405180830381865afa158015611b19573d6000803e3d6000fd5b505050506040513d601f19601f82011682018060405250810190611b3d9190612f88565b10155b8015611be857506005600660009054906101000a900473ffffffffffffffffffffffffffffffffffffffff1673ffffffffffffffffffffffffffffffffffffffff166370a08231336040518263ffffffff1660e01b8152600401611ba49190612bbd565b602060405180830381865afa158015611bc1573d6000803e3d6000fd5b505050506040513d601f19601f82011682018060405250810190611be59190612f88565b10155b611bf157600080fd5b600560009054906101000a900473ffffffffffffffffffffffffffffffffffffffff1673ffffffffffffffffffffffffffffffffffffffff166323b872dd333060026040518463ffffffff1660e01b8152600401611c51939291906131e2565b6020604051808303816000875af1158015611c70573d6000803e3d6000fd5b505050506040513d601f19601f82011682018060405250810190611c949190613018565b50600660009054906101000a900473ffffffffffffffffffffffffffffffffffffffff1673ffffffffffffffffffffffffffffffffffffffff166323b872dd333060056040518463ffffffff1660e01b8152600401611cf593929190613254565b6020604051808303816000875af1158015611d14573d6000803e3d6000fd5b505050506040513d601f19601f82011682018060405250810190611d389190613018565b5060006040518060e001604052808781526020018681526020018581526020018481526020018567ffffffffffffffff811115611d7857611d776128b9565b5b604051908082528060200260200182016040528015611da65781602001602082028036833780820191505090505b5081526020013373ffffffffffffffffffffffffffffffffffffffff16815260200160008152509050600e8190806001815401808255809150506001900390600052602060002090600702016000909190919091506000820151816000019081611e10919061342d565b506020820151816001015560408201518160020155606082015181600301556080820151816004019080519060200190611e4b929190612520565b5060a08201518160050160006101000a81548173ffffffffffffffffffffffffffffffffffffffff021916908373ffffffffffffffffffffffffffffffffffffffff16021790555060c0820151816006015550506001600e80549050611eb191906130b1565b91503373ffffffffffffffffffffffffffffffffffffffff16827fcdad06bb3a3fa7d9ee4517f89680dddf8ef0e00d995ae8f02b3450f9d3d28eb460405160405180910390a350949350505050565b600033905090565b611f158383836001612124565b505050565b6000611f26848461190b565b90507fffffffffffffffffffffffffffffffffffffffffffffffffffffffffffffffff8114611fa85781811015611f98578281836040517ffb8f41b2000000000000000000000000000000000000000000000000000000008152600401611f8f939291906134ff565b60405180910390fd5b611fa784848484036000612124565b5b50505050565b600073ffffffffffffffffffffffffffffffffffffffff168373ffffffffffffffffffffffffffffffffffffffff16036120205760006040517f96c6fd1e0000000000000000000000000000000000000000000000000000000081526004016120179190612bbd565b60405180910390fd5b600073ffffffffffffffffffffffffffffffffffffffff168273ffffffffffffffffffffffffffffffffffffffff16036120925760006040517fec442f050000000000000000000000000000000000000000000000000000000081526004016120899190612bbd565b60405180910390fd5b61209d8383836122fb565b505050565b600073ffffffffffffffffffffffffffffffffffffffff168273ffffffffffffffffffffffffffffffffffffffff16036121145760006040517fec442f0500000000000000000000000000000000000000000000000000000000815260040161210b9190612bbd565b60405180910390fd5b612120600083836122fb565b5050565b600073ffffffffffffffffffffffffffffffffffffffff168473ffffffffffffffffffffffffffffffffffffffff16036121965760006040517fe602df0500000000000000000000000000000000000000000000000000000000815260040161218d9190612bbd565b60405180910390fd5b600073ffffffffffffffffffffffffffffffffffffffff168373ffffffffffffffffffffffffffffffffffffffff16036122085760006040517f94280d620000000000000000000000000000000000000000000000000000000081526004016121ff9190612bbd565b60405180910390fd5b81600160008673ffffffffffffffffffffffffffffffffffffffff1673ffffffffffffffffffffffffffffffffffffffff16815260200190815260200160002060008573ffffffffffffffffffffffffffffffffffffffff1673ffffffffffffffffffffffffffffffffffffffff1681526020019081526020016000208190555080156122f5578273ffffffffffffffffffffffffffffffffffffffff168473ffffffffffffffffffffffffffffffffffffffff167f8c5be1e5ebec7d5bd14f71427d1e84f3dd0314c0f7b2291e5b200ac8c7c3b925846040516122ec91906125a3565b60405180910390a35b50505050565b600073ffffffffffffffffffffffffffffffffffffffff168373ffffffffffffffffffffffffffffffffffffffff160361234d57806002600082825461234191906130e5565b92505081905550612420565b60008060008573ffffffffffffffffffffffffffffffffffffffff1673ffffffffffffffffffffffffffffffffffffffff168152602001908152602001600020549050818110156123d9578381836040517fe450d38c0000000000000000000000000000000000000000000000000000000081526004016123d0939291906134ff565b60405180910390fd5b8181036000808673ffffffffffffffffffffffffffffffffffffffff1673ffffffffffffffffffffffffffffffffffffffff16815260200190815260200160002081905550505b600073ffffffffffffffffffffffffffffffffffffffff168273ffffffffffffffffffffffffffffffffffffffff160361246957806002600082825403925050819055506124b6565b806000808473ffffffffffffffffffffffffffffffffffffffff1673ffffffffffffffffffffffffffffffffffffffff168152602001908152602001600020600082825401925050819055505b8173ffffffffffffffffffffffffffffffffffffffff168373ffffffffffffffffffffffffffffffffffffffff167fddf252ad1be2c89b69c2b068fc378daa952ba7f163c4a11628f55a4df523b3ef8360405161251391906125a3565b60405180910390a3505050565b82805482825590600052602060002090810192821561255c579160200282015b8281111561255b578251825591602001919060010190612540565b5b509050612569919061256d565b5090565b5b8082111561258657600081600090555060010161256e565b5090565b6000819050919050565b61259d8161258a565b82525050565b60006020820190506125b86000830184612594565b92915050565b600081519050919050565b600082825260208201905092915050565b60005b838110156125f85780820151818401526020810190506125dd565b60008484015250505050565b6000601f19601f8301169050919050565b6000612620826125be565b61262a81856125c9565b935061263a8185602086016125da565b61264381612604565b840191505092915050565b600060208201905081810360008301526126688184612615565b905092915050565b6000604051905090565b600080fd5b600080fd5b600073ffffffffffffffffffffffffffffffffffffffff82169050919050565b60006126af82612684565b9050919050565b6126bf816126a4565b81146126ca57600080fd5b50565b6000813590506126dc816126b6565b92915050565b6126eb8161258a565b81146126f657600080fd5b50565b600081359050612708816126e2565b92915050565b600080604083850312156127255761272461267a565b5b6000612733858286016126cd565b9250506020612744858286016126f9565b9150509250929050565b60008115159050919050565b6127638161274e565b82525050565b600060208201905061277e600083018461275a565b92915050565b60006020828403121561279a5761279961267a565b5b60006127a8848285016126cd565b91505092915050565b6000806000606084860312156127ca576127c961267a565b5b60006127d8868287016126cd565b93505060206127e9868287016126cd565b92505060406127fa868287016126f9565b9150509250925092565b60006020828403121561281a5761281961267a565b5b6000612828848285016126f9565b91505092915050565b6000608082019050818103600083015261284b8187612615565b905061285a6020830186612594565b6128676040830185612594565b6128746060830184612594565b95945050505050565b600060ff82169050919050565b6128938161287d565b82525050565b60006020820190506128ae600083018461288a565b92915050565b600080fd5b7f4e487b7100000000000000000000000000000000000000000000000000000000600052604160045260246000fd5b6128f182612604565b810181811067ffffffffffffffff821117156129105761290f6128b9565b5b80604052505050565b6000612923612670565b905061292f82826128e8565b919050565b600067ffffffffffffffff82111561294f5761294e6128b9565b5b602082029050602081019050919050565b600080fd5b600061297861297384612934565b612919565b9050808382526020820190506020840283018581111561299b5761299a612960565b5b835b818110156129c457806129b088826126f9565b84526020840193505060208101905061299d565b5050509392505050565b600082601f8301126129e3576129e26128b4565b5b81356129f3848260208601612965565b91505092915050565b60008060408385031215612a1357612a1261267a565b5b6000612a21858286016126f9565b925050602083013567ffffffffffffffff811115612a4257612a4161267f565b5b612a4e858286016129ce565b9150509250929050565b600081519050919050565b600082825260208201905092915050565b6000819050602082019050919050565b612a8d8161258a565b82525050565b6000612a9f8383612a84565b60208301905092915050565b6000602082019050919050565b6000612ac382612a58565b612acd8185612a63565b9350612ad883612a74565b8060005b83811015612b09578151612af08882612a93565b9750612afb83612aab565b925050600181019050612adc565b5085935050505092915050565b6000604082019050612b2b6000830185612594565b8181036020830152612b3d8184612ab8565b90509392505050565b612b4f816126a4565b82525050565b600060c0820190508181036000830152612b6f8189612615565b9050612b7e6020830188612594565b612b8b6040830187612594565b612b986060830186612594565b612ba56080830185612b46565b612bb260a0830184612594565b979650505050505050565b6000602082019050612bd26000830184612b46565b92915050565b6000819050919050565b6000612bfd612bf8612bf384612684565b612bd8565b612684565b9050919050565b6000612c0f82612be2565b9050919050565b6000612c2182612c04565b9050919050565b612c3181612c16565b82525050565b6000602082019050612c4c6000830184612c28565b92915050565b6000612c5d82612c04565b9050919050565b612c6d81612c52565b82525050565b6000602082019050612c886000830184612c64565b92915050565b60008060408385031215612ca557612ca461267a565b5b6000612cb3858286016126cd565b9250506020612cc4858286016126cd565b9150509250929050565b60008060008060808587031215612ce857612ce761267a565b5b6000612cf6878288016126cd565b9450506020612d07878288016126cd565b9350506040612d18878288016126f9565b9250506060612d29878288016126f9565b91505092959194509250565b600080fd5b600067ffffffffffffffff821115612d5557612d546128b9565b5b612d5e82612604565b9050602081019050919050565b82818337600083830152505050565b6000612d8d612d8884612d3a565b612919565b905082815260208101848484011115612da957612da8612d35565b5b612db4848285612d6b565b509392505050565b600082601f830112612dd157612dd06128b4565b5b8135612de1848260208601612d7a565b91505092915050565b60008060008060808587031215612e0457612e0361267a565b5b600085013567ffffffffffffffff811115612e2257612e2161267f565b5b612e2e87828801612dbc565b9450506020612e3f878288016126f9565b9350506040612e50878288016126f9565b9250506060612e61878288016126f9565b91505092959194509250565b7f4e487b7100000000000000000000000000000000000000000000000000000000600052603260045260246000fd5b7f4e487b7100000000000000000000000000000000000000000000000000000000600052601160045260246000fd5b6000612ed68261258a565b91507fffffffffffffffffffffffffffffffffffffffffffffffffffffffffffffffff8203612f0857612f07612e9c565b5b600182019050919050565b7f4e487b7100000000000000000000000000000000000000000000000000000000600052602260045260246000fd5b60006002820490506001821680612f5a57607f821691505b602082108103612f6d57612f6c612f13565b5b50919050565b600081519050612f82816126e2565b92915050565b600060208284031215612f9e57612f9d61267a565b5b6000612fac84828501612f73565b91505092915050565b6000606082019050612fca6000830186612b46565b612fd76020830185612b46565b612fe46040830184612594565b949350505050565b612ff58161274e565b811461300057600080fd5b50565b60008151905061301281612fec565b92915050565b60006020828403121561302e5761302d61267a565b5b600061303c84828501613003565b91505092915050565b7f496e73756666696369656e74204d79476f762062616c616e6365000000000000600082015250565b600061307b601a836125c9565b915061308682613045565b602082019050919050565b600060208201905081810360008301526130aa8161306e565b9050919050565b60006130bc8261258a565b91506130c78361258a565b92508282039050818111156130df576130de612e9c565b5b92915050565b60006130f08261258a565b91506130fb8361258a565b925082820190508082111561311357613112612e9c565b5b92915050565b600060208201905081810360008301526131338184612ab8565b905092915050565b7f496e73756666696369656e74205553442062616c616e63650000000000000000600082015250565b60006131716018836125c9565b915061317c8261313b565b602082019050919050565b600060208201905081810360008301526131a081613164565b9050919050565b6000819050919050565b60006131cc6131c76131c2846131a7565b612bd8565b61258a565b9050919050565b6131dc816131b1565b82525050565b60006060820190506131f76000830186612b46565b6132046020830185612b46565b61321160408301846131d3565b949350505050565b6000819050919050565b600061323e61323961323484613219565b612bd8565b61258a565b9050919050565b61324e81613223565b82525050565b60006060820190506132696000830186612b46565b6132766020830185612b46565b6132836040830184613245565b949350505050565b60008190508160005260206000209050919050565b60006020601f8301049050919050565b600082821b905092915050565b6000600883026132ed7fffffffffffffffffffffffffffffffffffffffffffffffffffffffffffffffff826132b0565b6132f786836132b0565b95508019841693508086168417925050509392505050565b600061332a6133256133208461258a565b612bd8565b61258a565b9050919050565b6000819050919050565b6133448361330f565b61335861335082613331565b8484546132bd565b825550505050565b600090565b61336d613360565b61337881848461333b565b505050565b5b8181101561339c57613391600082613365565b60018101905061337e565b5050565b601f8211156133e1576133b28161328b565b6133bb846132a0565b810160208510156133ca578190505b6133de6133d6856132a0565b83018261337d565b50505b505050565b600082821c905092915050565b6000613404600019846008026133e6565b1980831691505092915050565b600061341d83836133f3565b9150826002028217905092915050565b613436826125be565b67ffffffffffffffff81111561344f5761344e6128b9565b5b6134598254612f42565b6134648282856133a0565b600060209050601f8311600181146134975760008415613485578287015190505b61348f8582613411565b8655506134f7565b601f1984166134a58661328b565b60005b828110156134cd578489015182556001820191506020850194506020810190506134a8565b868310156134ea57848901516134e6601f8916826133f3565b8355505b6001600288020188555050505b505050505050565b60006060820190506135146000830186612b46565b6135216020830185612594565b61352e6040830184612594565b94935050505056fea2646970667358221220befd669db9f85bebee7538f7eb539a36406af614829a46b8df42942b35066da964736f6c63430008140033",
  "linkReferences": {},
  "deployedLinkReferences": {}
}