{
	"data": {
		"bytecode": {
			"linkReferences": {},
			"object": "608060405234801562000010575f80fd5b50604051620065e8380380620065e883398181016040528101906200003691906200043d565b6040518060400160405280600b81526020017f4d79476f7620546f6b656e0000000000000000000000000000000000000000008152506040518060400160405280600281526020017f4d470000000000000000000000000000000000000000000000000000000000008152508160039081620000b39190620006d1565b508060049081620000c59190620006d1565b5050505f6301312d009050620000e233826200012a60201b60201c565b8160055f6101000a81548173ffffffffffffffffffffffffffffffffffffffff021916908373ffffffffffffffffffffffffffffffffffffffff1602179055505050620008af565b5f73ffffffffffffffffffffffffffffffffffffffff168273ffffffffffffffffffffffffffffffffffffffff16036200019d575f6040517fec442f05000000000000000000000000000000000000000000000000000000008152600401620001949190620007c6565b60405180910390fd5b620001b05f8383620001b460201b60201c565b5050565b5f73ffffffffffffffffffffffffffffffffffffffff168373ffffffffffffffffffffffffffffffffffffffff160362000208578060025f828254620001fb91906200080e565b92505081905550620002d9565b5f805f8573ffffffffffffffffffffffffffffffffffffffff1673ffffffffffffffffffffffffffffffffffffffff1681526020019081526020015f205490508181101562000294578381836040517fe450d38c0000000000000000000000000000000000000000000000000000000081526004016200028b9392919062000859565b60405180910390fd5b8181035f808673ffffffffffffffffffffffffffffffffffffffff1673ffffffffffffffffffffffffffffffffffffffff1681526020019081526020015f2081905550505b5f73ffffffffffffffffffffffffffffffffffffffff168273ffffffffffffffffffffffffffffffffffffffff160362000322578060025f82825403925050819055506200036c565b805f808473ffffffffffffffffffffffffffffffffffffffff1673ffffffffffffffffffffffffffffffffffffffff1681526020019081526020015f205f82825401925050819055505b8173ffffffffffffffffffffffffffffffffffffffff168373ffffffffffffffffffffffffffffffffffffffff167fddf252ad1be2c89b69c2b068fc378daa952ba7f163c4a11628f55a4df523b3ef83604051620003cb919062000894565b60405180910390a3505050565b5f80fd5b5f73ffffffffffffffffffffffffffffffffffffffff82169050919050565b5f6200040782620003dc565b9050919050565b6200041981620003fb565b811462000424575f80fd5b50565b5f8151905062000437816200040e565b92915050565b5f60208284031215620004555762000454620003d8565b5b5f620004648482850162000427565b91505092915050565b5f81519050919050565b7f4e487b71000000000000000000000000000000000000000000000000000000005f52604160045260245ffd5b7f4e487b71000000000000000000000000000000000000000000000000000000005f52602260045260245ffd5b5f6002820490506001821680620004e957607f821691505b602082108103620004ff57620004fe620004a4565b5b50919050565b5f819050815f5260205f209050919050565b5f6020601f8301049050919050565b5f82821b905092915050565b5f60088302620005637fffffffffffffffffffffffffffffffffffffffffffffffffffffffffffffffff8262000526565b6200056f868362000526565b95508019841693508086168417925050509392505050565b5f819050919050565b5f819050919050565b5f620005b9620005b3620005ad8462000587565b62000590565b62000587565b9050919050565b5f819050919050565b620005d48362000599565b620005ec620005e382620005c0565b84845462000532565b825550505050565b5f90565b62000602620005f4565b6200060f818484620005c9565b505050565b5b8181101562000636576200062a5f82620005f8565b60018101905062000615565b5050565b601f82111562000685576200064f8162000505565b6200065a8462000517565b810160208510156200066a578190505b62000682620006798562000517565b83018262000614565b50505b505050565b5f82821c905092915050565b5f620006a75f19846008026200068a565b1980831691505092915050565b5f620006c1838362000696565b9150826002028217905092915050565b620006dc826200046d565b67ffffffffffffffff811115620006f857620006f762000477565b5b620007048254620004d1565b620007118282856200063a565b5f60209050601f83116001811462000747575f841562000732578287015190505b6200073e8582620006b4565b865550620007ad565b601f198416620007578662000505565b5f5b82811015620007805784890151825560018201915060208501945060208101905062000759565b86831015620007a057848901516200079c601f89168262000696565b8355505b6001600288020188555050505b505050505050565b620007c081620003fb565b82525050565b5f602082019050620007db5f830184620007b5565b92915050565b7f4e487b71000000000000000000000000000000000000000000000000000000005f52601160045260245ffd5b5f6200081a8262000587565b9150620008278362000587565b9250828201905080821115620008425762000841620007e1565b5b92915050565b620008538162000587565b82525050565b5f6060820190506200086e5f830186620007b5565b6200087d602083018562000848565b6200088c604083018462000848565b949350505050565b5f602082019050620008a95f83018462000848565b92915050565b615d2b80620008bd5f395ff3fe608060405234801561000f575f80fd5b5060043610610272575f3560e01c80639fd0915d1161014f578063d437e565116100c1578063dd62ed3e11610085578063dd62ed3e14610853578063de5f72fd14610883578063ef269ae31461088d578063f190f421146108bd578063f22449ba146108d9578063fabf5968146108f557610272565b8063d437e56514610781578063d915902e146107b1578063dacc5370146107cd578063dbc1d569146107fd578063dcb57dc01461083557610272565b8063b756441b11610113578063b756441b1461069b578063baf8efb3146106cb578063bd275764146106e7578063bf50556d14610703578063c029aac614610721578063cbe0135c1461075157610272565b80639fd0915d146105bf578063a1669b32146105ef578063a220e64a1461060b578063a5e898e11461063b578063a9059cbb1461066b57610272565b80635d801b37116101e85780637c405164116101ac5780637c405164146104d457806386e68b90146104f05780638f8270181461052557806392256aec1461055557806395d89b411461058557806399f7fee1146105a357610272565b80635d801b3714610409578063702798df1461042757806370a082311461044357806370a56c731461047357806379585aa8146104a457610272565b806323b872dd1161023a57806323b872dd1461033057806323fd498b146103605780632e8f34131461037e578063313ce567146103b157806339c94d2d146103cf5780633c59605a146103eb57610272565b8063060fbe581461027657806306fdde0314610294578063095ea7b3146102b257806318160ddd146102e25780631d2acdfd14610300575b5f80fd5b61027e610928565b60405161028b9190613dad565b60405180910390f35b61029c610aca565b6040516102a99190613e50565b60405180910390f35b6102cc60048036038101906102c79190613f05565b610b5a565b6040516102d99190613f5d565b60405180910390f35b6102ea610b7c565b6040516102f79190613dad565b60405180910390f35b61031a60048036038101906103159190613f76565b610b85565b6040516103279190613dad565b60405180910390f35b61034a60048036038101906103459190613fa1565b610ca7565b6040516103579190613f5d565b60405180910390f35b610368610cd5565b6040516103759190613dad565b60405180910390f35b61039860048036038101906103939190613f76565b610ce1565b6040516103a89493929190613ff1565b60405180910390f35b6103b9610e1d565b6040516103c69190614056565b60405180910390f35b6103e960048036038101906103e49190613f76565b610e25565b005b6103f3610ea0565b6040516104009190613dad565b60405180910390f35b610411610f56565b60405161041e9190613dad565b60405180910390f35b610441600480360381019061043c91906141af565b610f62565b005b61045d60048036038101906104589190614209565b6111b6565b60405161046a9190613dad565b60405180910390f35b61048d60048036038101906104889190613f76565b6111fb565b60405161049b9291906142eb565b60405180910390f35b6104be60048036038101906104b99190613f76565b6112ae565b6040516104cb9190613f5d565b60405180910390f35b6104ee60048036038101906104e99190613f76565b6112cb565b005b61050a60048036038101906105059190613f76565b61142b565b60405161051c96959493929190614328565b60405180910390f35b61053f600480360381019061053a9190614209565b611517565b60405161054c9190613f5d565b60405180910390f35b61056f600480360381019061056a9190613f76565b611534565b60405161057c919061438e565b60405180910390f35b61058d61158f565b60405161059a9190613e50565b60405180910390f35b6105bd60048036038101906105b89190613f76565b61161f565b005b6105d960048036038101906105d49190613f05565b611a18565b6040516105e69190613f5d565b60405180910390f35b61060960048036038101906106049190613f05565b611a42565b005b61062560048036038101906106209190613f05565b611c8a565b6040516106329190613f5d565b60405180910390f35b61065560048036038101906106509190614457565b611cb4565b6040516106629190613dad565b60405180910390f35b61068560048036038101906106809190613f05565b612247565b6040516106929190613f5d565b60405180910390f35b6106b560048036038101906106b0919061450f565b612269565b6040516106c29190613dad565b60405180910390f35b6106e560048036038101906106e09190613f76565b612289565b005b61070160048036038101906106fc9190613f76565b612435565b005b61070b612618565b6040516107189190613dad565b60405180910390f35b61073b6004803603810190610736919061450f565b612673565b6040516107489190613f5d565b60405180910390f35b61076b60048036038101906107669190613f76565b61269d565b6040516107789190613dad565b60405180910390f35b61079b6004803603810190610796919061450f565b6126d9565b6040516107a89190613f5d565b60405180910390f35b6107cb60048036038101906107c69190613f76565b612703565b005b6107e760048036038101906107e29190613f76565b612854565b6040516107f4919061438e565b60405180910390f35b61081760048036038101906108129190613f76565b61288f565b60405161082c9998979695949392919061454d565b60405180910390f35b61083d6129a6565b60405161084a919061463a565b60405180910390f35b61086d60048036038101906108689190614653565b6129cb565b60405161087a9190613dad565b60405180910390f35b61088b612a4d565b005b6108a760048036038101906108a29190614691565b612b02565b6040516108b49190613dad565b60405180910390f35b6108d760048036038101906108d291906147fb565b612e58565b005b6108f360048036038101906108ee9190614855565b613179565b005b61090f600480360381019061090a9190613f76565b613423565b60405161091f9493929190614893565b60405180910390f35b5f805f90505b600680549050811015610ac657600161098160068381548110610954576109536148eb565b5b905f5260205f20015f9054906101000a900473ffffffffffffffffffffffffffffffffffffffff166111b6565b10610a2957600160075f6006848154811061099f5761099e6148eb565b5b905f5260205f20015f9054906101000a900473ffffffffffffffffffffffffffffffffffffffff1673ffffffffffffffffffffffffffffffffffffffff1673ffffffffffffffffffffffffffffffffffffffff1681526020019081526020015f205f6101000a81548160ff0219169083151502179055508180610a2190614945565b925050610ab9565b5f60075f60068481548110610a4157610a406148eb565b5b905f5260205f20015f9054906101000a900473ffffffffffffffffffffffffffffffffffffffff1673ffffffffffffffffffffffffffffffffffffffff1673ffffffffffffffffffffffffffffffffffffffff1681526020019081526020015f205f6101000a81548160ff0219169083151502179055505b808060010191505061092e565b5090565b606060038054610ad9906149b9565b80601f0160208091040260200160405190810160405280929190818152602001828054610b05906149b9565b8015610b505780601f10610b2757610100808354040283529160200191610b50565b820191905f5260205f20905b815481529060010190602001808311610b3357829003601f168201915b5050505050905090565b5f80610b646135fe565b9050610b71818585613605565b600191505092915050565b5f600254905090565b5f600b805490508210610b96575f80fd5b5f600190505b600b8381548110610bb057610baf6148eb565b5b905f5260205f2090600d0201600301805490508111158015610c34575060011515600b8481548110610be557610be46148eb565b5b905f5260205f2090600d0201600401600183610c0191906149e9565b81548110610c1257610c116148eb565b5b905f5260205f2090602091828204019190069054906101000a900460ff161515145b15610c9d57600b8381548110610c4d57610c4c6148eb565b5b905f5260205f2090600d02016003018181548110610c6e57610c6d6148eb565b5b905f5260205f200154421015610c8a5780915080915050610ca2565b8080610c9590614945565b915050610b9c565b505f90505b919050565b5f80610cb16135fe565b9050610cbe858285613617565b610cc98585856136a9565b60019150509392505050565b5f600b80549050905090565b60605f805f6009805490508510610cf6575f80fd5b60098581548110610d0a57610d096148eb565b5b905f5260205f2090600702015f0160098681548110610d2c57610d2b6148eb565b5b905f5260205f2090600702016001015460098781548110610d5057610d4f6148eb565b5b905f5260205f2090600702016002015460098881548110610d7457610d736148eb565b5b905f5260205f20906007020160030154838054610d90906149b9565b80601f0160208091040260200160405190810160405280929190818152602001828054610dbc906149b9565b8015610e075780601f10610dde57610100808354040283529160200191610e07565b820191905f5260205f20905b815481529060010190602001808311610dea57829003601f168201915b5050505050935093509350935093509193509193565b5f6012905090565b5f8111610e30575f80fd5b80610e3a336111b6565b1015610e44575f80fd5b610e4f3330836136a9565b3373ffffffffffffffffffffffffffffffffffffffff167fccb8802dd1e68ab676b6eb220a8943f6f2f7f8578c278df01aa2956d9e2f2b7c82604051610e959190613dad565b60405180910390a250565b5f80610eaa613799565b60055f9054906101000a900473ffffffffffffffffffffffffffffffffffffffff1673ffffffffffffffffffffffffffffffffffffffff166370a08231306040518263ffffffff1660e01b8152600401610f04919061438e565b602060405180830381865afa158015610f1f573d5f803e3d5ffd5b505050506040513d601f19601f82011682018060405250810190610f439190614a30565b610f4d91906149e9565b90508091505090565b5f600980549050905090565b6009805490508210610f72575f80fd5b5f60098381548110610f8757610f866148eb565b5b905f5260205f209060070201905080600101544211158015610ff857503373ffffffffffffffffffffffffffffffffffffffff16816005015f9054906101000a900473ffffffffffffffffffffffffffffffffffffffff1673ffffffffffffffffffffffffffffffffffffffff1614155b801561105a5750600a5f3373ffffffffffffffffffffffffffffffffffffffff1673ffffffffffffffffffffffffffffffffffffffff1681526020019081526020015f205f8481526020019081526020015f205f9054906101000a900460ff16155b801561106657505f8251115b801561107757508060030154825111155b61107f575f80fd5b5f5b82518110156110e457816004018382815181106110a1576110a06148eb565b5b6020026020010151815481106110ba576110b96148eb565b5b905f5260205f20015f8154809291906110d290614945565b91905055508080600101915050611081565b50806006015f8154809291906110f990614945565b91905055506001600a5f3373ffffffffffffffffffffffffffffffffffffffff1673ffffffffffffffffffffffffffffffffffffffff1681526020019081526020015f205f8581526020019081526020015f205f6101000a81548160ff0219169083151502179055503373ffffffffffffffffffffffffffffffffffffffff16837f9dd4fa598ec5e67711f29c8bf918a00e611632c37588d321e6d45ae933246ef6846040516111a99190614a5b565b60405180910390a3505050565b5f805f8373ffffffffffffffffffffffffffffffffffffffff1673ffffffffffffffffffffffffffffffffffffffff1681526020019081526020015f20549050919050565b5f6060600980549050831061120e575f80fd5b60098381548110611222576112216148eb565b5b905f5260205f2090600702016006015460098481548110611246576112456148eb565b5b905f5260205f2090600702016004018080548060200260200160405190810160405280929190818152602001828054801561129e57602002820191905f5260205f20905b81548152602001906001019080831161128a575b5050505050905091509150915091565b600e602052805f5260405f205f915054906101000a900460ff1681565b6112d3610928565b50600b8054905081106112e4575f80fd5b600a6112ee610928565b6112f89190614aa8565b600b828154811061130c5761130b6148eb565b5b905f5260205f2090600d0201600701541015611326575f80fd5b600b818154811061133a576113396148eb565b5b905f5260205f2090600d0201600a015460055f9054906101000a900473ffffffffffffffffffffffffffffffffffffffff1673ffffffffffffffffffffffffffffffffffffffff166370a08231306040518263ffffffff1660e01b81526004016113a4919061438e565b602060405180830381865afa1580156113bf573d5f803e3d5ffd5b505050506040513d601f19601f820116820180604052508101906113e39190614a30565b10156113ed575f80fd5b6001600b8281548110611403576114026148eb565b5b905f5260205f2090600d02016009015f6101000a81548160ff02191690831515021790555050565b6009818154811061143a575f80fd5b905f5260205f2090600702015f91509050805f018054611459906149b9565b80601f0160208091040260200160405190810160405280929190818152602001828054611485906149b9565b80156114d05780601f106114a7576101008083540402835291602001916114d0565b820191905f5260205f20905b8154815290600101906020018083116114b357829003601f168201915b505050505090806001015490806002015490806003015490806005015f9054906101000a900473ffffffffffffffffffffffffffffffffffffffff16908060060154905086565b6007602052805f5260405f205f915054906101000a900460ff1681565b5f600b805490508210611545575f80fd5b600b8281548110611559576115586148eb565b5b905f5260205f2090600d0201600b015f9054906101000a900473ffffffffffffffffffffffffffffffffffffffff169050919050565b60606004805461159e906149b9565b80601f01602080910402602001604051908101604052809291908181526020018280546115ca906149b9565b80156116155780601f106115ec57610100808354040283529160200191611615565b820191905f5260205f20905b8154815290600101906020018083116115f857829003601f168201915b5050505050905090565b600b80549050811061162f575f80fd5b600b8181548110611643576116426148eb565b5b905f5260205f2090600d0201600b015f9054906101000a900473ffffffffffffffffffffffffffffffffffffffff1673ffffffffffffffffffffffffffffffffffffffff163373ffffffffffffffffffffffffffffffffffffffff16146116a8575f80fd5b600b81815481106116bc576116bb6148eb565b5b905f5260205f2090600d020160090160019054906101000a900460ff166116e1575f80fd5b5f5b600b82815481106116f7576116f66148eb565b5b905f5260205f2090600d020160030180549050811015611a1457600b8281548110611725576117246148eb565b5b905f5260205f2090600d02016003018181548110611746576117456148eb565b5b905f5260205f20015442111580156117ad5750600b828154811061176d5761176c6148eb565b5b905f5260205f2090600d0201600401818154811061178e5761178d6148eb565b5b905f5260205f2090602091828204019190069054906101000a900460ff165b15611a075760055f9054906101000a900473ffffffffffffffffffffffffffffffffffffffff1673ffffffffffffffffffffffffffffffffffffffff166323b872dd3033600b8681548110611805576118046148eb565b5b905f5260205f2090600d02016002018581548110611826576118256148eb565b5b905f5260205f2001546040518463ffffffff1660e01b815260040161184d93929190614ad8565b6020604051808303815f875af1158015611869573d5f803e3d5ffd5b505050506040513d601f19601f8201168201806040525081019061188d9190614b21565b503373ffffffffffffffffffffffffffffffffffffffff16827f41045142a60f1b5ebb694509f75c4e837c18604c6d262604b1d28ee1f3129a46600b85815481106118db576118da6148eb565b5b905f5260205f2090600d020160020184815481106118fc576118fb6148eb565b5b905f5260205f2001546040516119129190613dad565b60405180910390a3600b828154811061192e5761192d6148eb565b5b905f5260205f2090600d0201600201818154811061194f5761194e6148eb565b5b905f5260205f200154600b838154811061196c5761196b6148eb565b5b905f5260205f2090600d0201600a015f82825461198991906149e9565b92505081905550600b82815481106119a4576119a36148eb565b5b905f5260205f2090600d020160020181815481106119c5576119c46148eb565b5b905f5260205f200154600b83815481106119e2576119e16148eb565b5b905f5260205f2090600d0201600c015f8282546119ff9190614b4c565b925050819055505b80806001019150506116e3565b5050565b600a602052815f5260405f20602052805f5260405f205f915091509054906101000a900460ff1681565b611a4a610928565b50600b8054905081108015611aa5575060075f8373ffffffffffffffffffffffffffffffffffffffff1673ffffffffffffffffffffffffffffffffffffffff1681526020019081526020015f205f9054906101000a900460ff165b8015611b075750600d5f8281526020019081526020015f205f3373ffffffffffffffffffffffffffffffffffffffff1673ffffffffffffffffffffffffffffffffffffffff1681526020019081526020015f205f9054906101000a900460ff16155b8015611b695750600f5f8281526020019081526020015f205f3373ffffffffffffffffffffffffffffffffffffffff1673ffffffffffffffffffffffffffffffffffffffff1681526020019081526020015f205f9054906101000a900460ff16155b611b71575f80fd5b6001600f5f8381526020019081526020015f205f3373ffffffffffffffffffffffffffffffffffffffff1673ffffffffffffffffffffffffffffffffffffffff1681526020019081526020015f205f6101000a81548160ff02191690831515021790555060105f8281526020019081526020015f205f8373ffffffffffffffffffffffffffffffffffffffff1673ffffffffffffffffffffffffffffffffffffffff1681526020019081526020015f205f815480929190611c3190614945565b91905055503373ffffffffffffffffffffffffffffffffffffffff16817f8a19902c1356176f164d6eeee88db031b1718565c98c90873907b79b920fbafe6001604051611c7e9190613f5d565b60405180910390a35050565b600c602052815f5260405f20602052805f5260405f205f915091509054906101000a900460ff1681565b5f4284118015611cdd575083825f81518110611cd357611cd26148eb565b5b6020026020010151115b611ce5575f80fd5b5f5b60018351611cf591906149e9565b811015611d545782600182611d0a9190614b4c565b81518110611d1b57611d1a6148eb565b5b6020026020010151838281518110611d3657611d356148eb565b5b602002602001015110611d47575f80fd5b8080600101915050611ce7565b506005611d60336111b6565b10158015611e075750603260055f9054906101000a900473ffffffffffffffffffffffffffffffffffffffff1673ffffffffffffffffffffffffffffffffffffffff166370a08231336040518263ffffffff1660e01b8152600401611dc5919061438e565b602060405180830381865afa158015611de0573d5f803e3d5ffd5b505050506040513d601f19601f82011682018060405250810190611e049190614a30565b10155b611e0f575f80fd5b611e1a336005612247565b5060055f9054906101000a900473ffffffffffffffffffffffffffffffffffffffff1673ffffffffffffffffffffffffffffffffffffffff166323b872dd333060326040518463ffffffff1660e01b8152600401611e7a93929190614bb8565b6020604051808303815f875af1158015611e96573d5f803e3d5ffd5b505050506040513d601f19601f82011682018060405250810190611eba9190614b21565b505f805b8451811015611efc57848181518110611eda57611ed96148eb565b5b602002602001015182611eed9190614b4c565b91508080600101915050611ebe565b505f8190505f604051806101c00160405280898152602001888152602001878152602001868152602001865167ffffffffffffffff811115611f4157611f40614073565b5b604051908082528060200260200182016040528015611f6f5781602001602082028036833780820191505090505b508152602001865167ffffffffffffffff811115611f9057611f8f614073565b5b604051908082528060200260200182016040528015611fbe5781602001602082028036833780820191505090505b508152602001865167ffffffffffffffff811115611fdf57611fde614073565b5b60405190808252806020026020018201604052801561200d5781602001602082028036833780820191505090505b5081526020015f81526020015f81526020015f151581526020015f151581526020018381526020013373ffffffffffffffffffffffffffffffffffffffff1681526020015f8152509050600b81908060018154018082558091505060019003905f5260205f2090600d02015f909190919091505f820151815f0190816120939190614d81565b506020820151816001015560408201518160020190805190602001906120ba929190613c8e565b5060608201518160030190805190602001906120d7929190613c8e565b5060808201518160040190805190602001906120f4929190613cd9565b5060a0820151816005019080519060200190612111929190613c8e565b5060c082015181600601908051906020019061212e929190613c8e565b5060e082015181600701556101008201518160080155610120820151816009015f6101000a81548160ff0219169083151502179055506101408201518160090160016101000a81548160ff02191690831515021790555061016082015181600a015561018082015181600b015f6101000a81548173ffffffffffffffffffffffffffffffffffffffff021916908373ffffffffffffffffffffffffffffffffffffffff1602179055506101a082015181600c015550506001600b805490506121f691906149e9565b93503373ffffffffffffffffffffffffffffffffffffffff16847fe387d723867cd8ff0a5fbfda99c2183e0c8eb8caa297784c3e146c0d2f9d014160405160405180910390a3505050949350505050565b5f806122516135fe565b905061225e8185856136a9565b600191505092915050565b6010602052815f5260405f20602052805f5260405f205f91509150505481565b612291610928565b505f5b600b82815481106122a8576122a76148eb565b5b905f5260205f2090600d0201600301805490508110156123d75760646122cc610928565b6122d69190614aa8565b600b83815481106122ea576122e96148eb565b5b905f5260205f2090600d0201600501828154811061230b5761230a6148eb565b5b905f5260205f200154106123745760011515600b8381548110612331576123306148eb565b5b905f5260205f2090600d02016004018281548110612352576123516148eb565b5b905f5260205f2090602091828204019190069054906101000a905050506123ca565b5f1515600b838154811061238b5761238a6148eb565b5b905f5260205f2090600d020160040182815481106123ac576123ab6148eb565b5b905f5260205f2090602091828204019190069054906101000a905050505b8080600101915050612294565b50807f02411b9f6a1e89dc84108fa2518c56c1c8e0994043af15eec01f19f7cc996ed2600b838154811061240e5761240d6148eb565b5b905f5260205f2090600d020160040160405161242a9190615b7a565b60405180910390a250565b600b80549050811080156124b65750600b8181548110612458576124576148eb565b5b905f5260205f2090600d0201600b015f9054906101000a900473ffffffffffffffffffffffffffffffffffffffff1673ffffffffffffffffffffffffffffffffffffffff163373ffffffffffffffffffffffffffffffffffffffff16145b80156124e55750600b81815481106124d1576124d06148eb565b5b905f5260205f2090600d0201600101544211155b801561251d5750600b8181548110612500576124ff6148eb565b5b905f5260205f2090600d02016009015f9054906101000a900460ff165b80156125575750600b8181548110612538576125376148eb565b5b905f5260205f2090600d020160090160019054906101000a900460ff16155b61255f575f80fd5b600b8181548110612573576125726148eb565b5b905f5260205f2090600d0201600a015461258b610ea0565b1015612595575f80fd5b6001600b82815481106125ab576125aa6148eb565b5b905f5260205f2090600d020160090160016101000a81548160ff0219169083151502179055503373ffffffffffffffffffffffffffffffffffffffff16817f4b3a4b609559f6895d2818d4a00b0c8d09c8c1bdc7f9cbd315d3cc8279835b0a60405160405180910390a350565b5f805f90505f5b600b8054905081101561266b57600e5f8281526020019081526020015f205f9054906101000a900460ff161561265e57818061265a90614945565b9250505b808060010191505061261f565b508091505090565b600f602052815f5260405f20602052805f5260405f205f915091509054906101000a900460ff1681565b5f600b8054905082106126ae575f80fd5b600b82815481106126c2576126c16148eb565b5b905f5260205f2090600d0201600c01549050919050565b600d602052815f5260405f20602052805f5260405f205f915091509054906101000a900460ff1681565b5f811161270e575f80fd5b8060055f9054906101000a900473ffffffffffffffffffffffffffffffffffffffff1673ffffffffffffffffffffffffffffffffffffffff166370a08231336040518263ffffffff1660e01b8152600401612769919061438e565b602060405180830381865afa158015612784573d5f803e3d5ffd5b505050506040513d601f19601f820116820180604052508101906127a89190614a30565b10156127b2575f80fd5b60055f9054906101000a900473ffffffffffffffffffffffffffffffffffffffff1673ffffffffffffffffffffffffffffffffffffffff166323b872dd3330846040518463ffffffff1660e01b815260040161281093929190614ad8565b6020604051808303815f875af115801561282c573d5f803e3d5ffd5b505050506040513d601f19601f820116820180604052508101906128509190614b21565b5050565b60068181548110612863575f80fd5b905f5260205f20015f915054906101000a900473ffffffffffffffffffffffffffffffffffffffff1681565b600b818154811061289e575f80fd5b905f5260205f2090600d02015f91509050805f0180546128bd906149b9565b80601f01602080910402602001604051908101604052809291908181526020018280546128e9906149b9565b80156129345780601f1061290b57610100808354040283529160200191612934565b820191905f5260205f20905b81548152906001019060200180831161291757829003601f168201915b505050505090806001015490806007015490806008015490806009015f9054906101000a900460ff16908060090160019054906101000a900460ff169080600a01549080600b015f9054906101000a900473ffffffffffffffffffffffffffffffffffffffff169080600c0154905089565b60055f9054906101000a900473ffffffffffffffffffffffffffffffffffffffff1681565b5f60015f8473ffffffffffffffffffffffffffffffffffffffff1673ffffffffffffffffffffffffffffffffffffffff1681526020019081526020015f205f8373ffffffffffffffffffffffffffffffffffffffff1673ffffffffffffffffffffffffffffffffffffffff1681526020019081526020015f2054905092915050565b60085f3373ffffffffffffffffffffffffffffffffffffffff1673ffffffffffffffffffffffffffffffffffffffff1681526020019081526020015f205f9054906101000a900460ff1615612aa0575f80fd5b612aab336001613827565b600160085f3373ffffffffffffffffffffffffffffffffffffffff1673ffffffffffffffffffffffffffffffffffffffff1681526020019081526020015f205f6101000a81548160ff021916908315150217905550565b5f8342108015612b13575060028310155b8015612b20575060018210155b8015612b2c5750818310155b8015612b4157506002612b3e336111b6565b10155b8015612be557506005805f9054906101000a900473ffffffffffffffffffffffffffffffffffffffff1673ffffffffffffffffffffffffffffffffffffffff166370a08231336040518263ffffffff1660e01b8152600401612ba3919061438e565b602060405180830381865afa158015612bbe573d5f803e3d5ffd5b505050506040513d601f19601f82011682018060405250810190612be29190614a30565b10155b612bed575f80fd5b612bf8336002612247565b5060055f9054906101000a900473ffffffffffffffffffffffffffffffffffffffff1673ffffffffffffffffffffffffffffffffffffffff166323b872dd333060056040518463ffffffff1660e01b8152600401612c5893929190615bd3565b6020604051808303815f875af1158015612c74573d5f803e3d5ffd5b505050506040513d601f19601f82011682018060405250810190612c989190614b21565b505f6040518060e001604052808781526020018681526020018581526020018481526020018567ffffffffffffffff811115612cd757612cd6614073565b5b604051908082528060200260200182016040528015612d055781602001602082028036833780820191505090505b5081526020013373ffffffffffffffffffffffffffffffffffffffff1681526020015f8152509050600981908060018154018082558091505060019003905f5260205f2090600702015f909190919091505f820151815f019081612d699190614d81565b506020820151816001015560408201518160020155606082015181600301556080820151816004019080519060200190612da4929190613c8e565b5060a0820151816005015f6101000a81548173ffffffffffffffffffffffffffffffffffffffff021916908373ffffffffffffffffffffffffffffffffffffffff16021790555060c0820151816006015550506001600980549050612e0991906149e9565b91503373ffffffffffffffffffffffffffffffffffffffff16827fcdad06bb3a3fa7d9ee4517f89680dddf8ef0e00d995ae8f02b3450f9d3d28eb460405160405180910390a350949350505050565b600b8054905082108015612e7557506001612e72336111b6565b10155b8015612ea35750600b8281548110612e9057612e8f6148eb565b5b905f5260205f2090600d02016001015442115b8015612f055750600f5f8381526020019081526020015f205f3373ffffffffffffffffffffffffffffffffffffffff1673ffffffffffffffffffffffffffffffffffffffff1681526020019081526020015f205f9054906101000a900460ff16155b8015612f675750600d5f8381526020019081526020015f205f3373ffffffffffffffffffffffffffffffffffffffff1673ffffffffffffffffffffffffffffffffffffffff1681526020019081526020015f205f9054906101000a900460ff16155b612f6f575f80fd5b5f600160105f8581526020019081526020015f205f3373ffffffffffffffffffffffffffffffffffffffff1673ffffffffffffffffffffffffffffffffffffffff1681526020019081526020015f2054612fc99190614b4c565b90505f612fd584610b85565b90505f5b8181116130bf57838181518110612ff357612ff26148eb565b5b6020026020010151156130585782600b8681548110613015576130146148eb565b5b905f5260205f2090600d02016005018281548110613036576130356148eb565b5b905f5260205f20015f82825461304c9190614b4c565b925050819055506130ac565b82600b868154811061306d5761306c6148eb565b5b905f5260205f2090600d0201600601828154811061308e5761308d6148eb565b5b905f5260205f20015f8282546130a49190614b4c565b925050819055505b80806130b790614945565b915050612fd9565b506001600d5f8681526020019081526020015f205f3373ffffffffffffffffffffffffffffffffffffffff1673ffffffffffffffffffffffffffffffffffffffff1681526020019081526020015f205f6101000a81548160ff0219169083151502179055503373ffffffffffffffffffffffffffffffffffffffff16847f33b88791871b035ed3fea6313b68632ccca172c35d8ae00a6d595ce65f1a71558560405161316b9190615ca0565b60405180910390a350505050565b600b805490508210801561319657506001613193336111b6565b10155b80156131c55750600b82815481106131b1576131b06148eb565b5b905f5260205f2090600d0201600101544211155b80156132275750600f5f8381526020019081526020015f205f3373ffffffffffffffffffffffffffffffffffffffff1673ffffffffffffffffffffffffffffffffffffffff1681526020019081526020015f205f9054906101000a900460ff16155b80156132895750600d5f8381526020019081526020015f205f3373ffffffffffffffffffffffffffffffffffffffff1673ffffffffffffffffffffffffffffffffffffffff1681526020019081526020015f205f9054906101000a900460ff16155b613291575f80fd5b5f600160105f8581526020019081526020015f205f3373ffffffffffffffffffffffffffffffffffffffff1673ffffffffffffffffffffffffffffffffffffffff1681526020019081526020015f20546132eb9190614b4c565b905081156133315780600b8481548110613308576133076148eb565b5b905f5260205f2090600d02016007015f8282546133259190614b4c565b9250508190555061336b565b80600b8481548110613346576133456148eb565b5b905f5260205f2090600d02016008015f8282546133639190614b4c565b925050819055505b6001600d5f8581526020019081526020015f205f3373ffffffffffffffffffffffffffffffffffffffff1673ffffffffffffffffffffffffffffffffffffffff1681526020019081526020015f205f6101000a81548160ff0219169083151502179055503373ffffffffffffffffffffffffffffffffffffffff16837f8a19902c1356176f164d6eeee88db031b1718565c98c90873907b79b920fbafe846040516134169190613f5d565b60405180910390a3505050565b60605f606080600b805490508510613439575f80fd5b600b858154811061344d5761344c6148eb565b5b905f5260205f2090600d02015f01600b868154811061346f5761346e6148eb565b5b905f5260205f2090600d020160010154600b8781548110613493576134926148eb565b5b905f5260205f2090600d0201600201600b88815481106134b6576134b56148eb565b5b905f5260205f2090600d02016003018380546134d1906149b9565b80601f01602080910402602001604051908101604052809291908181526020018280546134fd906149b9565b80156135485780601f1061351f57610100808354040283529160200191613548565b820191905f5260205f20905b81548152906001019060200180831161352b57829003601f168201915b505050505093508180548060200260200160405190810160405280929190818152602001828054801561359857602002820191905f5260205f20905b815481526020019060010190808311613584575b50505050509150808054806020026020016040519081016040528092919081815260200182805480156135e857602002820191905f5260205f20905b8154815260200190600101908083116135d4575b5050505050905093509350935093509193509193565b5f33905090565b61361283838360016138a6565b505050565b5f61362284846129cb565b90507fffffffffffffffffffffffffffffffffffffffffffffffffffffffffffffffff81146136a35781811015613694578281836040517ffb8f41b200000000000000000000000000000000000000000000000000000000815260040161368b93929190615cc0565b60405180910390fd5b6136a284848484035f6138a6565b5b50505050565b5f73ffffffffffffffffffffffffffffffffffffffff168373ffffffffffffffffffffffffffffffffffffffff1603613719575f6040517f96c6fd1e000000000000000000000000000000000000000000000000000000008152600401613710919061438e565b60405180910390fd5b5f73ffffffffffffffffffffffffffffffffffffffff168273ffffffffffffffffffffffffffffffffffffffff1603613789575f6040517fec442f05000000000000000000000000000000000000000000000000000000008152600401613780919061438e565b60405180910390fd5b613794838383613a75565b505050565b5f805f90505b600b8054905081101561382357600b81815481106137c0576137bf6148eb565b5b905f5260205f2090600d020160090160019054906101000a900460ff166137e5575f80fd5b600b81815481106137f9576137f86148eb565b5b905f5260205f2090600d0201600a0154826138149190614b4c565b9150808060010191505061379f565b5090565b5f73ffffffffffffffffffffffffffffffffffffffff168273ffffffffffffffffffffffffffffffffffffffff1603613897575f6040517fec442f0500000000000000000000000000000000000000000000000000000000815260040161388e919061438e565b60405180910390fd5b6138a25f8383613a75565b5050565b5f73ffffffffffffffffffffffffffffffffffffffff168473ffffffffffffffffffffffffffffffffffffffff1603613916575f6040517fe602df0500000000000000000000000000000000000000000000000000000000815260040161390d919061438e565b60405180910390fd5b5f73ffffffffffffffffffffffffffffffffffffffff168373ffffffffffffffffffffffffffffffffffffffff1603613986575f6040517f94280d6200000000000000000000000000000000000000000000000000000000815260040161397d919061438e565b60405180910390fd5b8160015f8673ffffffffffffffffffffffffffffffffffffffff1673ffffffffffffffffffffffffffffffffffffffff1681526020019081526020015f205f8573ffffffffffffffffffffffffffffffffffffffff1673ffffffffffffffffffffffffffffffffffffffff1681526020019081526020015f20819055508015613a6f578273ffffffffffffffffffffffffffffffffffffffff168473ffffffffffffffffffffffffffffffffffffffff167f8c5be1e5ebec7d5bd14f71427d1e84f3dd0314c0f7b2291e5b200ac8c7c3b92584604051613a669190613dad565b60405180910390a35b50505050565b5f73ffffffffffffffffffffffffffffffffffffffff168373ffffffffffffffffffffffffffffffffffffffff1603613ac5578060025f828254613ab99190614b4c565b92505081905550613b93565b5f805f8573ffffffffffffffffffffffffffffffffffffffff1673ffffffffffffffffffffffffffffffffffffffff1681526020019081526020015f2054905081811015613b4e578381836040517fe450d38c000000000000000000000000000000000000000000000000000000008152600401613b4593929190615cc0565b60405180910390fd5b8181035f808673ffffffffffffffffffffffffffffffffffffffff1673ffffffffffffffffffffffffffffffffffffffff1681526020019081526020015f2081905550505b5f73ffffffffffffffffffffffffffffffffffffffff168273ffffffffffffffffffffffffffffffffffffffff1603613bda578060025f8282540392505081905550613c24565b805f808473ffffffffffffffffffffffffffffffffffffffff1673ffffffffffffffffffffffffffffffffffffffff1681526020019081526020015f205f82825401925050819055505b8173ffffffffffffffffffffffffffffffffffffffff168373ffffffffffffffffffffffffffffffffffffffff167fddf252ad1be2c89b69c2b068fc378daa952ba7f163c4a11628f55a4df523b3ef83604051613c819190613dad565b60405180910390a3505050565b828054828255905f5260205f20908101928215613cc8579160200282015b82811115613cc7578251825591602001919060010190613cac565b5b509050613cd59190613d7a565b5090565b828054828255905f5260205f2090601f01602090048101928215613d69579160200282015f5b83821115613d3b57835183826101000a81548160ff02191690831515021790555092602001926001016020815f01049283019260010302613cff565b8015613d675782816101000a81549060ff02191690556001016020815f01049283019260010302613d3b565b505b509050613d769190613d7a565b5090565b5b80821115613d91575f815f905550600101613d7b565b5090565b5f819050919050565b613da781613d95565b82525050565b5f602082019050613dc05f830184613d9e565b92915050565b5f81519050919050565b5f82825260208201905092915050565b5f5b83811015613dfd578082015181840152602081019050613de2565b5f8484015250505050565b5f601f19601f8301169050919050565b5f613e2282613dc6565b613e2c8185613dd0565b9350613e3c818560208601613de0565b613e4581613e08565b840191505092915050565b5f6020820190508181035f830152613e688184613e18565b905092915050565b5f604051905090565b5f80fd5b5f80fd5b5f73ffffffffffffffffffffffffffffffffffffffff82169050919050565b5f613eaa82613e81565b9050919050565b613eba81613ea0565b8114613ec4575f80fd5b50565b5f81359050613ed581613eb1565b92915050565b613ee481613d95565b8114613eee575f80fd5b50565b5f81359050613eff81613edb565b92915050565b5f8060408385031215613f1b57613f1a613e79565b5b5f613f2885828601613ec7565b9250506020613f3985828601613ef1565b9150509250929050565b5f8115159050919050565b613f5781613f43565b82525050565b5f602082019050613f705f830184613f4e565b92915050565b5f60208284031215613f8b57613f8a613e79565b5b5f613f9884828501613ef1565b91505092915050565b5f805f60608486031215613fb857613fb7613e79565b5b5f613fc586828701613ec7565b9350506020613fd686828701613ec7565b9250506040613fe786828701613ef1565b9150509250925092565b5f6080820190508181035f8301526140098187613e18565b90506140186020830186613d9e565b6140256040830185613d9e565b6140326060830184613d9e565b95945050505050565b5f60ff82169050919050565b6140508161403b565b82525050565b5f6020820190506140695f830184614047565b92915050565b5f80fd5b7f4e487b71000000000000000000000000000000000000000000000000000000005f52604160045260245ffd5b6140a982613e08565b810181811067ffffffffffffffff821117156140c8576140c7614073565b5b80604052505050565b5f6140da613e70565b90506140e682826140a0565b919050565b5f67ffffffffffffffff82111561410557614104614073565b5b602082029050602081019050919050565b5f80fd5b5f61412c614127846140eb565b6140d1565b9050808382526020820190506020840283018581111561414f5761414e614116565b5b835b8181101561417857806141648882613ef1565b845260208401935050602081019050614151565b5050509392505050565b5f82601f8301126141965761419561406f565b5b81356141a684826020860161411a565b91505092915050565b5f80604083850312156141c5576141c4613e79565b5b5f6141d285828601613ef1565b925050602083013567ffffffffffffffff8111156141f3576141f2613e7d565b5b6141ff85828601614182565b9150509250929050565b5f6020828403121561421e5761421d613e79565b5b5f61422b84828501613ec7565b91505092915050565b5f81519050919050565b5f82825260208201905092915050565b5f819050602082019050919050565b61426681613d95565b82525050565b5f614277838361425d565b60208301905092915050565b5f602082019050919050565b5f61429982614234565b6142a3818561423e565b93506142ae8361424e565b805f5b838110156142de5781516142c5888261426c565b97506142d083614283565b9250506001810190506142b1565b5085935050505092915050565b5f6040820190506142fe5f830185613d9e565b8181036020830152614310818461428f565b90509392505050565b61432281613ea0565b82525050565b5f60c0820190508181035f8301526143408189613e18565b905061434f6020830188613d9e565b61435c6040830187613d9e565b6143696060830186613d9e565b6143766080830185614319565b61438360a0830184613d9e565b979650505050505050565b5f6020820190506143a15f830184614319565b92915050565b5f80fd5b5f67ffffffffffffffff8211156143c5576143c4614073565b5b6143ce82613e08565b9050602081019050919050565b828183375f83830152505050565b5f6143fb6143f6846143ab565b6140d1565b905082815260208101848484011115614417576144166143a7565b5b6144228482856143db565b509392505050565b5f82601f83011261443e5761443d61406f565b5b813561444e8482602086016143e9565b91505092915050565b5f805f806080858703121561446f5761446e613e79565b5b5f85013567ffffffffffffffff81111561448c5761448b613e7d565b5b6144988782880161442a565b94505060206144a987828801613ef1565b935050604085013567ffffffffffffffff8111156144ca576144c9613e7d565b5b6144d687828801614182565b925050606085013567ffffffffffffffff8111156144f7576144f6613e7d565b5b61450387828801614182565b91505092959194509250565b5f806040838503121561452557614524613e79565b5b5f61453285828601613ef1565b925050602061454385828601613ec7565b9150509250929050565b5f610120820190508181035f830152614566818c613e18565b9050614575602083018b613d9e565b614582604083018a613d9e565b61458f6060830189613d9e565b61459c6080830188613f4e565b6145a960a0830187613f4e565b6145b660c0830186613d9e565b6145c360e0830185614319565b6145d1610100830184613d9e565b9a9950505050505050505050565b5f819050919050565b5f6146026145fd6145f884613e81565b6145df565b613e81565b9050919050565b5f614613826145e8565b9050919050565b5f61462482614609565b9050919050565b6146348161461a565b82525050565b5f60208201905061464d5f83018461462b565b92915050565b5f806040838503121561466957614668613e79565b5b5f61467685828601613ec7565b925050602061468785828601613ec7565b9150509250929050565b5f805f80608085870312156146a9576146a8613e79565b5b5f85013567ffffffffffffffff8111156146c6576146c5613e7d565b5b6146d28782880161442a565b94505060206146e387828801613ef1565b93505060406146f487828801613ef1565b925050606061470587828801613ef1565b91505092959194509250565b5f67ffffffffffffffff82111561472b5761472a614073565b5b602082029050602081019050919050565b61474581613f43565b811461474f575f80fd5b50565b5f813590506147608161473c565b92915050565b5f61477861477384614711565b6140d1565b9050808382526020820190506020840283018581111561479b5761479a614116565b5b835b818110156147c457806147b08882614752565b84526020840193505060208101905061479d565b5050509392505050565b5f82601f8301126147e2576147e161406f565b5b81356147f2848260208601614766565b91505092915050565b5f806040838503121561481157614810613e79565b5b5f61481e85828601613ef1565b925050602083013567ffffffffffffffff81111561483f5761483e613e7d565b5b61484b858286016147ce565b9150509250929050565b5f806040838503121561486b5761486a613e79565b5b5f61487885828601613ef1565b925050602061488985828601614752565b9150509250929050565b5f6080820190508181035f8301526148ab8187613e18565b90506148ba6020830186613d9e565b81810360408301526148cc818561428f565b905081810360608301526148e0818461428f565b905095945050505050565b7f4e487b71000000000000000000000000000000000000000000000000000000005f52603260045260245ffd5b7f4e487b71000000000000000000000000000000000000000000000000000000005f52601160045260245ffd5b5f61494f82613d95565b91507fffffffffffffffffffffffffffffffffffffffffffffffffffffffffffffffff820361498157614980614918565b5b600182019050919050565b7f4e487b71000000000000000000000000000000000000000000000000000000005f52602260045260245ffd5b5f60028204905060018216806149d057607f821691505b6020821081036149e3576149e261498c565b5b50919050565b5f6149f382613d95565b91506149fe83613d95565b9250828203905081811115614a1657614a15614918565b5b92915050565b5f81519050614a2a81613edb565b92915050565b5f60208284031215614a4557614a44613e79565b5b5f614a5284828501614a1c565b91505092915050565b5f6020820190508181035f830152614a73818461428f565b905092915050565b7f4e487b71000000000000000000000000000000000000000000000000000000005f52601260045260245ffd5b5f614ab282613d95565b9150614abd83613d95565b925082614acd57614acc614a7b565b5b828204905092915050565b5f606082019050614aeb5f830186614319565b614af86020830185614319565b614b056040830184613d9e565b949350505050565b5f81519050614b1b8161473c565b92915050565b5f60208284031215614b3657614b35613e79565b5b5f614b4384828501614b0d565b91505092915050565b5f614b5682613d95565b9150614b6183613d95565b9250828201905080821115614b7957614b78614918565b5b92915050565b5f819050919050565b5f614ba2614b9d614b9884614b7f565b6145df565b613d95565b9050919050565b614bb281614b88565b82525050565b5f606082019050614bcb5f830186614319565b614bd86020830185614319565b614be56040830184614ba9565b949350505050565b5f819050815f5260205f209050919050565b5f6020601f8301049050919050565b5f82821b905092915050565b5f60088302614c497fffffffffffffffffffffffffffffffffffffffffffffffffffffffffffffffff82614c0e565b614c538683614c0e565b95508019841693508086168417925050509392505050565b5f614c85614c80614c7b84613d95565b6145df565b613d95565b9050919050565b5f819050919050565b614c9e83614c6b565b614cb2614caa82614c8c565b848454614c1a565b825550505050565b5f90565b614cc6614cba565b614cd1818484614c95565b505050565b5b81811015614cf457614ce95f82614cbe565b600181019050614cd7565b5050565b601f821115614d3957614d0a81614bed565b614d1384614bff565b81016020851015614d22578190505b614d36614d2e85614bff565b830182614cd6565b50505b505050565b5f82821c905092915050565b5f614d595f1984600802614d3e565b1980831691505092915050565b5f614d718383614d4a565b9150826002028217905092915050565b614d8a82613dc6565b67ffffffffffffffff811115614da357614da2614073565b5b614dad82546149b9565b614db8828285614cf8565b5f60209050601f831160018114614de9575f8415614dd7578287015190505b614de18582614d66565b865550614e48565b601f198416614df786614bed565b5f5b82811015614e1e57848901518255600182019150602085019450602081019050614df9565b86831015614e3b5784890151614e37601f891682614d4a565b8355505b6001600288020188555050505b505050505050565b5f81549050919050565b5f82825260208201905092915050565b5f819050815f5260205f209050919050565b614e8581613f43565b82525050565b5f815f1c9050919050565b5f60ff82169050919050565b5f614eb4614eaf83614e8b565b614e96565b9050919050565b5f8160081c9050919050565b5f614ed9614ed483614ebb565b614e96565b9050919050565b5f8160101c9050919050565b5f614efe614ef983614ee0565b614e96565b9050919050565b5f8160181c9050919050565b5f614f23614f1e83614f05565b614e96565b9050919050565b5f8160201c9050919050565b5f614f48614f4383614f2a565b614e96565b9050919050565b5f8160281c9050919050565b5f614f6d614f6883614f4f565b614e96565b9050919050565b5f8160301c9050919050565b5f614f92614f8d83614f74565b614e96565b9050919050565b5f8160381c9050919050565b5f614fb7614fb283614f99565b614e96565b9050919050565b5f8160401c9050919050565b5f614fdc614fd783614fbe565b614e96565b9050919050565b5f8160481c9050919050565b5f615001614ffc83614fe3565b614e96565b9050919050565b5f8160501c9050919050565b5f61502661502183615008565b614e96565b9050919050565b5f8160581c9050919050565b5f61504b6150468361502d565b614e96565b9050919050565b5f8160601c9050919050565b5f61507061506b83615052565b614e96565b9050919050565b5f8160681c9050919050565b5f61509561509083615077565b614e96565b9050919050565b5f8160701c9050919050565b5f6150ba6150b58361509c565b614e96565b9050919050565b5f8160781c9050919050565b5f6150df6150da836150c1565b614e96565b9050919050565b5f8160801c9050919050565b5f6151046150ff836150e6565b614e96565b9050919050565b5f8160881c9050919050565b5f6151296151248361510b565b614e96565b9050919050565b5f8160901c9050919050565b5f61514e61514983615130565b614e96565b9050919050565b5f8160981c9050919050565b5f61517361516e83615155565b614e96565b9050919050565b5f8160a01c9050919050565b5f6151986151938361517a565b614e96565b9050919050565b5f8160a81c9050919050565b5f6151bd6151b88361519f565b614e96565b9050919050565b5f8160b01c9050919050565b5f6151e26151dd836151c4565b614e96565b9050919050565b5f8160b81c9050919050565b5f615207615202836151e9565b614e96565b9050919050565b5f8160c01c9050919050565b5f61522c6152278361520e565b614e96565b9050919050565b5f8160c81c9050919050565b5f61525161524c83615233565b614e96565b9050919050565b5f8160d01c9050919050565b5f61527661527183615258565b614e96565b9050919050565b5f8160d81c9050919050565b5f61529b6152968361527d565b614e96565b9050919050565b5f8160e01c9050919050565b5f6152c06152bb836152a2565b614e96565b9050919050565b5f8160e81c9050919050565b5f6152e56152e0836152c7565b614e96565b9050919050565b5f8160f01c9050919050565b5f61530a615305836152ec565b614e96565b9050919050565b5f8160f81c9050919050565b5f61532f61532a83615311565b614e96565b9050919050565b5f61534082614e50565b61534a8185614e5a565b93508361535684614e6a565b5f600115615682575b836001602003820110156156815781546153818861537c83614ea2565b614e7c565b6020880197506153998861539483614ec7565b614e7c565b6020880197506153b1886153ac83614eec565b614e7c565b6020880197506153c9886153c483614f11565b614e7c565b6020880197506153e1886153dc83614f36565b614e7c565b6020880197506153f9886153f483614f5b565b614e7c565b6020880197506154118861540c83614f80565b614e7c565b6020880197506154298861542483614fa5565b614e7c565b6020880197506154418861543c83614fca565b614e7c565b6020880197506154598861545483614fef565b614e7c565b6020880197506154718861546c83615014565b614e7c565b6020880197506154898861548483615039565b614e7c565b6020880197506154a18861549c8361505e565b614e7c565b6020880197506154b9886154b483615083565b614e7c565b6020880197506154d1886154cc836150a8565b614e7c565b6020880197506154e9886154e4836150cd565b614e7c565b602088019750615501886154fc836150f2565b614e7c565b6020880197506155198861551483615117565b614e7c565b6020880197506155318861552c8361513c565b614e7c565b6020880197506155498861554483615161565b614e7c565b6020880197506155618861555c83615186565b614e7c565b60208801975061557988615574836151ab565b614e7c565b6020880197506155918861558c836151d0565b614e7c565b6020880197506155a9886155a4836151f5565b614e7c565b6020880197506155c1886155bc8361521a565b614e7c565b6020880197506155d9886155d48361523f565b614e7c565b6020880197506155f1886155ec83615264565b614e7c565b6020880197506156098861560483615289565b614e7c565b6020880197506156218861561c836152ae565b614e7c565b60208801975061563988615634836152d3565b614e7c565b6020880197506156518861564c836152f8565b614e7c565b602088019750615669886156648361531d565b614e7c565b6020880197506001830192505060208101905061535f565b5b600115615b6d578154848210156156b2576156a5886156a083614ea2565b614e7c565b6020880197506001820191505b848210156156d9576156cc886156c783614ec7565b614e7c565b6020880197506001820191505b84821015615700576156f3886156ee83614eec565b614e7c565b6020880197506001820191505b848210156157275761571a8861571583614f11565b614e7c565b6020880197506001820191505b8482101561574e576157418861573c83614f36565b614e7c565b6020880197506001820191505b84821015615775576157688861576383614f5b565b614e7c565b6020880197506001820191505b8482101561579c5761578f8861578a83614f80565b614e7c565b6020880197506001820191505b848210156157c3576157b6886157b183614fa5565b614e7c565b6020880197506001820191505b848210156157ea576157dd886157d883614fca565b614e7c565b6020880197506001820191505b8482101561581157615804886157ff83614fef565b614e7c565b6020880197506001820191505b848210156158385761582b8861582683615014565b614e7c565b6020880197506001820191505b8482101561585f576158528861584d83615039565b614e7c565b6020880197506001820191505b8482101561588657615879886158748361505e565b614e7c565b6020880197506001820191505b848210156158ad576158a08861589b83615083565b614e7c565b6020880197506001820191505b848210156158d4576158c7886158c2836150a8565b614e7c565b6020880197506001820191505b848210156158fb576158ee886158e9836150cd565b614e7c565b6020880197506001820191505b848210156159225761591588615910836150f2565b614e7c565b6020880197506001820191505b848210156159495761593c8861593783615117565b614e7c565b6020880197506001820191505b84821015615970576159638861595e8361513c565b614e7c565b6020880197506001820191505b848210156159975761598a8861598583615161565b614e7c565b6020880197506001820191505b848210156159be576159b1886159ac83615186565b614e7c565b6020880197506001820191505b848210156159e5576159d8886159d3836151ab565b614e7c565b6020880197506001820191505b84821015615a0c576159ff886159fa836151d0565b614e7c565b6020880197506001820191505b84821015615a3357615a2688615a21836151f5565b614e7c565b6020880197506001820191505b84821015615a5a57615a4d88615a488361521a565b614e7c565b6020880197506001820191505b84821015615a8157615a7488615a6f8361523f565b614e7c565b6020880197506001820191505b84821015615aa857615a9b88615a9683615264565b614e7c565b6020880197506001820191505b84821015615acf57615ac288615abd83615289565b614e7c565b6020880197506001820191505b84821015615af657615ae988615ae4836152ae565b614e7c565b6020880197506001820191505b84821015615b1d57615b1088615b0b836152d3565b614e7c565b6020880197506001820191505b84821015615b4457615b3788615b32836152f8565b614e7c565b6020880197506001820191505b84821015615b6b57615b5e88615b598361531d565b614e7c565b6020880197506001820191505b505b8694505050505092915050565b5f6020820190508181035f830152615b928184615336565b905092915050565b5f819050919050565b5f615bbd615bb8615bb384615b9a565b6145df565b613d95565b9050919050565b615bcd81615ba3565b82525050565b5f606082019050615be65f830186614319565b615bf36020830185614319565b615c006040830184615bc4565b949350505050565b5f81519050919050565b5f819050602082019050919050565b5f615c2c8383614e7c565b60208301905092915050565b5f602082019050919050565b5f615c4e82615c08565b615c588185614e5a565b9350615c6383615c12565b805f5b83811015615c93578151615c7a8882615c21565b9750615c8583615c38565b925050600181019050615c66565b5085935050505092915050565b5f6020820190508181035f830152615cb88184615c44565b905092915050565b5f606082019050615cd35f830186614319565b615ce06020830185613d9e565b615ced6040830184613d9e565b94935050505056fea2646970667358221220c285a8d6f220947946bb3dc26c9cab315f751b6f8a5d5d7645285600daa3b98164736f6c63430008160033",
			"opcodes": "PUSH1 0x80 PUSH1 0x40 MSTORE CALLVALUE DUP1 ISZERO PUSH3 0x10 JUMPI PUSH0 DUP1 REVERT JUMPDEST POP PUSH1 0x40 MLOAD PUSH3 0x65E8 CODESIZE SUB DUP1 PUSH3 0x65E8 DUP4 CODECOPY DUP2 DUP2 ADD PUSH1 0x40 MSTORE DUP2 ADD SWAP1 PUSH3 0x36 SWAP2 SWAP1 PUSH3 0x43D JUMP JUMPDEST PUSH1 0x40 MLOAD DUP1 PUSH1 0x40 ADD PUSH1 0x40 MSTORE DUP1 PUSH1 0xB DUP2 MSTORE PUSH1 0x20 ADD PUSH32 0x4D79476F7620546F6B656E000000000000000000000000000000000000000000 DUP2 MSTORE POP PUSH1 0x40 MLOAD DUP1 PUSH1 0x40 ADD PUSH1 0x40 MSTORE DUP1 PUSH1 0x2 DUP2 MSTORE PUSH1 0x20 ADD PUSH32 0x4D47000000000000000000000000000000000000000000000000000000000000 DUP2 MSTORE POP DUP2 PUSH1 0x3 SWAP1 DUP2 PUSH3 0xB3 SWAP2 SWAP1 PUSH3 0x6D1 JUMP JUMPDEST POP DUP1 PUSH1 0x4 SWAP1 DUP2 PUSH3 0xC5 SWAP2 SWAP1 PUSH3 0x6D1 JUMP JUMPDEST POP POP POP PUSH0 PUSH4 0x1312D00 SWAP1 POP PUSH3 0xE2 CALLER DUP3 PUSH3 0x12A PUSH1 0x20 SHL PUSH1 0x20 SHR JUMP JUMPDEST DUP2 PUSH1 0x5 PUSH0 PUSH2 0x100 EXP DUP2 SLOAD DUP2 PUSH20 0xFFFFFFFFFFFFFFFFFFFFFFFFFFFFFFFFFFFFFFFF MUL NOT AND SWAP1 DUP4 PUSH20 0xFFFFFFFFFFFFFFFFFFFFFFFFFFFFFFFFFFFFFFFF AND MUL OR SWAP1 SSTORE POP POP POP PUSH3 0x8AF JUMP JUMPDEST PUSH0 PUSH20 0xFFFFFFFFFFFFFFFFFFFFFFFFFFFFFFFFFFFFFFFF AND DUP3 PUSH20 0xFFFFFFFFFFFFFFFFFFFFFFFFFFFFFFFFFFFFFFFF AND SUB PUSH3 0x19D JUMPI PUSH0 PUSH1 0x40 MLOAD PUSH32 0xEC442F0500000000000000000000000000000000000000000000000000000000 DUP2 MSTORE PUSH1 0x4 ADD PUSH3 0x194 SWAP2 SWAP1 PUSH3 0x7C6 JUMP JUMPDEST PUSH1 0x40 MLOAD DUP1 SWAP2 SUB SWAP1 REVERT JUMPDEST PUSH3 0x1B0 PUSH0 DUP4 DUP4 PUSH3 0x1B4 PUSH1 0x20 SHL PUSH1 0x20 SHR JUMP JUMPDEST POP POP JUMP JUMPDEST PUSH0 PUSH20 0xFFFFFFFFFFFFFFFFFFFFFFFFFFFFFFFFFFFFFFFF AND DUP4 PUSH20 0xFFFFFFFFFFFFFFFFFFFFFFFFFFFFFFFFFFFFFFFF AND SUB PUSH3 0x208 JUMPI DUP1 PUSH1 0x2 PUSH0 DUP3 DUP3 SLOAD PUSH3 0x1FB SWAP2 SWAP1 PUSH3 0x80E JUMP JUMPDEST SWAP3 POP POP DUP2 SWAP1 SSTORE POP PUSH3 0x2D9 JUMP JUMPDEST PUSH0 DUP1 PUSH0 DUP6 PUSH20 0xFFFFFFFFFFFFFFFFFFFFFFFFFFFFFFFFFFFFFFFF AND PUSH20 0xFFFFFFFFFFFFFFFFFFFFFFFFFFFFFFFFFFFFFFFF AND DUP2 MSTORE PUSH1 0x20 ADD SWAP1 DUP2 MSTORE PUSH1 0x20 ADD PUSH0 KECCAK256 SLOAD SWAP1 POP DUP2 DUP2 LT ISZERO PUSH3 0x294 JUMPI DUP4 DUP2 DUP4 PUSH1 0x40 MLOAD PUSH32 0xE450D38C00000000000000000000000000000000000000000000000000000000 DUP2 MSTORE PUSH1 0x4 ADD PUSH3 0x28B SWAP4 SWAP3 SWAP2 SWAP1 PUSH3 0x859 JUMP JUMPDEST PUSH1 0x40 MLOAD DUP1 SWAP2 SUB SWAP1 REVERT JUMPDEST DUP2 DUP2 SUB PUSH0 DUP1 DUP7 PUSH20 0xFFFFFFFFFFFFFFFFFFFFFFFFFFFFFFFFFFFFFFFF AND PUSH20 0xFFFFFFFFFFFFFFFFFFFFFFFFFFFFFFFFFFFFFFFF AND DUP2 MSTORE PUSH1 0x20 ADD SWAP1 DUP2 MSTORE PUSH1 0x20 ADD PUSH0 KECCAK256 DUP2 SWAP1 SSTORE POP POP JUMPDEST PUSH0 PUSH20 0xFFFFFFFFFFFFFFFFFFFFFFFFFFFFFFFFFFFFFFFF AND DUP3 PUSH20 0xFFFFFFFFFFFFFFFFFFFFFFFFFFFFFFFFFFFFFFFF AND SUB PUSH3 0x322 JUMPI DUP1 PUSH1 0x2 PUSH0 DUP3 DUP3 SLOAD SUB SWAP3 POP POP DUP2 SWAP1 SSTORE POP PUSH3 0x36C JUMP JUMPDEST DUP1 PUSH0 DUP1 DUP5 PUSH20 0xFFFFFFFFFFFFFFFFFFFFFFFFFFFFFFFFFFFFFFFF AND PUSH20 0xFFFFFFFFFFFFFFFFFFFFFFFFFFFFFFFFFFFFFFFF AND DUP2 MSTORE PUSH1 0x20 ADD SWAP1 DUP2 MSTORE PUSH1 0x20 ADD PUSH0 KECCAK256 PUSH0 DUP3 DUP3 SLOAD ADD SWAP3 POP POP DUP2 SWAP1 SSTORE POP JUMPDEST DUP2 PUSH20 0xFFFFFFFFFFFFFFFFFFFFFFFFFFFFFFFFFFFFFFFF AND DUP4 PUSH20 0xFFFFFFFFFFFFFFFFFFFFFFFFFFFFFFFFFFFFFFFF AND PUSH32 0xDDF252AD1BE2C89B69C2B068FC378DAA952BA7F163C4A11628F55A4DF523B3EF DUP4 PUSH1 0x40 MLOAD PUSH3 0x3CB SWAP2 SWAP1 PUSH3 0x894 JUMP JUMPDEST PUSH1 0x40 MLOAD DUP1 SWAP2 SUB SWAP1 LOG3 POP POP POP JUMP JUMPDEST PUSH0 DUP1 REVERT JUMPDEST PUSH0 PUSH20 0xFFFFFFFFFFFFFFFFFFFFFFFFFFFFFFFFFFFFFFFF DUP3 AND SWAP1 POP SWAP2 SWAP1 POP JUMP JUMPDEST PUSH0 PUSH3 0x407 DUP3 PUSH3 0x3DC JUMP JUMPDEST SWAP1 POP SWAP2 SWAP1 POP JUMP JUMPDEST PUSH3 0x419 DUP2 PUSH3 0x3FB JUMP JUMPDEST DUP2 EQ PUSH3 0x424 JUMPI PUSH0 DUP1 REVERT JUMPDEST POP JUMP JUMPDEST PUSH0 DUP2 MLOAD SWAP1 POP PUSH3 0x437 DUP2 PUSH3 0x40E JUMP JUMPDEST SWAP3 SWAP2 POP POP JUMP JUMPDEST PUSH0 PUSH1 0x20 DUP3 DUP5 SUB SLT ISZERO PUSH3 0x455 JUMPI PUSH3 0x454 PUSH3 0x3D8 JUMP JUMPDEST JUMPDEST PUSH0 PUSH3 0x464 DUP5 DUP3 DUP6 ADD PUSH3 0x427 JUMP JUMPDEST SWAP2 POP POP SWAP3 SWAP2 POP POP JUMP JUMPDEST PUSH0 DUP2 MLOAD SWAP1 POP SWAP2 SWAP1 POP JUMP JUMPDEST PUSH32 0x4E487B7100000000000000000000000000000000000000000000000000000000 PUSH0 MSTORE PUSH1 0x41 PUSH1 0x4 MSTORE PUSH1 0x24 PUSH0 REVERT JUMPDEST PUSH32 0x4E487B7100000000000000000000000000000000000000000000000000000000 PUSH0 MSTORE PUSH1 0x22 PUSH1 0x4 MSTORE PUSH1 0x24 PUSH0 REVERT JUMPDEST PUSH0 PUSH1 0x2 DUP3 DIV SWAP1 POP PUSH1 0x1 DUP3 AND DUP1 PUSH3 0x4E9 JUMPI PUSH1 0x7F DUP3 AND SWAP2 POP JUMPDEST PUSH1 0x20 DUP3 LT DUP2 SUB PUSH3 0x4FF JUMPI PUSH3 0x4FE PUSH3 0x4A4 JUMP JUMPDEST JUMPDEST POP SWAP2 SWAP1 POP JUMP JUMPDEST PUSH0 DUP2 SWAP1 POP DUP2 PUSH0 MSTORE PUSH1 0x20 PUSH0 KECCAK256 SWAP1 POP SWAP2 SWAP1 POP JUMP JUMPDEST PUSH0 PUSH1 0x20 PUSH1 0x1F DUP4 ADD DIV SWAP1 POP SWAP2 SWAP1 POP JUMP JUMPDEST PUSH0 DUP3 DUP3 SHL SWAP1 POP SWAP3 SWAP2 POP POP JUMP JUMPDEST PUSH0 PUSH1 0x8 DUP4 MUL PUSH3 0x563 PUSH32 0xFFFFFFFFFFFFFFFFFFFFFFFFFFFFFFFFFFFFFFFFFFFFFFFFFFFFFFFFFFFFFFFF DUP3 PUSH3 0x526 JUMP JUMPDEST PUSH3 0x56F DUP7 DUP4 PUSH3 0x526 JUMP JUMPDEST SWAP6 POP DUP1 NOT DUP5 AND SWAP4 POP DUP1 DUP7 AND DUP5 OR SWAP3 POP POP POP SWAP4 SWAP3 POP POP POP JUMP JUMPDEST PUSH0 DUP2 SWAP1 POP SWAP2 SWAP1 POP JUMP JUMPDEST PUSH0 DUP2 SWAP1 POP SWAP2 SWAP1 POP JUMP JUMPDEST PUSH0 PUSH3 0x5B9 PUSH3 0x5B3 PUSH3 0x5AD DUP5 PUSH3 0x587 JUMP JUMPDEST PUSH3 0x590 JUMP JUMPDEST PUSH3 0x587 JUMP JUMPDEST SWAP1 POP SWAP2 SWAP1 POP JUMP JUMPDEST PUSH0 DUP2 SWAP1 POP SWAP2 SWAP1 POP JUMP JUMPDEST PUSH3 0x5D4 DUP4 PUSH3 0x599 JUMP JUMPDEST PUSH3 0x5EC PUSH3 0x5E3 DUP3 PUSH3 0x5C0 JUMP JUMPDEST DUP5 DUP5 SLOAD PUSH3 0x532 JUMP JUMPDEST DUP3 SSTORE POP POP POP POP JUMP JUMPDEST PUSH0 SWAP1 JUMP JUMPDEST PUSH3 0x602 PUSH3 0x5F4 JUMP JUMPDEST PUSH3 0x60F DUP2 DUP5 DUP5 PUSH3 0x5C9 JUMP JUMPDEST POP POP POP JUMP JUMPDEST JUMPDEST DUP2 DUP2 LT ISZERO PUSH3 0x636 JUMPI PUSH3 0x62A PUSH0 DUP3 PUSH3 0x5F8 JUMP JUMPDEST PUSH1 0x1 DUP2 ADD SWAP1 POP PUSH3 0x615 JUMP JUMPDEST POP POP JUMP JUMPDEST PUSH1 0x1F DUP3 GT ISZERO PUSH3 0x685 JUMPI PUSH3 0x64F DUP2 PUSH3 0x505 JUMP JUMPDEST PUSH3 0x65A DUP5 PUSH3 0x517 JUMP JUMPDEST DUP2 ADD PUSH1 0x20 DUP6 LT ISZERO PUSH3 0x66A JUMPI DUP2 SWAP1 POP JUMPDEST PUSH3 0x682 PUSH3 0x679 DUP6 PUSH3 0x517 JUMP JUMPDEST DUP4 ADD DUP3 PUSH3 0x614 JUMP JUMPDEST POP POP JUMPDEST POP POP POP JUMP JUMPDEST PUSH0 DUP3 DUP3 SHR SWAP1 POP SWAP3 SWAP2 POP POP JUMP JUMPDEST PUSH0 PUSH3 0x6A7 PUSH0 NOT DUP5 PUSH1 0x8 MUL PUSH3 0x68A JUMP JUMPDEST NOT DUP1 DUP4 AND SWAP2 POP POP SWAP3 SWAP2 POP POP JUMP JUMPDEST PUSH0 PUSH3 0x6C1 DUP4 DUP4 PUSH3 0x696 JUMP JUMPDEST SWAP2 POP DUP3 PUSH1 0x2 MUL DUP3 OR SWAP1 POP SWAP3 SWAP2 POP POP JUMP JUMPDEST PUSH3 0x6DC DUP3 PUSH3 0x46D JUMP JUMPDEST PUSH8 0xFFFFFFFFFFFFFFFF DUP2 GT ISZERO PUSH3 0x6F8 JUMPI PUSH3 0x6F7 PUSH3 0x477 JUMP JUMPDEST JUMPDEST PUSH3 0x704 DUP3 SLOAD PUSH3 0x4D1 JUMP JUMPDEST PUSH3 0x711 DUP3 DUP3 DUP6 PUSH3 0x63A JUMP JUMPDEST PUSH0 PUSH1 0x20 SWAP1 POP PUSH1 0x1F DUP4 GT PUSH1 0x1 DUP2 EQ PUSH3 0x747 JUMPI PUSH0 DUP5 ISZERO PUSH3 0x732 JUMPI DUP3 DUP8 ADD MLOAD SWAP1 POP JUMPDEST PUSH3 0x73E DUP6 DUP3 PUSH3 0x6B4 JUMP JUMPDEST DUP7 SSTORE POP PUSH3 0x7AD JUMP JUMPDEST PUSH1 0x1F NOT DUP5 AND PUSH3 0x757 DUP7 PUSH3 0x505 JUMP JUMPDEST PUSH0 JUMPDEST DUP3 DUP2 LT ISZERO PUSH3 0x780 JUMPI DUP5 DUP10 ADD MLOAD DUP3 SSTORE PUSH1 0x1 DUP3 ADD SWAP2 POP PUSH1 0x20 DUP6 ADD SWAP5 POP PUSH1 0x20 DUP2 ADD SWAP1 POP PUSH3 0x759 JUMP JUMPDEST DUP7 DUP4 LT ISZERO PUSH3 0x7A0 JUMPI DUP5 DUP10 ADD MLOAD PUSH3 0x79C PUSH1 0x1F DUP10 AND DUP3 PUSH3 0x696 JUMP JUMPDEST DUP4 SSTORE POP JUMPDEST PUSH1 0x1 PUSH1 0x2 DUP9 MUL ADD DUP9 SSTORE POP POP POP JUMPDEST POP POP POP POP POP POP JUMP JUMPDEST PUSH3 0x7C0 DUP2 PUSH3 0x3FB JUMP JUMPDEST DUP3 MSTORE POP POP JUMP JUMPDEST PUSH0 PUSH1 0x20 DUP3 ADD SWAP1 POP PUSH3 0x7DB PUSH0 DUP4 ADD DUP5 PUSH3 0x7B5 JUMP JUMPDEST SWAP3 SWAP2 POP POP JUMP JUMPDEST PUSH32 0x4E487B7100000000000000000000000000000000000000000000000000000000 PUSH0 MSTORE PUSH1 0x11 PUSH1 0x4 MSTORE PUSH1 0x24 PUSH0 REVERT JUMPDEST PUSH0 PUSH3 0x81A DUP3 PUSH3 0x587 JUMP JUMPDEST SWAP2 POP PUSH3 0x827 DUP4 PUSH3 0x587 JUMP JUMPDEST SWAP3 POP DUP3 DUP3 ADD SWAP1 POP DUP1 DUP3 GT ISZERO PUSH3 0x842 JUMPI PUSH3 0x841 PUSH3 0x7E1 JUMP JUMPDEST JUMPDEST SWAP3 SWAP2 POP POP JUMP JUMPDEST PUSH3 0x853 DUP2 PUSH3 0x587 JUMP JUMPDEST DUP3 MSTORE POP POP JUMP JUMPDEST PUSH0 PUSH1 0x60 DUP3 ADD SWAP1 POP PUSH3 0x86E PUSH0 DUP4 ADD DUP7 PUSH3 0x7B5 JUMP JUMPDEST PUSH3 0x87D PUSH1 0x20 DUP4 ADD DUP6 PUSH3 0x848 JUMP JUMPDEST PUSH3 0x88C PUSH1 0x40 DUP4 ADD DUP5 PUSH3 0x848 JUMP JUMPDEST SWAP5 SWAP4 POP POP POP POP JUMP JUMPDEST PUSH0 PUSH1 0x20 DUP3 ADD SWAP1 POP PUSH3 0x8A9 PUSH0 DUP4 ADD DUP5 PUSH3 0x848 JUMP JUMPDEST SWAP3 SWAP2 POP POP JUMP JUMPDEST PUSH2 0x5D2B DUP1 PUSH3 0x8BD PUSH0 CODECOPY PUSH0 RETURN INVALID PUSH1 0x80 PUSH1 0x40 MSTORE CALLVALUE DUP1 ISZERO PUSH2 0xF JUMPI PUSH0 DUP1 REVERT JUMPDEST POP PUSH1 0x4 CALLDATASIZE LT PUSH2 0x272 JUMPI PUSH0 CALLDATALOAD PUSH1 0xE0 SHR DUP1 PUSH4 0x9FD0915D GT PUSH2 0x14F JUMPI DUP1 PUSH4 0xD437E565 GT PUSH2 0xC1 JUMPI DUP1 PUSH4 0xDD62ED3E GT PUSH2 0x85 JUMPI DUP1 PUSH4 0xDD62ED3E EQ PUSH2 0x853 JUMPI DUP1 PUSH4 0xDE5F72FD EQ PUSH2 0x883 JUMPI DUP1 PUSH4 0xEF269AE3 EQ PUSH2 0x88D JUMPI DUP1 PUSH4 0xF190F421 EQ PUSH2 0x8BD JUMPI DUP1 PUSH4 0xF22449BA EQ PUSH2 0x8D9 JUMPI DUP1 PUSH4 0xFABF5968 EQ PUSH2 0x8F5 JUMPI PUSH2 0x272 JUMP JUMPDEST DUP1 PUSH4 0xD437E565 EQ PUSH2 0x781 JUMPI DUP1 PUSH4 0xD915902E EQ PUSH2 0x7B1 JUMPI DUP1 PUSH4 0xDACC5370 EQ PUSH2 0x7CD JUMPI DUP1 PUSH4 0xDBC1D569 EQ PUSH2 0x7FD JUMPI DUP1 PUSH4 0xDCB57DC0 EQ PUSH2 0x835 JUMPI PUSH2 0x272 JUMP JUMPDEST DUP1 PUSH4 0xB756441B GT PUSH2 0x113 JUMPI DUP1 PUSH4 0xB756441B EQ PUSH2 0x69B JUMPI DUP1 PUSH4 0xBAF8EFB3 EQ PUSH2 0x6CB JUMPI DUP1 PUSH4 0xBD275764 EQ PUSH2 0x6E7 JUMPI DUP1 PUSH4 0xBF50556D EQ PUSH2 0x703 JUMPI DUP1 PUSH4 0xC029AAC6 EQ PUSH2 0x721 JUMPI DUP1 PUSH4 0xCBE0135C EQ PUSH2 0x751 JUMPI PUSH2 0x272 JUMP JUMPDEST DUP1 PUSH4 0x9FD0915D EQ PUSH2 0x5BF JUMPI DUP1 PUSH4 0xA1669B32 EQ PUSH2 0x5EF JUMPI DUP1 PUSH4 0xA220E64A EQ PUSH2 0x60B JUMPI DUP1 PUSH4 0xA5E898E1 EQ PUSH2 0x63B JUMPI DUP1 PUSH4 0xA9059CBB EQ PUSH2 0x66B JUMPI PUSH2 0x272 JUMP JUMPDEST DUP1 PUSH4 0x5D801B37 GT PUSH2 0x1E8 JUMPI DUP1 PUSH4 0x7C405164 GT PUSH2 0x1AC JUMPI DUP1 PUSH4 0x7C405164 EQ PUSH2 0x4D4 JUMPI DUP1 PUSH4 0x86E68B90 EQ PUSH2 0x4F0 JUMPI DUP1 PUSH4 0x8F827018 EQ PUSH2 0x525 JUMPI DUP1 PUSH4 0x92256AEC EQ PUSH2 0x555 JUMPI DUP1 PUSH4 0x95D89B41 EQ PUSH2 0x585 JUMPI DUP1 PUSH4 0x99F7FEE1 EQ PUSH2 0x5A3 JUMPI PUSH2 0x272 JUMP JUMPDEST DUP1 PUSH4 0x5D801B37 EQ PUSH2 0x409 JUMPI DUP1 PUSH4 0x702798DF EQ PUSH2 0x427 JUMPI DUP1 PUSH4 0x70A08231 EQ PUSH2 0x443 JUMPI DUP1 PUSH4 0x70A56C73 EQ PUSH2 0x473 JUMPI DUP1 PUSH4 0x79585AA8 EQ PUSH2 0x4A4 JUMPI PUSH2 0x272 JUMP JUMPDEST DUP1 PUSH4 0x23B872DD GT PUSH2 0x23A JUMPI DUP1 PUSH4 0x23B872DD EQ PUSH2 0x330 JUMPI DUP1 PUSH4 0x23FD498B EQ PUSH2 0x360 JUMPI DUP1 PUSH4 0x2E8F3413 EQ PUSH2 0x37E JUMPI DUP1 PUSH4 0x313CE567 EQ PUSH2 0x3B1 JUMPI DUP1 PUSH4 0x39C94D2D EQ PUSH2 0x3CF JUMPI DUP1 PUSH4 0x3C59605A EQ PUSH2 0x3EB JUMPI PUSH2 0x272 JUMP JUMPDEST DUP1 PUSH4 0x60FBE58 EQ PUSH2 0x276 JUMPI DUP1 PUSH4 0x6FDDE03 EQ PUSH2 0x294 JUMPI DUP1 PUSH4 0x95EA7B3 EQ PUSH2 0x2B2 JUMPI DUP1 PUSH4 0x18160DDD EQ PUSH2 0x2E2 JUMPI DUP1 PUSH4 0x1D2ACDFD EQ PUSH2 0x300 JUMPI JUMPDEST PUSH0 DUP1 REVERT JUMPDEST PUSH2 0x27E PUSH2 0x928 JUMP JUMPDEST PUSH1 0x40 MLOAD PUSH2 0x28B SWAP2 SWAP1 PUSH2 0x3DAD JUMP JUMPDEST PUSH1 0x40 MLOAD DUP1 SWAP2 SUB SWAP1 RETURN JUMPDEST PUSH2 0x29C PUSH2 0xACA JUMP JUMPDEST PUSH1 0x40 MLOAD PUSH2 0x2A9 SWAP2 SWAP1 PUSH2 0x3E50 JUMP JUMPDEST PUSH1 0x40 MLOAD DUP1 SWAP2 SUB SWAP1 RETURN JUMPDEST PUSH2 0x2CC PUSH1 0x4 DUP1 CALLDATASIZE SUB DUP2 ADD SWAP1 PUSH2 0x2C7 SWAP2 SWAP1 PUSH2 0x3F05 JUMP JUMPDEST PUSH2 0xB5A JUMP JUMPDEST PUSH1 0x40 MLOAD PUSH2 0x2D9 SWAP2 SWAP1 PUSH2 0x3F5D JUMP JUMPDEST PUSH1 0x40 MLOAD DUP1 SWAP2 SUB SWAP1 RETURN JUMPDEST PUSH2 0x2EA PUSH2 0xB7C JUMP JUMPDEST PUSH1 0x40 MLOAD PUSH2 0x2F7 SWAP2 SWAP1 PUSH2 0x3DAD JUMP JUMPDEST PUSH1 0x40 MLOAD DUP1 SWAP2 SUB SWAP1 RETURN JUMPDEST PUSH2 0x31A PUSH1 0x4 DUP1 CALLDATASIZE SUB DUP2 ADD SWAP1 PUSH2 0x315 SWAP2 SWAP1 PUSH2 0x3F76 JUMP JUMPDEST PUSH2 0xB85 JUMP JUMPDEST PUSH1 0x40 MLOAD PUSH2 0x327 SWAP2 SWAP1 PUSH2 0x3DAD JUMP JUMPDEST PUSH1 0x40 MLOAD DUP1 SWAP2 SUB SWAP1 RETURN JUMPDEST PUSH2 0x34A PUSH1 0x4 DUP1 CALLDATASIZE SUB DUP2 ADD SWAP1 PUSH2 0x345 SWAP2 SWAP1 PUSH2 0x3FA1 JUMP JUMPDEST PUSH2 0xCA7 JUMP JUMPDEST PUSH1 0x40 MLOAD PUSH2 0x357 SWAP2 SWAP1 PUSH2 0x3F5D JUMP JUMPDEST PUSH1 0x40 MLOAD DUP1 SWAP2 SUB SWAP1 RETURN JUMPDEST PUSH2 0x368 PUSH2 0xCD5 JUMP JUMPDEST PUSH1 0x40 MLOAD PUSH2 0x375 SWAP2 SWAP1 PUSH2 0x3DAD JUMP JUMPDEST PUSH1 0x40 MLOAD DUP1 SWAP2 SUB SWAP1 RETURN JUMPDEST PUSH2 0x398 PUSH1 0x4 DUP1 CALLDATASIZE SUB DUP2 ADD SWAP1 PUSH2 0x393 SWAP2 SWAP1 PUSH2 0x3F76 JUMP JUMPDEST PUSH2 0xCE1 JUMP JUMPDEST PUSH1 0x40 MLOAD PUSH2 0x3A8 SWAP5 SWAP4 SWAP3 SWAP2 SWAP1 PUSH2 0x3FF1 JUMP JUMPDEST PUSH1 0x40 MLOAD DUP1 SWAP2 SUB SWAP1 RETURN JUMPDEST PUSH2 0x3B9 PUSH2 0xE1D JUMP JUMPDEST PUSH1 0x40 MLOAD PUSH2 0x3C6 SWAP2 SWAP1 PUSH2 0x4056 JUMP JUMPDEST PUSH1 0x40 MLOAD DUP1 SWAP2 SUB SWAP1 RETURN JUMPDEST PUSH2 0x3E9 PUSH1 0x4 DUP1 CALLDATASIZE SUB DUP2 ADD SWAP1 PUSH2 0x3E4 SWAP2 SWAP1 PUSH2 0x3F76 JUMP JUMPDEST PUSH2 0xE25 JUMP JUMPDEST STOP JUMPDEST PUSH2 0x3F3 PUSH2 0xEA0 JUMP JUMPDEST PUSH1 0x40 MLOAD PUSH2 0x400 SWAP2 SWAP1 PUSH2 0x3DAD JUMP JUMPDEST PUSH1 0x40 MLOAD DUP1 SWAP2 SUB SWAP1 RETURN JUMPDEST PUSH2 0x411 PUSH2 0xF56 JUMP JUMPDEST PUSH1 0x40 MLOAD PUSH2 0x41E SWAP2 SWAP1 PUSH2 0x3DAD JUMP JUMPDEST PUSH1 0x40 MLOAD DUP1 SWAP2 SUB SWAP1 RETURN JUMPDEST PUSH2 0x441 PUSH1 0x4 DUP1 CALLDATASIZE SUB DUP2 ADD SWAP1 PUSH2 0x43C SWAP2 SWAP1 PUSH2 0x41AF JUMP JUMPDEST PUSH2 0xF62 JUMP JUMPDEST STOP JUMPDEST PUSH2 0x45D PUSH1 0x4 DUP1 CALLDATASIZE SUB DUP2 ADD SWAP1 PUSH2 0x458 SWAP2 SWAP1 PUSH2 0x4209 JUMP JUMPDEST PUSH2 0x11B6 JUMP JUMPDEST PUSH1 0x40 MLOAD PUSH2 0x46A SWAP2 SWAP1 PUSH2 0x3DAD JUMP JUMPDEST PUSH1 0x40 MLOAD DUP1 SWAP2 SUB SWAP1 RETURN JUMPDEST PUSH2 0x48D PUSH1 0x4 DUP1 CALLDATASIZE SUB DUP2 ADD SWAP1 PUSH2 0x488 SWAP2 SWAP1 PUSH2 0x3F76 JUMP JUMPDEST PUSH2 0x11FB JUMP JUMPDEST PUSH1 0x40 MLOAD PUSH2 0x49B SWAP3 SWAP2 SWAP1 PUSH2 0x42EB JUMP JUMPDEST PUSH1 0x40 MLOAD DUP1 SWAP2 SUB SWAP1 RETURN JUMPDEST PUSH2 0x4BE PUSH1 0x4 DUP1 CALLDATASIZE SUB DUP2 ADD SWAP1 PUSH2 0x4B9 SWAP2 SWAP1 PUSH2 0x3F76 JUMP JUMPDEST PUSH2 0x12AE JUMP JUMPDEST PUSH1 0x40 MLOAD PUSH2 0x4CB SWAP2 SWAP1 PUSH2 0x3F5D JUMP JUMPDEST PUSH1 0x40 MLOAD DUP1 SWAP2 SUB SWAP1 RETURN JUMPDEST PUSH2 0x4EE PUSH1 0x4 DUP1 CALLDATASIZE SUB DUP2 ADD SWAP1 PUSH2 0x4E9 SWAP2 SWAP1 PUSH2 0x3F76 JUMP JUMPDEST PUSH2 0x12CB JUMP JUMPDEST STOP JUMPDEST PUSH2 0x50A PUSH1 0x4 DUP1 CALLDATASIZE SUB DUP2 ADD SWAP1 PUSH2 0x505 SWAP2 SWAP1 PUSH2 0x3F76 JUMP JUMPDEST PUSH2 0x142B JUMP JUMPDEST PUSH1 0x40 MLOAD PUSH2 0x51C SWAP7 SWAP6 SWAP5 SWAP4 SWAP3 SWAP2 SWAP1 PUSH2 0x4328 JUMP JUMPDEST PUSH1 0x40 MLOAD DUP1 SWAP2 SUB SWAP1 RETURN JUMPDEST PUSH2 0x53F PUSH1 0x4 DUP1 CALLDATASIZE SUB DUP2 ADD SWAP1 PUSH2 0x53A SWAP2 SWAP1 PUSH2 0x4209 JUMP JUMPDEST PUSH2 0x1517 JUMP JUMPDEST PUSH1 0x40 MLOAD PUSH2 0x54C SWAP2 SWAP1 PUSH2 0x3F5D JUMP JUMPDEST PUSH1 0x40 MLOAD DUP1 SWAP2 SUB SWAP1 RETURN JUMPDEST PUSH2 0x56F PUSH1 0x4 DUP1 CALLDATASIZE SUB DUP2 ADD SWAP1 PUSH2 0x56A SWAP2 SWAP1 PUSH2 0x3F76 JUMP JUMPDEST PUSH2 0x1534 JUMP JUMPDEST PUSH1 0x40 MLOAD PUSH2 0x57C SWAP2 SWAP1 PUSH2 0x438E JUMP JUMPDEST PUSH1 0x40 MLOAD DUP1 SWAP2 SUB SWAP1 RETURN JUMPDEST PUSH2 0x58D PUSH2 0x158F JUMP JUMPDEST PUSH1 0x40 MLOAD PUSH2 0x59A SWAP2 SWAP1 PUSH2 0x3E50 JUMP JUMPDEST PUSH1 0x40 MLOAD DUP1 SWAP2 SUB SWAP1 RETURN JUMPDEST PUSH2 0x5BD PUSH1 0x4 DUP1 CALLDATASIZE SUB DUP2 ADD SWAP1 PUSH2 0x5B8 SWAP2 SWAP1 PUSH2 0x3F76 JUMP JUMPDEST PUSH2 0x161F JUMP JUMPDEST STOP JUMPDEST PUSH2 0x5D9 PUSH1 0x4 DUP1 CALLDATASIZE SUB DUP2 ADD SWAP1 PUSH2 0x5D4 SWAP2 SWAP1 PUSH2 0x3F05 JUMP JUMPDEST PUSH2 0x1A18 JUMP JUMPDEST PUSH1 0x40 MLOAD PUSH2 0x5E6 SWAP2 SWAP1 PUSH2 0x3F5D JUMP JUMPDEST PUSH1 0x40 MLOAD DUP1 SWAP2 SUB SWAP1 RETURN JUMPDEST PUSH2 0x609 PUSH1 0x4 DUP1 CALLDATASIZE SUB DUP2 ADD SWAP1 PUSH2 0x604 SWAP2 SWAP1 PUSH2 0x3F05 JUMP JUMPDEST PUSH2 0x1A42 JUMP JUMPDEST STOP JUMPDEST PUSH2 0x625 PUSH1 0x4 DUP1 CALLDATASIZE SUB DUP2 ADD SWAP1 PUSH2 0x620 SWAP2 SWAP1 PUSH2 0x3F05 JUMP JUMPDEST PUSH2 0x1C8A JUMP JUMPDEST PUSH1 0x40 MLOAD PUSH2 0x632 SWAP2 SWAP1 PUSH2 0x3F5D JUMP JUMPDEST PUSH1 0x40 MLOAD DUP1 SWAP2 SUB SWAP1 RETURN JUMPDEST PUSH2 0x655 PUSH1 0x4 DUP1 CALLDATASIZE SUB DUP2 ADD SWAP1 PUSH2 0x650 SWAP2 SWAP1 PUSH2 0x4457 JUMP JUMPDEST PUSH2 0x1CB4 JUMP JUMPDEST PUSH1 0x40 MLOAD PUSH2 0x662 SWAP2 SWAP1 PUSH2 0x3DAD JUMP JUMPDEST PUSH1 0x40 MLOAD DUP1 SWAP2 SUB SWAP1 RETURN JUMPDEST PUSH2 0x685 PUSH1 0x4 DUP1 CALLDATASIZE SUB DUP2 ADD SWAP1 PUSH2 0x680 SWAP2 SWAP1 PUSH2 0x3F05 JUMP JUMPDEST PUSH2 0x2247 JUMP JUMPDEST PUSH1 0x40 MLOAD PUSH2 0x692 SWAP2 SWAP1 PUSH2 0x3F5D JUMP JUMPDEST PUSH1 0x40 MLOAD DUP1 SWAP2 SUB SWAP1 RETURN JUMPDEST PUSH2 0x6B5 PUSH1 0x4 DUP1 CALLDATASIZE SUB DUP2 ADD SWAP1 PUSH2 0x6B0 SWAP2 SWAP1 PUSH2 0x450F JUMP JUMPDEST PUSH2 0x2269 JUMP JUMPDEST PUSH1 0x40 MLOAD PUSH2 0x6C2 SWAP2 SWAP1 PUSH2 0x3DAD JUMP JUMPDEST PUSH1 0x40 MLOAD DUP1 SWAP2 SUB SWAP1 RETURN JUMPDEST PUSH2 0x6E5 PUSH1 0x4 DUP1 CALLDATASIZE SUB DUP2 ADD SWAP1 PUSH2 0x6E0 SWAP2 SWAP1 PUSH2 0x3F76 JUMP JUMPDEST PUSH2 0x2289 JUMP JUMPDEST STOP JUMPDEST PUSH2 0x701 PUSH1 0x4 DUP1 CALLDATASIZE SUB DUP2 ADD SWAP1 PUSH2 0x6FC SWAP2 SWAP1 PUSH2 0x3F76 JUMP JUMPDEST PUSH2 0x2435 JUMP JUMPDEST STOP JUMPDEST PUSH2 0x70B PUSH2 0x2618 JUMP JUMPDEST PUSH1 0x40 MLOAD PUSH2 0x718 SWAP2 SWAP1 PUSH2 0x3DAD JUMP JUMPDEST PUSH1 0x40 MLOAD DUP1 SWAP2 SUB SWAP1 RETURN JUMPDEST PUSH2 0x73B PUSH1 0x4 DUP1 CALLDATASIZE SUB DUP2 ADD SWAP1 PUSH2 0x736 SWAP2 SWAP1 PUSH2 0x450F JUMP JUMPDEST PUSH2 0x2673 JUMP JUMPDEST PUSH1 0x40 MLOAD PUSH2 0x748 SWAP2 SWAP1 PUSH2 0x3F5D JUMP JUMPDEST PUSH1 0x40 MLOAD DUP1 SWAP2 SUB SWAP1 RETURN JUMPDEST PUSH2 0x76B PUSH1 0x4 DUP1 CALLDATASIZE SUB DUP2 ADD SWAP1 PUSH2 0x766 SWAP2 SWAP1 PUSH2 0x3F76 JUMP JUMPDEST PUSH2 0x269D JUMP JUMPDEST PUSH1 0x40 MLOAD PUSH2 0x778 SWAP2 SWAP1 PUSH2 0x3DAD JUMP JUMPDEST PUSH1 0x40 MLOAD DUP1 SWAP2 SUB SWAP1 RETURN JUMPDEST PUSH2 0x79B PUSH1 0x4 DUP1 CALLDATASIZE SUB DUP2 ADD SWAP1 PUSH2 0x796 SWAP2 SWAP1 PUSH2 0x450F JUMP JUMPDEST PUSH2 0x26D9 JUMP JUMPDEST PUSH1 0x40 MLOAD PUSH2 0x7A8 SWAP2 SWAP1 PUSH2 0x3F5D JUMP JUMPDEST PUSH1 0x40 MLOAD DUP1 SWAP2 SUB SWAP1 RETURN JUMPDEST PUSH2 0x7CB PUSH1 0x4 DUP1 CALLDATASIZE SUB DUP2 ADD SWAP1 PUSH2 0x7C6 SWAP2 SWAP1 PUSH2 0x3F76 JUMP JUMPDEST PUSH2 0x2703 JUMP JUMPDEST STOP JUMPDEST PUSH2 0x7E7 PUSH1 0x4 DUP1 CALLDATASIZE SUB DUP2 ADD SWAP1 PUSH2 0x7E2 SWAP2 SWAP1 PUSH2 0x3F76 JUMP JUMPDEST PUSH2 0x2854 JUMP JUMPDEST PUSH1 0x40 MLOAD PUSH2 0x7F4 SWAP2 SWAP1 PUSH2 0x438E JUMP JUMPDEST PUSH1 0x40 MLOAD DUP1 SWAP2 SUB SWAP1 RETURN JUMPDEST PUSH2 0x817 PUSH1 0x4 DUP1 CALLDATASIZE SUB DUP2 ADD SWAP1 PUSH2 0x812 SWAP2 SWAP1 PUSH2 0x3F76 JUMP JUMPDEST PUSH2 0x288F JUMP JUMPDEST PUSH1 0x40 MLOAD PUSH2 0x82C SWAP10 SWAP9 SWAP8 SWAP7 SWAP6 SWAP5 SWAP4 SWAP3 SWAP2 SWAP1 PUSH2 0x454D JUMP JUMPDEST PUSH1 0x40 MLOAD DUP1 SWAP2 SUB SWAP1 RETURN JUMPDEST PUSH2 0x83D PUSH2 0x29A6 JUMP JUMPDEST PUSH1 0x40 MLOAD PUSH2 0x84A SWAP2 SWAP1 PUSH2 0x463A JUMP JUMPDEST PUSH1 0x40 MLOAD DUP1 SWAP2 SUB SWAP1 RETURN JUMPDEST PUSH2 0x86D PUSH1 0x4 DUP1 CALLDATASIZE SUB DUP2 ADD SWAP1 PUSH2 0x868 SWAP2 SWAP1 PUSH2 0x4653 JUMP JUMPDEST PUSH2 0x29CB JUMP JUMPDEST PUSH1 0x40 MLOAD PUSH2 0x87A SWAP2 SWAP1 PUSH2 0x3DAD JUMP JUMPDEST PUSH1 0x40 MLOAD DUP1 SWAP2 SUB SWAP1 RETURN JUMPDEST PUSH2 0x88B PUSH2 0x2A4D JUMP JUMPDEST STOP JUMPDEST PUSH2 0x8A7 PUSH1 0x4 DUP1 CALLDATASIZE SUB DUP2 ADD SWAP1 PUSH2 0x8A2 SWAP2 SWAP1 PUSH2 0x4691 JUMP JUMPDEST PUSH2 0x2B02 JUMP JUMPDEST PUSH1 0x40 MLOAD PUSH2 0x8B4 SWAP2 SWAP1 PUSH2 0x3DAD JUMP JUMPDEST PUSH1 0x40 MLOAD DUP1 SWAP2 SUB SWAP1 RETURN JUMPDEST PUSH2 0x8D7 PUSH1 0x4 DUP1 CALLDATASIZE SUB DUP2 ADD SWAP1 PUSH2 0x8D2 SWAP2 SWAP1 PUSH2 0x47FB JUMP JUMPDEST PUSH2 0x2E58 JUMP JUMPDEST STOP JUMPDEST PUSH2 0x8F3 PUSH1 0x4 DUP1 CALLDATASIZE SUB DUP2 ADD SWAP1 PUSH2 0x8EE SWAP2 SWAP1 PUSH2 0x4855 JUMP JUMPDEST PUSH2 0x3179 JUMP JUMPDEST STOP JUMPDEST PUSH2 0x90F PUSH1 0x4 DUP1 CALLDATASIZE SUB DUP2 ADD SWAP1 PUSH2 0x90A SWAP2 SWAP1 PUSH2 0x3F76 JUMP JUMPDEST PUSH2 0x3423 JUMP JUMPDEST PUSH1 0x40 MLOAD PUSH2 0x91F SWAP5 SWAP4 SWAP3 SWAP2 SWAP1 PUSH2 0x4893 JUMP JUMPDEST PUSH1 0x40 MLOAD DUP1 SWAP2 SUB SWAP1 RETURN JUMPDEST PUSH0 DUP1 PUSH0 SWAP1 POP JUMPDEST PUSH1 0x6 DUP1 SLOAD SWAP1 POP DUP2 LT ISZERO PUSH2 0xAC6 JUMPI PUSH1 0x1 PUSH2 0x981 PUSH1 0x6 DUP4 DUP2 SLOAD DUP2 LT PUSH2 0x954 JUMPI PUSH2 0x953 PUSH2 0x48EB JUMP JUMPDEST JUMPDEST SWAP1 PUSH0 MSTORE PUSH1 0x20 PUSH0 KECCAK256 ADD PUSH0 SWAP1 SLOAD SWAP1 PUSH2 0x100 EXP SWAP1 DIV PUSH20 0xFFFFFFFFFFFFFFFFFFFFFFFFFFFFFFFFFFFFFFFF AND PUSH2 0x11B6 JUMP JUMPDEST LT PUSH2 0xA29 JUMPI PUSH1 0x1 PUSH1 0x7 PUSH0 PUSH1 0x6 DUP5 DUP2 SLOAD DUP2 LT PUSH2 0x99F JUMPI PUSH2 0x99E PUSH2 0x48EB JUMP JUMPDEST JUMPDEST SWAP1 PUSH0 MSTORE PUSH1 0x20 PUSH0 KECCAK256 ADD PUSH0 SWAP1 SLOAD SWAP1 PUSH2 0x100 EXP SWAP1 DIV PUSH20 0xFFFFFFFFFFFFFFFFFFFFFFFFFFFFFFFFFFFFFFFF AND PUSH20 0xFFFFFFFFFFFFFFFFFFFFFFFFFFFFFFFFFFFFFFFF AND PUSH20 0xFFFFFFFFFFFFFFFFFFFFFFFFFFFFFFFFFFFFFFFF AND DUP2 MSTORE PUSH1 0x20 ADD SWAP1 DUP2 MSTORE PUSH1 0x20 ADD PUSH0 KECCAK256 PUSH0 PUSH2 0x100 EXP DUP2 SLOAD DUP2 PUSH1 0xFF MUL NOT AND SWAP1 DUP4 ISZERO ISZERO MUL OR SWAP1 SSTORE POP DUP2 DUP1 PUSH2 0xA21 SWAP1 PUSH2 0x4945 JUMP JUMPDEST SWAP3 POP POP PUSH2 0xAB9 JUMP JUMPDEST PUSH0 PUSH1 0x7 PUSH0 PUSH1 0x6 DUP5 DUP2 SLOAD DUP2 LT PUSH2 0xA41 JUMPI PUSH2 0xA40 PUSH2 0x48EB JUMP JUMPDEST JUMPDEST SWAP1 PUSH0 MSTORE PUSH1 0x20 PUSH0 KECCAK256 ADD PUSH0 SWAP1 SLOAD SWAP1 PUSH2 0x100 EXP SWAP1 DIV PUSH20 0xFFFFFFFFFFFFFFFFFFFFFFFFFFFFFFFFFFFFFFFF AND PUSH20 0xFFFFFFFFFFFFFFFFFFFFFFFFFFFFFFFFFFFFFFFF AND PUSH20 0xFFFFFFFFFFFFFFFFFFFFFFFFFFFFFFFFFFFFFFFF AND DUP2 MSTORE PUSH1 0x20 ADD SWAP1 DUP2 MSTORE PUSH1 0x20 ADD PUSH0 KECCAK256 PUSH0 PUSH2 0x100 EXP DUP2 SLOAD DUP2 PUSH1 0xFF MUL NOT AND SWAP1 DUP4 ISZERO ISZERO MUL OR SWAP1 SSTORE POP JUMPDEST DUP1 DUP1 PUSH1 0x1 ADD SWAP2 POP POP PUSH2 0x92E JUMP JUMPDEST POP SWAP1 JUMP JUMPDEST PUSH1 0x60 PUSH1 0x3 DUP1 SLOAD PUSH2 0xAD9 SWAP1 PUSH2 0x49B9 JUMP JUMPDEST DUP1 PUSH1 0x1F ADD PUSH1 0x20 DUP1 SWAP2 DIV MUL PUSH1 0x20 ADD PUSH1 0x40 MLOAD SWAP1 DUP2 ADD PUSH1 0x40 MSTORE DUP1 SWAP3 SWAP2 SWAP1 DUP2 DUP2 MSTORE PUSH1 0x20 ADD DUP3 DUP1 SLOAD PUSH2 0xB05 SWAP1 PUSH2 0x49B9 JUMP JUMPDEST DUP1 ISZERO PUSH2 0xB50 JUMPI DUP1 PUSH1 0x1F LT PUSH2 0xB27 JUMPI PUSH2 0x100 DUP1 DUP4 SLOAD DIV MUL DUP4 MSTORE SWAP2 PUSH1 0x20 ADD SWAP2 PUSH2 0xB50 JUMP JUMPDEST DUP3 ADD SWAP2 SWAP1 PUSH0 MSTORE PUSH1 0x20 PUSH0 KECCAK256 SWAP1 JUMPDEST DUP2 SLOAD DUP2 MSTORE SWAP1 PUSH1 0x1 ADD SWAP1 PUSH1 0x20 ADD DUP1 DUP4 GT PUSH2 0xB33 JUMPI DUP3 SWAP1 SUB PUSH1 0x1F AND DUP3 ADD SWAP2 JUMPDEST POP POP POP POP POP SWAP1 POP SWAP1 JUMP JUMPDEST PUSH0 DUP1 PUSH2 0xB64 PUSH2 0x35FE JUMP JUMPDEST SWAP1 POP PUSH2 0xB71 DUP2 DUP6 DUP6 PUSH2 0x3605 JUMP JUMPDEST PUSH1 0x1 SWAP2 POP POP SWAP3 SWAP2 POP POP JUMP JUMPDEST PUSH0 PUSH1 0x2 SLOAD SWAP1 POP SWAP1 JUMP JUMPDEST PUSH0 PUSH1 0xB DUP1 SLOAD SWAP1 POP DUP3 LT PUSH2 0xB96 JUMPI PUSH0 DUP1 REVERT JUMPDEST PUSH0 PUSH1 0x1 SWAP1 POP JUMPDEST PUSH1 0xB DUP4 DUP2 SLOAD DUP2 LT PUSH2 0xBB0 JUMPI PUSH2 0xBAF PUSH2 0x48EB JUMP JUMPDEST JUMPDEST SWAP1 PUSH0 MSTORE PUSH1 0x20 PUSH0 KECCAK256 SWAP1 PUSH1 0xD MUL ADD PUSH1 0x3 ADD DUP1 SLOAD SWAP1 POP DUP2 GT ISZERO DUP1 ISZERO PUSH2 0xC34 JUMPI POP PUSH1 0x1 ISZERO ISZERO PUSH1 0xB DUP5 DUP2 SLOAD DUP2 LT PUSH2 0xBE5 JUMPI PUSH2 0xBE4 PUSH2 0x48EB JUMP JUMPDEST JUMPDEST SWAP1 PUSH0 MSTORE PUSH1 0x20 PUSH0 KECCAK256 SWAP1 PUSH1 0xD MUL ADD PUSH1 0x4 ADD PUSH1 0x1 DUP4 PUSH2 0xC01 SWAP2 SWAP1 PUSH2 0x49E9 JUMP JUMPDEST DUP2 SLOAD DUP2 LT PUSH2 0xC12 JUMPI PUSH2 0xC11 PUSH2 0x48EB JUMP JUMPDEST JUMPDEST SWAP1 PUSH0 MSTORE PUSH1 0x20 PUSH0 KECCAK256 SWAP1 PUSH1 0x20 SWAP2 DUP3 DUP3 DIV ADD SWAP2 SWAP1 MOD SWAP1 SLOAD SWAP1 PUSH2 0x100 EXP SWAP1 DIV PUSH1 0xFF AND ISZERO ISZERO EQ JUMPDEST ISZERO PUSH2 0xC9D JUMPI PUSH1 0xB DUP4 DUP2 SLOAD DUP2 LT PUSH2 0xC4D JUMPI PUSH2 0xC4C PUSH2 0x48EB JUMP JUMPDEST JUMPDEST SWAP1 PUSH0 MSTORE PUSH1 0x20 PUSH0 KECCAK256 SWAP1 PUSH1 0xD MUL ADD PUSH1 0x3 ADD DUP2 DUP2 SLOAD DUP2 LT PUSH2 0xC6E JUMPI PUSH2 0xC6D PUSH2 0x48EB JUMP JUMPDEST JUMPDEST SWAP1 PUSH0 MSTORE PUSH1 0x20 PUSH0 KECCAK256 ADD SLOAD TIMESTAMP LT ISZERO PUSH2 0xC8A JUMPI DUP1 SWAP2 POP DUP1 SWAP2 POP POP PUSH2 0xCA2 JUMP JUMPDEST DUP1 DUP1 PUSH2 0xC95 SWAP1 PUSH2 0x4945 JUMP JUMPDEST SWAP2 POP POP PUSH2 0xB9C JUMP JUMPDEST POP PUSH0 SWAP1 POP JUMPDEST SWAP2 SWAP1 POP JUMP JUMPDEST PUSH0 DUP1 PUSH2 0xCB1 PUSH2 0x35FE JUMP JUMPDEST SWAP1 POP PUSH2 0xCBE DUP6 DUP3 DUP6 PUSH2 0x3617 JUMP JUMPDEST PUSH2 0xCC9 DUP6 DUP6 DUP6 PUSH2 0x36A9 JUMP JUMPDEST PUSH1 0x1 SWAP2 POP POP SWAP4 SWAP3 POP POP POP JUMP JUMPDEST PUSH0 PUSH1 0xB DUP1 SLOAD SWAP1 POP SWAP1 POP SWAP1 JUMP JUMPDEST PUSH1 0x60 PUSH0 DUP1 PUSH0 PUSH1 0x9 DUP1 SLOAD SWAP1 POP DUP6 LT PUSH2 0xCF6 JUMPI PUSH0 DUP1 REVERT JUMPDEST PUSH1 0x9 DUP6 DUP2 SLOAD DUP2 LT PUSH2 0xD0A JUMPI PUSH2 0xD09 PUSH2 0x48EB JUMP JUMPDEST JUMPDEST SWAP1 PUSH0 MSTORE PUSH1 0x20 PUSH0 KECCAK256 SWAP1 PUSH1 0x7 MUL ADD PUSH0 ADD PUSH1 0x9 DUP7 DUP2 SLOAD DUP2 LT PUSH2 0xD2C JUMPI PUSH2 0xD2B PUSH2 0x48EB JUMP JUMPDEST JUMPDEST SWAP1 PUSH0 MSTORE PUSH1 0x20 PUSH0 KECCAK256 SWAP1 PUSH1 0x7 MUL ADD PUSH1 0x1 ADD SLOAD PUSH1 0x9 DUP8 DUP2 SLOAD DUP2 LT PUSH2 0xD50 JUMPI PUSH2 0xD4F PUSH2 0x48EB JUMP JUMPDEST JUMPDEST SWAP1 PUSH0 MSTORE PUSH1 0x20 PUSH0 KECCAK256 SWAP1 PUSH1 0x7 MUL ADD PUSH1 0x2 ADD SLOAD PUSH1 0x9 DUP9 DUP2 SLOAD DUP2 LT PUSH2 0xD74 JUMPI PUSH2 0xD73 PUSH2 0x48EB JUMP JUMPDEST JUMPDEST SWAP1 PUSH0 MSTORE PUSH1 0x20 PUSH0 KECCAK256 SWAP1 PUSH1 0x7 MUL ADD PUSH1 0x3 ADD SLOAD DUP4 DUP1 SLOAD PUSH2 0xD90 SWAP1 PUSH2 0x49B9 JUMP JUMPDEST DUP1 PUSH1 0x1F ADD PUSH1 0x20 DUP1 SWAP2 DIV MUL PUSH1 0x20 ADD PUSH1 0x40 MLOAD SWAP1 DUP2 ADD PUSH1 0x40 MSTORE DUP1 SWAP3 SWAP2 SWAP1 DUP2 DUP2 MSTORE PUSH1 0x20 ADD DUP3 DUP1 SLOAD PUSH2 0xDBC SWAP1 PUSH2 0x49B9 JUMP JUMPDEST DUP1 ISZERO PUSH2 0xE07 JUMPI DUP1 PUSH1 0x1F LT PUSH2 0xDDE JUMPI PUSH2 0x100 DUP1 DUP4 SLOAD DIV MUL DUP4 MSTORE SWAP2 PUSH1 0x20 ADD SWAP2 PUSH2 0xE07 JUMP JUMPDEST DUP3 ADD SWAP2 SWAP1 PUSH0 MSTORE PUSH1 0x20 PUSH0 KECCAK256 SWAP1 JUMPDEST DUP2 SLOAD DUP2 MSTORE SWAP1 PUSH1 0x1 ADD SWAP1 PUSH1 0x20 ADD DUP1 DUP4 GT PUSH2 0xDEA JUMPI DUP3 SWAP1 SUB PUSH1 0x1F AND DUP3 ADD SWAP2 JUMPDEST POP POP POP POP POP SWAP4 POP SWAP4 POP SWAP4 POP SWAP4 POP SWAP4 POP SWAP2 SWAP4 POP SWAP2 SWAP4 JUMP JUMPDEST PUSH0 PUSH1 0x12 SWAP1 POP SWAP1 JUMP JUMPDEST PUSH0 DUP2 GT PUSH2 0xE30 JUMPI PUSH0 DUP1 REVERT JUMPDEST DUP1 PUSH2 0xE3A CALLER PUSH2 0x11B6 JUMP JUMPDEST LT ISZERO PUSH2 0xE44 JUMPI PUSH0 DUP1 REVERT JUMPDEST PUSH2 0xE4F CALLER ADDRESS DUP4 PUSH2 0x36A9 JUMP JUMPDEST CALLER PUSH20 0xFFFFFFFFFFFFFFFFFFFFFFFFFFFFFFFFFFFFFFFF AND PUSH32 0xCCB8802DD1E68AB676B6EB220A8943F6F2F7F8578C278DF01AA2956D9E2F2B7C DUP3 PUSH1 0x40 MLOAD PUSH2 0xE95 SWAP2 SWAP1 PUSH2 0x3DAD JUMP JUMPDEST PUSH1 0x40 MLOAD DUP1 SWAP2 SUB SWAP1 LOG2 POP JUMP JUMPDEST PUSH0 DUP1 PUSH2 0xEAA PUSH2 0x3799 JUMP JUMPDEST PUSH1 0x5 PUSH0 SWAP1 SLOAD SWAP1 PUSH2 0x100 EXP SWAP1 DIV PUSH20 0xFFFFFFFFFFFFFFFFFFFFFFFFFFFFFFFFFFFFFFFF AND PUSH20 0xFFFFFFFFFFFFFFFFFFFFFFFFFFFFFFFFFFFFFFFF AND PUSH4 0x70A08231 ADDRESS PUSH1 0x40 MLOAD DUP3 PUSH4 0xFFFFFFFF AND PUSH1 0xE0 SHL DUP2 MSTORE PUSH1 0x4 ADD PUSH2 0xF04 SWAP2 SWAP1 PUSH2 0x438E JUMP JUMPDEST PUSH1 0x20 PUSH1 0x40 MLOAD DUP1 DUP4 SUB DUP2 DUP7 GAS STATICCALL ISZERO DUP1 ISZERO PUSH2 0xF1F JUMPI RETURNDATASIZE PUSH0 DUP1 RETURNDATACOPY RETURNDATASIZE PUSH0 REVERT JUMPDEST POP POP POP POP PUSH1 0x40 MLOAD RETURNDATASIZE PUSH1 0x1F NOT PUSH1 0x1F DUP3 ADD AND DUP3 ADD DUP1 PUSH1 0x40 MSTORE POP DUP2 ADD SWAP1 PUSH2 0xF43 SWAP2 SWAP1 PUSH2 0x4A30 JUMP JUMPDEST PUSH2 0xF4D SWAP2 SWAP1 PUSH2 0x49E9 JUMP JUMPDEST SWAP1 POP DUP1 SWAP2 POP POP SWAP1 JUMP JUMPDEST PUSH0 PUSH1 0x9 DUP1 SLOAD SWAP1 POP SWAP1 POP SWAP1 JUMP JUMPDEST PUSH1 0x9 DUP1 SLOAD SWAP1 POP DUP3 LT PUSH2 0xF72 JUMPI PUSH0 DUP1 REVERT JUMPDEST PUSH0 PUSH1 0x9 DUP4 DUP2 SLOAD DUP2 LT PUSH2 0xF87 JUMPI PUSH2 0xF86 PUSH2 0x48EB JUMP JUMPDEST JUMPDEST SWAP1 PUSH0 MSTORE PUSH1 0x20 PUSH0 KECCAK256 SWAP1 PUSH1 0x7 MUL ADD SWAP1 POP DUP1 PUSH1 0x1 ADD SLOAD TIMESTAMP GT ISZERO DUP1 ISZERO PUSH2 0xFF8 JUMPI POP CALLER PUSH20 0xFFFFFFFFFFFFFFFFFFFFFFFFFFFFFFFFFFFFFFFF AND DUP2 PUSH1 0x5 ADD PUSH0 SWAP1 SLOAD SWAP1 PUSH2 0x100 EXP SWAP1 DIV PUSH20 0xFFFFFFFFFFFFFFFFFFFFFFFFFFFFFFFFFFFFFFFF AND PUSH20 0xFFFFFFFFFFFFFFFFFFFFFFFFFFFFFFFFFFFFFFFF AND EQ ISZERO JUMPDEST DUP1 ISZERO PUSH2 0x105A JUMPI POP PUSH1 0xA PUSH0 CALLER PUSH20 0xFFFFFFFFFFFFFFFFFFFFFFFFFFFFFFFFFFFFFFFF AND PUSH20 0xFFFFFFFFFFFFFFFFFFFFFFFFFFFFFFFFFFFFFFFF AND DUP2 MSTORE PUSH1 0x20 ADD SWAP1 DUP2 MSTORE PUSH1 0x20 ADD PUSH0 KECCAK256 PUSH0 DUP5 DUP2 MSTORE PUSH1 0x20 ADD SWAP1 DUP2 MSTORE PUSH1 0x20 ADD PUSH0 KECCAK256 PUSH0 SWAP1 SLOAD SWAP1 PUSH2 0x100 EXP SWAP1 DIV PUSH1 0xFF AND ISZERO JUMPDEST DUP1 ISZERO PUSH2 0x1066 JUMPI POP PUSH0 DUP3 MLOAD GT JUMPDEST DUP1 ISZERO PUSH2 0x1077 JUMPI POP DUP1 PUSH1 0x3 ADD SLOAD DUP3 MLOAD GT ISZERO JUMPDEST PUSH2 0x107F JUMPI PUSH0 DUP1 REVERT JUMPDEST PUSH0 JUMPDEST DUP3 MLOAD DUP2 LT ISZERO PUSH2 0x10E4 JUMPI DUP2 PUSH1 0x4 ADD DUP4 DUP3 DUP2 MLOAD DUP2 LT PUSH2 0x10A1 JUMPI PUSH2 0x10A0 PUSH2 0x48EB JUMP JUMPDEST JUMPDEST PUSH1 0x20 MUL PUSH1 0x20 ADD ADD MLOAD DUP2 SLOAD DUP2 LT PUSH2 0x10BA JUMPI PUSH2 0x10B9 PUSH2 0x48EB JUMP JUMPDEST JUMPDEST SWAP1 PUSH0 MSTORE PUSH1 0x20 PUSH0 KECCAK256 ADD PUSH0 DUP2 SLOAD DUP1 SWAP3 SWAP2 SWAP1 PUSH2 0x10D2 SWAP1 PUSH2 0x4945 JUMP JUMPDEST SWAP2 SWAP1 POP SSTORE POP DUP1 DUP1 PUSH1 0x1 ADD SWAP2 POP POP PUSH2 0x1081 JUMP JUMPDEST POP DUP1 PUSH1 0x6 ADD PUSH0 DUP2 SLOAD DUP1 SWAP3 SWAP2 SWAP1 PUSH2 0x10F9 SWAP1 PUSH2 0x4945 JUMP JUMPDEST SWAP2 SWAP1 POP SSTORE POP PUSH1 0x1 PUSH1 0xA PUSH0 CALLER PUSH20 0xFFFFFFFFFFFFFFFFFFFFFFFFFFFFFFFFFFFFFFFF AND PUSH20 0xFFFFFFFFFFFFFFFFFFFFFFFFFFFFFFFFFFFFFFFF AND DUP2 MSTORE PUSH1 0x20 ADD SWAP1 DUP2 MSTORE PUSH1 0x20 ADD PUSH0 KECCAK256 PUSH0 DUP6 DUP2 MSTORE PUSH1 0x20 ADD SWAP1 DUP2 MSTORE PUSH1 0x20 ADD PUSH0 KECCAK256 PUSH0 PUSH2 0x100 EXP DUP2 SLOAD DUP2 PUSH1 0xFF MUL NOT AND SWAP1 DUP4 ISZERO ISZERO MUL OR SWAP1 SSTORE POP CALLER PUSH20 0xFFFFFFFFFFFFFFFFFFFFFFFFFFFFFFFFFFFFFFFF AND DUP4 PUSH32 0x9DD4FA598EC5E67711F29C8BF918A00E611632C37588D321E6D45AE933246EF6 DUP5 PUSH1 0x40 MLOAD PUSH2 0x11A9 SWAP2 SWAP1 PUSH2 0x4A5B JUMP JUMPDEST PUSH1 0x40 MLOAD DUP1 SWAP2 SUB SWAP1 LOG3 POP POP POP JUMP JUMPDEST PUSH0 DUP1 PUSH0 DUP4 PUSH20 0xFFFFFFFFFFFFFFFFFFFFFFFFFFFFFFFFFFFFFFFF AND PUSH20 0xFFFFFFFFFFFFFFFFFFFFFFFFFFFFFFFFFFFFFFFF AND DUP2 MSTORE PUSH1 0x20 ADD SWAP1 DUP2 MSTORE PUSH1 0x20 ADD PUSH0 KECCAK256 SLOAD SWAP1 POP SWAP2 SWAP1 POP JUMP JUMPDEST PUSH0 PUSH1 0x60 PUSH1 0x9 DUP1 SLOAD SWAP1 POP DUP4 LT PUSH2 0x120E JUMPI PUSH0 DUP1 REVERT JUMPDEST PUSH1 0x9 DUP4 DUP2 SLOAD DUP2 LT PUSH2 0x1222 JUMPI PUSH2 0x1221 PUSH2 0x48EB JUMP JUMPDEST JUMPDEST SWAP1 PUSH0 MSTORE PUSH1 0x20 PUSH0 KECCAK256 SWAP1 PUSH1 0x7 MUL ADD PUSH1 0x6 ADD SLOAD PUSH1 0x9 DUP5 DUP2 SLOAD DUP2 LT PUSH2 0x1246 JUMPI PUSH2 0x1245 PUSH2 0x48EB JUMP JUMPDEST JUMPDEST SWAP1 PUSH0 MSTORE PUSH1 0x20 PUSH0 KECCAK256 SWAP1 PUSH1 0x7 MUL ADD PUSH1 0x4 ADD DUP1 DUP1 SLOAD DUP1 PUSH1 0x20 MUL PUSH1 0x20 ADD PUSH1 0x40 MLOAD SWAP1 DUP2 ADD PUSH1 0x40 MSTORE DUP1 SWAP3 SWAP2 SWAP1 DUP2 DUP2 MSTORE PUSH1 0x20 ADD DUP3 DUP1 SLOAD DUP1 ISZERO PUSH2 0x129E JUMPI PUSH1 0x20 MUL DUP3 ADD SWAP2 SWAP1 PUSH0 MSTORE PUSH1 0x20 PUSH0 KECCAK256 SWAP1 JUMPDEST DUP2 SLOAD DUP2 MSTORE PUSH1 0x20 ADD SWAP1 PUSH1 0x1 ADD SWAP1 DUP1 DUP4 GT PUSH2 0x128A JUMPI JUMPDEST POP POP POP POP POP SWAP1 POP SWAP2 POP SWAP2 POP SWAP2 POP SWAP2 JUMP JUMPDEST PUSH1 0xE PUSH1 0x20 MSTORE DUP1 PUSH0 MSTORE PUSH1 0x40 PUSH0 KECCAK256 PUSH0 SWAP2 POP SLOAD SWAP1 PUSH2 0x100 EXP SWAP1 DIV PUSH1 0xFF AND DUP2 JUMP JUMPDEST PUSH2 0x12D3 PUSH2 0x928 JUMP JUMPDEST POP PUSH1 0xB DUP1 SLOAD SWAP1 POP DUP2 LT PUSH2 0x12E4 JUMPI PUSH0 DUP1 REVERT JUMPDEST PUSH1 0xA PUSH2 0x12EE PUSH2 0x928 JUMP JUMPDEST PUSH2 0x12F8 SWAP2 SWAP1 PUSH2 0x4AA8 JUMP JUMPDEST PUSH1 0xB DUP3 DUP2 SLOAD DUP2 LT PUSH2 0x130C JUMPI PUSH2 0x130B PUSH2 0x48EB JUMP JUMPDEST JUMPDEST SWAP1 PUSH0 MSTORE PUSH1 0x20 PUSH0 KECCAK256 SWAP1 PUSH1 0xD MUL ADD PUSH1 0x7 ADD SLOAD LT ISZERO PUSH2 0x1326 JUMPI PUSH0 DUP1 REVERT JUMPDEST PUSH1 0xB DUP2 DUP2 SLOAD DUP2 LT PUSH2 0x133A JUMPI PUSH2 0x1339 PUSH2 0x48EB JUMP JUMPDEST JUMPDEST SWAP1 PUSH0 MSTORE PUSH1 0x20 PUSH0 KECCAK256 SWAP1 PUSH1 0xD MUL ADD PUSH1 0xA ADD SLOAD PUSH1 0x5 PUSH0 SWAP1 SLOAD SWAP1 PUSH2 0x100 EXP SWAP1 DIV PUSH20 0xFFFFFFFFFFFFFFFFFFFFFFFFFFFFFFFFFFFFFFFF AND PUSH20 0xFFFFFFFFFFFFFFFFFFFFFFFFFFFFFFFFFFFFFFFF AND PUSH4 0x70A08231 ADDRESS PUSH1 0x40 MLOAD DUP3 PUSH4 0xFFFFFFFF AND PUSH1 0xE0 SHL DUP2 MSTORE PUSH1 0x4 ADD PUSH2 0x13A4 SWAP2 SWAP1 PUSH2 0x438E JUMP JUMPDEST PUSH1 0x20 PUSH1 0x40 MLOAD DUP1 DUP4 SUB DUP2 DUP7 GAS STATICCALL ISZERO DUP1 ISZERO PUSH2 0x13BF JUMPI RETURNDATASIZE PUSH0 DUP1 RETURNDATACOPY RETURNDATASIZE PUSH0 REVERT JUMPDEST POP POP POP POP PUSH1 0x40 MLOAD RETURNDATASIZE PUSH1 0x1F NOT PUSH1 0x1F DUP3 ADD AND DUP3 ADD DUP1 PUSH1 0x40 MSTORE POP DUP2 ADD SWAP1 PUSH2 0x13E3 SWAP2 SWAP1 PUSH2 0x4A30 JUMP JUMPDEST LT ISZERO PUSH2 0x13ED JUMPI PUSH0 DUP1 REVERT JUMPDEST PUSH1 0x1 PUSH1 0xB DUP3 DUP2 SLOAD DUP2 LT PUSH2 0x1403 JUMPI PUSH2 0x1402 PUSH2 0x48EB JUMP JUMPDEST JUMPDEST SWAP1 PUSH0 MSTORE PUSH1 0x20 PUSH0 KECCAK256 SWAP1 PUSH1 0xD MUL ADD PUSH1 0x9 ADD PUSH0 PUSH2 0x100 EXP DUP2 SLOAD DUP2 PUSH1 0xFF MUL NOT AND SWAP1 DUP4 ISZERO ISZERO MUL OR SWAP1 SSTORE POP POP JUMP JUMPDEST PUSH1 0x9 DUP2 DUP2 SLOAD DUP2 LT PUSH2 0x143A JUMPI PUSH0 DUP1 REVERT JUMPDEST SWAP1 PUSH0 MSTORE PUSH1 0x20 PUSH0 KECCAK256 SWAP1 PUSH1 0x7 MUL ADD PUSH0 SWAP2 POP SWAP1 POP DUP1 PUSH0 ADD DUP1 SLOAD PUSH2 0x1459 SWAP1 PUSH2 0x49B9 JUMP JUMPDEST DUP1 PUSH1 0x1F ADD PUSH1 0x20 DUP1 SWAP2 DIV MUL PUSH1 0x20 ADD PUSH1 0x40 MLOAD SWAP1 DUP2 ADD PUSH1 0x40 MSTORE DUP1 SWAP3 SWAP2 SWAP1 DUP2 DUP2 MSTORE PUSH1 0x20 ADD DUP3 DUP1 SLOAD PUSH2 0x1485 SWAP1 PUSH2 0x49B9 JUMP JUMPDEST DUP1 ISZERO PUSH2 0x14D0 JUMPI DUP1 PUSH1 0x1F LT PUSH2 0x14A7 JUMPI PUSH2 0x100 DUP1 DUP4 SLOAD DIV MUL DUP4 MSTORE SWAP2 PUSH1 0x20 ADD SWAP2 PUSH2 0x14D0 JUMP JUMPDEST DUP3 ADD SWAP2 SWAP1 PUSH0 MSTORE PUSH1 0x20 PUSH0 KECCAK256 SWAP1 JUMPDEST DUP2 SLOAD DUP2 MSTORE SWAP1 PUSH1 0x1 ADD SWAP1 PUSH1 0x20 ADD DUP1 DUP4 GT PUSH2 0x14B3 JUMPI DUP3 SWAP1 SUB PUSH1 0x1F AND DUP3 ADD SWAP2 JUMPDEST POP POP POP POP POP SWAP1 DUP1 PUSH1 0x1 ADD SLOAD SWAP1 DUP1 PUSH1 0x2 ADD SLOAD SWAP1 DUP1 PUSH1 0x3 ADD SLOAD SWAP1 DUP1 PUSH1 0x5 ADD PUSH0 SWAP1 SLOAD SWAP1 PUSH2 0x100 EXP SWAP1 DIV PUSH20 0xFFFFFFFFFFFFFFFFFFFFFFFFFFFFFFFFFFFFFFFF AND SWAP1 DUP1 PUSH1 0x6 ADD SLOAD SWAP1 POP DUP7 JUMP JUMPDEST PUSH1 0x7 PUSH1 0x20 MSTORE DUP1 PUSH0 MSTORE PUSH1 0x40 PUSH0 KECCAK256 PUSH0 SWAP2 POP SLOAD SWAP1 PUSH2 0x100 EXP SWAP1 DIV PUSH1 0xFF AND DUP2 JUMP JUMPDEST PUSH0 PUSH1 0xB DUP1 SLOAD SWAP1 POP DUP3 LT PUSH2 0x1545 JUMPI PUSH0 DUP1 REVERT JUMPDEST PUSH1 0xB DUP3 DUP2 SLOAD DUP2 LT PUSH2 0x1559 JUMPI PUSH2 0x1558 PUSH2 0x48EB JUMP JUMPDEST JUMPDEST SWAP1 PUSH0 MSTORE PUSH1 0x20 PUSH0 KECCAK256 SWAP1 PUSH1 0xD MUL ADD PUSH1 0xB ADD PUSH0 SWAP1 SLOAD SWAP1 PUSH2 0x100 EXP SWAP1 DIV PUSH20 0xFFFFFFFFFFFFFFFFFFFFFFFFFFFFFFFFFFFFFFFF AND SWAP1 POP SWAP2 SWAP1 POP JUMP JUMPDEST PUSH1 0x60 PUSH1 0x4 DUP1 SLOAD PUSH2 0x159E SWAP1 PUSH2 0x49B9 JUMP JUMPDEST DUP1 PUSH1 0x1F ADD PUSH1 0x20 DUP1 SWAP2 DIV MUL PUSH1 0x20 ADD PUSH1 0x40 MLOAD SWAP1 DUP2 ADD PUSH1 0x40 MSTORE DUP1 SWAP3 SWAP2 SWAP1 DUP2 DUP2 MSTORE PUSH1 0x20 ADD DUP3 DUP1 SLOAD PUSH2 0x15CA SWAP1 PUSH2 0x49B9 JUMP JUMPDEST DUP1 ISZERO PUSH2 0x1615 JUMPI DUP1 PUSH1 0x1F LT PUSH2 0x15EC JUMPI PUSH2 0x100 DUP1 DUP4 SLOAD DIV MUL DUP4 MSTORE SWAP2 PUSH1 0x20 ADD SWAP2 PUSH2 0x1615 JUMP JUMPDEST DUP3 ADD SWAP2 SWAP1 PUSH0 MSTORE PUSH1 0x20 PUSH0 KECCAK256 SWAP1 JUMPDEST DUP2 SLOAD DUP2 MSTORE SWAP1 PUSH1 0x1 ADD SWAP1 PUSH1 0x20 ADD DUP1 DUP4 GT PUSH2 0x15F8 JUMPI DUP3 SWAP1 SUB PUSH1 0x1F AND DUP3 ADD SWAP2 JUMPDEST POP POP POP POP POP SWAP1 POP SWAP1 JUMP JUMPDEST PUSH1 0xB DUP1 SLOAD SWAP1 POP DUP2 LT PUSH2 0x162F JUMPI PUSH0 DUP1 REVERT JUMPDEST PUSH1 0xB DUP2 DUP2 SLOAD DUP2 LT PUSH2 0x1643 JUMPI PUSH2 0x1642 PUSH2 0x48EB JUMP JUMPDEST JUMPDEST SWAP1 PUSH0 MSTORE PUSH1 0x20 PUSH0 KECCAK256 SWAP1 PUSH1 0xD MUL ADD PUSH1 0xB ADD PUSH0 SWAP1 SLOAD SWAP1 PUSH2 0x100 EXP SWAP1 DIV PUSH20 0xFFFFFFFFFFFFFFFFFFFFFFFFFFFFFFFFFFFFFFFF AND PUSH20 0xFFFFFFFFFFFFFFFFFFFFFFFFFFFFFFFFFFFFFFFF AND CALLER PUSH20 0xFFFFFFFFFFFFFFFFFFFFFFFFFFFFFFFFFFFFFFFF AND EQ PUSH2 0x16A8 JUMPI PUSH0 DUP1 REVERT JUMPDEST PUSH1 0xB DUP2 DUP2 SLOAD DUP2 LT PUSH2 0x16BC JUMPI PUSH2 0x16BB PUSH2 0x48EB JUMP JUMPDEST JUMPDEST SWAP1 PUSH0 MSTORE PUSH1 0x20 PUSH0 KECCAK256 SWAP1 PUSH1 0xD MUL ADD PUSH1 0x9 ADD PUSH1 0x1 SWAP1 SLOAD SWAP1 PUSH2 0x100 EXP SWAP1 DIV PUSH1 0xFF AND PUSH2 0x16E1 JUMPI PUSH0 DUP1 REVERT JUMPDEST PUSH0 JUMPDEST PUSH1 0xB DUP3 DUP2 SLOAD DUP2 LT PUSH2 0x16F7 JUMPI PUSH2 0x16F6 PUSH2 0x48EB JUMP JUMPDEST JUMPDEST SWAP1 PUSH0 MSTORE PUSH1 0x20 PUSH0 KECCAK256 SWAP1 PUSH1 0xD MUL ADD PUSH1 0x3 ADD DUP1 SLOAD SWAP1 POP DUP2 LT ISZERO PUSH2 0x1A14 JUMPI PUSH1 0xB DUP3 DUP2 SLOAD DUP2 LT PUSH2 0x1725 JUMPI PUSH2 0x1724 PUSH2 0x48EB JUMP JUMPDEST JUMPDEST SWAP1 PUSH0 MSTORE PUSH1 0x20 PUSH0 KECCAK256 SWAP1 PUSH1 0xD MUL ADD PUSH1 0x3 ADD DUP2 DUP2 SLOAD DUP2 LT PUSH2 0x1746 JUMPI PUSH2 0x1745 PUSH2 0x48EB JUMP JUMPDEST JUMPDEST SWAP1 PUSH0 MSTORE PUSH1 0x20 PUSH0 KECCAK256 ADD SLOAD TIMESTAMP GT ISZERO DUP1 ISZERO PUSH2 0x17AD JUMPI POP PUSH1 0xB DUP3 DUP2 SLOAD DUP2 LT PUSH2 0x176D JUMPI PUSH2 0x176C PUSH2 0x48EB JUMP JUMPDEST JUMPDEST SWAP1 PUSH0 MSTORE PUSH1 0x20 PUSH0 KECCAK256 SWAP1 PUSH1 0xD MUL ADD PUSH1 0x4 ADD DUP2 DUP2 SLOAD DUP2 LT PUSH2 0x178E JUMPI PUSH2 0x178D PUSH2 0x48EB JUMP JUMPDEST JUMPDEST SWAP1 PUSH0 MSTORE PUSH1 0x20 PUSH0 KECCAK256 SWAP1 PUSH1 0x20 SWAP2 DUP3 DUP3 DIV ADD SWAP2 SWAP1 MOD SWAP1 SLOAD SWAP1 PUSH2 0x100 EXP SWAP1 DIV PUSH1 0xFF AND JUMPDEST ISZERO PUSH2 0x1A07 JUMPI PUSH1 0x5 PUSH0 SWAP1 SLOAD SWAP1 PUSH2 0x100 EXP SWAP1 DIV PUSH20 0xFFFFFFFFFFFFFFFFFFFFFFFFFFFFFFFFFFFFFFFF AND PUSH20 0xFFFFFFFFFFFFFFFFFFFFFFFFFFFFFFFFFFFFFFFF AND PUSH4 0x23B872DD ADDRESS CALLER PUSH1 0xB DUP7 DUP2 SLOAD DUP2 LT PUSH2 0x1805 JUMPI PUSH2 0x1804 PUSH2 0x48EB JUMP JUMPDEST JUMPDEST SWAP1 PUSH0 MSTORE PUSH1 0x20 PUSH0 KECCAK256 SWAP1 PUSH1 0xD MUL ADD PUSH1 0x2 ADD DUP6 DUP2 SLOAD DUP2 LT PUSH2 0x1826 JUMPI PUSH2 0x1825 PUSH2 0x48EB JUMP JUMPDEST JUMPDEST SWAP1 PUSH0 MSTORE PUSH1 0x20 PUSH0 KECCAK256 ADD SLOAD PUSH1 0x40 MLOAD DUP5 PUSH4 0xFFFFFFFF AND PUSH1 0xE0 SHL DUP2 MSTORE PUSH1 0x4 ADD PUSH2 0x184D SWAP4 SWAP3 SWAP2 SWAP1 PUSH2 0x4AD8 JUMP JUMPDEST PUSH1 0x20 PUSH1 0x40 MLOAD DUP1 DUP4 SUB DUP2 PUSH0 DUP8 GAS CALL ISZERO DUP1 ISZERO PUSH2 0x1869 JUMPI RETURNDATASIZE PUSH0 DUP1 RETURNDATACOPY RETURNDATASIZE PUSH0 REVERT JUMPDEST POP POP POP POP PUSH1 0x40 MLOAD RETURNDATASIZE PUSH1 0x1F NOT PUSH1 0x1F DUP3 ADD AND DUP3 ADD DUP1 PUSH1 0x40 MSTORE POP DUP2 ADD SWAP1 PUSH2 0x188D SWAP2 SWAP1 PUSH2 0x4B21 JUMP JUMPDEST POP CALLER PUSH20 0xFFFFFFFFFFFFFFFFFFFFFFFFFFFFFFFFFFFFFFFF AND DUP3 PUSH32 0x41045142A60F1B5EBB694509F75C4E837C18604C6D262604B1D28EE1F3129A46 PUSH1 0xB DUP6 DUP2 SLOAD DUP2 LT PUSH2 0x18DB JUMPI PUSH2 0x18DA PUSH2 0x48EB JUMP JUMPDEST JUMPDEST SWAP1 PUSH0 MSTORE PUSH1 0x20 PUSH0 KECCAK256 SWAP1 PUSH1 0xD MUL ADD PUSH1 0x2 ADD DUP5 DUP2 SLOAD DUP2 LT PUSH2 0x18FC JUMPI PUSH2 0x18FB PUSH2 0x48EB JUMP JUMPDEST JUMPDEST SWAP1 PUSH0 MSTORE PUSH1 0x20 PUSH0 KECCAK256 ADD SLOAD PUSH1 0x40 MLOAD PUSH2 0x1912 SWAP2 SWAP1 PUSH2 0x3DAD JUMP JUMPDEST PUSH1 0x40 MLOAD DUP1 SWAP2 SUB SWAP1 LOG3 PUSH1 0xB DUP3 DUP2 SLOAD DUP2 LT PUSH2 0x192E JUMPI PUSH2 0x192D PUSH2 0x48EB JUMP JUMPDEST JUMPDEST SWAP1 PUSH0 MSTORE PUSH1 0x20 PUSH0 KECCAK256 SWAP1 PUSH1 0xD MUL ADD PUSH1 0x2 ADD DUP2 DUP2 SLOAD DUP2 LT PUSH2 0x194F JUMPI PUSH2 0x194E PUSH2 0x48EB JUMP JUMPDEST JUMPDEST SWAP1 PUSH0 MSTORE PUSH1 0x20 PUSH0 KECCAK256 ADD SLOAD PUSH1 0xB DUP4 DUP2 SLOAD DUP2 LT PUSH2 0x196C JUMPI PUSH2 0x196B PUSH2 0x48EB JUMP JUMPDEST JUMPDEST SWAP1 PUSH0 MSTORE PUSH1 0x20 PUSH0 KECCAK256 SWAP1 PUSH1 0xD MUL ADD PUSH1 0xA ADD PUSH0 DUP3 DUP3 SLOAD PUSH2 0x1989 SWAP2 SWAP1 PUSH2 0x49E9 JUMP JUMPDEST SWAP3 POP POP DUP2 SWAP1 SSTORE POP PUSH1 0xB DUP3 DUP2 SLOAD DUP2 LT PUSH2 0x19A4 JUMPI PUSH2 0x19A3 PUSH2 0x48EB JUMP JUMPDEST JUMPDEST SWAP1 PUSH0 MSTORE PUSH1 0x20 PUSH0 KECCAK256 SWAP1 PUSH1 0xD MUL ADD PUSH1 0x2 ADD DUP2 DUP2 SLOAD DUP2 LT PUSH2 0x19C5 JUMPI PUSH2 0x19C4 PUSH2 0x48EB JUMP JUMPDEST JUMPDEST SWAP1 PUSH0 MSTORE PUSH1 0x20 PUSH0 KECCAK256 ADD SLOAD PUSH1 0xB DUP4 DUP2 SLOAD DUP2 LT PUSH2 0x19E2 JUMPI PUSH2 0x19E1 PUSH2 0x48EB JUMP JUMPDEST JUMPDEST SWAP1 PUSH0 MSTORE PUSH1 0x20 PUSH0 KECCAK256 SWAP1 PUSH1 0xD MUL ADD PUSH1 0xC ADD PUSH0 DUP3 DUP3 SLOAD PUSH2 0x19FF SWAP2 SWAP1 PUSH2 0x4B4C JUMP JUMPDEST SWAP3 POP POP DUP2 SWAP1 SSTORE POP JUMPDEST DUP1 DUP1 PUSH1 0x1 ADD SWAP2 POP POP PUSH2 0x16E3 JUMP JUMPDEST POP POP JUMP JUMPDEST PUSH1 0xA PUSH1 0x20 MSTORE DUP2 PUSH0 MSTORE PUSH1 0x40 PUSH0 KECCAK256 PUSH1 0x20 MSTORE DUP1 PUSH0 MSTORE PUSH1 0x40 PUSH0 KECCAK256 PUSH0 SWAP2 POP SWAP2 POP SWAP1 SLOAD SWAP1 PUSH2 0x100 EXP SWAP1 DIV PUSH1 0xFF AND DUP2 JUMP JUMPDEST PUSH2 0x1A4A PUSH2 0x928 JUMP JUMPDEST POP PUSH1 0xB DUP1 SLOAD SWAP1 POP DUP2 LT DUP1 ISZERO PUSH2 0x1AA5 JUMPI POP PUSH1 0x7 PUSH0 DUP4 PUSH20 0xFFFFFFFFFFFFFFFFFFFFFFFFFFFFFFFFFFFFFFFF AND PUSH20 0xFFFFFFFFFFFFFFFFFFFFFFFFFFFFFFFFFFFFFFFF AND DUP2 MSTORE PUSH1 0x20 ADD SWAP1 DUP2 MSTORE PUSH1 0x20 ADD PUSH0 KECCAK256 PUSH0 SWAP1 SLOAD SWAP1 PUSH2 0x100 EXP SWAP1 DIV PUSH1 0xFF AND JUMPDEST DUP1 ISZERO PUSH2 0x1B07 JUMPI POP PUSH1 0xD PUSH0 DUP3 DUP2 MSTORE PUSH1 0x20 ADD SWAP1 DUP2 MSTORE PUSH1 0x20 ADD PUSH0 KECCAK256 PUSH0 CALLER PUSH20 0xFFFFFFFFFFFFFFFFFFFFFFFFFFFFFFFFFFFFFFFF AND PUSH20 0xFFFFFFFFFFFFFFFFFFFFFFFFFFFFFFFFFFFFFFFF AND DUP2 MSTORE PUSH1 0x20 ADD SWAP1 DUP2 MSTORE PUSH1 0x20 ADD PUSH0 KECCAK256 PUSH0 SWAP1 SLOAD SWAP1 PUSH2 0x100 EXP SWAP1 DIV PUSH1 0xFF AND ISZERO JUMPDEST DUP1 ISZERO PUSH2 0x1B69 JUMPI POP PUSH1 0xF PUSH0 DUP3 DUP2 MSTORE PUSH1 0x20 ADD SWAP1 DUP2 MSTORE PUSH1 0x20 ADD PUSH0 KECCAK256 PUSH0 CALLER PUSH20 0xFFFFFFFFFFFFFFFFFFFFFFFFFFFFFFFFFFFFFFFF AND PUSH20 0xFFFFFFFFFFFFFFFFFFFFFFFFFFFFFFFFFFFFFFFF AND DUP2 MSTORE PUSH1 0x20 ADD SWAP1 DUP2 MSTORE PUSH1 0x20 ADD PUSH0 KECCAK256 PUSH0 SWAP1 SLOAD SWAP1 PUSH2 0x100 EXP SWAP1 DIV PUSH1 0xFF AND ISZERO JUMPDEST PUSH2 0x1B71 JUMPI PUSH0 DUP1 REVERT JUMPDEST PUSH1 0x1 PUSH1 0xF PUSH0 DUP4 DUP2 MSTORE PUSH1 0x20 ADD SWAP1 DUP2 MSTORE PUSH1 0x20 ADD PUSH0 KECCAK256 PUSH0 CALLER PUSH20 0xFFFFFFFFFFFFFFFFFFFFFFFFFFFFFFFFFFFFFFFF AND PUSH20 0xFFFFFFFFFFFFFFFFFFFFFFFFFFFFFFFFFFFFFFFF AND DUP2 MSTORE PUSH1 0x20 ADD SWAP1 DUP2 MSTORE PUSH1 0x20 ADD PUSH0 KECCAK256 PUSH0 PUSH2 0x100 EXP DUP2 SLOAD DUP2 PUSH1 0xFF MUL NOT AND SWAP1 DUP4 ISZERO ISZERO MUL OR SWAP1 SSTORE POP PUSH1 0x10 PUSH0 DUP3 DUP2 MSTORE PUSH1 0x20 ADD SWAP1 DUP2 MSTORE PUSH1 0x20 ADD PUSH0 KECCAK256 PUSH0 DUP4 PUSH20 0xFFFFFFFFFFFFFFFFFFFFFFFFFFFFFFFFFFFFFFFF AND PUSH20 0xFFFFFFFFFFFFFFFFFFFFFFFFFFFFFFFFFFFFFFFF AND DUP2 MSTORE PUSH1 0x20 ADD SWAP1 DUP2 MSTORE PUSH1 0x20 ADD PUSH0 KECCAK256 PUSH0 DUP2 SLOAD DUP1 SWAP3 SWAP2 SWAP1 PUSH2 0x1C31 SWAP1 PUSH2 0x4945 JUMP JUMPDEST SWAP2 SWAP1 POP SSTORE POP CALLER PUSH20 0xFFFFFFFFFFFFFFFFFFFFFFFFFFFFFFFFFFFFFFFF AND DUP2 PUSH32 0x8A19902C1356176F164D6EEEE88DB031B1718565C98C90873907B79B920FBAFE PUSH1 0x1 PUSH1 0x40 MLOAD PUSH2 0x1C7E SWAP2 SWAP1 PUSH2 0x3F5D JUMP JUMPDEST PUSH1 0x40 MLOAD DUP1 SWAP2 SUB SWAP1 LOG3 POP POP JUMP JUMPDEST PUSH1 0xC PUSH1 0x20 MSTORE DUP2 PUSH0 MSTORE PUSH1 0x40 PUSH0 KECCAK256 PUSH1 0x20 MSTORE DUP1 PUSH0 MSTORE PUSH1 0x40 PUSH0 KECCAK256 PUSH0 SWAP2 POP SWAP2 POP SWAP1 SLOAD SWAP1 PUSH2 0x100 EXP SWAP1 DIV PUSH1 0xFF AND DUP2 JUMP JUMPDEST PUSH0 TIMESTAMP DUP5 GT DUP1 ISZERO PUSH2 0x1CDD JUMPI POP DUP4 DUP3 PUSH0 DUP2 MLOAD DUP2 LT PUSH2 0x1CD3 JUMPI PUSH2 0x1CD2 PUSH2 0x48EB JUMP JUMPDEST JUMPDEST PUSH1 0x20 MUL PUSH1 0x20 ADD ADD MLOAD GT JUMPDEST PUSH2 0x1CE5 JUMPI PUSH0 DUP1 REVERT JUMPDEST PUSH0 JUMPDEST PUSH1 0x1 DUP4 MLOAD PUSH2 0x1CF5 SWAP2 SWAP1 PUSH2 0x49E9 JUMP JUMPDEST DUP2 LT ISZERO PUSH2 0x1D54 JUMPI DUP3 PUSH1 0x1 DUP3 PUSH2 0x1D0A SWAP2 SWAP1 PUSH2 0x4B4C JUMP JUMPDEST DUP2 MLOAD DUP2 LT PUSH2 0x1D1B JUMPI PUSH2 0x1D1A PUSH2 0x48EB JUMP JUMPDEST JUMPDEST PUSH1 0x20 MUL PUSH1 0x20 ADD ADD MLOAD DUP4 DUP3 DUP2 MLOAD DUP2 LT PUSH2 0x1D36 JUMPI PUSH2 0x1D35 PUSH2 0x48EB JUMP JUMPDEST JUMPDEST PUSH1 0x20 MUL PUSH1 0x20 ADD ADD MLOAD LT PUSH2 0x1D47 JUMPI PUSH0 DUP1 REVERT JUMPDEST DUP1 DUP1 PUSH1 0x1 ADD SWAP2 POP POP PUSH2 0x1CE7 JUMP JUMPDEST POP PUSH1 0x5 PUSH2 0x1D60 CALLER PUSH2 0x11B6 JUMP JUMPDEST LT ISZERO DUP1 ISZERO PUSH2 0x1E07 JUMPI POP PUSH1 0x32 PUSH1 0x5 PUSH0 SWAP1 SLOAD SWAP1 PUSH2 0x100 EXP SWAP1 DIV PUSH20 0xFFFFFFFFFFFFFFFFFFFFFFFFFFFFFFFFFFFFFFFF AND PUSH20 0xFFFFFFFFFFFFFFFFFFFFFFFFFFFFFFFFFFFFFFFF AND PUSH4 0x70A08231 CALLER PUSH1 0x40 MLOAD DUP3 PUSH4 0xFFFFFFFF AND PUSH1 0xE0 SHL DUP2 MSTORE PUSH1 0x4 ADD PUSH2 0x1DC5 SWAP2 SWAP1 PUSH2 0x438E JUMP JUMPDEST PUSH1 0x20 PUSH1 0x40 MLOAD DUP1 DUP4 SUB DUP2 DUP7 GAS STATICCALL ISZERO DUP1 ISZERO PUSH2 0x1DE0 JUMPI RETURNDATASIZE PUSH0 DUP1 RETURNDATACOPY RETURNDATASIZE PUSH0 REVERT JUMPDEST POP POP POP POP PUSH1 0x40 MLOAD RETURNDATASIZE PUSH1 0x1F NOT PUSH1 0x1F DUP3 ADD AND DUP3 ADD DUP1 PUSH1 0x40 MSTORE POP DUP2 ADD SWAP1 PUSH2 0x1E04 SWAP2 SWAP1 PUSH2 0x4A30 JUMP JUMPDEST LT ISZERO JUMPDEST PUSH2 0x1E0F JUMPI PUSH0 DUP1 REVERT JUMPDEST PUSH2 0x1E1A CALLER PUSH1 0x5 PUSH2 0x2247 JUMP JUMPDEST POP PUSH1 0x5 PUSH0 SWAP1 SLOAD SWAP1 PUSH2 0x100 EXP SWAP1 DIV PUSH20 0xFFFFFFFFFFFFFFFFFFFFFFFFFFFFFFFFFFFFFFFF AND PUSH20 0xFFFFFFFFFFFFFFFFFFFFFFFFFFFFFFFFFFFFFFFF AND PUSH4 0x23B872DD CALLER ADDRESS PUSH1 0x32 PUSH1 0x40 MLOAD DUP5 PUSH4 0xFFFFFFFF AND PUSH1 0xE0 SHL DUP2 MSTORE PUSH1 0x4 ADD PUSH2 0x1E7A SWAP4 SWAP3 SWAP2 SWAP1 PUSH2 0x4BB8 JUMP JUMPDEST PUSH1 0x20 PUSH1 0x40 MLOAD DUP1 DUP4 SUB DUP2 PUSH0 DUP8 GAS CALL ISZERO DUP1 ISZERO PUSH2 0x1E96 JUMPI RETURNDATASIZE PUSH0 DUP1 RETURNDATACOPY RETURNDATASIZE PUSH0 REVERT JUMPDEST POP POP POP POP PUSH1 0x40 MLOAD RETURNDATASIZE PUSH1 0x1F NOT PUSH1 0x1F DUP3 ADD AND DUP3 ADD DUP1 PUSH1 0x40 MSTORE POP DUP2 ADD SWAP1 PUSH2 0x1EBA SWAP2 SWAP1 PUSH2 0x4B21 JUMP JUMPDEST POP PUSH0 DUP1 JUMPDEST DUP5 MLOAD DUP2 LT ISZERO PUSH2 0x1EFC JUMPI DUP5 DUP2 DUP2 MLOAD DUP2 LT PUSH2 0x1EDA JUMPI PUSH2 0x1ED9 PUSH2 0x48EB JUMP JUMPDEST JUMPDEST PUSH1 0x20 MUL PUSH1 0x20 ADD ADD MLOAD DUP3 PUSH2 0x1EED SWAP2 SWAP1 PUSH2 0x4B4C JUMP JUMPDEST SWAP2 POP DUP1 DUP1 PUSH1 0x1 ADD SWAP2 POP POP PUSH2 0x1EBE JUMP JUMPDEST POP PUSH0 DUP2 SWAP1 POP PUSH0 PUSH1 0x40 MLOAD DUP1 PUSH2 0x1C0 ADD PUSH1 0x40 MSTORE DUP1 DUP10 DUP2 MSTORE PUSH1 0x20 ADD DUP9 DUP2 MSTORE PUSH1 0x20 ADD DUP8 DUP2 MSTORE PUSH1 0x20 ADD DUP7 DUP2 MSTORE PUSH1 0x20 ADD DUP7 MLOAD PUSH8 0xFFFFFFFFFFFFFFFF DUP2 GT ISZERO PUSH2 0x1F41 JUMPI PUSH2 0x1F40 PUSH2 0x4073 JUMP JUMPDEST JUMPDEST PUSH1 0x40 MLOAD SWAP1 DUP1 DUP3 MSTORE DUP1 PUSH1 0x20 MUL PUSH1 0x20 ADD DUP3 ADD PUSH1 0x40 MSTORE DUP1 ISZERO PUSH2 0x1F6F JUMPI DUP2 PUSH1 0x20 ADD PUSH1 0x20 DUP3 MUL DUP1 CALLDATASIZE DUP4 CALLDATACOPY DUP1 DUP3 ADD SWAP2 POP POP SWAP1 POP JUMPDEST POP DUP2 MSTORE PUSH1 0x20 ADD DUP7 MLOAD PUSH8 0xFFFFFFFFFFFFFFFF DUP2 GT ISZERO PUSH2 0x1F90 JUMPI PUSH2 0x1F8F PUSH2 0x4073 JUMP JUMPDEST JUMPDEST PUSH1 0x40 MLOAD SWAP1 DUP1 DUP3 MSTORE DUP1 PUSH1 0x20 MUL PUSH1 0x20 ADD DUP3 ADD PUSH1 0x40 MSTORE DUP1 ISZERO PUSH2 0x1FBE JUMPI DUP2 PUSH1 0x20 ADD PUSH1 0x20 DUP3 MUL DUP1 CALLDATASIZE DUP4 CALLDATACOPY DUP1 DUP3 ADD SWAP2 POP POP SWAP1 POP JUMPDEST POP DUP2 MSTORE PUSH1 0x20 ADD DUP7 MLOAD PUSH8 0xFFFFFFFFFFFFFFFF DUP2 GT ISZERO PUSH2 0x1FDF JUMPI PUSH2 0x1FDE PUSH2 0x4073 JUMP JUMPDEST JUMPDEST PUSH1 0x40 MLOAD SWAP1 DUP1 DUP3 MSTORE DUP1 PUSH1 0x20 MUL PUSH1 0x20 ADD DUP3 ADD PUSH1 0x40 MSTORE DUP1 ISZERO PUSH2 0x200D JUMPI DUP2 PUSH1 0x20 ADD PUSH1 0x20 DUP3 MUL DUP1 CALLDATASIZE DUP4 CALLDATACOPY DUP1 DUP3 ADD SWAP2 POP POP SWAP1 POP JUMPDEST POP DUP2 MSTORE PUSH1 0x20 ADD PUSH0 DUP2 MSTORE PUSH1 0x20 ADD PUSH0 DUP2 MSTORE PUSH1 0x20 ADD PUSH0 ISZERO ISZERO DUP2 MSTORE PUSH1 0x20 ADD PUSH0 ISZERO ISZERO DUP2 MSTORE PUSH1 0x20 ADD DUP4 DUP2 MSTORE PUSH1 0x20 ADD CALLER PUSH20 0xFFFFFFFFFFFFFFFFFFFFFFFFFFFFFFFFFFFFFFFF AND DUP2 MSTORE PUSH1 0x20 ADD PUSH0 DUP2 MSTORE POP SWAP1 POP PUSH1 0xB DUP2 SWAP1 DUP1 PUSH1 0x1 DUP2 SLOAD ADD DUP1 DUP3 SSTORE DUP1 SWAP2 POP POP PUSH1 0x1 SWAP1 SUB SWAP1 PUSH0 MSTORE PUSH1 0x20 PUSH0 KECCAK256 SWAP1 PUSH1 0xD MUL ADD PUSH0 SWAP1 SWAP2 SWAP1 SWAP2 SWAP1 SWAP2 POP PUSH0 DUP3 ADD MLOAD DUP2 PUSH0 ADD SWAP1 DUP2 PUSH2 0x2093 SWAP2 SWAP1 PUSH2 0x4D81 JUMP JUMPDEST POP PUSH1 0x20 DUP3 ADD MLOAD DUP2 PUSH1 0x1 ADD SSTORE PUSH1 0x40 DUP3 ADD MLOAD DUP2 PUSH1 0x2 ADD SWAP1 DUP1 MLOAD SWAP1 PUSH1 0x20 ADD SWAP1 PUSH2 0x20BA SWAP3 SWAP2 SWAP1 PUSH2 0x3C8E JUMP JUMPDEST POP PUSH1 0x60 DUP3 ADD MLOAD DUP2 PUSH1 0x3 ADD SWAP1 DUP1 MLOAD SWAP1 PUSH1 0x20 ADD SWAP1 PUSH2 0x20D7 SWAP3 SWAP2 SWAP1 PUSH2 0x3C8E JUMP JUMPDEST POP PUSH1 0x80 DUP3 ADD MLOAD DUP2 PUSH1 0x4 ADD SWAP1 DUP1 MLOAD SWAP1 PUSH1 0x20 ADD SWAP1 PUSH2 0x20F4 SWAP3 SWAP2 SWAP1 PUSH2 0x3CD9 JUMP JUMPDEST POP PUSH1 0xA0 DUP3 ADD MLOAD DUP2 PUSH1 0x5 ADD SWAP1 DUP1 MLOAD SWAP1 PUSH1 0x20 ADD SWAP1 PUSH2 0x2111 SWAP3 SWAP2 SWAP1 PUSH2 0x3C8E JUMP JUMPDEST POP PUSH1 0xC0 DUP3 ADD MLOAD DUP2 PUSH1 0x6 ADD SWAP1 DUP1 MLOAD SWAP1 PUSH1 0x20 ADD SWAP1 PUSH2 0x212E SWAP3 SWAP2 SWAP1 PUSH2 0x3C8E JUMP JUMPDEST POP PUSH1 0xE0 DUP3 ADD MLOAD DUP2 PUSH1 0x7 ADD SSTORE PUSH2 0x100 DUP3 ADD MLOAD DUP2 PUSH1 0x8 ADD SSTORE PUSH2 0x120 DUP3 ADD MLOAD DUP2 PUSH1 0x9 ADD PUSH0 PUSH2 0x100 EXP DUP2 SLOAD DUP2 PUSH1 0xFF MUL NOT AND SWAP1 DUP4 ISZERO ISZERO MUL OR SWAP1 SSTORE POP PUSH2 0x140 DUP3 ADD MLOAD DUP2 PUSH1 0x9 ADD PUSH1 0x1 PUSH2 0x100 EXP DUP2 SLOAD DUP2 PUSH1 0xFF MUL NOT AND SWAP1 DUP4 ISZERO ISZERO MUL OR SWAP1 SSTORE POP PUSH2 0x160 DUP3 ADD MLOAD DUP2 PUSH1 0xA ADD SSTORE PUSH2 0x180 DUP3 ADD MLOAD DUP2 PUSH1 0xB ADD PUSH0 PUSH2 0x100 EXP DUP2 SLOAD DUP2 PUSH20 0xFFFFFFFFFFFFFFFFFFFFFFFFFFFFFFFFFFFFFFFF MUL NOT AND SWAP1 DUP4 PUSH20 0xFFFFFFFFFFFFFFFFFFFFFFFFFFFFFFFFFFFFFFFF AND MUL OR SWAP1 SSTORE POP PUSH2 0x1A0 DUP3 ADD MLOAD DUP2 PUSH1 0xC ADD SSTORE POP POP PUSH1 0x1 PUSH1 0xB DUP1 SLOAD SWAP1 POP PUSH2 0x21F6 SWAP2 SWAP1 PUSH2 0x49E9 JUMP JUMPDEST SWAP4 POP CALLER PUSH20 0xFFFFFFFFFFFFFFFFFFFFFFFFFFFFFFFFFFFFFFFF AND DUP5 PUSH32 0xE387D723867CD8FF0A5FBFDA99C2183E0C8EB8CAA297784C3E146C0D2F9D0141 PUSH1 0x40 MLOAD PUSH1 0x40 MLOAD DUP1 SWAP2 SUB SWAP1 LOG3 POP POP POP SWAP5 SWAP4 POP POP POP POP JUMP JUMPDEST PUSH0 DUP1 PUSH2 0x2251 PUSH2 0x35FE JUMP JUMPDEST SWAP1 POP PUSH2 0x225E DUP2 DUP6 DUP6 PUSH2 0x36A9 JUMP JUMPDEST PUSH1 0x1 SWAP2 POP POP SWAP3 SWAP2 POP POP JUMP JUMPDEST PUSH1 0x10 PUSH1 0x20 MSTORE DUP2 PUSH0 MSTORE PUSH1 0x40 PUSH0 KECCAK256 PUSH1 0x20 MSTORE DUP1 PUSH0 MSTORE PUSH1 0x40 PUSH0 KECCAK256 PUSH0 SWAP2 POP SWAP2 POP POP SLOAD DUP2 JUMP JUMPDEST PUSH2 0x2291 PUSH2 0x928 JUMP JUMPDEST POP PUSH0 JUMPDEST PUSH1 0xB DUP3 DUP2 SLOAD DUP2 LT PUSH2 0x22A8 JUMPI PUSH2 0x22A7 PUSH2 0x48EB JUMP JUMPDEST JUMPDEST SWAP1 PUSH0 MSTORE PUSH1 0x20 PUSH0 KECCAK256 SWAP1 PUSH1 0xD MUL ADD PUSH1 0x3 ADD DUP1 SLOAD SWAP1 POP DUP2 LT ISZERO PUSH2 0x23D7 JUMPI PUSH1 0x64 PUSH2 0x22CC PUSH2 0x928 JUMP JUMPDEST PUSH2 0x22D6 SWAP2 SWAP1 PUSH2 0x4AA8 JUMP JUMPDEST PUSH1 0xB DUP4 DUP2 SLOAD DUP2 LT PUSH2 0x22EA JUMPI PUSH2 0x22E9 PUSH2 0x48EB JUMP JUMPDEST JUMPDEST SWAP1 PUSH0 MSTORE PUSH1 0x20 PUSH0 KECCAK256 SWAP1 PUSH1 0xD MUL ADD PUSH1 0x5 ADD DUP3 DUP2 SLOAD DUP2 LT PUSH2 0x230B JUMPI PUSH2 0x230A PUSH2 0x48EB JUMP JUMPDEST JUMPDEST SWAP1 PUSH0 MSTORE PUSH1 0x20 PUSH0 KECCAK256 ADD SLOAD LT PUSH2 0x2374 JUMPI PUSH1 0x1 ISZERO ISZERO PUSH1 0xB DUP4 DUP2 SLOAD DUP2 LT PUSH2 0x2331 JUMPI PUSH2 0x2330 PUSH2 0x48EB JUMP JUMPDEST JUMPDEST SWAP1 PUSH0 MSTORE PUSH1 0x20 PUSH0 KECCAK256 SWAP1 PUSH1 0xD MUL ADD PUSH1 0x4 ADD DUP3 DUP2 SLOAD DUP2 LT PUSH2 0x2352 JUMPI PUSH2 0x2351 PUSH2 0x48EB JUMP JUMPDEST JUMPDEST SWAP1 PUSH0 MSTORE PUSH1 0x20 PUSH0 KECCAK256 SWAP1 PUSH1 0x20 SWAP2 DUP3 DUP3 DIV ADD SWAP2 SWAP1 MOD SWAP1 SLOAD SWAP1 PUSH2 0x100 EXP SWAP1 POP POP POP PUSH2 0x23CA JUMP JUMPDEST PUSH0 ISZERO ISZERO PUSH1 0xB DUP4 DUP2 SLOAD DUP2 LT PUSH2 0x238B JUMPI PUSH2 0x238A PUSH2 0x48EB JUMP JUMPDEST JUMPDEST SWAP1 PUSH0 MSTORE PUSH1 0x20 PUSH0 KECCAK256 SWAP1 PUSH1 0xD MUL ADD PUSH1 0x4 ADD DUP3 DUP2 SLOAD DUP2 LT PUSH2 0x23AC JUMPI PUSH2 0x23AB PUSH2 0x48EB JUMP JUMPDEST JUMPDEST SWAP1 PUSH0 MSTORE PUSH1 0x20 PUSH0 KECCAK256 SWAP1 PUSH1 0x20 SWAP2 DUP3 DUP3 DIV ADD SWAP2 SWAP1 MOD SWAP1 SLOAD SWAP1 PUSH2 0x100 EXP SWAP1 POP POP POP JUMPDEST DUP1 DUP1 PUSH1 0x1 ADD SWAP2 POP POP PUSH2 0x2294 JUMP JUMPDEST POP DUP1 PUSH32 0x2411B9F6A1E89DC84108FA2518C56C1C8E0994043AF15EEC01F19F7CC996ED2 PUSH1 0xB DUP4 DUP2 SLOAD DUP2 LT PUSH2 0x240E JUMPI PUSH2 0x240D PUSH2 0x48EB JUMP JUMPDEST JUMPDEST SWAP1 PUSH0 MSTORE PUSH1 0x20 PUSH0 KECCAK256 SWAP1 PUSH1 0xD MUL ADD PUSH1 0x4 ADD PUSH1 0x40 MLOAD PUSH2 0x242A SWAP2 SWAP1 PUSH2 0x5B7A JUMP JUMPDEST PUSH1 0x40 MLOAD DUP1 SWAP2 SUB SWAP1 LOG2 POP JUMP JUMPDEST PUSH1 0xB DUP1 SLOAD SWAP1 POP DUP2 LT DUP1 ISZERO PUSH2 0x24B6 JUMPI POP PUSH1 0xB DUP2 DUP2 SLOAD DUP2 LT PUSH2 0x2458 JUMPI PUSH2 0x2457 PUSH2 0x48EB JUMP JUMPDEST JUMPDEST SWAP1 PUSH0 MSTORE PUSH1 0x20 PUSH0 KECCAK256 SWAP1 PUSH1 0xD MUL ADD PUSH1 0xB ADD PUSH0 SWAP1 SLOAD SWAP1 PUSH2 0x100 EXP SWAP1 DIV PUSH20 0xFFFFFFFFFFFFFFFFFFFFFFFFFFFFFFFFFFFFFFFF AND PUSH20 0xFFFFFFFFFFFFFFFFFFFFFFFFFFFFFFFFFFFFFFFF AND CALLER PUSH20 0xFFFFFFFFFFFFFFFFFFFFFFFFFFFFFFFFFFFFFFFF AND EQ JUMPDEST DUP1 ISZERO PUSH2 0x24E5 JUMPI POP PUSH1 0xB DUP2 DUP2 SLOAD DUP2 LT PUSH2 0x24D1 JUMPI PUSH2 0x24D0 PUSH2 0x48EB JUMP JUMPDEST JUMPDEST SWAP1 PUSH0 MSTORE PUSH1 0x20 PUSH0 KECCAK256 SWAP1 PUSH1 0xD MUL ADD PUSH1 0x1 ADD SLOAD TIMESTAMP GT ISZERO JUMPDEST DUP1 ISZERO PUSH2 0x251D JUMPI POP PUSH1 0xB DUP2 DUP2 SLOAD DUP2 LT PUSH2 0x2500 JUMPI PUSH2 0x24FF PUSH2 0x48EB JUMP JUMPDEST JUMPDEST SWAP1 PUSH0 MSTORE PUSH1 0x20 PUSH0 KECCAK256 SWAP1 PUSH1 0xD MUL ADD PUSH1 0x9 ADD PUSH0 SWAP1 SLOAD SWAP1 PUSH2 0x100 EXP SWAP1 DIV PUSH1 0xFF AND JUMPDEST DUP1 ISZERO PUSH2 0x2557 JUMPI POP PUSH1 0xB DUP2 DUP2 SLOAD DUP2 LT PUSH2 0x2538 JUMPI PUSH2 0x2537 PUSH2 0x48EB JUMP JUMPDEST JUMPDEST SWAP1 PUSH0 MSTORE PUSH1 0x20 PUSH0 KECCAK256 SWAP1 PUSH1 0xD MUL ADD PUSH1 0x9 ADD PUSH1 0x1 SWAP1 SLOAD SWAP1 PUSH2 0x100 EXP SWAP1 DIV PUSH1 0xFF AND ISZERO JUMPDEST PUSH2 0x255F JUMPI PUSH0 DUP1 REVERT JUMPDEST PUSH1 0xB DUP2 DUP2 SLOAD DUP2 LT PUSH2 0x2573 JUMPI PUSH2 0x2572 PUSH2 0x48EB JUMP JUMPDEST JUMPDEST SWAP1 PUSH0 MSTORE PUSH1 0x20 PUSH0 KECCAK256 SWAP1 PUSH1 0xD MUL ADD PUSH1 0xA ADD SLOAD PUSH2 0x258B PUSH2 0xEA0 JUMP JUMPDEST LT ISZERO PUSH2 0x2595 JUMPI PUSH0 DUP1 REVERT JUMPDEST PUSH1 0x1 PUSH1 0xB DUP3 DUP2 SLOAD DUP2 LT PUSH2 0x25AB JUMPI PUSH2 0x25AA PUSH2 0x48EB JUMP JUMPDEST JUMPDEST SWAP1 PUSH0 MSTORE PUSH1 0x20 PUSH0 KECCAK256 SWAP1 PUSH1 0xD MUL ADD PUSH1 0x9 ADD PUSH1 0x1 PUSH2 0x100 EXP DUP2 SLOAD DUP2 PUSH1 0xFF MUL NOT AND SWAP1 DUP4 ISZERO ISZERO MUL OR SWAP1 SSTORE POP CALLER PUSH20 0xFFFFFFFFFFFFFFFFFFFFFFFFFFFFFFFFFFFFFFFF AND DUP2 PUSH32 0x4B3A4B609559F6895D2818D4A00B0C8D09C8C1BDC7F9CBD315D3CC8279835B0A PUSH1 0x40 MLOAD PUSH1 0x40 MLOAD DUP1 SWAP2 SUB SWAP1 LOG3 POP JUMP JUMPDEST PUSH0 DUP1 PUSH0 SWAP1 POP PUSH0 JUMPDEST PUSH1 0xB DUP1 SLOAD SWAP1 POP DUP2 LT ISZERO PUSH2 0x266B JUMPI PUSH1 0xE PUSH0 DUP3 DUP2 MSTORE PUSH1 0x20 ADD SWAP1 DUP2 MSTORE PUSH1 0x20 ADD PUSH0 KECCAK256 PUSH0 SWAP1 SLOAD SWAP1 PUSH2 0x100 EXP SWAP1 DIV PUSH1 0xFF AND ISZERO PUSH2 0x265E JUMPI DUP2 DUP1 PUSH2 0x265A SWAP1 PUSH2 0x4945 JUMP JUMPDEST SWAP3 POP POP JUMPDEST DUP1 DUP1 PUSH1 0x1 ADD SWAP2 POP POP PUSH2 0x261F JUMP JUMPDEST POP DUP1 SWAP2 POP POP SWAP1 JUMP JUMPDEST PUSH1 0xF PUSH1 0x20 MSTORE DUP2 PUSH0 MSTORE PUSH1 0x40 PUSH0 KECCAK256 PUSH1 0x20 MSTORE DUP1 PUSH0 MSTORE PUSH1 0x40 PUSH0 KECCAK256 PUSH0 SWAP2 POP SWAP2 POP SWAP1 SLOAD SWAP1 PUSH2 0x100 EXP SWAP1 DIV PUSH1 0xFF AND DUP2 JUMP JUMPDEST PUSH0 PUSH1 0xB DUP1 SLOAD SWAP1 POP DUP3 LT PUSH2 0x26AE JUMPI PUSH0 DUP1 REVERT JUMPDEST PUSH1 0xB DUP3 DUP2 SLOAD DUP2 LT PUSH2 0x26C2 JUMPI PUSH2 0x26C1 PUSH2 0x48EB JUMP JUMPDEST JUMPDEST SWAP1 PUSH0 MSTORE PUSH1 0x20 PUSH0 KECCAK256 SWAP1 PUSH1 0xD MUL ADD PUSH1 0xC ADD SLOAD SWAP1 POP SWAP2 SWAP1 POP JUMP JUMPDEST PUSH1 0xD PUSH1 0x20 MSTORE DUP2 PUSH0 MSTORE PUSH1 0x40 PUSH0 KECCAK256 PUSH1 0x20 MSTORE DUP1 PUSH0 MSTORE PUSH1 0x40 PUSH0 KECCAK256 PUSH0 SWAP2 POP SWAP2 POP SWAP1 SLOAD SWAP1 PUSH2 0x100 EXP SWAP1 DIV PUSH1 0xFF AND DUP2 JUMP JUMPDEST PUSH0 DUP2 GT PUSH2 0x270E JUMPI PUSH0 DUP1 REVERT JUMPDEST DUP1 PUSH1 0x5 PUSH0 SWAP1 SLOAD SWAP1 PUSH2 0x100 EXP SWAP1 DIV PUSH20 0xFFFFFFFFFFFFFFFFFFFFFFFFFFFFFFFFFFFFFFFF AND PUSH20 0xFFFFFFFFFFFFFFFFFFFFFFFFFFFFFFFFFFFFFFFF AND PUSH4 0x70A08231 CALLER PUSH1 0x40 MLOAD DUP3 PUSH4 0xFFFFFFFF AND PUSH1 0xE0 SHL DUP2 MSTORE PUSH1 0x4 ADD PUSH2 0x2769 SWAP2 SWAP1 PUSH2 0x438E JUMP JUMPDEST PUSH1 0x20 PUSH1 0x40 MLOAD DUP1 DUP4 SUB DUP2 DUP7 GAS STATICCALL ISZERO DUP1 ISZERO PUSH2 0x2784 JUMPI RETURNDATASIZE PUSH0 DUP1 RETURNDATACOPY RETURNDATASIZE PUSH0 REVERT JUMPDEST POP POP POP POP PUSH1 0x40 MLOAD RETURNDATASIZE PUSH1 0x1F NOT PUSH1 0x1F DUP3 ADD AND DUP3 ADD DUP1 PUSH1 0x40 MSTORE POP DUP2 ADD SWAP1 PUSH2 0x27A8 SWAP2 SWAP1 PUSH2 0x4A30 JUMP JUMPDEST LT ISZERO PUSH2 0x27B2 JUMPI PUSH0 DUP1 REVERT JUMPDEST PUSH1 0x5 PUSH0 SWAP1 SLOAD SWAP1 PUSH2 0x100 EXP SWAP1 DIV PUSH20 0xFFFFFFFFFFFFFFFFFFFFFFFFFFFFFFFFFFFFFFFF AND PUSH20 0xFFFFFFFFFFFFFFFFFFFFFFFFFFFFFFFFFFFFFFFF AND PUSH4 0x23B872DD CALLER ADDRESS DUP5 PUSH1 0x40 MLOAD DUP5 PUSH4 0xFFFFFFFF AND PUSH1 0xE0 SHL DUP2 MSTORE PUSH1 0x4 ADD PUSH2 0x2810 SWAP4 SWAP3 SWAP2 SWAP1 PUSH2 0x4AD8 JUMP JUMPDEST PUSH1 0x20 PUSH1 0x40 MLOAD DUP1 DUP4 SUB DUP2 PUSH0 DUP8 GAS CALL ISZERO DUP1 ISZERO PUSH2 0x282C JUMPI RETURNDATASIZE PUSH0 DUP1 RETURNDATACOPY RETURNDATASIZE PUSH0 REVERT JUMPDEST POP POP POP POP PUSH1 0x40 MLOAD RETURNDATASIZE PUSH1 0x1F NOT PUSH1 0x1F DUP3 ADD AND DUP3 ADD DUP1 PUSH1 0x40 MSTORE POP DUP2 ADD SWAP1 PUSH2 0x2850 SWAP2 SWAP1 PUSH2 0x4B21 JUMP JUMPDEST POP POP JUMP JUMPDEST PUSH1 0x6 DUP2 DUP2 SLOAD DUP2 LT PUSH2 0x2863 JUMPI PUSH0 DUP1 REVERT JUMPDEST SWAP1 PUSH0 MSTORE PUSH1 0x20 PUSH0 KECCAK256 ADD PUSH0 SWAP2 POP SLOAD SWAP1 PUSH2 0x100 EXP SWAP1 DIV PUSH20 0xFFFFFFFFFFFFFFFFFFFFFFFFFFFFFFFFFFFFFFFF AND DUP2 JUMP JUMPDEST PUSH1 0xB DUP2 DUP2 SLOAD DUP2 LT PUSH2 0x289E JUMPI PUSH0 DUP1 REVERT JUMPDEST SWAP1 PUSH0 MSTORE PUSH1 0x20 PUSH0 KECCAK256 SWAP1 PUSH1 0xD MUL ADD PUSH0 SWAP2 POP SWAP1 POP DUP1 PUSH0 ADD DUP1 SLOAD PUSH2 0x28BD SWAP1 PUSH2 0x49B9 JUMP JUMPDEST DUP1 PUSH1 0x1F ADD PUSH1 0x20 DUP1 SWAP2 DIV MUL PUSH1 0x20 ADD PUSH1 0x40 MLOAD SWAP1 DUP2 ADD PUSH1 0x40 MSTORE DUP1 SWAP3 SWAP2 SWAP1 DUP2 DUP2 MSTORE PUSH1 0x20 ADD DUP3 DUP1 SLOAD PUSH2 0x28E9 SWAP1 PUSH2 0x49B9 JUMP JUMPDEST DUP1 ISZERO PUSH2 0x2934 JUMPI DUP1 PUSH1 0x1F LT PUSH2 0x290B JUMPI PUSH2 0x100 DUP1 DUP4 SLOAD DIV MUL DUP4 MSTORE SWAP2 PUSH1 0x20 ADD SWAP2 PUSH2 0x2934 JUMP JUMPDEST DUP3 ADD SWAP2 SWAP1 PUSH0 MSTORE PUSH1 0x20 PUSH0 KECCAK256 SWAP1 JUMPDEST DUP2 SLOAD DUP2 MSTORE SWAP1 PUSH1 0x1 ADD SWAP1 PUSH1 0x20 ADD DUP1 DUP4 GT PUSH2 0x2917 JUMPI DUP3 SWAP1 SUB PUSH1 0x1F AND DUP3 ADD SWAP2 JUMPDEST POP POP POP POP POP SWAP1 DUP1 PUSH1 0x1 ADD SLOAD SWAP1 DUP1 PUSH1 0x7 ADD SLOAD SWAP1 DUP1 PUSH1 0x8 ADD SLOAD SWAP1 DUP1 PUSH1 0x9 ADD PUSH0 SWAP1 SLOAD SWAP1 PUSH2 0x100 EXP SWAP1 DIV PUSH1 0xFF AND SWAP1 DUP1 PUSH1 0x9 ADD PUSH1 0x1 SWAP1 SLOAD SWAP1 PUSH2 0x100 EXP SWAP1 DIV PUSH1 0xFF AND SWAP1 DUP1 PUSH1 0xA ADD SLOAD SWAP1 DUP1 PUSH1 0xB ADD PUSH0 SWAP1 SLOAD SWAP1 PUSH2 0x100 EXP SWAP1 DIV PUSH20 0xFFFFFFFFFFFFFFFFFFFFFFFFFFFFFFFFFFFFFFFF AND SWAP1 DUP1 PUSH1 0xC ADD SLOAD SWAP1 POP DUP10 JUMP JUMPDEST PUSH1 0x5 PUSH0 SWAP1 SLOAD SWAP1 PUSH2 0x100 EXP SWAP1 DIV PUSH20 0xFFFFFFFFFFFFFFFFFFFFFFFFFFFFFFFFFFFFFFFF AND DUP2 JUMP JUMPDEST PUSH0 PUSH1 0x1 PUSH0 DUP5 PUSH20 0xFFFFFFFFFFFFFFFFFFFFFFFFFFFFFFFFFFFFFFFF AND PUSH20 0xFFFFFFFFFFFFFFFFFFFFFFFFFFFFFFFFFFFFFFFF AND DUP2 MSTORE PUSH1 0x20 ADD SWAP1 DUP2 MSTORE PUSH1 0x20 ADD PUSH0 KECCAK256 PUSH0 DUP4 PUSH20 0xFFFFFFFFFFFFFFFFFFFFFFFFFFFFFFFFFFFFFFFF AND PUSH20 0xFFFFFFFFFFFFFFFFFFFFFFFFFFFFFFFFFFFFFFFF AND DUP2 MSTORE PUSH1 0x20 ADD SWAP1 DUP2 MSTORE PUSH1 0x20 ADD PUSH0 KECCAK256 SLOAD SWAP1 POP SWAP3 SWAP2 POP POP JUMP JUMPDEST PUSH1 0x8 PUSH0 CALLER PUSH20 0xFFFFFFFFFFFFFFFFFFFFFFFFFFFFFFFFFFFFFFFF AND PUSH20 0xFFFFFFFFFFFFFFFFFFFFFFFFFFFFFFFFFFFFFFFF AND DUP2 MSTORE PUSH1 0x20 ADD SWAP1 DUP2 MSTORE PUSH1 0x20 ADD PUSH0 KECCAK256 PUSH0 SWAP1 SLOAD SWAP1 PUSH2 0x100 EXP SWAP1 DIV PUSH1 0xFF AND ISZERO PUSH2 0x2AA0 JUMPI PUSH0 DUP1 REVERT JUMPDEST PUSH2 0x2AAB CALLER PUSH1 0x1 PUSH2 0x3827 JUMP JUMPDEST PUSH1 0x1 PUSH1 0x8 PUSH0 CALLER PUSH20 0xFFFFFFFFFFFFFFFFFFFFFFFFFFFFFFFFFFFFFFFF AND PUSH20 0xFFFFFFFFFFFFFFFFFFFFFFFFFFFFFFFFFFFFFFFF AND DUP2 MSTORE PUSH1 0x20 ADD SWAP1 DUP2 MSTORE PUSH1 0x20 ADD PUSH0 KECCAK256 PUSH0 PUSH2 0x100 EXP DUP2 SLOAD DUP2 PUSH1 0xFF MUL NOT AND SWAP1 DUP4 ISZERO ISZERO MUL OR SWAP1 SSTORE POP JUMP JUMPDEST PUSH0 DUP4 TIMESTAMP LT DUP1 ISZERO PUSH2 0x2B13 JUMPI POP PUSH1 0x2 DUP4 LT ISZERO JUMPDEST DUP1 ISZERO PUSH2 0x2B20 JUMPI POP PUSH1 0x1 DUP3 LT ISZERO JUMPDEST DUP1 ISZERO PUSH2 0x2B2C JUMPI POP DUP2 DUP4 LT ISZERO JUMPDEST DUP1 ISZERO PUSH2 0x2B41 JUMPI POP PUSH1 0x2 PUSH2 0x2B3E CALLER PUSH2 0x11B6 JUMP JUMPDEST LT ISZERO JUMPDEST DUP1 ISZERO PUSH2 0x2BE5 JUMPI POP PUSH1 0x5 DUP1 PUSH0 SWAP1 SLOAD SWAP1 PUSH2 0x100 EXP SWAP1 DIV PUSH20 0xFFFFFFFFFFFFFFFFFFFFFFFFFFFFFFFFFFFFFFFF AND PUSH20 0xFFFFFFFFFFFFFFFFFFFFFFFFFFFFFFFFFFFFFFFF AND PUSH4 0x70A08231 CALLER PUSH1 0x40 MLOAD DUP3 PUSH4 0xFFFFFFFF AND PUSH1 0xE0 SHL DUP2 MSTORE PUSH1 0x4 ADD PUSH2 0x2BA3 SWAP2 SWAP1 PUSH2 0x438E JUMP JUMPDEST PUSH1 0x20 PUSH1 0x40 MLOAD DUP1 DUP4 SUB DUP2 DUP7 GAS STATICCALL ISZERO DUP1 ISZERO PUSH2 0x2BBE JUMPI RETURNDATASIZE PUSH0 DUP1 RETURNDATACOPY RETURNDATASIZE PUSH0 REVERT JUMPDEST POP POP POP POP PUSH1 0x40 MLOAD RETURNDATASIZE PUSH1 0x1F NOT PUSH1 0x1F DUP3 ADD AND DUP3 ADD DUP1 PUSH1 0x40 MSTORE POP DUP2 ADD SWAP1 PUSH2 0x2BE2 SWAP2 SWAP1 PUSH2 0x4A30 JUMP JUMPDEST LT ISZERO JUMPDEST PUSH2 0x2BED JUMPI PUSH0 DUP1 REVERT JUMPDEST PUSH2 0x2BF8 CALLER PUSH1 0x2 PUSH2 0x2247 JUMP JUMPDEST POP PUSH1 0x5 PUSH0 SWAP1 SLOAD SWAP1 PUSH2 0x100 EXP SWAP1 DIV PUSH20 0xFFFFFFFFFFFFFFFFFFFFFFFFFFFFFFFFFFFFFFFF AND PUSH20 0xFFFFFFFFFFFFFFFFFFFFFFFFFFFFFFFFFFFFFFFF AND PUSH4 0x23B872DD CALLER ADDRESS PUSH1 0x5 PUSH1 0x40 MLOAD DUP5 PUSH4 0xFFFFFFFF AND PUSH1 0xE0 SHL DUP2 MSTORE PUSH1 0x4 ADD PUSH2 0x2C58 SWAP4 SWAP3 SWAP2 SWAP1 PUSH2 0x5BD3 JUMP JUMPDEST PUSH1 0x20 PUSH1 0x40 MLOAD DUP1 DUP4 SUB DUP2 PUSH0 DUP8 GAS CALL ISZERO DUP1 ISZERO PUSH2 0x2C74 JUMPI RETURNDATASIZE PUSH0 DUP1 RETURNDATACOPY RETURNDATASIZE PUSH0 REVERT JUMPDEST POP POP POP POP PUSH1 0x40 MLOAD RETURNDATASIZE PUSH1 0x1F NOT PUSH1 0x1F DUP3 ADD AND DUP3 ADD DUP1 PUSH1 0x40 MSTORE POP DUP2 ADD SWAP1 PUSH2 0x2C98 SWAP2 SWAP1 PUSH2 0x4B21 JUMP JUMPDEST POP PUSH0 PUSH1 0x40 MLOAD DUP1 PUSH1 0xE0 ADD PUSH1 0x40 MSTORE DUP1 DUP8 DUP2 MSTORE PUSH1 0x20 ADD DUP7 DUP2 MSTORE PUSH1 0x20 ADD DUP6 DUP2 MSTORE PUSH1 0x20 ADD DUP5 DUP2 MSTORE PUSH1 0x20 ADD DUP6 PUSH8 0xFFFFFFFFFFFFFFFF DUP2 GT ISZERO PUSH2 0x2CD7 JUMPI PUSH2 0x2CD6 PUSH2 0x4073 JUMP JUMPDEST JUMPDEST PUSH1 0x40 MLOAD SWAP1 DUP1 DUP3 MSTORE DUP1 PUSH1 0x20 MUL PUSH1 0x20 ADD DUP3 ADD PUSH1 0x40 MSTORE DUP1 ISZERO PUSH2 0x2D05 JUMPI DUP2 PUSH1 0x20 ADD PUSH1 0x20 DUP3 MUL DUP1 CALLDATASIZE DUP4 CALLDATACOPY DUP1 DUP3 ADD SWAP2 POP POP SWAP1 POP JUMPDEST POP DUP2 MSTORE PUSH1 0x20 ADD CALLER PUSH20 0xFFFFFFFFFFFFFFFFFFFFFFFFFFFFFFFFFFFFFFFF AND DUP2 MSTORE PUSH1 0x20 ADD PUSH0 DUP2 MSTORE POP SWAP1 POP PUSH1 0x9 DUP2 SWAP1 DUP1 PUSH1 0x1 DUP2 SLOAD ADD DUP1 DUP3 SSTORE DUP1 SWAP2 POP POP PUSH1 0x1 SWAP1 SUB SWAP1 PUSH0 MSTORE PUSH1 0x20 PUSH0 KECCAK256 SWAP1 PUSH1 0x7 MUL ADD PUSH0 SWAP1 SWAP2 SWAP1 SWAP2 SWAP1 SWAP2 POP PUSH0 DUP3 ADD MLOAD DUP2 PUSH0 ADD SWAP1 DUP2 PUSH2 0x2D69 SWAP2 SWAP1 PUSH2 0x4D81 JUMP JUMPDEST POP PUSH1 0x20 DUP3 ADD MLOAD DUP2 PUSH1 0x1 ADD SSTORE PUSH1 0x40 DUP3 ADD MLOAD DUP2 PUSH1 0x2 ADD SSTORE PUSH1 0x60 DUP3 ADD MLOAD DUP2 PUSH1 0x3 ADD SSTORE PUSH1 0x80 DUP3 ADD MLOAD DUP2 PUSH1 0x4 ADD SWAP1 DUP1 MLOAD SWAP1 PUSH1 0x20 ADD SWAP1 PUSH2 0x2DA4 SWAP3 SWAP2 SWAP1 PUSH2 0x3C8E JUMP JUMPDEST POP PUSH1 0xA0 DUP3 ADD MLOAD DUP2 PUSH1 0x5 ADD PUSH0 PUSH2 0x100 EXP DUP2 SLOAD DUP2 PUSH20 0xFFFFFFFFFFFFFFFFFFFFFFFFFFFFFFFFFFFFFFFF MUL NOT AND SWAP1 DUP4 PUSH20 0xFFFFFFFFFFFFFFFFFFFFFFFFFFFFFFFFFFFFFFFF AND MUL OR SWAP1 SSTORE POP PUSH1 0xC0 DUP3 ADD MLOAD DUP2 PUSH1 0x6 ADD SSTORE POP POP PUSH1 0x1 PUSH1 0x9 DUP1 SLOAD SWAP1 POP PUSH2 0x2E09 SWAP2 SWAP1 PUSH2 0x49E9 JUMP JUMPDEST SWAP2 POP CALLER PUSH20 0xFFFFFFFFFFFFFFFFFFFFFFFFFFFFFFFFFFFFFFFF AND DUP3 PUSH32 0xCDAD06BB3A3FA7D9EE4517F89680DDDF8EF0E00D995AE8F02B3450F9D3D28EB4 PUSH1 0x40 MLOAD PUSH1 0x40 MLOAD DUP1 SWAP2 SUB SWAP1 LOG3 POP SWAP5 SWAP4 POP POP POP POP JUMP JUMPDEST PUSH1 0xB DUP1 SLOAD SWAP1 POP DUP3 LT DUP1 ISZERO PUSH2 0x2E75 JUMPI POP PUSH1 0x1 PUSH2 0x2E72 CALLER PUSH2 0x11B6 JUMP JUMPDEST LT ISZERO JUMPDEST DUP1 ISZERO PUSH2 0x2EA3 JUMPI POP PUSH1 0xB DUP3 DUP2 SLOAD DUP2 LT PUSH2 0x2E90 JUMPI PUSH2 0x2E8F PUSH2 0x48EB JUMP JUMPDEST JUMPDEST SWAP1 PUSH0 MSTORE PUSH1 0x20 PUSH0 KECCAK256 SWAP1 PUSH1 0xD MUL ADD PUSH1 0x1 ADD SLOAD TIMESTAMP GT JUMPDEST DUP1 ISZERO PUSH2 0x2F05 JUMPI POP PUSH1 0xF PUSH0 DUP4 DUP2 MSTORE PUSH1 0x20 ADD SWAP1 DUP2 MSTORE PUSH1 0x20 ADD PUSH0 KECCAK256 PUSH0 CALLER PUSH20 0xFFFFFFFFFFFFFFFFFFFFFFFFFFFFFFFFFFFFFFFF AND PUSH20 0xFFFFFFFFFFFFFFFFFFFFFFFFFFFFFFFFFFFFFFFF AND DUP2 MSTORE PUSH1 0x20 ADD SWAP1 DUP2 MSTORE PUSH1 0x20 ADD PUSH0 KECCAK256 PUSH0 SWAP1 SLOAD SWAP1 PUSH2 0x100 EXP SWAP1 DIV PUSH1 0xFF AND ISZERO JUMPDEST DUP1 ISZERO PUSH2 0x2F67 JUMPI POP PUSH1 0xD PUSH0 DUP4 DUP2 MSTORE PUSH1 0x20 ADD SWAP1 DUP2 MSTORE PUSH1 0x20 ADD PUSH0 KECCAK256 PUSH0 CALLER PUSH20 0xFFFFFFFFFFFFFFFFFFFFFFFFFFFFFFFFFFFFFFFF AND PUSH20 0xFFFFFFFFFFFFFFFFFFFFFFFFFFFFFFFFFFFFFFFF AND DUP2 MSTORE PUSH1 0x20 ADD SWAP1 DUP2 MSTORE PUSH1 0x20 ADD PUSH0 KECCAK256 PUSH0 SWAP1 SLOAD SWAP1 PUSH2 0x100 EXP SWAP1 DIV PUSH1 0xFF AND ISZERO JUMPDEST PUSH2 0x2F6F JUMPI PUSH0 DUP1 REVERT JUMPDEST PUSH0 PUSH1 0x1 PUSH1 0x10 PUSH0 DUP6 DUP2 MSTORE PUSH1 0x20 ADD SWAP1 DUP2 MSTORE PUSH1 0x20 ADD PUSH0 KECCAK256 PUSH0 CALLER PUSH20 0xFFFFFFFFFFFFFFFFFFFFFFFFFFFFFFFFFFFFFFFF AND PUSH20 0xFFFFFFFFFFFFFFFFFFFFFFFFFFFFFFFFFFFFFFFF AND DUP2 MSTORE PUSH1 0x20 ADD SWAP1 DUP2 MSTORE PUSH1 0x20 ADD PUSH0 KECCAK256 SLOAD PUSH2 0x2FC9 SWAP2 SWAP1 PUSH2 0x4B4C JUMP JUMPDEST SWAP1 POP PUSH0 PUSH2 0x2FD5 DUP5 PUSH2 0xB85 JUMP JUMPDEST SWAP1 POP PUSH0 JUMPDEST DUP2 DUP2 GT PUSH2 0x30BF JUMPI DUP4 DUP2 DUP2 MLOAD DUP2 LT PUSH2 0x2FF3 JUMPI PUSH2 0x2FF2 PUSH2 0x48EB JUMP JUMPDEST JUMPDEST PUSH1 0x20 MUL PUSH1 0x20 ADD ADD MLOAD ISZERO PUSH2 0x3058 JUMPI DUP3 PUSH1 0xB DUP7 DUP2 SLOAD DUP2 LT PUSH2 0x3015 JUMPI PUSH2 0x3014 PUSH2 0x48EB JUMP JUMPDEST JUMPDEST SWAP1 PUSH0 MSTORE PUSH1 0x20 PUSH0 KECCAK256 SWAP1 PUSH1 0xD MUL ADD PUSH1 0x5 ADD DUP3 DUP2 SLOAD DUP2 LT PUSH2 0x3036 JUMPI PUSH2 0x3035 PUSH2 0x48EB JUMP JUMPDEST JUMPDEST SWAP1 PUSH0 MSTORE PUSH1 0x20 PUSH0 KECCAK256 ADD PUSH0 DUP3 DUP3 SLOAD PUSH2 0x304C SWAP2 SWAP1 PUSH2 0x4B4C JUMP JUMPDEST SWAP3 POP POP DUP2 SWAP1 SSTORE POP PUSH2 0x30AC JUMP JUMPDEST DUP3 PUSH1 0xB DUP7 DUP2 SLOAD DUP2 LT PUSH2 0x306D JUMPI PUSH2 0x306C PUSH2 0x48EB JUMP JUMPDEST JUMPDEST SWAP1 PUSH0 MSTORE PUSH1 0x20 PUSH0 KECCAK256 SWAP1 PUSH1 0xD MUL ADD PUSH1 0x6 ADD DUP3 DUP2 SLOAD DUP2 LT PUSH2 0x308E JUMPI PUSH2 0x308D PUSH2 0x48EB JUMP JUMPDEST JUMPDEST SWAP1 PUSH0 MSTORE PUSH1 0x20 PUSH0 KECCAK256 ADD PUSH0 DUP3 DUP3 SLOAD PUSH2 0x30A4 SWAP2 SWAP1 PUSH2 0x4B4C JUMP JUMPDEST SWAP3 POP POP DUP2 SWAP1 SSTORE POP JUMPDEST DUP1 DUP1 PUSH2 0x30B7 SWAP1 PUSH2 0x4945 JUMP JUMPDEST SWAP2 POP POP PUSH2 0x2FD9 JUMP JUMPDEST POP PUSH1 0x1 PUSH1 0xD PUSH0 DUP7 DUP2 MSTORE PUSH1 0x20 ADD SWAP1 DUP2 MSTORE PUSH1 0x20 ADD PUSH0 KECCAK256 PUSH0 CALLER PUSH20 0xFFFFFFFFFFFFFFFFFFFFFFFFFFFFFFFFFFFFFFFF AND PUSH20 0xFFFFFFFFFFFFFFFFFFFFFFFFFFFFFFFFFFFFFFFF AND DUP2 MSTORE PUSH1 0x20 ADD SWAP1 DUP2 MSTORE PUSH1 0x20 ADD PUSH0 KECCAK256 PUSH0 PUSH2 0x100 EXP DUP2 SLOAD DUP2 PUSH1 0xFF MUL NOT AND SWAP1 DUP4 ISZERO ISZERO MUL OR SWAP1 SSTORE POP CALLER PUSH20 0xFFFFFFFFFFFFFFFFFFFFFFFFFFFFFFFFFFFFFFFF AND DUP5 PUSH32 0x33B88791871B035ED3FEA6313B68632CCCA172C35D8AE00A6D595CE65F1A7155 DUP6 PUSH1 0x40 MLOAD PUSH2 0x316B SWAP2 SWAP1 PUSH2 0x5CA0 JUMP JUMPDEST PUSH1 0x40 MLOAD DUP1 SWAP2 SUB SWAP1 LOG3 POP POP POP POP JUMP JUMPDEST PUSH1 0xB DUP1 SLOAD SWAP1 POP DUP3 LT DUP1 ISZERO PUSH2 0x3196 JUMPI POP PUSH1 0x1 PUSH2 0x3193 CALLER PUSH2 0x11B6 JUMP JUMPDEST LT ISZERO JUMPDEST DUP1 ISZERO PUSH2 0x31C5 JUMPI POP PUSH1 0xB DUP3 DUP2 SLOAD DUP2 LT PUSH2 0x31B1 JUMPI PUSH2 0x31B0 PUSH2 0x48EB JUMP JUMPDEST JUMPDEST SWAP1 PUSH0 MSTORE PUSH1 0x20 PUSH0 KECCAK256 SWAP1 PUSH1 0xD MUL ADD PUSH1 0x1 ADD SLOAD TIMESTAMP GT ISZERO JUMPDEST DUP1 ISZERO PUSH2 0x3227 JUMPI POP PUSH1 0xF PUSH0 DUP4 DUP2 MSTORE PUSH1 0x20 ADD SWAP1 DUP2 MSTORE PUSH1 0x20 ADD PUSH0 KECCAK256 PUSH0 CALLER PUSH20 0xFFFFFFFFFFFFFFFFFFFFFFFFFFFFFFFFFFFFFFFF AND PUSH20 0xFFFFFFFFFFFFFFFFFFFFFFFFFFFFFFFFFFFFFFFF AND DUP2 MSTORE PUSH1 0x20 ADD SWAP1 DUP2 MSTORE PUSH1 0x20 ADD PUSH0 KECCAK256 PUSH0 SWAP1 SLOAD SWAP1 PUSH2 0x100 EXP SWAP1 DIV PUSH1 0xFF AND ISZERO JUMPDEST DUP1 ISZERO PUSH2 0x3289 JUMPI POP PUSH1 0xD PUSH0 DUP4 DUP2 MSTORE PUSH1 0x20 ADD SWAP1 DUP2 MSTORE PUSH1 0x20 ADD PUSH0 KECCAK256 PUSH0 CALLER PUSH20 0xFFFFFFFFFFFFFFFFFFFFFFFFFFFFFFFFFFFFFFFF AND PUSH20 0xFFFFFFFFFFFFFFFFFFFFFFFFFFFFFFFFFFFFFFFF AND DUP2 MSTORE PUSH1 0x20 ADD SWAP1 DUP2 MSTORE PUSH1 0x20 ADD PUSH0 KECCAK256 PUSH0 SWAP1 SLOAD SWAP1 PUSH2 0x100 EXP SWAP1 DIV PUSH1 0xFF AND ISZERO JUMPDEST PUSH2 0x3291 JUMPI PUSH0 DUP1 REVERT JUMPDEST PUSH0 PUSH1 0x1 PUSH1 0x10 PUSH0 DUP6 DUP2 MSTORE PUSH1 0x20 ADD SWAP1 DUP2 MSTORE PUSH1 0x20 ADD PUSH0 KECCAK256 PUSH0 CALLER PUSH20 0xFFFFFFFFFFFFFFFFFFFFFFFFFFFFFFFFFFFFFFFF AND PUSH20 0xFFFFFFFFFFFFFFFFFFFFFFFFFFFFFFFFFFFFFFFF AND DUP2 MSTORE PUSH1 0x20 ADD SWAP1 DUP2 MSTORE PUSH1 0x20 ADD PUSH0 KECCAK256 SLOAD PUSH2 0x32EB SWAP2 SWAP1 PUSH2 0x4B4C JUMP JUMPDEST SWAP1 POP DUP2 ISZERO PUSH2 0x3331 JUMPI DUP1 PUSH1 0xB DUP5 DUP2 SLOAD DUP2 LT PUSH2 0x3308 JUMPI PUSH2 0x3307 PUSH2 0x48EB JUMP JUMPDEST JUMPDEST SWAP1 PUSH0 MSTORE PUSH1 0x20 PUSH0 KECCAK256 SWAP1 PUSH1 0xD MUL ADD PUSH1 0x7 ADD PUSH0 DUP3 DUP3 SLOAD PUSH2 0x3325 SWAP2 SWAP1 PUSH2 0x4B4C JUMP JUMPDEST SWAP3 POP POP DUP2 SWAP1 SSTORE POP PUSH2 0x336B JUMP JUMPDEST DUP1 PUSH1 0xB DUP5 DUP2 SLOAD DUP2 LT PUSH2 0x3346 JUMPI PUSH2 0x3345 PUSH2 0x48EB JUMP JUMPDEST JUMPDEST SWAP1 PUSH0 MSTORE PUSH1 0x20 PUSH0 KECCAK256 SWAP1 PUSH1 0xD MUL ADD PUSH1 0x8 ADD PUSH0 DUP3 DUP3 SLOAD PUSH2 0x3363 SWAP2 SWAP1 PUSH2 0x4B4C JUMP JUMPDEST SWAP3 POP POP DUP2 SWAP1 SSTORE POP JUMPDEST PUSH1 0x1 PUSH1 0xD PUSH0 DUP6 DUP2 MSTORE PUSH1 0x20 ADD SWAP1 DUP2 MSTORE PUSH1 0x20 ADD PUSH0 KECCAK256 PUSH0 CALLER PUSH20 0xFFFFFFFFFFFFFFFFFFFFFFFFFFFFFFFFFFFFFFFF AND PUSH20 0xFFFFFFFFFFFFFFFFFFFFFFFFFFFFFFFFFFFFFFFF AND DUP2 MSTORE PUSH1 0x20 ADD SWAP1 DUP2 MSTORE PUSH1 0x20 ADD PUSH0 KECCAK256 PUSH0 PUSH2 0x100 EXP DUP2 SLOAD DUP2 PUSH1 0xFF MUL NOT AND SWAP1 DUP4 ISZERO ISZERO MUL OR SWAP1 SSTORE POP CALLER PUSH20 0xFFFFFFFFFFFFFFFFFFFFFFFFFFFFFFFFFFFFFFFF AND DUP4 PUSH32 0x8A19902C1356176F164D6EEEE88DB031B1718565C98C90873907B79B920FBAFE DUP5 PUSH1 0x40 MLOAD PUSH2 0x3416 SWAP2 SWAP1 PUSH2 0x3F5D JUMP JUMPDEST PUSH1 0x40 MLOAD DUP1 SWAP2 SUB SWAP1 LOG3 POP POP POP JUMP JUMPDEST PUSH1 0x60 PUSH0 PUSH1 0x60 DUP1 PUSH1 0xB DUP1 SLOAD SWAP1 POP DUP6 LT PUSH2 0x3439 JUMPI PUSH0 DUP1 REVERT JUMPDEST PUSH1 0xB DUP6 DUP2 SLOAD DUP2 LT PUSH2 0x344D JUMPI PUSH2 0x344C PUSH2 0x48EB JUMP JUMPDEST JUMPDEST SWAP1 PUSH0 MSTORE PUSH1 0x20 PUSH0 KECCAK256 SWAP1 PUSH1 0xD MUL ADD PUSH0 ADD PUSH1 0xB DUP7 DUP2 SLOAD DUP2 LT PUSH2 0x346F JUMPI PUSH2 0x346E PUSH2 0x48EB JUMP JUMPDEST JUMPDEST SWAP1 PUSH0 MSTORE PUSH1 0x20 PUSH0 KECCAK256 SWAP1 PUSH1 0xD MUL ADD PUSH1 0x1 ADD SLOAD PUSH1 0xB DUP8 DUP2 SLOAD DUP2 LT PUSH2 0x3493 JUMPI PUSH2 0x3492 PUSH2 0x48EB JUMP JUMPDEST JUMPDEST SWAP1 PUSH0 MSTORE PUSH1 0x20 PUSH0 KECCAK256 SWAP1 PUSH1 0xD MUL ADD PUSH1 0x2 ADD PUSH1 0xB DUP9 DUP2 SLOAD DUP2 LT PUSH2 0x34B6 JUMPI PUSH2 0x34B5 PUSH2 0x48EB JUMP JUMPDEST JUMPDEST SWAP1 PUSH0 MSTORE PUSH1 0x20 PUSH0 KECCAK256 SWAP1 PUSH1 0xD MUL ADD PUSH1 0x3 ADD DUP4 DUP1 SLOAD PUSH2 0x34D1 SWAP1 PUSH2 0x49B9 JUMP JUMPDEST DUP1 PUSH1 0x1F ADD PUSH1 0x20 DUP1 SWAP2 DIV MUL PUSH1 0x20 ADD PUSH1 0x40 MLOAD SWAP1 DUP2 ADD PUSH1 0x40 MSTORE DUP1 SWAP3 SWAP2 SWAP1 DUP2 DUP2 MSTORE PUSH1 0x20 ADD DUP3 DUP1 SLOAD PUSH2 0x34FD SWAP1 PUSH2 0x49B9 JUMP JUMPDEST DUP1 ISZERO PUSH2 0x3548 JUMPI DUP1 PUSH1 0x1F LT PUSH2 0x351F JUMPI PUSH2 0x100 DUP1 DUP4 SLOAD DIV MUL DUP4 MSTORE SWAP2 PUSH1 0x20 ADD SWAP2 PUSH2 0x3548 JUMP JUMPDEST DUP3 ADD SWAP2 SWAP1 PUSH0 MSTORE PUSH1 0x20 PUSH0 KECCAK256 SWAP1 JUMPDEST DUP2 SLOAD DUP2 MSTORE SWAP1 PUSH1 0x1 ADD SWAP1 PUSH1 0x20 ADD DUP1 DUP4 GT PUSH2 0x352B JUMPI DUP3 SWAP1 SUB PUSH1 0x1F AND DUP3 ADD SWAP2 JUMPDEST POP POP POP POP POP SWAP4 POP DUP2 DUP1 SLOAD DUP1 PUSH1 0x20 MUL PUSH1 0x20 ADD PUSH1 0x40 MLOAD SWAP1 DUP2 ADD PUSH1 0x40 MSTORE DUP1 SWAP3 SWAP2 SWAP1 DUP2 DUP2 MSTORE PUSH1 0x20 ADD DUP3 DUP1 SLOAD DUP1 ISZERO PUSH2 0x3598 JUMPI PUSH1 0x20 MUL DUP3 ADD SWAP2 SWAP1 PUSH0 MSTORE PUSH1 0x20 PUSH0 KECCAK256 SWAP1 JUMPDEST DUP2 SLOAD DUP2 MSTORE PUSH1 0x20 ADD SWAP1 PUSH1 0x1 ADD SWAP1 DUP1 DUP4 GT PUSH2 0x3584 JUMPI JUMPDEST POP POP POP POP POP SWAP2 POP DUP1 DUP1 SLOAD DUP1 PUSH1 0x20 MUL PUSH1 0x20 ADD PUSH1 0x40 MLOAD SWAP1 DUP2 ADD PUSH1 0x40 MSTORE DUP1 SWAP3 SWAP2 SWAP1 DUP2 DUP2 MSTORE PUSH1 0x20 ADD DUP3 DUP1 SLOAD DUP1 ISZERO PUSH2 0x35E8 JUMPI PUSH1 0x20 MUL DUP3 ADD SWAP2 SWAP1 PUSH0 MSTORE PUSH1 0x20 PUSH0 KECCAK256 SWAP1 JUMPDEST DUP2 SLOAD DUP2 MSTORE PUSH1 0x20 ADD SWAP1 PUSH1 0x1 ADD SWAP1 DUP1 DUP4 GT PUSH2 0x35D4 JUMPI JUMPDEST POP POP POP POP POP SWAP1 POP SWAP4 POP SWAP4 POP SWAP4 POP SWAP4 POP SWAP2 SWAP4 POP SWAP2 SWAP4 JUMP JUMPDEST PUSH0 CALLER SWAP1 POP SWAP1 JUMP JUMPDEST PUSH2 0x3612 DUP4 DUP4 DUP4 PUSH1 0x1 PUSH2 0x38A6 JUMP JUMPDEST POP POP POP JUMP JUMPDEST PUSH0 PUSH2 0x3622 DUP5 DUP5 PUSH2 0x29CB JUMP JUMPDEST SWAP1 POP PUSH32 0xFFFFFFFFFFFFFFFFFFFFFFFFFFFFFFFFFFFFFFFFFFFFFFFFFFFFFFFFFFFFFFFF DUP2 EQ PUSH2 0x36A3 JUMPI DUP2 DUP2 LT ISZERO PUSH2 0x3694 JUMPI DUP3 DUP2 DUP4 PUSH1 0x40 MLOAD PUSH32 0xFB8F41B200000000000000000000000000000000000000000000000000000000 DUP2 MSTORE PUSH1 0x4 ADD PUSH2 0x368B SWAP4 SWAP3 SWAP2 SWAP1 PUSH2 0x5CC0 JUMP JUMPDEST PUSH1 0x40 MLOAD DUP1 SWAP2 SUB SWAP1 REVERT JUMPDEST PUSH2 0x36A2 DUP5 DUP5 DUP5 DUP5 SUB PUSH0 PUSH2 0x38A6 JUMP JUMPDEST JUMPDEST POP POP POP POP JUMP JUMPDEST PUSH0 PUSH20 0xFFFFFFFFFFFFFFFFFFFFFFFFFFFFFFFFFFFFFFFF AND DUP4 PUSH20 0xFFFFFFFFFFFFFFFFFFFFFFFFFFFFFFFFFFFFFFFF AND SUB PUSH2 0x3719 JUMPI PUSH0 PUSH1 0x40 MLOAD PUSH32 0x96C6FD1E00000000000000000000000000000000000000000000000000000000 DUP2 MSTORE PUSH1 0x4 ADD PUSH2 0x3710 SWAP2 SWAP1 PUSH2 0x438E JUMP JUMPDEST PUSH1 0x40 MLOAD DUP1 SWAP2 SUB SWAP1 REVERT JUMPDEST PUSH0 PUSH20 0xFFFFFFFFFFFFFFFFFFFFFFFFFFFFFFFFFFFFFFFF AND DUP3 PUSH20 0xFFFFFFFFFFFFFFFFFFFFFFFFFFFFFFFFFFFFFFFF AND SUB PUSH2 0x3789 JUMPI PUSH0 PUSH1 0x40 MLOAD PUSH32 0xEC442F0500000000000000000000000000000000000000000000000000000000 DUP2 MSTORE PUSH1 0x4 ADD PUSH2 0x3780 SWAP2 SWAP1 PUSH2 0x438E JUMP JUMPDEST PUSH1 0x40 MLOAD DUP1 SWAP2 SUB SWAP1 REVERT JUMPDEST PUSH2 0x3794 DUP4 DUP4 DUP4 PUSH2 0x3A75 JUMP JUMPDEST POP POP POP JUMP JUMPDEST PUSH0 DUP1 PUSH0 SWAP1 POP JUMPDEST PUSH1 0xB DUP1 SLOAD SWAP1 POP DUP2 LT ISZERO PUSH2 0x3823 JUMPI PUSH1 0xB DUP2 DUP2 SLOAD DUP2 LT PUSH2 0x37C0 JUMPI PUSH2 0x37BF PUSH2 0x48EB JUMP JUMPDEST JUMPDEST SWAP1 PUSH0 MSTORE PUSH1 0x20 PUSH0 KECCAK256 SWAP1 PUSH1 0xD MUL ADD PUSH1 0x9 ADD PUSH1 0x1 SWAP1 SLOAD SWAP1 PUSH2 0x100 EXP SWAP1 DIV PUSH1 0xFF AND PUSH2 0x37E5 JUMPI PUSH0 DUP1 REVERT JUMPDEST PUSH1 0xB DUP2 DUP2 SLOAD DUP2 LT PUSH2 0x37F9 JUMPI PUSH2 0x37F8 PUSH2 0x48EB JUMP JUMPDEST JUMPDEST SWAP1 PUSH0 MSTORE PUSH1 0x20 PUSH0 KECCAK256 SWAP1 PUSH1 0xD MUL ADD PUSH1 0xA ADD SLOAD DUP3 PUSH2 0x3814 SWAP2 SWAP1 PUSH2 0x4B4C JUMP JUMPDEST SWAP2 POP DUP1 DUP1 PUSH1 0x1 ADD SWAP2 POP POP PUSH2 0x379F JUMP JUMPDEST POP SWAP1 JUMP JUMPDEST PUSH0 PUSH20 0xFFFFFFFFFFFFFFFFFFFFFFFFFFFFFFFFFFFFFFFF AND DUP3 PUSH20 0xFFFFFFFFFFFFFFFFFFFFFFFFFFFFFFFFFFFFFFFF AND SUB PUSH2 0x3897 JUMPI PUSH0 PUSH1 0x40 MLOAD PUSH32 0xEC442F0500000000000000000000000000000000000000000000000000000000 DUP2 MSTORE PUSH1 0x4 ADD PUSH2 0x388E SWAP2 SWAP1 PUSH2 0x438E JUMP JUMPDEST PUSH1 0x40 MLOAD DUP1 SWAP2 SUB SWAP1 REVERT JUMPDEST PUSH2 0x38A2 PUSH0 DUP4 DUP4 PUSH2 0x3A75 JUMP JUMPDEST POP POP JUMP JUMPDEST PUSH0 PUSH20 0xFFFFFFFFFFFFFFFFFFFFFFFFFFFFFFFFFFFFFFFF AND DUP5 PUSH20 0xFFFFFFFFFFFFFFFFFFFFFFFFFFFFFFFFFFFFFFFF AND SUB PUSH2 0x3916 JUMPI PUSH0 PUSH1 0x40 MLOAD PUSH32 0xE602DF0500000000000000000000000000000000000000000000000000000000 DUP2 MSTORE PUSH1 0x4 ADD PUSH2 0x390D SWAP2 SWAP1 PUSH2 0x438E JUMP JUMPDEST PUSH1 0x40 MLOAD DUP1 SWAP2 SUB SWAP1 REVERT JUMPDEST PUSH0 PUSH20 0xFFFFFFFFFFFFFFFFFFFFFFFFFFFFFFFFFFFFFFFF AND DUP4 PUSH20 0xFFFFFFFFFFFFFFFFFFFFFFFFFFFFFFFFFFFFFFFF AND SUB PUSH2 0x3986 JUMPI PUSH0 PUSH1 0x40 MLOAD PUSH32 0x94280D6200000000000000000000000000000000000000000000000000000000 DUP2 MSTORE PUSH1 0x4 ADD PUSH2 0x397D SWAP2 SWAP1 PUSH2 0x438E JUMP JUMPDEST PUSH1 0x40 MLOAD DUP1 SWAP2 SUB SWAP1 REVERT JUMPDEST DUP2 PUSH1 0x1 PUSH0 DUP7 PUSH20 0xFFFFFFFFFFFFFFFFFFFFFFFFFFFFFFFFFFFFFFFF AND PUSH20 0xFFFFFFFFFFFFFFFFFFFFFFFFFFFFFFFFFFFFFFFF AND DUP2 MSTORE PUSH1 0x20 ADD SWAP1 DUP2 MSTORE PUSH1 0x20 ADD PUSH0 KECCAK256 PUSH0 DUP6 PUSH20 0xFFFFFFFFFFFFFFFFFFFFFFFFFFFFFFFFFFFFFFFF AND PUSH20 0xFFFFFFFFFFFFFFFFFFFFFFFFFFFFFFFFFFFFFFFF AND DUP2 MSTORE PUSH1 0x20 ADD SWAP1 DUP2 MSTORE PUSH1 0x20 ADD PUSH0 KECCAK256 DUP2 SWAP1 SSTORE POP DUP1 ISZERO PUSH2 0x3A6F JUMPI DUP3 PUSH20 0xFFFFFFFFFFFFFFFFFFFFFFFFFFFFFFFFFFFFFFFF AND DUP5 PUSH20 0xFFFFFFFFFFFFFFFFFFFFFFFFFFFFFFFFFFFFFFFF AND PUSH32 0x8C5BE1E5EBEC7D5BD14F71427D1E84F3DD0314C0F7B2291E5B200AC8C7C3B925 DUP5 PUSH1 0x40 MLOAD PUSH2 0x3A66 SWAP2 SWAP1 PUSH2 0x3DAD JUMP JUMPDEST PUSH1 0x40 MLOAD DUP1 SWAP2 SUB SWAP1 LOG3 JUMPDEST POP POP POP POP JUMP JUMPDEST PUSH0 PUSH20 0xFFFFFFFFFFFFFFFFFFFFFFFFFFFFFFFFFFFFFFFF AND DUP4 PUSH20 0xFFFFFFFFFFFFFFFFFFFFFFFFFFFFFFFFFFFFFFFF AND SUB PUSH2 0x3AC5 JUMPI DUP1 PUSH1 0x2 PUSH0 DUP3 DUP3 SLOAD PUSH2 0x3AB9 SWAP2 SWAP1 PUSH2 0x4B4C JUMP JUMPDEST SWAP3 POP POP DUP2 SWAP1 SSTORE POP PUSH2 0x3B93 JUMP JUMPDEST PUSH0 DUP1 PUSH0 DUP6 PUSH20 0xFFFFFFFFFFFFFFFFFFFFFFFFFFFFFFFFFFFFFFFF AND PUSH20 0xFFFFFFFFFFFFFFFFFFFFFFFFFFFFFFFFFFFFFFFF AND DUP2 MSTORE PUSH1 0x20 ADD SWAP1 DUP2 MSTORE PUSH1 0x20 ADD PUSH0 KECCAK256 SLOAD SWAP1 POP DUP2 DUP2 LT ISZERO PUSH2 0x3B4E JUMPI DUP4 DUP2 DUP4 PUSH1 0x40 MLOAD PUSH32 0xE450D38C00000000000000000000000000000000000000000000000000000000 DUP2 MSTORE PUSH1 0x4 ADD PUSH2 0x3B45 SWAP4 SWAP3 SWAP2 SWAP1 PUSH2 0x5CC0 JUMP JUMPDEST PUSH1 0x40 MLOAD DUP1 SWAP2 SUB SWAP1 REVERT JUMPDEST DUP2 DUP2 SUB PUSH0 DUP1 DUP7 PUSH20 0xFFFFFFFFFFFFFFFFFFFFFFFFFFFFFFFFFFFFFFFF AND PUSH20 0xFFFFFFFFFFFFFFFFFFFFFFFFFFFFFFFFFFFFFFFF AND DUP2 MSTORE PUSH1 0x20 ADD SWAP1 DUP2 MSTORE PUSH1 0x20 ADD PUSH0 KECCAK256 DUP2 SWAP1 SSTORE POP POP JUMPDEST PUSH0 PUSH20 0xFFFFFFFFFFFFFFFFFFFFFFFFFFFFFFFFFFFFFFFF AND DUP3 PUSH20 0xFFFFFFFFFFFFFFFFFFFFFFFFFFFFFFFFFFFFFFFF AND SUB PUSH2 0x3BDA JUMPI DUP1 PUSH1 0x2 PUSH0 DUP3 DUP3 SLOAD SUB SWAP3 POP POP DUP2 SWAP1 SSTORE POP PUSH2 0x3C24 JUMP JUMPDEST DUP1 PUSH0 DUP1 DUP5 PUSH20 0xFFFFFFFFFFFFFFFFFFFFFFFFFFFFFFFFFFFFFFFF AND PUSH20 0xFFFFFFFFFFFFFFFFFFFFFFFFFFFFFFFFFFFFFFFF AND DUP2 MSTORE PUSH1 0x20 ADD SWAP1 DUP2 MSTORE PUSH1 0x20 ADD PUSH0 KECCAK256 PUSH0 DUP3 DUP3 SLOAD ADD SWAP3 POP POP DUP2 SWAP1 SSTORE POP JUMPDEST DUP2 PUSH20 0xFFFFFFFFFFFFFFFFFFFFFFFFFFFFFFFFFFFFFFFF AND DUP4 PUSH20 0xFFFFFFFFFFFFFFFFFFFFFFFFFFFFFFFFFFFFFFFF AND PUSH32 0xDDF252AD1BE2C89B69C2B068FC378DAA952BA7F163C4A11628F55A4DF523B3EF DUP4 PUSH1 0x40 MLOAD PUSH2 0x3C81 SWAP2 SWAP1 PUSH2 0x3DAD JUMP JUMPDEST PUSH1 0x40 MLOAD DUP1 SWAP2 SUB SWAP1 LOG3 POP POP POP JUMP JUMPDEST DUP3 DUP1 SLOAD DUP3 DUP3 SSTORE SWAP1 PUSH0 MSTORE PUSH1 0x20 PUSH0 KECCAK256 SWAP1 DUP2 ADD SWAP3 DUP3 ISZERO PUSH2 0x3CC8 JUMPI SWAP2 PUSH1 0x20 MUL DUP3 ADD JUMPDEST DUP3 DUP2 GT ISZERO PUSH2 0x3CC7 JUMPI DUP3 MLOAD DUP3 SSTORE SWAP2 PUSH1 0x20 ADD SWAP2 SWAP1 PUSH1 0x1 ADD SWAP1 PUSH2 0x3CAC JUMP JUMPDEST JUMPDEST POP SWAP1 POP PUSH2 0x3CD5 SWAP2 SWAP1 PUSH2 0x3D7A JUMP JUMPDEST POP SWAP1 JUMP JUMPDEST DUP3 DUP1 SLOAD DUP3 DUP3 SSTORE SWAP1 PUSH0 MSTORE PUSH1 0x20 PUSH0 KECCAK256 SWAP1 PUSH1 0x1F ADD PUSH1 0x20 SWAP1 DIV DUP2 ADD SWAP3 DUP3 ISZERO PUSH2 0x3D69 JUMPI SWAP2 PUSH1 0x20 MUL DUP3 ADD PUSH0 JUMPDEST DUP4 DUP3 GT ISZERO PUSH2 0x3D3B JUMPI DUP4 MLOAD DUP4 DUP3 PUSH2 0x100 EXP DUP2 SLOAD DUP2 PUSH1 0xFF MUL NOT AND SWAP1 DUP4 ISZERO ISZERO MUL OR SWAP1 SSTORE POP SWAP3 PUSH1 0x20 ADD SWAP3 PUSH1 0x1 ADD PUSH1 0x20 DUP2 PUSH0 ADD DIV SWAP3 DUP4 ADD SWAP3 PUSH1 0x1 SUB MUL PUSH2 0x3CFF JUMP JUMPDEST DUP1 ISZERO PUSH2 0x3D67 JUMPI DUP3 DUP2 PUSH2 0x100 EXP DUP2 SLOAD SWAP1 PUSH1 0xFF MUL NOT AND SWAP1 SSTORE PUSH1 0x1 ADD PUSH1 0x20 DUP2 PUSH0 ADD DIV SWAP3 DUP4 ADD SWAP3 PUSH1 0x1 SUB MUL PUSH2 0x3D3B JUMP JUMPDEST POP JUMPDEST POP SWAP1 POP PUSH2 0x3D76 SWAP2 SWAP1 PUSH2 0x3D7A JUMP JUMPDEST POP SWAP1 JUMP JUMPDEST JUMPDEST DUP1 DUP3 GT ISZERO PUSH2 0x3D91 JUMPI PUSH0 DUP2 PUSH0 SWAP1 SSTORE POP PUSH1 0x1 ADD PUSH2 0x3D7B JUMP JUMPDEST POP SWAP1 JUMP JUMPDEST PUSH0 DUP2 SWAP1 POP SWAP2 SWAP1 POP JUMP JUMPDEST PUSH2 0x3DA7 DUP2 PUSH2 0x3D95 JUMP JUMPDEST DUP3 MSTORE POP POP JUMP JUMPDEST PUSH0 PUSH1 0x20 DUP3 ADD SWAP1 POP PUSH2 0x3DC0 PUSH0 DUP4 ADD DUP5 PUSH2 0x3D9E JUMP JUMPDEST SWAP3 SWAP2 POP POP JUMP JUMPDEST PUSH0 DUP2 MLOAD SWAP1 POP SWAP2 SWAP1 POP JUMP JUMPDEST PUSH0 DUP3 DUP3 MSTORE PUSH1 0x20 DUP3 ADD SWAP1 POP SWAP3 SWAP2 POP POP JUMP JUMPDEST PUSH0 JUMPDEST DUP4 DUP2 LT ISZERO PUSH2 0x3DFD JUMPI DUP1 DUP3 ADD MLOAD DUP2 DUP5 ADD MSTORE PUSH1 0x20 DUP2 ADD SWAP1 POP PUSH2 0x3DE2 JUMP JUMPDEST PUSH0 DUP5 DUP5 ADD MSTORE POP POP POP POP JUMP JUMPDEST PUSH0 PUSH1 0x1F NOT PUSH1 0x1F DUP4 ADD AND SWAP1 POP SWAP2 SWAP1 POP JUMP JUMPDEST PUSH0 PUSH2 0x3E22 DUP3 PUSH2 0x3DC6 JUMP JUMPDEST PUSH2 0x3E2C DUP2 DUP6 PUSH2 0x3DD0 JUMP JUMPDEST SWAP4 POP PUSH2 0x3E3C DUP2 DUP6 PUSH1 0x20 DUP7 ADD PUSH2 0x3DE0 JUMP JUMPDEST PUSH2 0x3E45 DUP2 PUSH2 0x3E08 JUMP JUMPDEST DUP5 ADD SWAP2 POP POP SWAP3 SWAP2 POP POP JUMP JUMPDEST PUSH0 PUSH1 0x20 DUP3 ADD SWAP1 POP DUP2 DUP2 SUB PUSH0 DUP4 ADD MSTORE PUSH2 0x3E68 DUP2 DUP5 PUSH2 0x3E18 JUMP JUMPDEST SWAP1 POP SWAP3 SWAP2 POP POP JUMP JUMPDEST PUSH0 PUSH1 0x40 MLOAD SWAP1 POP SWAP1 JUMP JUMPDEST PUSH0 DUP1 REVERT JUMPDEST PUSH0 DUP1 REVERT JUMPDEST PUSH0 PUSH20 0xFFFFFFFFFFFFFFFFFFFFFFFFFFFFFFFFFFFFFFFF DUP3 AND SWAP1 POP SWAP2 SWAP1 POP JUMP JUMPDEST PUSH0 PUSH2 0x3EAA DUP3 PUSH2 0x3E81 JUMP JUMPDEST SWAP1 POP SWAP2 SWAP1 POP JUMP JUMPDEST PUSH2 0x3EBA DUP2 PUSH2 0x3EA0 JUMP JUMPDEST DUP2 EQ PUSH2 0x3EC4 JUMPI PUSH0 DUP1 REVERT JUMPDEST POP JUMP JUMPDEST PUSH0 DUP2 CALLDATALOAD SWAP1 POP PUSH2 0x3ED5 DUP2 PUSH2 0x3EB1 JUMP JUMPDEST SWAP3 SWAP2 POP POP JUMP JUMPDEST PUSH2 0x3EE4 DUP2 PUSH2 0x3D95 JUMP JUMPDEST DUP2 EQ PUSH2 0x3EEE JUMPI PUSH0 DUP1 REVERT JUMPDEST POP JUMP JUMPDEST PUSH0 DUP2 CALLDATALOAD SWAP1 POP PUSH2 0x3EFF DUP2 PUSH2 0x3EDB JUMP JUMPDEST SWAP3 SWAP2 POP POP JUMP JUMPDEST PUSH0 DUP1 PUSH1 0x40 DUP4 DUP6 SUB SLT ISZERO PUSH2 0x3F1B JUMPI PUSH2 0x3F1A PUSH2 0x3E79 JUMP JUMPDEST JUMPDEST PUSH0 PUSH2 0x3F28 DUP6 DUP3 DUP7 ADD PUSH2 0x3EC7 JUMP JUMPDEST SWAP3 POP POP PUSH1 0x20 PUSH2 0x3F39 DUP6 DUP3 DUP7 ADD PUSH2 0x3EF1 JUMP JUMPDEST SWAP2 POP POP SWAP3 POP SWAP3 SWAP1 POP JUMP JUMPDEST PUSH0 DUP2 ISZERO ISZERO SWAP1 POP SWAP2 SWAP1 POP JUMP JUMPDEST PUSH2 0x3F57 DUP2 PUSH2 0x3F43 JUMP JUMPDEST DUP3 MSTORE POP POP JUMP JUMPDEST PUSH0 PUSH1 0x20 DUP3 ADD SWAP1 POP PUSH2 0x3F70 PUSH0 DUP4 ADD DUP5 PUSH2 0x3F4E JUMP JUMPDEST SWAP3 SWAP2 POP POP JUMP JUMPDEST PUSH0 PUSH1 0x20 DUP3 DUP5 SUB SLT ISZERO PUSH2 0x3F8B JUMPI PUSH2 0x3F8A PUSH2 0x3E79 JUMP JUMPDEST JUMPDEST PUSH0 PUSH2 0x3F98 DUP5 DUP3 DUP6 ADD PUSH2 0x3EF1 JUMP JUMPDEST SWAP2 POP POP SWAP3 SWAP2 POP POP JUMP JUMPDEST PUSH0 DUP1 PUSH0 PUSH1 0x60 DUP5 DUP7 SUB SLT ISZERO PUSH2 0x3FB8 JUMPI PUSH2 0x3FB7 PUSH2 0x3E79 JUMP JUMPDEST JUMPDEST PUSH0 PUSH2 0x3FC5 DUP7 DUP3 DUP8 ADD PUSH2 0x3EC7 JUMP JUMPDEST SWAP4 POP POP PUSH1 0x20 PUSH2 0x3FD6 DUP7 DUP3 DUP8 ADD PUSH2 0x3EC7 JUMP JUMPDEST SWAP3 POP POP PUSH1 0x40 PUSH2 0x3FE7 DUP7 DUP3 DUP8 ADD PUSH2 0x3EF1 JUMP JUMPDEST SWAP2 POP POP SWAP3 POP SWAP3 POP SWAP3 JUMP JUMPDEST PUSH0 PUSH1 0x80 DUP3 ADD SWAP1 POP DUP2 DUP2 SUB PUSH0 DUP4 ADD MSTORE PUSH2 0x4009 DUP2 DUP8 PUSH2 0x3E18 JUMP JUMPDEST SWAP1 POP PUSH2 0x4018 PUSH1 0x20 DUP4 ADD DUP7 PUSH2 0x3D9E JUMP JUMPDEST PUSH2 0x4025 PUSH1 0x40 DUP4 ADD DUP6 PUSH2 0x3D9E JUMP JUMPDEST PUSH2 0x4032 PUSH1 0x60 DUP4 ADD DUP5 PUSH2 0x3D9E JUMP JUMPDEST SWAP6 SWAP5 POP POP POP POP POP JUMP JUMPDEST PUSH0 PUSH1 0xFF DUP3 AND SWAP1 POP SWAP2 SWAP1 POP JUMP JUMPDEST PUSH2 0x4050 DUP2 PUSH2 0x403B JUMP JUMPDEST DUP3 MSTORE POP POP JUMP JUMPDEST PUSH0 PUSH1 0x20 DUP3 ADD SWAP1 POP PUSH2 0x4069 PUSH0 DUP4 ADD DUP5 PUSH2 0x4047 JUMP JUMPDEST SWAP3 SWAP2 POP POP JUMP JUMPDEST PUSH0 DUP1 REVERT JUMPDEST PUSH32 0x4E487B7100000000000000000000000000000000000000000000000000000000 PUSH0 MSTORE PUSH1 0x41 PUSH1 0x4 MSTORE PUSH1 0x24 PUSH0 REVERT JUMPDEST PUSH2 0x40A9 DUP3 PUSH2 0x3E08 JUMP JUMPDEST DUP2 ADD DUP2 DUP2 LT PUSH8 0xFFFFFFFFFFFFFFFF DUP3 GT OR ISZERO PUSH2 0x40C8 JUMPI PUSH2 0x40C7 PUSH2 0x4073 JUMP JUMPDEST JUMPDEST DUP1 PUSH1 0x40 MSTORE POP POP POP JUMP JUMPDEST PUSH0 PUSH2 0x40DA PUSH2 0x3E70 JUMP JUMPDEST SWAP1 POP PUSH2 0x40E6 DUP3 DUP3 PUSH2 0x40A0 JUMP JUMPDEST SWAP2 SWAP1 POP JUMP JUMPDEST PUSH0 PUSH8 0xFFFFFFFFFFFFFFFF DUP3 GT ISZERO PUSH2 0x4105 JUMPI PUSH2 0x4104 PUSH2 0x4073 JUMP JUMPDEST JUMPDEST PUSH1 0x20 DUP3 MUL SWAP1 POP PUSH1 0x20 DUP2 ADD SWAP1 POP SWAP2 SWAP1 POP JUMP JUMPDEST PUSH0 DUP1 REVERT JUMPDEST PUSH0 PUSH2 0x412C PUSH2 0x4127 DUP5 PUSH2 0x40EB JUMP JUMPDEST PUSH2 0x40D1 JUMP JUMPDEST SWAP1 POP DUP1 DUP4 DUP3 MSTORE PUSH1 0x20 DUP3 ADD SWAP1 POP PUSH1 0x20 DUP5 MUL DUP4 ADD DUP6 DUP2 GT ISZERO PUSH2 0x414F JUMPI PUSH2 0x414E PUSH2 0x4116 JUMP JUMPDEST JUMPDEST DUP4 JUMPDEST DUP2 DUP2 LT ISZERO PUSH2 0x4178 JUMPI DUP1 PUSH2 0x4164 DUP9 DUP3 PUSH2 0x3EF1 JUMP JUMPDEST DUP5 MSTORE PUSH1 0x20 DUP5 ADD SWAP4 POP POP PUSH1 0x20 DUP2 ADD SWAP1 POP PUSH2 0x4151 JUMP JUMPDEST POP POP POP SWAP4 SWAP3 POP POP POP JUMP JUMPDEST PUSH0 DUP3 PUSH1 0x1F DUP4 ADD SLT PUSH2 0x4196 JUMPI PUSH2 0x4195 PUSH2 0x406F JUMP JUMPDEST JUMPDEST DUP2 CALLDATALOAD PUSH2 0x41A6 DUP5 DUP3 PUSH1 0x20 DUP7 ADD PUSH2 0x411A JUMP JUMPDEST SWAP2 POP POP SWAP3 SWAP2 POP POP JUMP JUMPDEST PUSH0 DUP1 PUSH1 0x40 DUP4 DUP6 SUB SLT ISZERO PUSH2 0x41C5 JUMPI PUSH2 0x41C4 PUSH2 0x3E79 JUMP JUMPDEST JUMPDEST PUSH0 PUSH2 0x41D2 DUP6 DUP3 DUP7 ADD PUSH2 0x3EF1 JUMP JUMPDEST SWAP3 POP POP PUSH1 0x20 DUP4 ADD CALLDATALOAD PUSH8 0xFFFFFFFFFFFFFFFF DUP2 GT ISZERO PUSH2 0x41F3 JUMPI PUSH2 0x41F2 PUSH2 0x3E7D JUMP JUMPDEST JUMPDEST PUSH2 0x41FF DUP6 DUP3 DUP7 ADD PUSH2 0x4182 JUMP JUMPDEST SWAP2 POP POP SWAP3 POP SWAP3 SWAP1 POP JUMP JUMPDEST PUSH0 PUSH1 0x20 DUP3 DUP5 SUB SLT ISZERO PUSH2 0x421E JUMPI PUSH2 0x421D PUSH2 0x3E79 JUMP JUMPDEST JUMPDEST PUSH0 PUSH2 0x422B DUP5 DUP3 DUP6 ADD PUSH2 0x3EC7 JUMP JUMPDEST SWAP2 POP POP SWAP3 SWAP2 POP POP JUMP JUMPDEST PUSH0 DUP2 MLOAD SWAP1 POP SWAP2 SWAP1 POP JUMP JUMPDEST PUSH0 DUP3 DUP3 MSTORE PUSH1 0x20 DUP3 ADD SWAP1 POP SWAP3 SWAP2 POP POP JUMP JUMPDEST PUSH0 DUP2 SWAP1 POP PUSH1 0x20 DUP3 ADD SWAP1 POP SWAP2 SWAP1 POP JUMP JUMPDEST PUSH2 0x4266 DUP2 PUSH2 0x3D95 JUMP JUMPDEST DUP3 MSTORE POP POP JUMP JUMPDEST PUSH0 PUSH2 0x4277 DUP4 DUP4 PUSH2 0x425D JUMP JUMPDEST PUSH1 0x20 DUP4 ADD SWAP1 POP SWAP3 SWAP2 POP POP JUMP JUMPDEST PUSH0 PUSH1 0x20 DUP3 ADD SWAP1 POP SWAP2 SWAP1 POP JUMP JUMPDEST PUSH0 PUSH2 0x4299 DUP3 PUSH2 0x4234 JUMP JUMPDEST PUSH2 0x42A3 DUP2 DUP6 PUSH2 0x423E JUMP JUMPDEST SWAP4 POP PUSH2 0x42AE DUP4 PUSH2 0x424E JUMP JUMPDEST DUP1 PUSH0 JUMPDEST DUP4 DUP2 LT ISZERO PUSH2 0x42DE JUMPI DUP2 MLOAD PUSH2 0x42C5 DUP9 DUP3 PUSH2 0x426C JUMP JUMPDEST SWAP8 POP PUSH2 0x42D0 DUP4 PUSH2 0x4283 JUMP JUMPDEST SWAP3 POP POP PUSH1 0x1 DUP2 ADD SWAP1 POP PUSH2 0x42B1 JUMP JUMPDEST POP DUP6 SWAP4 POP POP POP POP SWAP3 SWAP2 POP POP JUMP JUMPDEST PUSH0 PUSH1 0x40 DUP3 ADD SWAP1 POP PUSH2 0x42FE PUSH0 DUP4 ADD DUP6 PUSH2 0x3D9E JUMP JUMPDEST DUP2 DUP2 SUB PUSH1 0x20 DUP4 ADD MSTORE PUSH2 0x4310 DUP2 DUP5 PUSH2 0x428F JUMP JUMPDEST SWAP1 POP SWAP4 SWAP3 POP POP POP JUMP JUMPDEST PUSH2 0x4322 DUP2 PUSH2 0x3EA0 JUMP JUMPDEST DUP3 MSTORE POP POP JUMP JUMPDEST PUSH0 PUSH1 0xC0 DUP3 ADD SWAP1 POP DUP2 DUP2 SUB PUSH0 DUP4 ADD MSTORE PUSH2 0x4340 DUP2 DUP10 PUSH2 0x3E18 JUMP JUMPDEST SWAP1 POP PUSH2 0x434F PUSH1 0x20 DUP4 ADD DUP9 PUSH2 0x3D9E JUMP JUMPDEST PUSH2 0x435C PUSH1 0x40 DUP4 ADD DUP8 PUSH2 0x3D9E JUMP JUMPDEST PUSH2 0x4369 PUSH1 0x60 DUP4 ADD DUP7 PUSH2 0x3D9E JUMP JUMPDEST PUSH2 0x4376 PUSH1 0x80 DUP4 ADD DUP6 PUSH2 0x4319 JUMP JUMPDEST PUSH2 0x4383 PUSH1 0xA0 DUP4 ADD DUP5 PUSH2 0x3D9E JUMP JUMPDEST SWAP8 SWAP7 POP POP POP POP POP POP POP JUMP JUMPDEST PUSH0 PUSH1 0x20 DUP3 ADD SWAP1 POP PUSH2 0x43A1 PUSH0 DUP4 ADD DUP5 PUSH2 0x4319 JUMP JUMPDEST SWAP3 SWAP2 POP POP JUMP JUMPDEST PUSH0 DUP1 REVERT JUMPDEST PUSH0 PUSH8 0xFFFFFFFFFFFFFFFF DUP3 GT ISZERO PUSH2 0x43C5 JUMPI PUSH2 0x43C4 PUSH2 0x4073 JUMP JUMPDEST JUMPDEST PUSH2 0x43CE DUP3 PUSH2 0x3E08 JUMP JUMPDEST SWAP1 POP PUSH1 0x20 DUP2 ADD SWAP1 POP SWAP2 SWAP1 POP JUMP JUMPDEST DUP3 DUP2 DUP4 CALLDATACOPY PUSH0 DUP4 DUP4 ADD MSTORE POP POP POP JUMP JUMPDEST PUSH0 PUSH2 0x43FB PUSH2 0x43F6 DUP5 PUSH2 0x43AB JUMP JUMPDEST PUSH2 0x40D1 JUMP JUMPDEST SWAP1 POP DUP3 DUP2 MSTORE PUSH1 0x20 DUP2 ADD DUP5 DUP5 DUP5 ADD GT ISZERO PUSH2 0x4417 JUMPI PUSH2 0x4416 PUSH2 0x43A7 JUMP JUMPDEST JUMPDEST PUSH2 0x4422 DUP5 DUP3 DUP6 PUSH2 0x43DB JUMP JUMPDEST POP SWAP4 SWAP3 POP POP POP JUMP JUMPDEST PUSH0 DUP3 PUSH1 0x1F DUP4 ADD SLT PUSH2 0x443E JUMPI PUSH2 0x443D PUSH2 0x406F JUMP JUMPDEST JUMPDEST DUP2 CALLDATALOAD PUSH2 0x444E DUP5 DUP3 PUSH1 0x20 DUP7 ADD PUSH2 0x43E9 JUMP JUMPDEST SWAP2 POP POP SWAP3 SWAP2 POP POP JUMP JUMPDEST PUSH0 DUP1 PUSH0 DUP1 PUSH1 0x80 DUP6 DUP8 SUB SLT ISZERO PUSH2 0x446F JUMPI PUSH2 0x446E PUSH2 0x3E79 JUMP JUMPDEST JUMPDEST PUSH0 DUP6 ADD CALLDATALOAD PUSH8 0xFFFFFFFFFFFFFFFF DUP2 GT ISZERO PUSH2 0x448C JUMPI PUSH2 0x448B PUSH2 0x3E7D JUMP JUMPDEST JUMPDEST PUSH2 0x4498 DUP8 DUP3 DUP9 ADD PUSH2 0x442A JUMP JUMPDEST SWAP5 POP POP PUSH1 0x20 PUSH2 0x44A9 DUP8 DUP3 DUP9 ADD PUSH2 0x3EF1 JUMP JUMPDEST SWAP4 POP POP PUSH1 0x40 DUP6 ADD CALLDATALOAD PUSH8 0xFFFFFFFFFFFFFFFF DUP2 GT ISZERO PUSH2 0x44CA JUMPI PUSH2 0x44C9 PUSH2 0x3E7D JUMP JUMPDEST JUMPDEST PUSH2 0x44D6 DUP8 DUP3 DUP9 ADD PUSH2 0x4182 JUMP JUMPDEST SWAP3 POP POP PUSH1 0x60 DUP6 ADD CALLDATALOAD PUSH8 0xFFFFFFFFFFFFFFFF DUP2 GT ISZERO PUSH2 0x44F7 JUMPI PUSH2 0x44F6 PUSH2 0x3E7D JUMP JUMPDEST JUMPDEST PUSH2 0x4503 DUP8 DUP3 DUP9 ADD PUSH2 0x4182 JUMP JUMPDEST SWAP2 POP POP SWAP3 SWAP6 SWAP2 SWAP5 POP SWAP3 POP JUMP JUMPDEST PUSH0 DUP1 PUSH1 0x40 DUP4 DUP6 SUB SLT ISZERO PUSH2 0x4525 JUMPI PUSH2 0x4524 PUSH2 0x3E79 JUMP JUMPDEST JUMPDEST PUSH0 PUSH2 0x4532 DUP6 DUP3 DUP7 ADD PUSH2 0x3EF1 JUMP JUMPDEST SWAP3 POP POP PUSH1 0x20 PUSH2 0x4543 DUP6 DUP3 DUP7 ADD PUSH2 0x3EC7 JUMP JUMPDEST SWAP2 POP POP SWAP3 POP SWAP3 SWAP1 POP JUMP JUMPDEST PUSH0 PUSH2 0x120 DUP3 ADD SWAP1 POP DUP2 DUP2 SUB PUSH0 DUP4 ADD MSTORE PUSH2 0x4566 DUP2 DUP13 PUSH2 0x3E18 JUMP JUMPDEST SWAP1 POP PUSH2 0x4575 PUSH1 0x20 DUP4 ADD DUP12 PUSH2 0x3D9E JUMP JUMPDEST PUSH2 0x4582 PUSH1 0x40 DUP4 ADD DUP11 PUSH2 0x3D9E JUMP JUMPDEST PUSH2 0x458F PUSH1 0x60 DUP4 ADD DUP10 PUSH2 0x3D9E JUMP JUMPDEST PUSH2 0x459C PUSH1 0x80 DUP4 ADD DUP9 PUSH2 0x3F4E JUMP JUMPDEST PUSH2 0x45A9 PUSH1 0xA0 DUP4 ADD DUP8 PUSH2 0x3F4E JUMP JUMPDEST PUSH2 0x45B6 PUSH1 0xC0 DUP4 ADD DUP7 PUSH2 0x3D9E JUMP JUMPDEST PUSH2 0x45C3 PUSH1 0xE0 DUP4 ADD DUP6 PUSH2 0x4319 JUMP JUMPDEST PUSH2 0x45D1 PUSH2 0x100 DUP4 ADD DUP5 PUSH2 0x3D9E JUMP JUMPDEST SWAP11 SWAP10 POP POP POP POP POP POP POP POP POP POP JUMP JUMPDEST PUSH0 DUP2 SWAP1 POP SWAP2 SWAP1 POP JUMP JUMPDEST PUSH0 PUSH2 0x4602 PUSH2 0x45FD PUSH2 0x45F8 DUP5 PUSH2 0x3E81 JUMP JUMPDEST PUSH2 0x45DF JUMP JUMPDEST PUSH2 0x3E81 JUMP JUMPDEST SWAP1 POP SWAP2 SWAP1 POP JUMP JUMPDEST PUSH0 PUSH2 0x4613 DUP3 PUSH2 0x45E8 JUMP JUMPDEST SWAP1 POP SWAP2 SWAP1 POP JUMP JUMPDEST PUSH0 PUSH2 0x4624 DUP3 PUSH2 0x4609 JUMP JUMPDEST SWAP1 POP SWAP2 SWAP1 POP JUMP JUMPDEST PUSH2 0x4634 DUP2 PUSH2 0x461A JUMP JUMPDEST DUP3 MSTORE POP POP JUMP JUMPDEST PUSH0 PUSH1 0x20 DUP3 ADD SWAP1 POP PUSH2 0x464D PUSH0 DUP4 ADD DUP5 PUSH2 0x462B JUMP JUMPDEST SWAP3 SWAP2 POP POP JUMP JUMPDEST PUSH0 DUP1 PUSH1 0x40 DUP4 DUP6 SUB SLT ISZERO PUSH2 0x4669 JUMPI PUSH2 0x4668 PUSH2 0x3E79 JUMP JUMPDEST JUMPDEST PUSH0 PUSH2 0x4676 DUP6 DUP3 DUP7 ADD PUSH2 0x3EC7 JUMP JUMPDEST SWAP3 POP POP PUSH1 0x20 PUSH2 0x4687 DUP6 DUP3 DUP7 ADD PUSH2 0x3EC7 JUMP JUMPDEST SWAP2 POP POP SWAP3 POP SWAP3 SWAP1 POP JUMP JUMPDEST PUSH0 DUP1 PUSH0 DUP1 PUSH1 0x80 DUP6 DUP8 SUB SLT ISZERO PUSH2 0x46A9 JUMPI PUSH2 0x46A8 PUSH2 0x3E79 JUMP JUMPDEST JUMPDEST PUSH0 DUP6 ADD CALLDATALOAD PUSH8 0xFFFFFFFFFFFFFFFF DUP2 GT ISZERO PUSH2 0x46C6 JUMPI PUSH2 0x46C5 PUSH2 0x3E7D JUMP JUMPDEST JUMPDEST PUSH2 0x46D2 DUP8 DUP3 DUP9 ADD PUSH2 0x442A JUMP JUMPDEST SWAP5 POP POP PUSH1 0x20 PUSH2 0x46E3 DUP8 DUP3 DUP9 ADD PUSH2 0x3EF1 JUMP JUMPDEST SWAP4 POP POP PUSH1 0x40 PUSH2 0x46F4 DUP8 DUP3 DUP9 ADD PUSH2 0x3EF1 JUMP JUMPDEST SWAP3 POP POP PUSH1 0x60 PUSH2 0x4705 DUP8 DUP3 DUP9 ADD PUSH2 0x3EF1 JUMP JUMPDEST SWAP2 POP POP SWAP3 SWAP6 SWAP2 SWAP5 POP SWAP3 POP JUMP JUMPDEST PUSH0 PUSH8 0xFFFFFFFFFFFFFFFF DUP3 GT ISZERO PUSH2 0x472B JUMPI PUSH2 0x472A PUSH2 0x4073 JUMP JUMPDEST JUMPDEST PUSH1 0x20 DUP3 MUL SWAP1 POP PUSH1 0x20 DUP2 ADD SWAP1 POP SWAP2 SWAP1 POP JUMP JUMPDEST PUSH2 0x4745 DUP2 PUSH2 0x3F43 JUMP JUMPDEST DUP2 EQ PUSH2 0x474F JUMPI PUSH0 DUP1 REVERT JUMPDEST POP JUMP JUMPDEST PUSH0 DUP2 CALLDATALOAD SWAP1 POP PUSH2 0x4760 DUP2 PUSH2 0x473C JUMP JUMPDEST SWAP3 SWAP2 POP POP JUMP JUMPDEST PUSH0 PUSH2 0x4778 PUSH2 0x4773 DUP5 PUSH2 0x4711 JUMP JUMPDEST PUSH2 0x40D1 JUMP JUMPDEST SWAP1 POP DUP1 DUP4 DUP3 MSTORE PUSH1 0x20 DUP3 ADD SWAP1 POP PUSH1 0x20 DUP5 MUL DUP4 ADD DUP6 DUP2 GT ISZERO PUSH2 0x479B JUMPI PUSH2 0x479A PUSH2 0x4116 JUMP JUMPDEST JUMPDEST DUP4 JUMPDEST DUP2 DUP2 LT ISZERO PUSH2 0x47C4 JUMPI DUP1 PUSH2 0x47B0 DUP9 DUP3 PUSH2 0x4752 JUMP JUMPDEST DUP5 MSTORE PUSH1 0x20 DUP5 ADD SWAP4 POP POP PUSH1 0x20 DUP2 ADD SWAP1 POP PUSH2 0x479D JUMP JUMPDEST POP POP POP SWAP4 SWAP3 POP POP POP JUMP JUMPDEST PUSH0 DUP3 PUSH1 0x1F DUP4 ADD SLT PUSH2 0x47E2 JUMPI PUSH2 0x47E1 PUSH2 0x406F JUMP JUMPDEST JUMPDEST DUP2 CALLDATALOAD PUSH2 0x47F2 DUP5 DUP3 PUSH1 0x20 DUP7 ADD PUSH2 0x4766 JUMP JUMPDEST SWAP2 POP POP SWAP3 SWAP2 POP POP JUMP JUMPDEST PUSH0 DUP1 PUSH1 0x40 DUP4 DUP6 SUB SLT ISZERO PUSH2 0x4811 JUMPI PUSH2 0x4810 PUSH2 0x3E79 JUMP JUMPDEST JUMPDEST PUSH0 PUSH2 0x481E DUP6 DUP3 DUP7 ADD PUSH2 0x3EF1 JUMP JUMPDEST SWAP3 POP POP PUSH1 0x20 DUP4 ADD CALLDATALOAD PUSH8 0xFFFFFFFFFFFFFFFF DUP2 GT ISZERO PUSH2 0x483F JUMPI PUSH2 0x483E PUSH2 0x3E7D JUMP JUMPDEST JUMPDEST PUSH2 0x484B DUP6 DUP3 DUP7 ADD PUSH2 0x47CE JUMP JUMPDEST SWAP2 POP POP SWAP3 POP SWAP3 SWAP1 POP JUMP JUMPDEST PUSH0 DUP1 PUSH1 0x40 DUP4 DUP6 SUB SLT ISZERO PUSH2 0x486B JUMPI PUSH2 0x486A PUSH2 0x3E79 JUMP JUMPDEST JUMPDEST PUSH0 PUSH2 0x4878 DUP6 DUP3 DUP7 ADD PUSH2 0x3EF1 JUMP JUMPDEST SWAP3 POP POP PUSH1 0x20 PUSH2 0x4889 DUP6 DUP3 DUP7 ADD PUSH2 0x4752 JUMP JUMPDEST SWAP2 POP POP SWAP3 POP SWAP3 SWAP1 POP JUMP JUMPDEST PUSH0 PUSH1 0x80 DUP3 ADD SWAP1 POP DUP2 DUP2 SUB PUSH0 DUP4 ADD MSTORE PUSH2 0x48AB DUP2 DUP8 PUSH2 0x3E18 JUMP JUMPDEST SWAP1 POP PUSH2 0x48BA PUSH1 0x20 DUP4 ADD DUP7 PUSH2 0x3D9E JUMP JUMPDEST DUP2 DUP2 SUB PUSH1 0x40 DUP4 ADD MSTORE PUSH2 0x48CC DUP2 DUP6 PUSH2 0x428F JUMP JUMPDEST SWAP1 POP DUP2 DUP2 SUB PUSH1 0x60 DUP4 ADD MSTORE PUSH2 0x48E0 DUP2 DUP5 PUSH2 0x428F JUMP JUMPDEST SWAP1 POP SWAP6 SWAP5 POP POP POP POP POP JUMP JUMPDEST PUSH32 0x4E487B7100000000000000000000000000000000000000000000000000000000 PUSH0 MSTORE PUSH1 0x32 PUSH1 0x4 MSTORE PUSH1 0x24 PUSH0 REVERT JUMPDEST PUSH32 0x4E487B7100000000000000000000000000000000000000000000000000000000 PUSH0 MSTORE PUSH1 0x11 PUSH1 0x4 MSTORE PUSH1 0x24 PUSH0 REVERT JUMPDEST PUSH0 PUSH2 0x494F DUP3 PUSH2 0x3D95 JUMP JUMPDEST SWAP2 POP PUSH32 0xFFFFFFFFFFFFFFFFFFFFFFFFFFFFFFFFFFFFFFFFFFFFFFFFFFFFFFFFFFFFFFFF DUP3 SUB PUSH2 0x4981 JUMPI PUSH2 0x4980 PUSH2 0x4918 JUMP JUMPDEST JUMPDEST PUSH1 0x1 DUP3 ADD SWAP1 POP SWAP2 SWAP1 POP JUMP JUMPDEST PUSH32 0x4E487B7100000000000000000000000000000000000000000000000000000000 PUSH0 MSTORE PUSH1 0x22 PUSH1 0x4 MSTORE PUSH1 0x24 PUSH0 REVERT JUMPDEST PUSH0 PUSH1 0x2 DUP3 DIV SWAP1 POP PUSH1 0x1 DUP3 AND DUP1 PUSH2 0x49D0 JUMPI PUSH1 0x7F DUP3 AND SWAP2 POP JUMPDEST PUSH1 0x20 DUP3 LT DUP2 SUB PUSH2 0x49E3 JUMPI PUSH2 0x49E2 PUSH2 0x498C JUMP JUMPDEST JUMPDEST POP SWAP2 SWAP1 POP JUMP JUMPDEST PUSH0 PUSH2 0x49F3 DUP3 PUSH2 0x3D95 JUMP JUMPDEST SWAP2 POP PUSH2 0x49FE DUP4 PUSH2 0x3D95 JUMP JUMPDEST SWAP3 POP DUP3 DUP3 SUB SWAP1 POP DUP2 DUP2 GT ISZERO PUSH2 0x4A16 JUMPI PUSH2 0x4A15 PUSH2 0x4918 JUMP JUMPDEST JUMPDEST SWAP3 SWAP2 POP POP JUMP JUMPDEST PUSH0 DUP2 MLOAD SWAP1 POP PUSH2 0x4A2A DUP2 PUSH2 0x3EDB JUMP JUMPDEST SWAP3 SWAP2 POP POP JUMP JUMPDEST PUSH0 PUSH1 0x20 DUP3 DUP5 SUB SLT ISZERO PUSH2 0x4A45 JUMPI PUSH2 0x4A44 PUSH2 0x3E79 JUMP JUMPDEST JUMPDEST PUSH0 PUSH2 0x4A52 DUP5 DUP3 DUP6 ADD PUSH2 0x4A1C JUMP JUMPDEST SWAP2 POP POP SWAP3 SWAP2 POP POP JUMP JUMPDEST PUSH0 PUSH1 0x20 DUP3 ADD SWAP1 POP DUP2 DUP2 SUB PUSH0 DUP4 ADD MSTORE PUSH2 0x4A73 DUP2 DUP5 PUSH2 0x428F JUMP JUMPDEST SWAP1 POP SWAP3 SWAP2 POP POP JUMP JUMPDEST PUSH32 0x4E487B7100000000000000000000000000000000000000000000000000000000 PUSH0 MSTORE PUSH1 0x12 PUSH1 0x4 MSTORE PUSH1 0x24 PUSH0 REVERT JUMPDEST PUSH0 PUSH2 0x4AB2 DUP3 PUSH2 0x3D95 JUMP JUMPDEST SWAP2 POP PUSH2 0x4ABD DUP4 PUSH2 0x3D95 JUMP JUMPDEST SWAP3 POP DUP3 PUSH2 0x4ACD JUMPI PUSH2 0x4ACC PUSH2 0x4A7B JUMP JUMPDEST JUMPDEST DUP3 DUP3 DIV SWAP1 POP SWAP3 SWAP2 POP POP JUMP JUMPDEST PUSH0 PUSH1 0x60 DUP3 ADD SWAP1 POP PUSH2 0x4AEB PUSH0 DUP4 ADD DUP7 PUSH2 0x4319 JUMP JUMPDEST PUSH2 0x4AF8 PUSH1 0x20 DUP4 ADD DUP6 PUSH2 0x4319 JUMP JUMPDEST PUSH2 0x4B05 PUSH1 0x40 DUP4 ADD DUP5 PUSH2 0x3D9E JUMP JUMPDEST SWAP5 SWAP4 POP POP POP POP JUMP JUMPDEST PUSH0 DUP2 MLOAD SWAP1 POP PUSH2 0x4B1B DUP2 PUSH2 0x473C JUMP JUMPDEST SWAP3 SWAP2 POP POP JUMP JUMPDEST PUSH0 PUSH1 0x20 DUP3 DUP5 SUB SLT ISZERO PUSH2 0x4B36 JUMPI PUSH2 0x4B35 PUSH2 0x3E79 JUMP JUMPDEST JUMPDEST PUSH0 PUSH2 0x4B43 DUP5 DUP3 DUP6 ADD PUSH2 0x4B0D JUMP JUMPDEST SWAP2 POP POP SWAP3 SWAP2 POP POP JUMP JUMPDEST PUSH0 PUSH2 0x4B56 DUP3 PUSH2 0x3D95 JUMP JUMPDEST SWAP2 POP PUSH2 0x4B61 DUP4 PUSH2 0x3D95 JUMP JUMPDEST SWAP3 POP DUP3 DUP3 ADD SWAP1 POP DUP1 DUP3 GT ISZERO PUSH2 0x4B79 JUMPI PUSH2 0x4B78 PUSH2 0x4918 JUMP JUMPDEST JUMPDEST SWAP3 SWAP2 POP POP JUMP JUMPDEST PUSH0 DUP2 SWAP1 POP SWAP2 SWAP1 POP JUMP JUMPDEST PUSH0 PUSH2 0x4BA2 PUSH2 0x4B9D PUSH2 0x4B98 DUP5 PUSH2 0x4B7F JUMP JUMPDEST PUSH2 0x45DF JUMP JUMPDEST PUSH2 0x3D95 JUMP JUMPDEST SWAP1 POP SWAP2 SWAP1 POP JUMP JUMPDEST PUSH2 0x4BB2 DUP2 PUSH2 0x4B88 JUMP JUMPDEST DUP3 MSTORE POP POP JUMP JUMPDEST PUSH0 PUSH1 0x60 DUP3 ADD SWAP1 POP PUSH2 0x4BCB PUSH0 DUP4 ADD DUP7 PUSH2 0x4319 JUMP JUMPDEST PUSH2 0x4BD8 PUSH1 0x20 DUP4 ADD DUP6 PUSH2 0x4319 JUMP JUMPDEST PUSH2 0x4BE5 PUSH1 0x40 DUP4 ADD DUP5 PUSH2 0x4BA9 JUMP JUMPDEST SWAP5 SWAP4 POP POP POP POP JUMP JUMPDEST PUSH0 DUP2 SWAP1 POP DUP2 PUSH0 MSTORE PUSH1 0x20 PUSH0 KECCAK256 SWAP1 POP SWAP2 SWAP1 POP JUMP JUMPDEST PUSH0 PUSH1 0x20 PUSH1 0x1F DUP4 ADD DIV SWAP1 POP SWAP2 SWAP1 POP JUMP JUMPDEST PUSH0 DUP3 DUP3 SHL SWAP1 POP SWAP3 SWAP2 POP POP JUMP JUMPDEST PUSH0 PUSH1 0x8 DUP4 MUL PUSH2 0x4C49 PUSH32 0xFFFFFFFFFFFFFFFFFFFFFFFFFFFFFFFFFFFFFFFFFFFFFFFFFFFFFFFFFFFFFFFF DUP3 PUSH2 0x4C0E JUMP JUMPDEST PUSH2 0x4C53 DUP7 DUP4 PUSH2 0x4C0E JUMP JUMPDEST SWAP6 POP DUP1 NOT DUP5 AND SWAP4 POP DUP1 DUP7 AND DUP5 OR SWAP3 POP POP POP SWAP4 SWAP3 POP POP POP JUMP JUMPDEST PUSH0 PUSH2 0x4C85 PUSH2 0x4C80 PUSH2 0x4C7B DUP5 PUSH2 0x3D95 JUMP JUMPDEST PUSH2 0x45DF JUMP JUMPDEST PUSH2 0x3D95 JUMP JUMPDEST SWAP1 POP SWAP2 SWAP1 POP JUMP JUMPDEST PUSH0 DUP2 SWAP1 POP SWAP2 SWAP1 POP JUMP JUMPDEST PUSH2 0x4C9E DUP4 PUSH2 0x4C6B JUMP JUMPDEST PUSH2 0x4CB2 PUSH2 0x4CAA DUP3 PUSH2 0x4C8C JUMP JUMPDEST DUP5 DUP5 SLOAD PUSH2 0x4C1A JUMP JUMPDEST DUP3 SSTORE POP POP POP POP JUMP JUMPDEST PUSH0 SWAP1 JUMP JUMPDEST PUSH2 0x4CC6 PUSH2 0x4CBA JUMP JUMPDEST PUSH2 0x4CD1 DUP2 DUP5 DUP5 PUSH2 0x4C95 JUMP JUMPDEST POP POP POP JUMP JUMPDEST JUMPDEST DUP2 DUP2 LT ISZERO PUSH2 0x4CF4 JUMPI PUSH2 0x4CE9 PUSH0 DUP3 PUSH2 0x4CBE JUMP JUMPDEST PUSH1 0x1 DUP2 ADD SWAP1 POP PUSH2 0x4CD7 JUMP JUMPDEST POP POP JUMP JUMPDEST PUSH1 0x1F DUP3 GT ISZERO PUSH2 0x4D39 JUMPI PUSH2 0x4D0A DUP2 PUSH2 0x4BED JUMP JUMPDEST PUSH2 0x4D13 DUP5 PUSH2 0x4BFF JUMP JUMPDEST DUP2 ADD PUSH1 0x20 DUP6 LT ISZERO PUSH2 0x4D22 JUMPI DUP2 SWAP1 POP JUMPDEST PUSH2 0x4D36 PUSH2 0x4D2E DUP6 PUSH2 0x4BFF JUMP JUMPDEST DUP4 ADD DUP3 PUSH2 0x4CD6 JUMP JUMPDEST POP POP JUMPDEST POP POP POP JUMP JUMPDEST PUSH0 DUP3 DUP3 SHR SWAP1 POP SWAP3 SWAP2 POP POP JUMP JUMPDEST PUSH0 PUSH2 0x4D59 PUSH0 NOT DUP5 PUSH1 0x8 MUL PUSH2 0x4D3E JUMP JUMPDEST NOT DUP1 DUP4 AND SWAP2 POP POP SWAP3 SWAP2 POP POP JUMP JUMPDEST PUSH0 PUSH2 0x4D71 DUP4 DUP4 PUSH2 0x4D4A JUMP JUMPDEST SWAP2 POP DUP3 PUSH1 0x2 MUL DUP3 OR SWAP1 POP SWAP3 SWAP2 POP POP JUMP JUMPDEST PUSH2 0x4D8A DUP3 PUSH2 0x3DC6 JUMP JUMPDEST PUSH8 0xFFFFFFFFFFFFFFFF DUP2 GT ISZERO PUSH2 0x4DA3 JUMPI PUSH2 0x4DA2 PUSH2 0x4073 JUMP JUMPDEST JUMPDEST PUSH2 0x4DAD DUP3 SLOAD PUSH2 0x49B9 JUMP JUMPDEST PUSH2 0x4DB8 DUP3 DUP3 DUP6 PUSH2 0x4CF8 JUMP JUMPDEST PUSH0 PUSH1 0x20 SWAP1 POP PUSH1 0x1F DUP4 GT PUSH1 0x1 DUP2 EQ PUSH2 0x4DE9 JUMPI PUSH0 DUP5 ISZERO PUSH2 0x4DD7 JUMPI DUP3 DUP8 ADD MLOAD SWAP1 POP JUMPDEST PUSH2 0x4DE1 DUP6 DUP3 PUSH2 0x4D66 JUMP JUMPDEST DUP7 SSTORE POP PUSH2 0x4E48 JUMP JUMPDEST PUSH1 0x1F NOT DUP5 AND PUSH2 0x4DF7 DUP7 PUSH2 0x4BED JUMP JUMPDEST PUSH0 JUMPDEST DUP3 DUP2 LT ISZERO PUSH2 0x4E1E JUMPI DUP5 DUP10 ADD MLOAD DUP3 SSTORE PUSH1 0x1 DUP3 ADD SWAP2 POP PUSH1 0x20 DUP6 ADD SWAP5 POP PUSH1 0x20 DUP2 ADD SWAP1 POP PUSH2 0x4DF9 JUMP JUMPDEST DUP7 DUP4 LT ISZERO PUSH2 0x4E3B JUMPI DUP5 DUP10 ADD MLOAD PUSH2 0x4E37 PUSH1 0x1F DUP10 AND DUP3 PUSH2 0x4D4A JUMP JUMPDEST DUP4 SSTORE POP JUMPDEST PUSH1 0x1 PUSH1 0x2 DUP9 MUL ADD DUP9 SSTORE POP POP POP JUMPDEST POP POP POP POP POP POP JUMP JUMPDEST PUSH0 DUP2 SLOAD SWAP1 POP SWAP2 SWAP1 POP JUMP JUMPDEST PUSH0 DUP3 DUP3 MSTORE PUSH1 0x20 DUP3 ADD SWAP1 POP SWAP3 SWAP2 POP POP JUMP JUMPDEST PUSH0 DUP2 SWAP1 POP DUP2 PUSH0 MSTORE PUSH1 0x20 PUSH0 KECCAK256 SWAP1 POP SWAP2 SWAP1 POP JUMP JUMPDEST PUSH2 0x4E85 DUP2 PUSH2 0x3F43 JUMP JUMPDEST DUP3 MSTORE POP POP JUMP JUMPDEST PUSH0 DUP2 PUSH0 SHR SWAP1 POP SWAP2 SWAP1 POP JUMP JUMPDEST PUSH0 PUSH1 0xFF DUP3 AND SWAP1 POP SWAP2 SWAP1 POP JUMP JUMPDEST PUSH0 PUSH2 0x4EB4 PUSH2 0x4EAF DUP4 PUSH2 0x4E8B JUMP JUMPDEST PUSH2 0x4E96 JUMP JUMPDEST SWAP1 POP SWAP2 SWAP1 POP JUMP JUMPDEST PUSH0 DUP2 PUSH1 0x8 SHR SWAP1 POP SWAP2 SWAP1 POP JUMP JUMPDEST PUSH0 PUSH2 0x4ED9 PUSH2 0x4ED4 DUP4 PUSH2 0x4EBB JUMP JUMPDEST PUSH2 0x4E96 JUMP JUMPDEST SWAP1 POP SWAP2 SWAP1 POP JUMP JUMPDEST PUSH0 DUP2 PUSH1 0x10 SHR SWAP1 POP SWAP2 SWAP1 POP JUMP JUMPDEST PUSH0 PUSH2 0x4EFE PUSH2 0x4EF9 DUP4 PUSH2 0x4EE0 JUMP JUMPDEST PUSH2 0x4E96 JUMP JUMPDEST SWAP1 POP SWAP2 SWAP1 POP JUMP JUMPDEST PUSH0 DUP2 PUSH1 0x18 SHR SWAP1 POP SWAP2 SWAP1 POP JUMP JUMPDEST PUSH0 PUSH2 0x4F23 PUSH2 0x4F1E DUP4 PUSH2 0x4F05 JUMP JUMPDEST PUSH2 0x4E96 JUMP JUMPDEST SWAP1 POP SWAP2 SWAP1 POP JUMP JUMPDEST PUSH0 DUP2 PUSH1 0x20 SHR SWAP1 POP SWAP2 SWAP1 POP JUMP JUMPDEST PUSH0 PUSH2 0x4F48 PUSH2 0x4F43 DUP4 PUSH2 0x4F2A JUMP JUMPDEST PUSH2 0x4E96 JUMP JUMPDEST SWAP1 POP SWAP2 SWAP1 POP JUMP JUMPDEST PUSH0 DUP2 PUSH1 0x28 SHR SWAP1 POP SWAP2 SWAP1 POP JUMP JUMPDEST PUSH0 PUSH2 0x4F6D PUSH2 0x4F68 DUP4 PUSH2 0x4F4F JUMP JUMPDEST PUSH2 0x4E96 JUMP JUMPDEST SWAP1 POP SWAP2 SWAP1 POP JUMP JUMPDEST PUSH0 DUP2 PUSH1 0x30 SHR SWAP1 POP SWAP2 SWAP1 POP JUMP JUMPDEST PUSH0 PUSH2 0x4F92 PUSH2 0x4F8D DUP4 PUSH2 0x4F74 JUMP JUMPDEST PUSH2 0x4E96 JUMP JUMPDEST SWAP1 POP SWAP2 SWAP1 POP JUMP JUMPDEST PUSH0 DUP2 PUSH1 0x38 SHR SWAP1 POP SWAP2 SWAP1 POP JUMP JUMPDEST PUSH0 PUSH2 0x4FB7 PUSH2 0x4FB2 DUP4 PUSH2 0x4F99 JUMP JUMPDEST PUSH2 0x4E96 JUMP JUMPDEST SWAP1 POP SWAP2 SWAP1 POP JUMP JUMPDEST PUSH0 DUP2 PUSH1 0x40 SHR SWAP1 POP SWAP2 SWAP1 POP JUMP JUMPDEST PUSH0 PUSH2 0x4FDC PUSH2 0x4FD7 DUP4 PUSH2 0x4FBE JUMP JUMPDEST PUSH2 0x4E96 JUMP JUMPDEST SWAP1 POP SWAP2 SWAP1 POP JUMP JUMPDEST PUSH0 DUP2 PUSH1 0x48 SHR SWAP1 POP SWAP2 SWAP1 POP JUMP JUMPDEST PUSH0 PUSH2 0x5001 PUSH2 0x4FFC DUP4 PUSH2 0x4FE3 JUMP JUMPDEST PUSH2 0x4E96 JUMP JUMPDEST SWAP1 POP SWAP2 SWAP1 POP JUMP JUMPDEST PUSH0 DUP2 PUSH1 0x50 SHR SWAP1 POP SWAP2 SWAP1 POP JUMP JUMPDEST PUSH0 PUSH2 0x5026 PUSH2 0x5021 DUP4 PUSH2 0x5008 JUMP JUMPDEST PUSH2 0x4E96 JUMP JUMPDEST SWAP1 POP SWAP2 SWAP1 POP JUMP JUMPDEST PUSH0 DUP2 PUSH1 0x58 SHR SWAP1 POP SWAP2 SWAP1 POP JUMP JUMPDEST PUSH0 PUSH2 0x504B PUSH2 0x5046 DUP4 PUSH2 0x502D JUMP JUMPDEST PUSH2 0x4E96 JUMP JUMPDEST SWAP1 POP SWAP2 SWAP1 POP JUMP JUMPDEST PUSH0 DUP2 PUSH1 0x60 SHR SWAP1 POP SWAP2 SWAP1 POP JUMP JUMPDEST PUSH0 PUSH2 0x5070 PUSH2 0x506B DUP4 PUSH2 0x5052 JUMP JUMPDEST PUSH2 0x4E96 JUMP JUMPDEST SWAP1 POP SWAP2 SWAP1 POP JUMP JUMPDEST PUSH0 DUP2 PUSH1 0x68 SHR SWAP1 POP SWAP2 SWAP1 POP JUMP JUMPDEST PUSH0 PUSH2 0x5095 PUSH2 0x5090 DUP4 PUSH2 0x5077 JUMP JUMPDEST PUSH2 0x4E96 JUMP JUMPDEST SWAP1 POP SWAP2 SWAP1 POP JUMP JUMPDEST PUSH0 DUP2 PUSH1 0x70 SHR SWAP1 POP SWAP2 SWAP1 POP JUMP JUMPDEST PUSH0 PUSH2 0x50BA PUSH2 0x50B5 DUP4 PUSH2 0x509C JUMP JUMPDEST PUSH2 0x4E96 JUMP JUMPDEST SWAP1 POP SWAP2 SWAP1 POP JUMP JUMPDEST PUSH0 DUP2 PUSH1 0x78 SHR SWAP1 POP SWAP2 SWAP1 POP JUMP JUMPDEST PUSH0 PUSH2 0x50DF PUSH2 0x50DA DUP4 PUSH2 0x50C1 JUMP JUMPDEST PUSH2 0x4E96 JUMP JUMPDEST SWAP1 POP SWAP2 SWAP1 POP JUMP JUMPDEST PUSH0 DUP2 PUSH1 0x80 SHR SWAP1 POP SWAP2 SWAP1 POP JUMP JUMPDEST PUSH0 PUSH2 0x5104 PUSH2 0x50FF DUP4 PUSH2 0x50E6 JUMP JUMPDEST PUSH2 0x4E96 JUMP JUMPDEST SWAP1 POP SWAP2 SWAP1 POP JUMP JUMPDEST PUSH0 DUP2 PUSH1 0x88 SHR SWAP1 POP SWAP2 SWAP1 POP JUMP JUMPDEST PUSH0 PUSH2 0x5129 PUSH2 0x5124 DUP4 PUSH2 0x510B JUMP JUMPDEST PUSH2 0x4E96 JUMP JUMPDEST SWAP1 POP SWAP2 SWAP1 POP JUMP JUMPDEST PUSH0 DUP2 PUSH1 0x90 SHR SWAP1 POP SWAP2 SWAP1 POP JUMP JUMPDEST PUSH0 PUSH2 0x514E PUSH2 0x5149 DUP4 PUSH2 0x5130 JUMP JUMPDEST PUSH2 0x4E96 JUMP JUMPDEST SWAP1 POP SWAP2 SWAP1 POP JUMP JUMPDEST PUSH0 DUP2 PUSH1 0x98 SHR SWAP1 POP SWAP2 SWAP1 POP JUMP JUMPDEST PUSH0 PUSH2 0x5173 PUSH2 0x516E DUP4 PUSH2 0x5155 JUMP JUMPDEST PUSH2 0x4E96 JUMP JUMPDEST SWAP1 POP SWAP2 SWAP1 POP JUMP JUMPDEST PUSH0 DUP2 PUSH1 0xA0 SHR SWAP1 POP SWAP2 SWAP1 POP JUMP JUMPDEST PUSH0 PUSH2 0x5198 PUSH2 0x5193 DUP4 PUSH2 0x517A JUMP JUMPDEST PUSH2 0x4E96 JUMP JUMPDEST SWAP1 POP SWAP2 SWAP1 POP JUMP JUMPDEST PUSH0 DUP2 PUSH1 0xA8 SHR SWAP1 POP SWAP2 SWAP1 POP JUMP JUMPDEST PUSH0 PUSH2 0x51BD PUSH2 0x51B8 DUP4 PUSH2 0x519F JUMP JUMPDEST PUSH2 0x4E96 JUMP JUMPDEST SWAP1 POP SWAP2 SWAP1 POP JUMP JUMPDEST PUSH0 DUP2 PUSH1 0xB0 SHR SWAP1 POP SWAP2 SWAP1 POP JUMP JUMPDEST PUSH0 PUSH2 0x51E2 PUSH2 0x51DD DUP4 PUSH2 0x51C4 JUMP JUMPDEST PUSH2 0x4E96 JUMP JUMPDEST SWAP1 POP SWAP2 SWAP1 POP JUMP JUMPDEST PUSH0 DUP2 PUSH1 0xB8 SHR SWAP1 POP SWAP2 SWAP1 POP JUMP JUMPDEST PUSH0 PUSH2 0x5207 PUSH2 0x5202 DUP4 PUSH2 0x51E9 JUMP JUMPDEST PUSH2 0x4E96 JUMP JUMPDEST SWAP1 POP SWAP2 SWAP1 POP JUMP JUMPDEST PUSH0 DUP2 PUSH1 0xC0 SHR SWAP1 POP SWAP2 SWAP1 POP JUMP JUMPDEST PUSH0 PUSH2 0x522C PUSH2 0x5227 DUP4 PUSH2 0x520E JUMP JUMPDEST PUSH2 0x4E96 JUMP JUMPDEST SWAP1 POP SWAP2 SWAP1 POP JUMP JUMPDEST PUSH0 DUP2 PUSH1 0xC8 SHR SWAP1 POP SWAP2 SWAP1 POP JUMP JUMPDEST PUSH0 PUSH2 0x5251 PUSH2 0x524C DUP4 PUSH2 0x5233 JUMP JUMPDEST PUSH2 0x4E96 JUMP JUMPDEST SWAP1 POP SWAP2 SWAP1 POP JUMP JUMPDEST PUSH0 DUP2 PUSH1 0xD0 SHR SWAP1 POP SWAP2 SWAP1 POP JUMP JUMPDEST PUSH0 PUSH2 0x5276 PUSH2 0x5271 DUP4 PUSH2 0x5258 JUMP JUMPDEST PUSH2 0x4E96 JUMP JUMPDEST SWAP1 POP SWAP2 SWAP1 POP JUMP JUMPDEST PUSH0 DUP2 PUSH1 0xD8 SHR SWAP1 POP SWAP2 SWAP1 POP JUMP JUMPDEST PUSH0 PUSH2 0x529B PUSH2 0x5296 DUP4 PUSH2 0x527D JUMP JUMPDEST PUSH2 0x4E96 JUMP JUMPDEST SWAP1 POP SWAP2 SWAP1 POP JUMP JUMPDEST PUSH0 DUP2 PUSH1 0xE0 SHR SWAP1 POP SWAP2 SWAP1 POP JUMP JUMPDEST PUSH0 PUSH2 0x52C0 PUSH2 0x52BB DUP4 PUSH2 0x52A2 JUMP JUMPDEST PUSH2 0x4E96 JUMP JUMPDEST SWAP1 POP SWAP2 SWAP1 POP JUMP JUMPDEST PUSH0 DUP2 PUSH1 0xE8 SHR SWAP1 POP SWAP2 SWAP1 POP JUMP JUMPDEST PUSH0 PUSH2 0x52E5 PUSH2 0x52E0 DUP4 PUSH2 0x52C7 JUMP JUMPDEST PUSH2 0x4E96 JUMP JUMPDEST SWAP1 POP SWAP2 SWAP1 POP JUMP JUMPDEST PUSH0 DUP2 PUSH1 0xF0 SHR SWAP1 POP SWAP2 SWAP1 POP JUMP JUMPDEST PUSH0 PUSH2 0x530A PUSH2 0x5305 DUP4 PUSH2 0x52EC JUMP JUMPDEST PUSH2 0x4E96 JUMP JUMPDEST SWAP1 POP SWAP2 SWAP1 POP JUMP JUMPDEST PUSH0 DUP2 PUSH1 0xF8 SHR SWAP1 POP SWAP2 SWAP1 POP JUMP JUMPDEST PUSH0 PUSH2 0x532F PUSH2 0x532A DUP4 PUSH2 0x5311 JUMP JUMPDEST PUSH2 0x4E96 JUMP JUMPDEST SWAP1 POP SWAP2 SWAP1 POP JUMP JUMPDEST PUSH0 PUSH2 0x5340 DUP3 PUSH2 0x4E50 JUMP JUMPDEST PUSH2 0x534A DUP2 DUP6 PUSH2 0x4E5A JUMP JUMPDEST SWAP4 POP DUP4 PUSH2 0x5356 DUP5 PUSH2 0x4E6A JUMP JUMPDEST PUSH0 PUSH1 0x1 ISZERO PUSH2 0x5682 JUMPI JUMPDEST DUP4 PUSH1 0x1 PUSH1 0x20 SUB DUP3 ADD LT ISZERO PUSH2 0x5681 JUMPI DUP2 SLOAD PUSH2 0x5381 DUP9 PUSH2 0x537C DUP4 PUSH2 0x4EA2 JUMP JUMPDEST PUSH2 0x4E7C JUMP JUMPDEST PUSH1 0x20 DUP9 ADD SWAP8 POP PUSH2 0x5399 DUP9 PUSH2 0x5394 DUP4 PUSH2 0x4EC7 JUMP JUMPDEST PUSH2 0x4E7C JUMP JUMPDEST PUSH1 0x20 DUP9 ADD SWAP8 POP PUSH2 0x53B1 DUP9 PUSH2 0x53AC DUP4 PUSH2 0x4EEC JUMP JUMPDEST PUSH2 0x4E7C JUMP JUMPDEST PUSH1 0x20 DUP9 ADD SWAP8 POP PUSH2 0x53C9 DUP9 PUSH2 0x53C4 DUP4 PUSH2 0x4F11 JUMP JUMPDEST PUSH2 0x4E7C JUMP JUMPDEST PUSH1 0x20 DUP9 ADD SWAP8 POP PUSH2 0x53E1 DUP9 PUSH2 0x53DC DUP4 PUSH2 0x4F36 JUMP JUMPDEST PUSH2 0x4E7C JUMP JUMPDEST PUSH1 0x20 DUP9 ADD SWAP8 POP PUSH2 0x53F9 DUP9 PUSH2 0x53F4 DUP4 PUSH2 0x4F5B JUMP JUMPDEST PUSH2 0x4E7C JUMP JUMPDEST PUSH1 0x20 DUP9 ADD SWAP8 POP PUSH2 0x5411 DUP9 PUSH2 0x540C DUP4 PUSH2 0x4F80 JUMP JUMPDEST PUSH2 0x4E7C JUMP JUMPDEST PUSH1 0x20 DUP9 ADD SWAP8 POP PUSH2 0x5429 DUP9 PUSH2 0x5424 DUP4 PUSH2 0x4FA5 JUMP JUMPDEST PUSH2 0x4E7C JUMP JUMPDEST PUSH1 0x20 DUP9 ADD SWAP8 POP PUSH2 0x5441 DUP9 PUSH2 0x543C DUP4 PUSH2 0x4FCA JUMP JUMPDEST PUSH2 0x4E7C JUMP JUMPDEST PUSH1 0x20 DUP9 ADD SWAP8 POP PUSH2 0x5459 DUP9 PUSH2 0x5454 DUP4 PUSH2 0x4FEF JUMP JUMPDEST PUSH2 0x4E7C JUMP JUMPDEST PUSH1 0x20 DUP9 ADD SWAP8 POP PUSH2 0x5471 DUP9 PUSH2 0x546C DUP4 PUSH2 0x5014 JUMP JUMPDEST PUSH2 0x4E7C JUMP JUMPDEST PUSH1 0x20 DUP9 ADD SWAP8 POP PUSH2 0x5489 DUP9 PUSH2 0x5484 DUP4 PUSH2 0x5039 JUMP JUMPDEST PUSH2 0x4E7C JUMP JUMPDEST PUSH1 0x20 DUP9 ADD SWAP8 POP PUSH2 0x54A1 DUP9 PUSH2 0x549C DUP4 PUSH2 0x505E JUMP JUMPDEST PUSH2 0x4E7C JUMP JUMPDEST PUSH1 0x20 DUP9 ADD SWAP8 POP PUSH2 0x54B9 DUP9 PUSH2 0x54B4 DUP4 PUSH2 0x5083 JUMP JUMPDEST PUSH2 0x4E7C JUMP JUMPDEST PUSH1 0x20 DUP9 ADD SWAP8 POP PUSH2 0x54D1 DUP9 PUSH2 0x54CC DUP4 PUSH2 0x50A8 JUMP JUMPDEST PUSH2 0x4E7C JUMP JUMPDEST PUSH1 0x20 DUP9 ADD SWAP8 POP PUSH2 0x54E9 DUP9 PUSH2 0x54E4 DUP4 PUSH2 0x50CD JUMP JUMPDEST PUSH2 0x4E7C JUMP JUMPDEST PUSH1 0x20 DUP9 ADD SWAP8 POP PUSH2 0x5501 DUP9 PUSH2 0x54FC DUP4 PUSH2 0x50F2 JUMP JUMPDEST PUSH2 0x4E7C JUMP JUMPDEST PUSH1 0x20 DUP9 ADD SWAP8 POP PUSH2 0x5519 DUP9 PUSH2 0x5514 DUP4 PUSH2 0x5117 JUMP JUMPDEST PUSH2 0x4E7C JUMP JUMPDEST PUSH1 0x20 DUP9 ADD SWAP8 POP PUSH2 0x5531 DUP9 PUSH2 0x552C DUP4 PUSH2 0x513C JUMP JUMPDEST PUSH2 0x4E7C JUMP JUMPDEST PUSH1 0x20 DUP9 ADD SWAP8 POP PUSH2 0x5549 DUP9 PUSH2 0x5544 DUP4 PUSH2 0x5161 JUMP JUMPDEST PUSH2 0x4E7C JUMP JUMPDEST PUSH1 0x20 DUP9 ADD SWAP8 POP PUSH2 0x5561 DUP9 PUSH2 0x555C DUP4 PUSH2 0x5186 JUMP JUMPDEST PUSH2 0x4E7C JUMP JUMPDEST PUSH1 0x20 DUP9 ADD SWAP8 POP PUSH2 0x5579 DUP9 PUSH2 0x5574 DUP4 PUSH2 0x51AB JUMP JUMPDEST PUSH2 0x4E7C JUMP JUMPDEST PUSH1 0x20 DUP9 ADD SWAP8 POP PUSH2 0x5591 DUP9 PUSH2 0x558C DUP4 PUSH2 0x51D0 JUMP JUMPDEST PUSH2 0x4E7C JUMP JUMPDEST PUSH1 0x20 DUP9 ADD SWAP8 POP PUSH2 0x55A9 DUP9 PUSH2 0x55A4 DUP4 PUSH2 0x51F5 JUMP JUMPDEST PUSH2 0x4E7C JUMP JUMPDEST PUSH1 0x20 DUP9 ADD SWAP8 POP PUSH2 0x55C1 DUP9 PUSH2 0x55BC DUP4 PUSH2 0x521A JUMP JUMPDEST PUSH2 0x4E7C JUMP JUMPDEST PUSH1 0x20 DUP9 ADD SWAP8 POP PUSH2 0x55D9 DUP9 PUSH2 0x55D4 DUP4 PUSH2 0x523F JUMP JUMPDEST PUSH2 0x4E7C JUMP JUMPDEST PUSH1 0x20 DUP9 ADD SWAP8 POP PUSH2 0x55F1 DUP9 PUSH2 0x55EC DUP4 PUSH2 0x5264 JUMP JUMPDEST PUSH2 0x4E7C JUMP JUMPDEST PUSH1 0x20 DUP9 ADD SWAP8 POP PUSH2 0x5609 DUP9 PUSH2 0x5604 DUP4 PUSH2 0x5289 JUMP JUMPDEST PUSH2 0x4E7C JUMP JUMPDEST PUSH1 0x20 DUP9 ADD SWAP8 POP PUSH2 0x5621 DUP9 PUSH2 0x561C DUP4 PUSH2 0x52AE JUMP JUMPDEST PUSH2 0x4E7C JUMP JUMPDEST PUSH1 0x20 DUP9 ADD SWAP8 POP PUSH2 0x5639 DUP9 PUSH2 0x5634 DUP4 PUSH2 0x52D3 JUMP JUMPDEST PUSH2 0x4E7C JUMP JUMPDEST PUSH1 0x20 DUP9 ADD SWAP8 POP PUSH2 0x5651 DUP9 PUSH2 0x564C DUP4 PUSH2 0x52F8 JUMP JUMPDEST PUSH2 0x4E7C JUMP JUMPDEST PUSH1 0x20 DUP9 ADD SWAP8 POP PUSH2 0x5669 DUP9 PUSH2 0x5664 DUP4 PUSH2 0x531D JUMP JUMPDEST PUSH2 0x4E7C JUMP JUMPDEST PUSH1 0x20 DUP9 ADD SWAP8 POP PUSH1 0x1 DUP4 ADD SWAP3 POP POP PUSH1 0x20 DUP2 ADD SWAP1 POP PUSH2 0x535F JUMP JUMPDEST JUMPDEST PUSH1 0x1 ISZERO PUSH2 0x5B6D JUMPI DUP2 SLOAD DUP5 DUP3 LT ISZERO PUSH2 0x56B2 JUMPI PUSH2 0x56A5 DUP9 PUSH2 0x56A0 DUP4 PUSH2 0x4EA2 JUMP JUMPDEST PUSH2 0x4E7C JUMP JUMPDEST PUSH1 0x20 DUP9 ADD SWAP8 POP PUSH1 0x1 DUP3 ADD SWAP2 POP JUMPDEST DUP5 DUP3 LT ISZERO PUSH2 0x56D9 JUMPI PUSH2 0x56CC DUP9 PUSH2 0x56C7 DUP4 PUSH2 0x4EC7 JUMP JUMPDEST PUSH2 0x4E7C JUMP JUMPDEST PUSH1 0x20 DUP9 ADD SWAP8 POP PUSH1 0x1 DUP3 ADD SWAP2 POP JUMPDEST DUP5 DUP3 LT ISZERO PUSH2 0x5700 JUMPI PUSH2 0x56F3 DUP9 PUSH2 0x56EE DUP4 PUSH2 0x4EEC JUMP JUMPDEST PUSH2 0x4E7C JUMP JUMPDEST PUSH1 0x20 DUP9 ADD SWAP8 POP PUSH1 0x1 DUP3 ADD SWAP2 POP JUMPDEST DUP5 DUP3 LT ISZERO PUSH2 0x5727 JUMPI PUSH2 0x571A DUP9 PUSH2 0x5715 DUP4 PUSH2 0x4F11 JUMP JUMPDEST PUSH2 0x4E7C JUMP JUMPDEST PUSH1 0x20 DUP9 ADD SWAP8 POP PUSH1 0x1 DUP3 ADD SWAP2 POP JUMPDEST DUP5 DUP3 LT ISZERO PUSH2 0x574E JUMPI PUSH2 0x5741 DUP9 PUSH2 0x573C DUP4 PUSH2 0x4F36 JUMP JUMPDEST PUSH2 0x4E7C JUMP JUMPDEST PUSH1 0x20 DUP9 ADD SWAP8 POP PUSH1 0x1 DUP3 ADD SWAP2 POP JUMPDEST DUP5 DUP3 LT ISZERO PUSH2 0x5775 JUMPI PUSH2 0x5768 DUP9 PUSH2 0x5763 DUP4 PUSH2 0x4F5B JUMP JUMPDEST PUSH2 0x4E7C JUMP JUMPDEST PUSH1 0x20 DUP9 ADD SWAP8 POP PUSH1 0x1 DUP3 ADD SWAP2 POP JUMPDEST DUP5 DUP3 LT ISZERO PUSH2 0x579C JUMPI PUSH2 0x578F DUP9 PUSH2 0x578A DUP4 PUSH2 0x4F80 JUMP JUMPDEST PUSH2 0x4E7C JUMP JUMPDEST PUSH1 0x20 DUP9 ADD SWAP8 POP PUSH1 0x1 DUP3 ADD SWAP2 POP JUMPDEST DUP5 DUP3 LT ISZERO PUSH2 0x57C3 JUMPI PUSH2 0x57B6 DUP9 PUSH2 0x57B1 DUP4 PUSH2 0x4FA5 JUMP JUMPDEST PUSH2 0x4E7C JUMP JUMPDEST PUSH1 0x20 DUP9 ADD SWAP8 POP PUSH1 0x1 DUP3 ADD SWAP2 POP JUMPDEST DUP5 DUP3 LT ISZERO PUSH2 0x57EA JUMPI PUSH2 0x57DD DUP9 PUSH2 0x57D8 DUP4 PUSH2 0x4FCA JUMP JUMPDEST PUSH2 0x4E7C JUMP JUMPDEST PUSH1 0x20 DUP9 ADD SWAP8 POP PUSH1 0x1 DUP3 ADD SWAP2 POP JUMPDEST DUP5 DUP3 LT ISZERO PUSH2 0x5811 JUMPI PUSH2 0x5804 DUP9 PUSH2 0x57FF DUP4 PUSH2 0x4FEF JUMP JUMPDEST PUSH2 0x4E7C JUMP JUMPDEST PUSH1 0x20 DUP9 ADD SWAP8 POP PUSH1 0x1 DUP3 ADD SWAP2 POP JUMPDEST DUP5 DUP3 LT ISZERO PUSH2 0x5838 JUMPI PUSH2 0x582B DUP9 PUSH2 0x5826 DUP4 PUSH2 0x5014 JUMP JUMPDEST PUSH2 0x4E7C JUMP JUMPDEST PUSH1 0x20 DUP9 ADD SWAP8 POP PUSH1 0x1 DUP3 ADD SWAP2 POP JUMPDEST DUP5 DUP3 LT ISZERO PUSH2 0x585F JUMPI PUSH2 0x5852 DUP9 PUSH2 0x584D DUP4 PUSH2 0x5039 JUMP JUMPDEST PUSH2 0x4E7C JUMP JUMPDEST PUSH1 0x20 DUP9 ADD SWAP8 POP PUSH1 0x1 DUP3 ADD SWAP2 POP JUMPDEST DUP5 DUP3 LT ISZERO PUSH2 0x5886 JUMPI PUSH2 0x5879 DUP9 PUSH2 0x5874 DUP4 PUSH2 0x505E JUMP JUMPDEST PUSH2 0x4E7C JUMP JUMPDEST PUSH1 0x20 DUP9 ADD SWAP8 POP PUSH1 0x1 DUP3 ADD SWAP2 POP JUMPDEST DUP5 DUP3 LT ISZERO PUSH2 0x58AD JUMPI PUSH2 0x58A0 DUP9 PUSH2 0x589B DUP4 PUSH2 0x5083 JUMP JUMPDEST PUSH2 0x4E7C JUMP JUMPDEST PUSH1 0x20 DUP9 ADD SWAP8 POP PUSH1 0x1 DUP3 ADD SWAP2 POP JUMPDEST DUP5 DUP3 LT ISZERO PUSH2 0x58D4 JUMPI PUSH2 0x58C7 DUP9 PUSH2 0x58C2 DUP4 PUSH2 0x50A8 JUMP JUMPDEST PUSH2 0x4E7C JUMP JUMPDEST PUSH1 0x20 DUP9 ADD SWAP8 POP PUSH1 0x1 DUP3 ADD SWAP2 POP JUMPDEST DUP5 DUP3 LT ISZERO PUSH2 0x58FB JUMPI PUSH2 0x58EE DUP9 PUSH2 0x58E9 DUP4 PUSH2 0x50CD JUMP JUMPDEST PUSH2 0x4E7C JUMP JUMPDEST PUSH1 0x20 DUP9 ADD SWAP8 POP PUSH1 0x1 DUP3 ADD SWAP2 POP JUMPDEST DUP5 DUP3 LT ISZERO PUSH2 0x5922 JUMPI PUSH2 0x5915 DUP9 PUSH2 0x5910 DUP4 PUSH2 0x50F2 JUMP JUMPDEST PUSH2 0x4E7C JUMP JUMPDEST PUSH1 0x20 DUP9 ADD SWAP8 POP PUSH1 0x1 DUP3 ADD SWAP2 POP JUMPDEST DUP5 DUP3 LT ISZERO PUSH2 0x5949 JUMPI PUSH2 0x593C DUP9 PUSH2 0x5937 DUP4 PUSH2 0x5117 JUMP JUMPDEST PUSH2 0x4E7C JUMP JUMPDEST PUSH1 0x20 DUP9 ADD SWAP8 POP PUSH1 0x1 DUP3 ADD SWAP2 POP JUMPDEST DUP5 DUP3 LT ISZERO PUSH2 0x5970 JUMPI PUSH2 0x5963 DUP9 PUSH2 0x595E DUP4 PUSH2 0x513C JUMP JUMPDEST PUSH2 0x4E7C JUMP JUMPDEST PUSH1 0x20 DUP9 ADD SWAP8 POP PUSH1 0x1 DUP3 ADD SWAP2 POP JUMPDEST DUP5 DUP3 LT ISZERO PUSH2 0x5997 JUMPI PUSH2 0x598A DUP9 PUSH2 0x5985 DUP4 PUSH2 0x5161 JUMP JUMPDEST PUSH2 0x4E7C JUMP JUMPDEST PUSH1 0x20 DUP9 ADD SWAP8 POP PUSH1 0x1 DUP3 ADD SWAP2 POP JUMPDEST DUP5 DUP3 LT ISZERO PUSH2 0x59BE JUMPI PUSH2 0x59B1 DUP9 PUSH2 0x59AC DUP4 PUSH2 0x5186 JUMP JUMPDEST PUSH2 0x4E7C JUMP JUMPDEST PUSH1 0x20 DUP9 ADD SWAP8 POP PUSH1 0x1 DUP3 ADD SWAP2 POP JUMPDEST DUP5 DUP3 LT ISZERO PUSH2 0x59E5 JUMPI PUSH2 0x59D8 DUP9 PUSH2 0x59D3 DUP4 PUSH2 0x51AB JUMP JUMPDEST PUSH2 0x4E7C JUMP JUMPDEST PUSH1 0x20 DUP9 ADD SWAP8 POP PUSH1 0x1 DUP3 ADD SWAP2 POP JUMPDEST DUP5 DUP3 LT ISZERO PUSH2 0x5A0C JUMPI PUSH2 0x59FF DUP9 PUSH2 0x59FA DUP4 PUSH2 0x51D0 JUMP JUMPDEST PUSH2 0x4E7C JUMP JUMPDEST PUSH1 0x20 DUP9 ADD SWAP8 POP PUSH1 0x1 DUP3 ADD SWAP2 POP JUMPDEST DUP5 DUP3 LT ISZERO PUSH2 0x5A33 JUMPI PUSH2 0x5A26 DUP9 PUSH2 0x5A21 DUP4 PUSH2 0x51F5 JUMP JUMPDEST PUSH2 0x4E7C JUMP JUMPDEST PUSH1 0x20 DUP9 ADD SWAP8 POP PUSH1 0x1 DUP3 ADD SWAP2 POP JUMPDEST DUP5 DUP3 LT ISZERO PUSH2 0x5A5A JUMPI PUSH2 0x5A4D DUP9 PUSH2 0x5A48 DUP4 PUSH2 0x521A JUMP JUMPDEST PUSH2 0x4E7C JUMP JUMPDEST PUSH1 0x20 DUP9 ADD SWAP8 POP PUSH1 0x1 DUP3 ADD SWAP2 POP JUMPDEST DUP5 DUP3 LT ISZERO PUSH2 0x5A81 JUMPI PUSH2 0x5A74 DUP9 PUSH2 0x5A6F DUP4 PUSH2 0x523F JUMP JUMPDEST PUSH2 0x4E7C JUMP JUMPDEST PUSH1 0x20 DUP9 ADD SWAP8 POP PUSH1 0x1 DUP3 ADD SWAP2 POP JUMPDEST DUP5 DUP3 LT ISZERO PUSH2 0x5AA8 JUMPI PUSH2 0x5A9B DUP9 PUSH2 0x5A96 DUP4 PUSH2 0x5264 JUMP JUMPDEST PUSH2 0x4E7C JUMP JUMPDEST PUSH1 0x20 DUP9 ADD SWAP8 POP PUSH1 0x1 DUP3 ADD SWAP2 POP JUMPDEST DUP5 DUP3 LT ISZERO PUSH2 0x5ACF JUMPI PUSH2 0x5AC2 DUP9 PUSH2 0x5ABD DUP4 PUSH2 0x5289 JUMP JUMPDEST PUSH2 0x4E7C JUMP JUMPDEST PUSH1 0x20 DUP9 ADD SWAP8 POP PUSH1 0x1 DUP3 ADD SWAP2 POP JUMPDEST DUP5 DUP3 LT ISZERO PUSH2 0x5AF6 JUMPI PUSH2 0x5AE9 DUP9 PUSH2 0x5AE4 DUP4 PUSH2 0x52AE JUMP JUMPDEST PUSH2 0x4E7C JUMP JUMPDEST PUSH1 0x20 DUP9 ADD SWAP8 POP PUSH1 0x1 DUP3 ADD SWAP2 POP JUMPDEST DUP5 DUP3 LT ISZERO PUSH2 0x5B1D JUMPI PUSH2 0x5B10 DUP9 PUSH2 0x5B0B DUP4 PUSH2 0x52D3 JUMP JUMPDEST PUSH2 0x4E7C JUMP JUMPDEST PUSH1 0x20 DUP9 ADD SWAP8 POP PUSH1 0x1 DUP3 ADD SWAP2 POP JUMPDEST DUP5 DUP3 LT ISZERO PUSH2 0x5B44 JUMPI PUSH2 0x5B37 DUP9 PUSH2 0x5B32 DUP4 PUSH2 0x52F8 JUMP JUMPDEST PUSH2 0x4E7C JUMP JUMPDEST PUSH1 0x20 DUP9 ADD SWAP8 POP PUSH1 0x1 DUP3 ADD SWAP2 POP JUMPDEST DUP5 DUP3 LT ISZERO PUSH2 0x5B6B JUMPI PUSH2 0x5B5E DUP9 PUSH2 0x5B59 DUP4 PUSH2 0x531D JUMP JUMPDEST PUSH2 0x4E7C JUMP JUMPDEST PUSH1 0x20 DUP9 ADD SWAP8 POP PUSH1 0x1 DUP3 ADD SWAP2 POP JUMPDEST POP JUMPDEST DUP7 SWAP5 POP POP POP POP POP SWAP3 SWAP2 POP POP JUMP JUMPDEST PUSH0 PUSH1 0x20 DUP3 ADD SWAP1 POP DUP2 DUP2 SUB PUSH0 DUP4 ADD MSTORE PUSH2 0x5B92 DUP2 DUP5 PUSH2 0x5336 JUMP JUMPDEST SWAP1 POP SWAP3 SWAP2 POP POP JUMP JUMPDEST PUSH0 DUP2 SWAP1 POP SWAP2 SWAP1 POP JUMP JUMPDEST PUSH0 PUSH2 0x5BBD PUSH2 0x5BB8 PUSH2 0x5BB3 DUP5 PUSH2 0x5B9A JUMP JUMPDEST PUSH2 0x45DF JUMP JUMPDEST PUSH2 0x3D95 JUMP JUMPDEST SWAP1 POP SWAP2 SWAP1 POP JUMP JUMPDEST PUSH2 0x5BCD DUP2 PUSH2 0x5BA3 JUMP JUMPDEST DUP3 MSTORE POP POP JUMP JUMPDEST PUSH0 PUSH1 0x60 DUP3 ADD SWAP1 POP PUSH2 0x5BE6 PUSH0 DUP4 ADD DUP7 PUSH2 0x4319 JUMP JUMPDEST PUSH2 0x5BF3 PUSH1 0x20 DUP4 ADD DUP6 PUSH2 0x4319 JUMP JUMPDEST PUSH2 0x5C00 PUSH1 0x40 DUP4 ADD DUP5 PUSH2 0x5BC4 JUMP JUMPDEST SWAP5 SWAP4 POP POP POP POP JUMP JUMPDEST PUSH0 DUP2 MLOAD SWAP1 POP SWAP2 SWAP1 POP JUMP JUMPDEST PUSH0 DUP2 SWAP1 POP PUSH1 0x20 DUP3 ADD SWAP1 POP SWAP2 SWAP1 POP JUMP JUMPDEST PUSH0 PUSH2 0x5C2C DUP4 DUP4 PUSH2 0x4E7C JUMP JUMPDEST PUSH1 0x20 DUP4 ADD SWAP1 POP SWAP3 SWAP2 POP POP JUMP JUMPDEST PUSH0 PUSH1 0x20 DUP3 ADD SWAP1 POP SWAP2 SWAP1 POP JUMP JUMPDEST PUSH0 PUSH2 0x5C4E DUP3 PUSH2 0x5C08 JUMP JUMPDEST PUSH2 0x5C58 DUP2 DUP6 PUSH2 0x4E5A JUMP JUMPDEST SWAP4 POP PUSH2 0x5C63 DUP4 PUSH2 0x5C12 JUMP JUMPDEST DUP1 PUSH0 JUMPDEST DUP4 DUP2 LT ISZERO PUSH2 0x5C93 JUMPI DUP2 MLOAD PUSH2 0x5C7A DUP9 DUP3 PUSH2 0x5C21 JUMP JUMPDEST SWAP8 POP PUSH2 0x5C85 DUP4 PUSH2 0x5C38 JUMP JUMPDEST SWAP3 POP POP PUSH1 0x1 DUP2 ADD SWAP1 POP PUSH2 0x5C66 JUMP JUMPDEST POP DUP6 SWAP4 POP POP POP POP SWAP3 SWAP2 POP POP JUMP JUMPDEST PUSH0 PUSH1 0x20 DUP3 ADD SWAP1 POP DUP2 DUP2 SUB PUSH0 DUP4 ADD MSTORE PUSH2 0x5CB8 DUP2 DUP5 PUSH2 0x5C44 JUMP JUMPDEST SWAP1 POP SWAP3 SWAP2 POP POP JUMP JUMPDEST PUSH0 PUSH1 0x60 DUP3 ADD SWAP1 POP PUSH2 0x5CD3 PUSH0 DUP4 ADD DUP7 PUSH2 0x4319 JUMP JUMPDEST PUSH2 0x5CE0 PUSH1 0x20 DUP4 ADD DUP6 PUSH2 0x3D9E JUMP JUMPDEST PUSH2 0x5CED PUSH1 0x40 DUP4 ADD DUP5 PUSH2 0x3D9E JUMP JUMPDEST SWAP5 SWAP4 POP POP POP POP JUMP INVALID LOG2 PUSH5 0x6970667358 0x22 SLT KECCAK256 0xC2 DUP6 0xA8 0xD6 CALLCODE KECCAK256 SWAP5 PUSH26 0x46BB3DC26C9CAB315F751B6F8A5D5D7645285600DAA3B9816473 PUSH16 0x6C634300081600330000000000000000 "
		},
		"gasEstimates": {
			"creation": {
				"codeDepositCost": "4770200",
				"executionCost": "infinite",
				"totalCost": "infinite"
			},
			"external": {
				"allAddresses(uint256)": "5033",
				"allowance(address,address)": "infinite",
				"approve(address,uint256)": "infinite",
				"balanceOf(address)": "2919",
				"decimals()": "450",
				"delegateVoteTo(address,uint256)": "infinite",
				"donateMyGovToken(uint256)": "infinite",
				"donateUSD(uint256)": "infinite",
				"faucet()": "infinite",
				"getIsProjectFunded(uint256)": "infinite",
				"getNoOfFundedProjects()": "infinite",
				"getNoOfProjectProposals()": "2508",
				"getNoOfSurveys()": "2486",
				"getProjectInfo(uint256)": "infinite",
				"getProjectNextPayment(uint256)": "infinite",
				"getProjectOwner(uint256)": "7213",
				"getSurveyInfo(uint256)": "infinite",
				"getSurveyResults(uint256)": "infinite",
				"getUSDReceivedByProject(uint256)": "infinite",
				"getVoteForPaymentsValue(uint256)": "infinite",
				"hasDelegatedVote(uint256,address)": "3204",
				"hasTakenSurvey(address,uint256)": "3117",
				"memberHasVoted(address,uint256)": "3161",
				"memberstatus(address)": "2922",
				"name()": "infinite",
				"projectFunded(uint256)": "2919",
				"projectProposals(uint256)": "infinite",
				"projectVotes(uint256,address)": "3116",
				"reserveProjectGrant(uint256)": "infinite",
				"submitProjectProposal(string,uint256,uint256[],uint256[])": "infinite",
				"submitSurvey(string,uint256,uint256,uint256)": "infinite",
				"surveys(uint256)": "infinite",
				"symbol()": "infinite",
				"takeSurvey(uint256,uint256[])": "infinite",
				"totalReservablaAmount()": "infinite",
				"totalSupply()": "2545",
				"transfer(address,uint256)": "infinite",
				"transferFrom(address,address,uint256)": "infinite",
				"updateAndGetTotalMembers()": "infinite",
				"usdStableCoin()": "infinite",
				"voteForProjectPayments(uint256,bool[])": "infinite",
				"voteForProjectProposal(uint256,bool)": "infinite",
				"votingImpact(uint256,address)": "infinite",
				"withdrawProjectPayments(uint256)": "infinite"
			},
			"internal": {
				"calculateTotalReserve()": "infinite"
			}
		},
		"methodIdentifiers": {
			"allAddresses(uint256)": "dacc5370",
			"allowance(address,address)": "dd62ed3e",
			"approve(address,uint256)": "095ea7b3",
			"balanceOf(address)": "70a08231",
			"decimals()": "313ce567",
			"delegateVoteTo(address,uint256)": "a1669b32",
			"donateMyGovToken(uint256)": "39c94d2d",
			"donateUSD(uint256)": "d915902e",
			"faucet()": "de5f72fd",
			"getIsProjectFunded(uint256)": "7c405164",
			"getNoOfFundedProjects()": "bf50556d",
			"getNoOfProjectProposals()": "23fd498b",
			"getNoOfSurveys()": "5d801b37",
			"getProjectInfo(uint256)": "fabf5968",
			"getProjectNextPayment(uint256)": "1d2acdfd",
			"getProjectOwner(uint256)": "92256aec",
			"getSurveyInfo(uint256)": "2e8f3413",
			"getSurveyResults(uint256)": "70a56c73",
			"getUSDReceivedByProject(uint256)": "cbe0135c",
			"getVoteForPaymentsValue(uint256)": "baf8efb3",
			"hasDelegatedVote(uint256,address)": "c029aac6",
			"hasTakenSurvey(address,uint256)": "9fd0915d",
			"memberHasVoted(address,uint256)": "a220e64a",
			"memberstatus(address)": "8f827018",
			"name()": "06fdde03",
			"projectFunded(uint256)": "79585aa8",
			"projectProposals(uint256)": "dbc1d569",
			"projectVotes(uint256,address)": "d437e565",
			"reserveProjectGrant(uint256)": "bd275764",
			"submitProjectProposal(string,uint256,uint256[],uint256[])": "a5e898e1",
			"submitSurvey(string,uint256,uint256,uint256)": "ef269ae3",
			"surveys(uint256)": "86e68b90",
			"symbol()": "95d89b41",
			"takeSurvey(uint256,uint256[])": "702798df",
			"totalReservablaAmount()": "3c59605a",
			"totalSupply()": "18160ddd",
			"transfer(address,uint256)": "a9059cbb",
			"transferFrom(address,address,uint256)": "23b872dd",
			"updateAndGetTotalMembers()": "060fbe58",
			"usdStableCoin()": "dcb57dc0",
			"voteForProjectPayments(uint256,bool[])": "f190f421",
			"voteForProjectProposal(uint256,bool)": "f22449ba",
			"votingImpact(uint256,address)": "b756441b",
			"withdrawProjectPayments(uint256)": "99f7fee1"
		}
	},
	"abi": [
		{
			"inputs": [
				{
					"internalType": "address",
					"name": "_usdAddress",
					"type": "address"
				}
			],
			"stateMutability": "nonpayable",
			"type": "constructor"
		},
		{
			"inputs": [
				{
					"internalType": "address",
					"name": "spender",
					"type": "address"
				},
				{
					"internalType": "uint256",
					"name": "allowance",
					"type": "uint256"
				},
				{
					"internalType": "uint256",
					"name": "needed",
					"type": "uint256"
				}
			],
			"name": "ERC20InsufficientAllowance",
			"type": "error"
		},
		{
			"inputs": [
				{
					"internalType": "address",
					"name": "sender",
					"type": "address"
				},
				{
					"internalType": "uint256",
					"name": "balance",
					"type": "uint256"
				},
				{
					"internalType": "uint256",
					"name": "needed",
					"type": "uint256"
				}
			],
			"name": "ERC20InsufficientBalance",
			"type": "error"
		},
		{
			"inputs": [
				{
					"internalType": "address",
					"name": "approver",
					"type": "address"
				}
			],
			"name": "ERC20InvalidApprover",
			"type": "error"
		},
		{
			"inputs": [
				{
					"internalType": "address",
					"name": "receiver",
					"type": "address"
				}
			],
			"name": "ERC20InvalidReceiver",
			"type": "error"
		},
		{
			"inputs": [
				{
					"internalType": "address",
					"name": "sender",
					"type": "address"
				}
			],
			"name": "ERC20InvalidSender",
			"type": "error"
		},
		{
			"inputs": [
				{
					"internalType": "address",
					"name": "spender",
					"type": "address"
				}
			],
			"name": "ERC20InvalidSpender",
			"type": "error"
		},
		{
			"anonymous": false,
			"inputs": [
				{
					"indexed": true,
					"internalType": "address",
					"name": "owner",
					"type": "address"
				},
				{
					"indexed": true,
					"internalType": "address",
					"name": "spender",
					"type": "address"
				},
				{
					"indexed": false,
					"internalType": "uint256",
					"name": "value",
					"type": "uint256"
				}
			],
			"name": "Approval",
			"type": "event"
		},
		{
			"anonymous": false,
			"inputs": [
				{
					"indexed": true,
					"internalType": "address",
					"name": "donor",
					"type": "address"
				},
				{
					"indexed": false,
					"internalType": "uint256",
					"name": "amount",
					"type": "uint256"
				}
			],
			"name": "MyGovTokenDonated",
			"type": "event"
		},
		{
			"anonymous": false,
			"inputs": [
				{
					"indexed": true,
					"internalType": "uint256",
					"name": "projectid",
					"type": "uint256"
				},
				{
					"indexed": true,
					"internalType": "address",
					"name": "projectOwner",
					"type": "address"
				}
			],
			"name": "ProjectFundingReserved",
			"type": "event"
		},
		{
			"anonymous": false,
			"inputs": [
				{
					"indexed": true,
					"internalType": "uint256",
					"name": "projectid",
					"type": "uint256"
				},
				{
					"indexed": true,
					"internalType": "address",
					"name": "projectOwner",
					"type": "address"
				},
				{
					"indexed": false,
					"internalType": "uint256",
					"name": "amount",
					"type": "uint256"
				}
			],
			"name": "ProjectPaymentWithdrawn",
			"type": "event"
		},
		{
			"anonymous": false,
			"inputs": [
				{
					"indexed": true,
					"internalType": "uint256",
					"name": "projectid",
					"type": "uint256"
				},
				{
					"indexed": false,
					"internalType": "bool[]",
					"name": "voteForPayments",
					"type": "bool[]"
				}
			],
			"name": "ProjectPaymentsDesicion",
			"type": "event"
		},
		{
			"anonymous": false,
			"inputs": [
				{
					"indexed": true,
					"internalType": "uint256",
					"name": "projectid",
					"type": "uint256"
				},
				{
					"indexed": true,
					"internalType": "address",
					"name": "voter",
					"type": "address"
				},
				{
					"indexed": false,
					"internalType": "bool[]",
					"name": "choicePay",
					"type": "bool[]"
				}
			],
			"name": "ProjectPaymentsVoting",
			"type": "event"
		},
		{
			"anonymous": false,
			"inputs": [
				{
					"indexed": true,
					"internalType": "uint256",
					"name": "projectid",
					"type": "uint256"
				},
				{
					"indexed": true,
					"internalType": "address",
					"name": "proposalOwner",
					"type": "address"
				}
			],
			"name": "ProjectProposalSubmitted",
			"type": "event"
		},
		{
			"anonymous": false,
			"inputs": [
				{
					"indexed": true,
					"internalType": "uint256",
					"name": "projectid",
					"type": "uint256"
				},
				{
					"indexed": true,
					"internalType": "address",
					"name": "voter",
					"type": "address"
				},
				{
					"indexed": false,
					"internalType": "bool",
					"name": "choice",
					"type": "bool"
				}
			],
			"name": "ProjectVoteCasted",
			"type": "event"
		},
		{
			"anonymous": false,
			"inputs": [
				{
					"indexed": true,
					"internalType": "uint256",
					"name": "surveyId",
					"type": "uint256"
				},
				{
					"indexed": true,
					"internalType": "address",
					"name": "surveyOwner",
					"type": "address"
				}
			],
			"name": "SurveySubmitted",
			"type": "event"
		},
		{
			"anonymous": false,
			"inputs": [
				{
					"indexed": true,
					"internalType": "uint256",
					"name": "surveyId",
					"type": "uint256"
				},
				{
					"indexed": true,
					"internalType": "address",
					"name": "surveyTaker",
					"type": "address"
				},
				{
					"indexed": false,
					"internalType": "uint256[]",
					"name": "choices",
					"type": "uint256[]"
				}
			],
			"name": "SurveyTaken",
			"type": "event"
		},
		{
			"anonymous": false,
			"inputs": [
				{
					"indexed": true,
					"internalType": "address",
					"name": "from",
					"type": "address"
				},
				{
					"indexed": true,
					"internalType": "address",
					"name": "to",
					"type": "address"
				},
				{
					"indexed": false,
					"internalType": "uint256",
					"name": "value",
					"type": "uint256"
				}
			],
			"name": "Transfer",
			"type": "event"
		},
		{
			"inputs": [
				{
					"internalType": "uint256",
					"name": "",
					"type": "uint256"
				}
			],
			"name": "allAddresses",
			"outputs": [
				{
					"internalType": "address",
					"name": "",
					"type": "address"
				}
			],
			"stateMutability": "view",
			"type": "function"
		},
		{
			"inputs": [
				{
					"internalType": "address",
					"name": "owner",
					"type": "address"
				},
				{
					"internalType": "address",
					"name": "spender",
					"type": "address"
				}
			],
			"name": "allowance",
			"outputs": [
				{
					"internalType": "uint256",
					"name": "",
					"type": "uint256"
				}
			],
			"stateMutability": "view",
			"type": "function"
		},
		{
			"inputs": [
				{
					"internalType": "address",
					"name": "spender",
					"type": "address"
				},
				{
					"internalType": "uint256",
					"name": "value",
					"type": "uint256"
				}
			],
			"name": "approve",
			"outputs": [
				{
					"internalType": "bool",
					"name": "",
					"type": "bool"
				}
			],
			"stateMutability": "nonpayable",
			"type": "function"
		},
		{
			"inputs": [
				{
					"internalType": "address",
					"name": "account",
					"type": "address"
				}
			],
			"name": "balanceOf",
			"outputs": [
				{
					"internalType": "uint256",
					"name": "",
					"type": "uint256"
				}
			],
			"stateMutability": "view",
			"type": "function"
		},
		{
			"inputs": [],
			"name": "decimals",
			"outputs": [
				{
					"internalType": "uint8",
					"name": "",
					"type": "uint8"
				}
			],
			"stateMutability": "view",
			"type": "function"
		},
		{
			"inputs": [
				{
					"internalType": "address",
					"name": "delegatee",
					"type": "address"
				},
				{
					"internalType": "uint256",
					"name": "projectId",
					"type": "uint256"
				}
			],
			"name": "delegateVoteTo",
			"outputs": [],
			"stateMutability": "nonpayable",
			"type": "function"
		},
		{
			"inputs": [
				{
					"internalType": "uint256",
					"name": "amount",
					"type": "uint256"
				}
			],
			"name": "donateMyGovToken",
			"outputs": [],
			"stateMutability": "nonpayable",
			"type": "function"
		},
		{
			"inputs": [
				{
					"internalType": "uint256",
					"name": "amount",
					"type": "uint256"
				}
			],
			"name": "donateUSD",
			"outputs": [],
			"stateMutability": "nonpayable",
			"type": "function"
		},
		{
			"inputs": [],
			"name": "faucet",
			"outputs": [],
			"stateMutability": "nonpayable",
			"type": "function"
		},
		{
			"inputs": [
				{
					"internalType": "uint256",
					"name": "projectid",
					"type": "uint256"
				}
			],
			"name": "getIsProjectFunded",
			"outputs": [],
			"stateMutability": "nonpayable",
			"type": "function"
		},
		{
			"inputs": [],
			"name": "getNoOfFundedProjects",
			"outputs": [
				{
					"internalType": "uint256",
					"name": "numFunded",
					"type": "uint256"
				}
			],
			"stateMutability": "view",
			"type": "function"
		},
		{
			"inputs": [],
			"name": "getNoOfProjectProposals",
			"outputs": [
				{
					"internalType": "uint256",
					"name": "numProposals",
					"type": "uint256"
				}
			],
			"stateMutability": "view",
			"type": "function"
		},
		{
			"inputs": [],
			"name": "getNoOfSurveys",
			"outputs": [
				{
					"internalType": "uint256",
					"name": "numSurveys",
					"type": "uint256"
				}
			],
			"stateMutability": "view",
			"type": "function"
		},
		{
			"inputs": [
				{
					"internalType": "uint256",
					"name": "projectid",
					"type": "uint256"
				}
			],
			"name": "getProjectInfo",
			"outputs": [
				{
					"internalType": "string",
					"name": "ipfsHash",
					"type": "string"
				},
				{
					"internalType": "uint256",
					"name": "voteDeadline",
					"type": "uint256"
				},
				{
					"internalType": "uint256[]",
					"name": "paymentAmounts",
					"type": "uint256[]"
				},
				{
					"internalType": "uint256[]",
					"name": "paySchedule",
					"type": "uint256[]"
				}
			],
			"stateMutability": "view",
			"type": "function"
		},
		{
			"inputs": [
				{
					"internalType": "uint256",
					"name": "projectid",
					"type": "uint256"
				}
			],
			"name": "getProjectNextPayment",
			"outputs": [
				{
					"internalType": "uint256",
					"name": "nextPayment",
					"type": "uint256"
				}
			],
			"stateMutability": "view",
			"type": "function"
		},
		{
			"inputs": [
				{
					"internalType": "uint256",
					"name": "projectid",
					"type": "uint256"
				}
			],
			"name": "getProjectOwner",
			"outputs": [
				{
					"internalType": "address",
					"name": "projectOwner",
					"type": "address"
				}
			],
			"stateMutability": "view",
			"type": "function"
		},
		{
			"inputs": [
				{
					"internalType": "uint256",
					"name": "surveyId",
					"type": "uint256"
				}
			],
			"name": "getSurveyInfo",
			"outputs": [
				{
					"internalType": "string",
					"name": "ipfsHash",
					"type": "string"
				},
				{
					"internalType": "uint256",
					"name": "surveyDeadline",
					"type": "uint256"
				},
				{
					"internalType": "uint256",
					"name": "numChoices",
					"type": "uint256"
				},
				{
					"internalType": "uint256",
					"name": "atMostChoice",
					"type": "uint256"
				}
			],
			"stateMutability": "view",
			"type": "function"
		},
		{
			"inputs": [
				{
					"internalType": "uint256",
					"name": "surveyId",
					"type": "uint256"
				}
			],
			"name": "getSurveyResults",
			"outputs": [
				{
					"internalType": "uint256",
					"name": "numTaken",
					"type": "uint256"
				},
				{
					"internalType": "uint256[]",
					"name": "results",
					"type": "uint256[]"
				}
			],
			"stateMutability": "view",
			"type": "function"
		},
		{
			"inputs": [
				{
					"internalType": "uint256",
					"name": "projectid",
					"type": "uint256"
				}
			],
			"name": "getUSDReceivedByProject",
			"outputs": [
				{
					"internalType": "uint256",
					"name": "amount",
					"type": "uint256"
				}
			],
			"stateMutability": "view",
			"type": "function"
		},
		{
			"inputs": [
				{
					"internalType": "uint256",
					"name": "projectid",
					"type": "uint256"
				}
			],
			"name": "getVoteForPaymentsValue",
			"outputs": [],
			"stateMutability": "nonpayable",
			"type": "function"
		},
		{
			"inputs": [
				{
					"internalType": "uint256",
					"name": "",
					"type": "uint256"
				},
				{
					"internalType": "address",
					"name": "",
					"type": "address"
				}
			],
			"name": "hasDelegatedVote",
			"outputs": [
				{
					"internalType": "bool",
					"name": "",
					"type": "bool"
				}
			],
			"stateMutability": "view",
			"type": "function"
		},
		{
			"inputs": [
				{
					"internalType": "address",
					"name": "",
					"type": "address"
				},
				{
					"internalType": "uint256",
					"name": "",
					"type": "uint256"
				}
			],
			"name": "hasTakenSurvey",
			"outputs": [
				{
					"internalType": "bool",
					"name": "",
					"type": "bool"
				}
			],
			"stateMutability": "view",
			"type": "function"
		},
		{
			"inputs": [
				{
					"internalType": "address",
					"name": "",
					"type": "address"
				},
				{
					"internalType": "uint256",
					"name": "",
					"type": "uint256"
				}
			],
			"name": "memberHasVoted",
			"outputs": [
				{
					"internalType": "bool",
					"name": "",
					"type": "bool"
				}
			],
			"stateMutability": "view",
			"type": "function"
		},
		{
			"inputs": [
				{
					"internalType": "address",
					"name": "",
					"type": "address"
				}
			],
			"name": "memberstatus",
			"outputs": [
				{
					"internalType": "bool",
					"name": "",
					"type": "bool"
				}
			],
			"stateMutability": "view",
			"type": "function"
		},
		{
			"inputs": [],
			"name": "name",
			"outputs": [
				{
					"internalType": "string",
					"name": "",
					"type": "string"
				}
			],
			"stateMutability": "view",
			"type": "function"
		},
		{
			"inputs": [
				{
					"internalType": "uint256",
					"name": "",
					"type": "uint256"
				}
			],
			"name": "projectFunded",
			"outputs": [
				{
					"internalType": "bool",
					"name": "",
					"type": "bool"
				}
			],
			"stateMutability": "view",
			"type": "function"
		},
		{
			"inputs": [
				{
					"internalType": "uint256",
					"name": "",
					"type": "uint256"
				}
			],
			"name": "projectProposals",
			"outputs": [
				{
					"internalType": "string",
					"name": "ipfsHash",
					"type": "string"
				},
				{
					"internalType": "uint256",
					"name": "voteDeadline",
					"type": "uint256"
				},
				{
					"internalType": "uint256",
					"name": "votesFor",
					"type": "uint256"
				},
				{
					"internalType": "uint256",
					"name": "votesAgainst",
					"type": "uint256"
				},
				{
					"internalType": "bool",
					"name": "isFunded",
					"type": "bool"
				},
				{
					"internalType": "bool",
					"name": "reserved",
					"type": "bool"
				},
				{
					"internalType": "uint256",
					"name": "reservedAmount",
					"type": "uint256"
				},
				{
					"internalType": "address",
					"name": "projectOwner",
					"type": "address"
				},
				{
					"internalType": "uint256",
					"name": "usdReceived",
					"type": "uint256"
				}
			],
			"stateMutability": "view",
			"type": "function"
		},
		{
			"inputs": [
				{
					"internalType": "uint256",
					"name": "",
					"type": "uint256"
				},
				{
					"internalType": "address",
					"name": "",
					"type": "address"
				}
			],
			"name": "projectVotes",
			"outputs": [
				{
					"internalType": "bool",
					"name": "",
					"type": "bool"
				}
			],
			"stateMutability": "view",
			"type": "function"
		},
		{
			"inputs": [
				{
					"internalType": "uint256",
					"name": "projectid",
					"type": "uint256"
				}
			],
			"name": "reserveProjectGrant",
			"outputs": [],
			"stateMutability": "nonpayable",
			"type": "function"
		},
		{
			"inputs": [
				{
					"internalType": "string",
					"name": "ipfsHash",
					"type": "string"
				},
				{
					"internalType": "uint256",
					"name": "voteDeadline",
					"type": "uint256"
				},
				{
					"internalType": "uint256[]",
					"name": "paymentAmounts",
					"type": "uint256[]"
				},
				{
					"internalType": "uint256[]",
					"name": "paySchedule",
					"type": "uint256[]"
				}
			],
			"name": "submitProjectProposal",
			"outputs": [
				{
					"internalType": "uint256",
					"name": "projectId",
					"type": "uint256"
				}
			],
			"stateMutability": "nonpayable",
			"type": "function"
		},
		{
			"inputs": [
				{
					"internalType": "string",
					"name": "ipfsHash",
					"type": "string"
				},
				{
					"internalType": "uint256",
					"name": "surveyDeadline",
					"type": "uint256"
				},
				{
					"internalType": "uint256",
					"name": "numChoices",
					"type": "uint256"
				},
				{
					"internalType": "uint256",
					"name": "atMostChoice",
					"type": "uint256"
				}
			],
			"name": "submitSurvey",
			"outputs": [
				{
					"internalType": "uint256",
					"name": "surveyId",
					"type": "uint256"
				}
			],
			"stateMutability": "nonpayable",
			"type": "function"
		},
		{
			"inputs": [
				{
					"internalType": "uint256",
					"name": "",
					"type": "uint256"
				}
			],
			"name": "surveys",
			"outputs": [
				{
					"internalType": "string",
					"name": "ipfsHash",
					"type": "string"
				},
				{
					"internalType": "uint256",
					"name": "surveyDeadline",
					"type": "uint256"
				},
				{
					"internalType": "uint256",
					"name": "numChoices",
					"type": "uint256"
				},
				{
					"internalType": "uint256",
					"name": "atMostChoice",
					"type": "uint256"
				},
				{
					"internalType": "address",
					"name": "owner",
					"type": "address"
				},
				{
					"internalType": "uint256",
					"name": "takersCount",
					"type": "uint256"
				}
			],
			"stateMutability": "view",
			"type": "function"
		},
		{
			"inputs": [],
			"name": "symbol",
			"outputs": [
				{
					"internalType": "string",
					"name": "",
					"type": "string"
				}
			],
			"stateMutability": "view",
			"type": "function"
		},
		{
			"inputs": [
				{
					"internalType": "uint256",
					"name": "surveyId",
					"type": "uint256"
				},
				{
					"internalType": "uint256[]",
					"name": "choices",
					"type": "uint256[]"
				}
			],
			"name": "takeSurvey",
			"outputs": [],
			"stateMutability": "nonpayable",
			"type": "function"
		},
		{
			"inputs": [],
			"name": "totalReservablaAmount",
			"outputs": [
				{
					"internalType": "uint256",
					"name": "",
					"type": "uint256"
				}
			],
			"stateMutability": "view",
			"type": "function"
		},
		{
			"inputs": [],
			"name": "totalSupply",
			"outputs": [
				{
					"internalType": "uint256",
					"name": "",
					"type": "uint256"
				}
			],
			"stateMutability": "view",
			"type": "function"
		},
		{
			"inputs": [
				{
					"internalType": "address",
					"name": "to",
					"type": "address"
				},
				{
					"internalType": "uint256",
					"name": "value",
					"type": "uint256"
				}
			],
			"name": "transfer",
			"outputs": [
				{
					"internalType": "bool",
					"name": "",
					"type": "bool"
				}
			],
			"stateMutability": "nonpayable",
			"type": "function"
		},
		{
			"inputs": [
				{
					"internalType": "address",
					"name": "from",
					"type": "address"
				},
				{
					"internalType": "address",
					"name": "to",
					"type": "address"
				},
				{
					"internalType": "uint256",
					"name": "value",
					"type": "uint256"
				}
			],
			"name": "transferFrom",
			"outputs": [
				{
					"internalType": "bool",
					"name": "",
					"type": "bool"
				}
			],
			"stateMutability": "nonpayable",
			"type": "function"
		},
		{
			"inputs": [],
			"name": "updateAndGetTotalMembers",
			"outputs": [
				{
					"internalType": "uint256",
					"name": "totalMembers",
					"type": "uint256"
				}
			],
			"stateMutability": "nonpayable",
			"type": "function"
		},
		{
			"inputs": [],
			"name": "usdStableCoin",
			"outputs": [
				{
					"internalType": "contract ERC20",
					"name": "",
					"type": "address"
				}
			],
			"stateMutability": "view",
			"type": "function"
		},
		{
			"inputs": [
				{
					"internalType": "uint256",
					"name": "projectid",
					"type": "uint256"
				},
				{
					"internalType": "bool[]",
					"name": "choicePay",
					"type": "bool[]"
				}
			],
			"name": "voteForProjectPayments",
			"outputs": [],
			"stateMutability": "nonpayable",
			"type": "function"
		},
		{
			"inputs": [
				{
					"internalType": "uint256",
					"name": "projectid",
					"type": "uint256"
				},
				{
					"internalType": "bool",
					"name": "choice",
					"type": "bool"
				}
			],
			"name": "voteForProjectProposal",
			"outputs": [],
			"stateMutability": "nonpayable",
			"type": "function"
		},
		{
			"inputs": [
				{
					"internalType": "uint256",
					"name": "",
					"type": "uint256"
				},
				{
					"internalType": "address",
					"name": "",
					"type": "address"
				}
			],
			"name": "votingImpact",
			"outputs": [
				{
					"internalType": "uint256",
					"name": "",
					"type": "uint256"
				}
			],
			"stateMutability": "view",
			"type": "function"
		},
		{
			"inputs": [
				{
					"internalType": "uint256",
					"name": "projectid",
					"type": "uint256"
				}
			],
			"name": "withdrawProjectPayments",
			"outputs": [],
			"stateMutability": "nonpayable",
			"type": "function"
		}
	]
}