{
	"data": {
		"bytecode": {
			"linkReferences": {},
			"object": "608060405234801562000010575f80fd5b5060405162005d4538038062005d45833981810160405281019062000036919062000239565b81816040518060400160405280600b81526020017f4d79476f7620546f6b656e0000000000000000000000000000000000000000008152506040518060400160405280600281526020017f4d470000000000000000000000000000000000000000000000000000000000008152508160039081620000b59190620004e2565b508060049081620000c79190620004e2565b5050508160055f6101000a81548173ffffffffffffffffffffffffffffffffffffffff021916908373ffffffffffffffffffffffffffffffffffffffff1602179055508060065f6101000a81548173ffffffffffffffffffffffffffffffffffffffff021916908373ffffffffffffffffffffffffffffffffffffffff160217905550505081600c5f6101000a81548173ffffffffffffffffffffffffffffffffffffffff021916908373ffffffffffffffffffffffffffffffffffffffff16021790555080600d5f6101000a81548173ffffffffffffffffffffffffffffffffffffffff021916908373ffffffffffffffffffffffffffffffffffffffff1602179055505050620005c6565b5f80fd5b5f73ffffffffffffffffffffffffffffffffffffffff82169050919050565b5f6200020382620001d8565b9050919050565b6200021581620001f7565b811462000220575f80fd5b50565b5f8151905062000233816200020a565b92915050565b5f8060408385031215620002525762000251620001d4565b5b5f620002618582860162000223565b9250506020620002748582860162000223565b9150509250929050565b5f81519050919050565b7f4e487b71000000000000000000000000000000000000000000000000000000005f52604160045260245ffd5b7f4e487b71000000000000000000000000000000000000000000000000000000005f52602260045260245ffd5b5f6002820490506001821680620002fa57607f821691505b60208210810362000310576200030f620002b5565b5b50919050565b5f819050815f5260205f209050919050565b5f6020601f8301049050919050565b5f82821b905092915050565b5f60088302620003747fffffffffffffffffffffffffffffffffffffffffffffffffffffffffffffffff8262000337565b62000380868362000337565b95508019841693508086168417925050509392505050565b5f819050919050565b5f819050919050565b5f620003ca620003c4620003be8462000398565b620003a1565b62000398565b9050919050565b5f819050919050565b620003e583620003aa565b620003fd620003f482620003d1565b84845462000343565b825550505050565b5f90565b6200041362000405565b62000420818484620003da565b505050565b5b8181101562000447576200043b5f8262000409565b60018101905062000426565b5050565b601f8211156200049657620004608162000316565b6200046b8462000328565b810160208510156200047b578190505b620004936200048a8562000328565b83018262000425565b50505b505050565b5f82821c905092915050565b5f620004b85f19846008026200049b565b1980831691505092915050565b5f620004d28383620004a7565b9150826002028217905092915050565b620004ed826200027e565b67ffffffffffffffff81111562000509576200050862000288565b5b620005158254620002e2565b620005228282856200044b565b5f60209050601f83116001811462000558575f841562000543578287015190505b6200054f8582620004c5565b865550620005be565b601f198416620005688662000316565b5f5b8281101562000591578489015182556001820191506020850194506020810190506200056a565b86831015620005b15784890151620005ad601f891682620004a7565b8355505b6001600288020188555050505b505050505050565b61577180620005d45f395ff3fe608060405234801561000f575f80fd5b506004361061025c575f3560e01c806399f7fee111610144578063cbe0135c116100c1578063dcb57dc011610085578063dcb57dc0146107e6578063dd62ed3e14610804578063de5f72fd14610834578063f190f4211461083e578063f22449ba1461085a578063fabf5968146108765761025c565b8063cbe0135c14610702578063d437e56514610732578063d915902e14610762578063dacc53701461077e578063dbc1d569146107ae5761025c565b8063b756441b11610108578063b756441b1461064c578063baf8efb31461067c578063bd27576414610698578063bf50556d146106b4578063c029aac6146106d25761025c565b806399f7fee114610584578063a1669b32146105a0578063a220e64a146105bc578063a5e898e1146105ec578063a9059cbb1461061c5761025c565b8063313ce567116101dd57806379585aa8116101a157806379585aa81461049c5780637c405164146104cc5780638f827018146104e857806392256aec1461051857806395d89b4114610548578063975d82be146105665761025c565b8063313ce567146103e457806339c94d2d146104025780633c59605a1461041e5780635dec5c391461043c57806370a082311461046c5761025c565b806318160ddd1161022457806318160ddd1461032c5780631d2acdfd1461034a57806323b872dd1461037a57806323fd498b146103aa5780632ff09cd0146103c85761025c565b8063060fbe581461026057806306fdde031461027e578063095bcdb61461029c578063095ea7b3146102cc578063158a18b6146102fc575b5f80fd5b6102686108a9565b60405161027591906138b9565b60405180910390f35b610286610a4b565b604051610293919061395c565b60405180910390f35b6102b660048036038101906102b19190613a11565b610adb565b6040516102c39190613a7b565b60405180910390f35b6102e660048036038101906102e19190613a94565b610afd565b6040516102f39190613a7b565b60405180910390f35b61031660048036038101906103119190613ad2565b610b1f565b60405161032391906138b9565b60405180910390f35b610334610b65565b60405161034191906138b9565b60405180910390f35b610364600480360381019061035f9190613afd565b610b6e565b60405161037191906138b9565b60405180910390f35b610394600480360381019061038f9190613b28565b610c90565b6040516103a19190613a7b565b60405180910390f35b6103b2610cbe565b6040516103bf91906138b9565b60405180910390f35b6103e260048036038101906103dd9190613a11565b610cca565b005b6103ec610ce5565b6040516103f99190613b93565b60405180910390f35b61041c60048036038101906104179190613afd565b610ced565b005b610426610d68565b60405161043391906138b9565b60405180910390f35b61045660048036038101906104519190613ad2565b610e1e565b60405161046391906138b9565b60405180910390f35b61048660048036038101906104819190613ad2565b610e64565b60405161049391906138b9565b60405180910390f35b6104b660048036038101906104b19190613afd565b610ea9565b6040516104c39190613a7b565b60405180910390f35b6104e660048036038101906104e19190613afd565b610ec6565b005b61050260048036038101906104fd9190613ad2565b611026565b60405161050f9190613a7b565b60405180910390f35b610532600480360381019061052d9190613afd565b611043565b60405161053f9190613bbb565b60405180910390f35b61055061109e565b60405161055d919061395c565b60405180910390f35b61056e61112e565b60405161057b9190613c2f565b60405180910390f35b61059e60048036038101906105999190613afd565b611153565b005b6105ba60048036038101906105b59190613a94565b61154c565b005b6105d660048036038101906105d19190613a94565b611794565b6040516105e39190613a7b565b60405180910390f35b61060660048036038101906106019190613e38565b6117be565b60405161061391906138b9565b60405180910390f35b61063660048036038101906106319190613a94565b611d51565b6040516106439190613a7b565b60405180910390f35b61066660048036038101906106619190613ef0565b611d73565b60405161067391906138b9565b60405180910390f35b61069660048036038101906106919190613afd565b611d93565b005b6106b260048036038101906106ad9190613afd565b611f3f565b005b6106bc612122565b6040516106c991906138b9565b60405180910390f35b6106ec60048036038101906106e79190613ef0565b61217d565b6040516106f99190613a7b565b60405180910390f35b61071c60048036038101906107179190613afd565b6121a7565b60405161072991906138b9565b60405180910390f35b61074c60048036038101906107479190613ef0565b6121e3565b6040516107599190613a7b565b60405180910390f35b61077c60048036038101906107779190613afd565b61220d565b005b61079860048036038101906107939190613afd565b61235e565b6040516107a59190613bbb565b60405180910390f35b6107c860048036038101906107c39190613afd565b612399565b6040516107dd99989796959493929190613f2e565b60405180910390f35b6107ee6124b0565b6040516107fb9190613fe0565b60405180910390f35b61081e60048036038101906108199190613ff9565b6124d5565b60405161082b91906138b9565b60405180910390f35b61083c612557565b005b61085860048036038101906108539190614121565b61260c565b005b610874600480360381019061086f919061417b565b61292d565b005b610890600480360381019061088b9190613afd565b612bd7565b6040516108a09493929190614270565b60405180910390f35b5f805f90505b600980549050811015610a47576001610902600983815481106108d5576108d46142c8565b5b905f5260205f20015f9054906101000a900473ffffffffffffffffffffffffffffffffffffffff16610e64565b106109aa576001600a5f600984815481106109205761091f6142c8565b5b905f5260205f20015f9054906101000a900473ffffffffffffffffffffffffffffffffffffffff1673ffffffffffffffffffffffffffffffffffffffff1673ffffffffffffffffffffffffffffffffffffffff1681526020019081526020015f205f6101000a81548160ff02191690831515021790555081806109a290614322565b925050610a3a565b5f600a5f600984815481106109c2576109c16142c8565b5b905f5260205f20015f9054906101000a900473ffffffffffffffffffffffffffffffffffffffff1673ffffffffffffffffffffffffffffffffffffffff1673ffffffffffffffffffffffffffffffffffffffff1681526020019081526020015f205f6101000a81548160ff0219169083151502179055505b80806001019150506108af565b5090565b606060038054610a5a90614396565b80601f0160208091040260200160405190810160405280929190818152602001828054610a8690614396565b8015610ad15780601f10610aa857610100808354040283529160200191610ad1565b820191905f5260205f20905b815481529060010190602001808311610ab457829003601f168201915b5050505050905090565b5f610ae7338584612db2565b610af2338585612f42565b600190509392505050565b5f80610b0761310a565b9050610b14818585613111565b600191505092915050565b5f60085f8373ffffffffffffffffffffffffffffffffffffffff1673ffffffffffffffffffffffffffffffffffffffff1681526020019081526020015f20549050919050565b5f600254905090565b5f600e805490508210610b7f575f80fd5b5f600190505b600e8381548110610b9957610b986142c8565b5b905f5260205f2090600d0201600301805490508111158015610c1d575060011515600e8481548110610bce57610bcd6142c8565b5b905f5260205f2090600d0201600401600183610bea91906143c6565b81548110610bfb57610bfa6142c8565b5b905f5260205f2090602091828204019190069054906101000a900460ff161515145b15610c8657600e8381548110610c3657610c356142c8565b5b905f5260205f2090600d02016003018181548110610c5757610c566142c8565b5b905f5260205f200154421015610c735780915080915050610c8b565b8080610c7e90614322565b915050610b85565b505f90505b919050565b5f80610c9a61310a565b9050610ca7858285613123565b610cb28585856131b5565b60019150509392505050565b5f600e80549050905090565b610cd5338484612db2565b610ce0338483612f42565b505050565b5f6012905090565b5f8111610cf8575f80fd5b80610d0233610e64565b1015610d0c575f80fd5b610d173330836131b5565b3373ffffffffffffffffffffffffffffffffffffffff167fccb8802dd1e68ab676b6eb220a8943f6f2f7f8578c278df01aa2956d9e2f2b7c82604051610d5d91906138b9565b60405180910390a250565b5f80610d726132a5565b60065f9054906101000a900473ffffffffffffffffffffffffffffffffffffffff1673ffffffffffffffffffffffffffffffffffffffff166370a08231306040518263ffffffff1660e01b8152600401610dcc9190613bbb565b602060405180830381865afa158015610de7573d5f803e3d5ffd5b505050506040513d601f19601f82011682018060405250810190610e0b919061440d565b610e1591906143c6565b90508091505090565b5f60075f8373ffffffffffffffffffffffffffffffffffffffff1673ffffffffffffffffffffffffffffffffffffffff1681526020019081526020015f20549050919050565b5f805f8373ffffffffffffffffffffffffffffffffffffffff1673ffffffffffffffffffffffffffffffffffffffff1681526020019081526020015f20549050919050565b6011602052805f5260405f205f915054906101000a900460ff1681565b610ece6108a9565b50600e805490508110610edf575f80fd5b600a610ee96108a9565b610ef39190614465565b600e8281548110610f0757610f066142c8565b5b905f5260205f2090600d0201600701541015610f21575f80fd5b600e8181548110610f3557610f346142c8565b5b905f5260205f2090600d0201600a015460065f9054906101000a900473ffffffffffffffffffffffffffffffffffffffff1673ffffffffffffffffffffffffffffffffffffffff166370a08231306040518263ffffffff1660e01b8152600401610f9f9190613bbb565b602060405180830381865afa158015610fba573d5f803e3d5ffd5b505050506040513d601f19601f82011682018060405250810190610fde919061440d565b1015610fe8575f80fd5b6001600e8281548110610ffe57610ffd6142c8565b5b905f5260205f2090600d02016009015f6101000a81548160ff02191690831515021790555050565b600a602052805f5260405f205f915054906101000a900460ff1681565b5f600e805490508210611054575f80fd5b600e8281548110611068576110676142c8565b5b905f5260205f2090600d0201600b015f9054906101000a900473ffffffffffffffffffffffffffffffffffffffff169050919050565b6060600480546110ad90614396565b80601f01602080910402602001604051908101604052809291908181526020018280546110d990614396565b80156111245780601f106110fb57610100808354040283529160200191611124565b820191905f5260205f20905b81548152906001019060200180831161110757829003601f168201915b5050505050905090565b60055f9054906101000a900473ffffffffffffffffffffffffffffffffffffffff1681565b600e805490508110611163575f80fd5b600e8181548110611177576111766142c8565b5b905f5260205f2090600d0201600b015f9054906101000a900473ffffffffffffffffffffffffffffffffffffffff1673ffffffffffffffffffffffffffffffffffffffff163373ffffffffffffffffffffffffffffffffffffffff16146111dc575f80fd5b600e81815481106111f0576111ef6142c8565b5b905f5260205f2090600d020160090160019054906101000a900460ff16611215575f80fd5b5f5b600e828154811061122b5761122a6142c8565b5b905f5260205f2090600d02016003018054905081101561154857600e8281548110611259576112586142c8565b5b905f5260205f2090600d0201600301818154811061127a576112796142c8565b5b905f5260205f20015442111580156112e15750600e82815481106112a1576112a06142c8565b5b905f5260205f2090600d020160040181815481106112c2576112c16142c8565b5b905f5260205f2090602091828204019190069054906101000a900460ff165b1561153b5760065f9054906101000a900473ffffffffffffffffffffffffffffffffffffffff1673ffffffffffffffffffffffffffffffffffffffff166323b872dd3033600e8681548110611339576113386142c8565b5b905f5260205f2090600d0201600201858154811061135a576113596142c8565b5b905f5260205f2001546040518463ffffffff1660e01b815260040161138193929190614495565b6020604051808303815f875af115801561139d573d5f803e3d5ffd5b505050506040513d601f19601f820116820180604052508101906113c191906144de565b503373ffffffffffffffffffffffffffffffffffffffff16827f41045142a60f1b5ebb694509f75c4e837c18604c6d262604b1d28ee1f3129a46600e858154811061140f5761140e6142c8565b5b905f5260205f2090600d020160020184815481106114305761142f6142c8565b5b905f5260205f20015460405161144691906138b9565b60405180910390a3600e8281548110611462576114616142c8565b5b905f5260205f2090600d02016002018181548110611483576114826142c8565b5b905f5260205f200154600e83815481106114a05761149f6142c8565b5b905f5260205f2090600d0201600a015f8282546114bd91906143c6565b92505081905550600e82815481106114d8576114d76142c8565b5b905f5260205f2090600d020160020181815481106114f9576114f86142c8565b5b905f5260205f200154600e8381548110611516576115156142c8565b5b905f5260205f2090600d0201600c015f8282546115339190614509565b925050819055505b8080600101915050611217565b5050565b6115546108a9565b50600e80549050811080156115af5750600a5f8373ffffffffffffffffffffffffffffffffffffffff1673ffffffffffffffffffffffffffffffffffffffff1681526020019081526020015f205f9054906101000a900460ff165b8015611611575060105f8281526020019081526020015f205f3373ffffffffffffffffffffffffffffffffffffffff1673ffffffffffffffffffffffffffffffffffffffff1681526020019081526020015f205f9054906101000a900460ff16155b8015611673575060125f8281526020019081526020015f205f3373ffffffffffffffffffffffffffffffffffffffff1673ffffffffffffffffffffffffffffffffffffffff1681526020019081526020015f205f9054906101000a900460ff16155b61167b575f80fd5b600160125f8381526020019081526020015f205f3373ffffffffffffffffffffffffffffffffffffffff1673ffffffffffffffffffffffffffffffffffffffff1681526020019081526020015f205f6101000a81548160ff02191690831515021790555060135f8281526020019081526020015f205f8373ffffffffffffffffffffffffffffffffffffffff1673ffffffffffffffffffffffffffffffffffffffff1681526020019081526020015f205f81548092919061173b90614322565b91905055503373ffffffffffffffffffffffffffffffffffffffff16817f8a19902c1356176f164d6eeee88db031b1718565c98c90873907b79b920fbafe60016040516117889190613a7b565b60405180910390a35050565b600f602052815f5260405f20602052805f5260405f205f915091509054906101000a900460ff1681565b5f42841180156117e7575083825f815181106117dd576117dc6142c8565b5b6020026020010151115b6117ef575f80fd5b5f5b600183516117ff91906143c6565b81101561185e57826001826118149190614509565b81518110611825576118246142c8565b5b60200260200101518382815181106118405761183f6142c8565b5b602002602001015110611851575f80fd5b80806001019150506117f1565b50600561186a33610e64565b101580156119115750603260065f9054906101000a900473ffffffffffffffffffffffffffffffffffffffff1673ffffffffffffffffffffffffffffffffffffffff166370a08231336040518263ffffffff1660e01b81526004016118cf9190613bbb565b602060405180830381865afa1580156118ea573d5f803e3d5ffd5b505050506040513d601f19601f8201168201806040525081019061190e919061440d565b10155b611919575f80fd5b611924336005611d51565b5060065f9054906101000a900473ffffffffffffffffffffffffffffffffffffffff1673ffffffffffffffffffffffffffffffffffffffff166323b872dd333060326040518463ffffffff1660e01b815260040161198493929190614575565b6020604051808303815f875af11580156119a0573d5f803e3d5ffd5b505050506040513d601f19601f820116820180604052508101906119c491906144de565b505f805b8451811015611a06578481815181106119e4576119e36142c8565b5b6020026020010151826119f79190614509565b915080806001019150506119c8565b505f8190505f604051806101c00160405280898152602001888152602001878152602001868152602001865167ffffffffffffffff811115611a4b57611a4a613c50565b5b604051908082528060200260200182016040528015611a795781602001602082028036833780820191505090505b508152602001865167ffffffffffffffff811115611a9a57611a99613c50565b5b604051908082528060200260200182016040528015611ac85781602001602082028036833780820191505090505b508152602001865167ffffffffffffffff811115611ae957611ae8613c50565b5b604051908082528060200260200182016040528015611b175781602001602082028036833780820191505090505b5081526020015f81526020015f81526020015f151581526020015f151581526020018381526020013373ffffffffffffffffffffffffffffffffffffffff1681526020015f8152509050600e81908060018154018082558091505060019003905f5260205f2090600d02015f909190919091505f820151815f019081611b9d919061473e565b50602082015181600101556040820151816002019080519060200190611bc492919061379a565b506060820151816003019080519060200190611be192919061379a565b506080820151816004019080519060200190611bfe9291906137e5565b5060a0820151816005019080519060200190611c1b92919061379a565b5060c0820151816006019080519060200190611c3892919061379a565b5060e082015181600701556101008201518160080155610120820151816009015f6101000a81548160ff0219169083151502179055506101408201518160090160016101000a81548160ff02191690831515021790555061016082015181600a015561018082015181600b015f6101000a81548173ffffffffffffffffffffffffffffffffffffffff021916908373ffffffffffffffffffffffffffffffffffffffff1602179055506101a082015181600c015550506001600e80549050611d0091906143c6565b93503373ffffffffffffffffffffffffffffffffffffffff16847fe387d723867cd8ff0a5fbfda99c2183e0c8eb8caa297784c3e146c0d2f9d014160405160405180910390a3505050949350505050565b5f80611d5b61310a565b9050611d688185856131b5565b600191505092915050565b6013602052815f5260405f20602052805f5260405f205f91509150505481565b611d9b6108a9565b505f5b600e8281548110611db257611db16142c8565b5b905f5260205f2090600d020160030180549050811015611ee1576064611dd66108a9565b611de09190614465565b600e8381548110611df457611df36142c8565b5b905f5260205f2090600d02016005018281548110611e1557611e146142c8565b5b905f5260205f20015410611e7e5760011515600e8381548110611e3b57611e3a6142c8565b5b905f5260205f2090600d02016004018281548110611e5c57611e5b6142c8565b5b905f5260205f2090602091828204019190069054906101000a90505050611ed4565b5f1515600e8381548110611e9557611e946142c8565b5b905f5260205f2090600d02016004018281548110611eb657611eb56142c8565b5b905f5260205f2090602091828204019190069054906101000a905050505b8080600101915050611d9e565b50807f02411b9f6a1e89dc84108fa2518c56c1c8e0994043af15eec01f19f7cc996ed2600e8381548110611f1857611f176142c8565b5b905f5260205f2090600d0201600401604051611f349190615537565b60405180910390a250565b600e8054905081108015611fc05750600e8181548110611f6257611f616142c8565b5b905f5260205f2090600d0201600b015f9054906101000a900473ffffffffffffffffffffffffffffffffffffffff1673ffffffffffffffffffffffffffffffffffffffff163373ffffffffffffffffffffffffffffffffffffffff16145b8015611fef5750600e8181548110611fdb57611fda6142c8565b5b905f5260205f2090600d0201600101544211155b80156120275750600e818154811061200a576120096142c8565b5b905f5260205f2090600d02016009015f9054906101000a900460ff165b80156120615750600e8181548110612042576120416142c8565b5b905f5260205f2090600d020160090160019054906101000a900460ff16155b612069575f80fd5b600e818154811061207d5761207c6142c8565b5b905f5260205f2090600d0201600a0154612095610d68565b101561209f575f80fd5b6001600e82815481106120b5576120b46142c8565b5b905f5260205f2090600d020160090160016101000a81548160ff0219169083151502179055503373ffffffffffffffffffffffffffffffffffffffff16817f4b3a4b609559f6895d2818d4a00b0c8d09c8c1bdc7f9cbd315d3cc8279835b0a60405160405180910390a350565b5f805f90505f5b600e805490508110156121755760115f8281526020019081526020015f205f9054906101000a900460ff161561216857818061216490614322565b9250505b8080600101915050612129565b508091505090565b6012602052815f5260405f20602052805f5260405f205f915091509054906101000a900460ff1681565b5f600e8054905082106121b8575f80fd5b600e82815481106121cc576121cb6142c8565b5b905f5260205f2090600d0201600c01549050919050565b6010602052815f5260405f20602052805f5260405f205f915091509054906101000a900460ff1681565b5f8111612218575f80fd5b8060065f9054906101000a900473ffffffffffffffffffffffffffffffffffffffff1673ffffffffffffffffffffffffffffffffffffffff166370a08231336040518263ffffffff1660e01b81526004016122739190613bbb565b602060405180830381865afa15801561228e573d5f803e3d5ffd5b505050506040513d601f19601f820116820180604052508101906122b2919061440d565b10156122bc575f80fd5b60065f9054906101000a900473ffffffffffffffffffffffffffffffffffffffff1673ffffffffffffffffffffffffffffffffffffffff166323b872dd3330846040518463ffffffff1660e01b815260040161231a93929190614495565b6020604051808303815f875af1158015612336573d5f803e3d5ffd5b505050506040513d601f19601f8201168201806040525081019061235a91906144de565b5050565b6009818154811061236d575f80fd5b905f5260205f20015f915054906101000a900473ffffffffffffffffffffffffffffffffffffffff1681565b600e81815481106123a8575f80fd5b905f5260205f2090600d02015f91509050805f0180546123c790614396565b80601f01602080910402602001604051908101604052809291908181526020018280546123f390614396565b801561243e5780601f106124155761010080835404028352916020019161243e565b820191905f5260205f20905b81548152906001019060200180831161242157829003601f168201915b505050505090806001015490806007015490806008015490806009015f9054906101000a900460ff16908060090160019054906101000a900460ff169080600a01549080600b015f9054906101000a900473ffffffffffffffffffffffffffffffffffffffff169080600c0154905089565b60065f9054906101000a900473ffffffffffffffffffffffffffffffffffffffff1681565b5f60015f8473ffffffffffffffffffffffffffffffffffffffff1673ffffffffffffffffffffffffffffffffffffffff1681526020019081526020015f205f8373ffffffffffffffffffffffffffffffffffffffff1673ffffffffffffffffffffffffffffffffffffffff1681526020019081526020015f2054905092915050565b600b5f3373ffffffffffffffffffffffffffffffffffffffff1673ffffffffffffffffffffffffffffffffffffffff1681526020019081526020015f205f9054906101000a900460ff16156125aa575f80fd5b6125b5336001613333565b6001600b5f3373ffffffffffffffffffffffffffffffffffffffff1673ffffffffffffffffffffffffffffffffffffffff1681526020019081526020015f205f6101000a81548160ff021916908315150217905550565b600e80549050821080156126295750600161262633610e64565b10155b80156126575750600e8281548110612644576126436142c8565b5b905f5260205f2090600d02016001015442115b80156126b9575060125f8381526020019081526020015f205f3373ffffffffffffffffffffffffffffffffffffffff1673ffffffffffffffffffffffffffffffffffffffff1681526020019081526020015f205f9054906101000a900460ff16155b801561271b575060105f8381526020019081526020015f205f3373ffffffffffffffffffffffffffffffffffffffff1673ffffffffffffffffffffffffffffffffffffffff1681526020019081526020015f205f9054906101000a900460ff16155b612723575f80fd5b5f600160135f8581526020019081526020015f205f3373ffffffffffffffffffffffffffffffffffffffff1673ffffffffffffffffffffffffffffffffffffffff1681526020019081526020015f205461277d9190614509565b90505f61278984610b6e565b90505f5b818111612873578381815181106127a7576127a66142c8565b5b60200260200101511561280c5782600e86815481106127c9576127c86142c8565b5b905f5260205f2090600d020160050182815481106127ea576127e96142c8565b5b905f5260205f20015f8282546128009190614509565b92505081905550612860565b82600e8681548110612821576128206142c8565b5b905f5260205f2090600d02016006018281548110612842576128416142c8565b5b905f5260205f20015f8282546128589190614509565b925050819055505b808061286b90614322565b91505061278d565b50600160105f8681526020019081526020015f205f3373ffffffffffffffffffffffffffffffffffffffff1673ffffffffffffffffffffffffffffffffffffffff1681526020019081526020015f205f6101000a81548160ff0219169083151502179055503373ffffffffffffffffffffffffffffffffffffffff16847f33b88791871b035ed3fea6313b68632ccca172c35d8ae00a6d595ce65f1a71558560405161291f91906155ef565b60405180910390a350505050565b600e805490508210801561294a5750600161294733610e64565b10155b80156129795750600e8281548110612965576129646142c8565b5b905f5260205f2090600d0201600101544211155b80156129db575060125f8381526020019081526020015f205f3373ffffffffffffffffffffffffffffffffffffffff1673ffffffffffffffffffffffffffffffffffffffff1681526020019081526020015f205f9054906101000a900460ff16155b8015612a3d575060105f8381526020019081526020015f205f3373ffffffffffffffffffffffffffffffffffffffff1673ffffffffffffffffffffffffffffffffffffffff1681526020019081526020015f205f9054906101000a900460ff16155b612a45575f80fd5b5f600160135f8581526020019081526020015f205f3373ffffffffffffffffffffffffffffffffffffffff1673ffffffffffffffffffffffffffffffffffffffff1681526020019081526020015f2054612a9f9190614509565b90508115612ae55780600e8481548110612abc57612abb6142c8565b5b905f5260205f2090600d02016007015f828254612ad99190614509565b92505081905550612b1f565b80600e8481548110612afa57612af96142c8565b5b905f5260205f2090600d02016008015f828254612b179190614509565b925050819055505b600160105f8581526020019081526020015f205f3373ffffffffffffffffffffffffffffffffffffffff1673ffffffffffffffffffffffffffffffffffffffff1681526020019081526020015f205f6101000a81548160ff0219169083151502179055503373ffffffffffffffffffffffffffffffffffffffff16837f8a19902c1356176f164d6eeee88db031b1718565c98c90873907b79b920fbafe84604051612bca9190613a7b565b60405180910390a3505050565b60605f606080600e805490508510612bed575f80fd5b600e8581548110612c0157612c006142c8565b5b905f5260205f2090600d02015f01600e8681548110612c2357612c226142c8565b5b905f5260205f2090600d020160010154600e8781548110612c4757612c466142c8565b5b905f5260205f2090600d0201600201600e8881548110612c6a57612c696142c8565b5b905f5260205f2090600d0201600301838054612c8590614396565b80601f0160208091040260200160405190810160405280929190818152602001828054612cb190614396565b8015612cfc5780601f10612cd357610100808354040283529160200191612cfc565b820191905f5260205f20905b815481529060010190602001808311612cdf57829003601f168201915b5050505050935081805480602002602001604051908101604052809291908181526020018280548015612d4c57602002820191905f5260205f20905b815481526020019060010190808311612d38575b5050505050915080805480602002602001604051908101604052809291908181526020018280548015612d9c57602002820191905f5260205f20905b815481526020019060010190808311612d88575b5050505050905093509350935093509193509193565b8060075f8573ffffffffffffffffffffffffffffffffffffffff1673ffffffffffffffffffffffffffffffffffffffff1681526020019081526020015f20541015612e32576040517f08c379a0000000000000000000000000000000000000000000000000000000008152600401612e2990615659565b60405180910390fd5b8060075f8573ffffffffffffffffffffffffffffffffffffffff1673ffffffffffffffffffffffffffffffffffffffff1681526020019081526020015f205f828254612e7e91906143c6565b925050819055508060075f8473ffffffffffffffffffffffffffffffffffffffff1673ffffffffffffffffffffffffffffffffffffffff1681526020019081526020015f205f828254612ed19190614509565b925050819055508173ffffffffffffffffffffffffffffffffffffffff168373ffffffffffffffffffffffffffffffffffffffff167fddf252ad1be2c89b69c2b068fc378daa952ba7f163c4a11628f55a4df523b3ef83604051612f3591906138b9565b60405180910390a3505050565b8060085f8573ffffffffffffffffffffffffffffffffffffffff1673ffffffffffffffffffffffffffffffffffffffff1681526020019081526020015f20541015612fc2576040517f08c379a0000000000000000000000000000000000000000000000000000000008152600401612fb9906156c1565b60405180910390fd5b8060085f8573ffffffffffffffffffffffffffffffffffffffff1673ffffffffffffffffffffffffffffffffffffffff1681526020019081526020015f205f82825461300e91906143c6565b925050819055508060085f8473ffffffffffffffffffffffffffffffffffffffff1673ffffffffffffffffffffffffffffffffffffffff1681526020019081526020015f205f8282546130619190614509565b9250508190555060065f9054906101000a900473ffffffffffffffffffffffffffffffffffffffff1673ffffffffffffffffffffffffffffffffffffffff1663a9059cbb83836040518363ffffffff1660e01b81526004016130c49291906156df565b6020604051808303815f875af11580156130e0573d5f803e3d5ffd5b505050506040513d601f19601f8201168201806040525081019061310491906144de565b50505050565b5f33905090565b61311e83838360016133b2565b505050565b5f61312e84846124d5565b90507fffffffffffffffffffffffffffffffffffffffffffffffffffffffffffffffff81146131af57818110156131a0578281836040517ffb8f41b200000000000000000000000000000000000000000000000000000000815260040161319793929190615706565b60405180910390fd5b6131ae84848484035f6133b2565b5b50505050565b5f73ffffffffffffffffffffffffffffffffffffffff168373ffffffffffffffffffffffffffffffffffffffff1603613225575f6040517f96c6fd1e00000000000000000000000000000000000000000000000000000000815260040161321c9190613bbb565b60405180910390fd5b5f73ffffffffffffffffffffffffffffffffffffffff168273ffffffffffffffffffffffffffffffffffffffff1603613295575f6040517fec442f0500000000000000000000000000000000000000000000000000000000815260040161328c9190613bbb565b60405180910390fd5b6132a0838383613581565b505050565b5f805f90505b600e8054905081101561332f57600e81815481106132cc576132cb6142c8565b5b905f5260205f2090600d020160090160019054906101000a900460ff166132f1575f80fd5b600e8181548110613305576133046142c8565b5b905f5260205f2090600d0201600a0154826133209190614509565b915080806001019150506132ab565b5090565b5f73ffffffffffffffffffffffffffffffffffffffff168273ffffffffffffffffffffffffffffffffffffffff16036133a3575f6040517fec442f0500000000000000000000000000000000000000000000000000000000815260040161339a9190613bbb565b60405180910390fd5b6133ae5f8383613581565b5050565b5f73ffffffffffffffffffffffffffffffffffffffff168473ffffffffffffffffffffffffffffffffffffffff1603613422575f6040517fe602df050000000000000000000000000000000000000000000000000000000081526004016134199190613bbb565b60405180910390fd5b5f73ffffffffffffffffffffffffffffffffffffffff168373ffffffffffffffffffffffffffffffffffffffff1603613492575f6040517f94280d620000000000000000000000000000000000000000000000000000000081526004016134899190613bbb565b60405180910390fd5b8160015f8673ffffffffffffffffffffffffffffffffffffffff1673ffffffffffffffffffffffffffffffffffffffff1681526020019081526020015f205f8573ffffffffffffffffffffffffffffffffffffffff1673ffffffffffffffffffffffffffffffffffffffff1681526020019081526020015f2081905550801561357b578273ffffffffffffffffffffffffffffffffffffffff168473ffffffffffffffffffffffffffffffffffffffff167f8c5be1e5ebec7d5bd14f71427d1e84f3dd0314c0f7b2291e5b200ac8c7c3b9258460405161357291906138b9565b60405180910390a35b50505050565b5f73ffffffffffffffffffffffffffffffffffffffff168373ffffffffffffffffffffffffffffffffffffffff16036135d1578060025f8282546135c59190614509565b9250508190555061369f565b5f805f8573ffffffffffffffffffffffffffffffffffffffff1673ffffffffffffffffffffffffffffffffffffffff1681526020019081526020015f205490508181101561365a578381836040517fe450d38c00000000000000000000000000000000000000000000000000000000815260040161365193929190615706565b60405180910390fd5b8181035f808673ffffffffffffffffffffffffffffffffffffffff1673ffffffffffffffffffffffffffffffffffffffff1681526020019081526020015f2081905550505b5f73ffffffffffffffffffffffffffffffffffffffff168273ffffffffffffffffffffffffffffffffffffffff16036136e6578060025f8282540392505081905550613730565b805f808473ffffffffffffffffffffffffffffffffffffffff1673ffffffffffffffffffffffffffffffffffffffff1681526020019081526020015f205f82825401925050819055505b8173ffffffffffffffffffffffffffffffffffffffff168373ffffffffffffffffffffffffffffffffffffffff167fddf252ad1be2c89b69c2b068fc378daa952ba7f163c4a11628f55a4df523b3ef8360405161378d91906138b9565b60405180910390a3505050565b828054828255905f5260205f209081019282156137d4579160200282015b828111156137d35782518255916020019190600101906137b8565b5b5090506137e19190613886565b5090565b828054828255905f5260205f2090601f01602090048101928215613875579160200282015f5b8382111561384757835183826101000a81548160ff02191690831515021790555092602001926001016020815f0104928301926001030261380b565b80156138735782816101000a81549060ff02191690556001016020815f01049283019260010302613847565b505b5090506138829190613886565b5090565b5b8082111561389d575f815f905550600101613887565b5090565b5f819050919050565b6138b3816138a1565b82525050565b5f6020820190506138cc5f8301846138aa565b92915050565b5f81519050919050565b5f82825260208201905092915050565b5f5b838110156139095780820151818401526020810190506138ee565b5f8484015250505050565b5f601f19601f8301169050919050565b5f61392e826138d2565b61393881856138dc565b93506139488185602086016138ec565b61395181613914565b840191505092915050565b5f6020820190508181035f8301526139748184613924565b905092915050565b5f604051905090565b5f80fd5b5f80fd5b5f73ffffffffffffffffffffffffffffffffffffffff82169050919050565b5f6139b68261398d565b9050919050565b6139c6816139ac565b81146139d0575f80fd5b50565b5f813590506139e1816139bd565b92915050565b6139f0816138a1565b81146139fa575f80fd5b50565b5f81359050613a0b816139e7565b92915050565b5f805f60608486031215613a2857613a27613985565b5b5f613a35868287016139d3565b9350506020613a46868287016139fd565b9250506040613a57868287016139fd565b9150509250925092565b5f8115159050919050565b613a7581613a61565b82525050565b5f602082019050613a8e5f830184613a6c565b92915050565b5f8060408385031215613aaa57613aa9613985565b5b5f613ab7858286016139d3565b9250506020613ac8858286016139fd565b9150509250929050565b5f60208284031215613ae757613ae6613985565b5b5f613af4848285016139d3565b91505092915050565b5f60208284031215613b1257613b11613985565b5b5f613b1f848285016139fd565b91505092915050565b5f805f60608486031215613b3f57613b3e613985565b5b5f613b4c868287016139d3565b9350506020613b5d868287016139d3565b9250506040613b6e868287016139fd565b9150509250925092565b5f60ff82169050919050565b613b8d81613b78565b82525050565b5f602082019050613ba65f830184613b84565b92915050565b613bb5816139ac565b82525050565b5f602082019050613bce5f830184613bac565b92915050565b5f819050919050565b5f613bf7613bf2613bed8461398d565b613bd4565b61398d565b9050919050565b5f613c0882613bdd565b9050919050565b5f613c1982613bfe565b9050919050565b613c2981613c0f565b82525050565b5f602082019050613c425f830184613c20565b92915050565b5f80fd5b5f80fd5b7f4e487b71000000000000000000000000000000000000000000000000000000005f52604160045260245ffd5b613c8682613914565b810181811067ffffffffffffffff82111715613ca557613ca4613c50565b5b80604052505050565b5f613cb761397c565b9050613cc38282613c7d565b919050565b5f67ffffffffffffffff821115613ce257613ce1613c50565b5b613ceb82613914565b9050602081019050919050565b828183375f83830152505050565b5f613d18613d1384613cc8565b613cae565b905082815260208101848484011115613d3457613d33613c4c565b5b613d3f848285613cf8565b509392505050565b5f82601f830112613d5b57613d5a613c48565b5b8135613d6b848260208601613d06565b91505092915050565b5f67ffffffffffffffff821115613d8e57613d8d613c50565b5b602082029050602081019050919050565b5f80fd5b5f613db5613db084613d74565b613cae565b90508083825260208201905060208402830185811115613dd857613dd7613d9f565b5b835b81811015613e015780613ded88826139fd565b845260208401935050602081019050613dda565b5050509392505050565b5f82601f830112613e1f57613e1e613c48565b5b8135613e2f848260208601613da3565b91505092915050565b5f805f8060808587031215613e5057613e4f613985565b5b5f85013567ffffffffffffffff811115613e6d57613e6c613989565b5b613e7987828801613d47565b9450506020613e8a878288016139fd565b935050604085013567ffffffffffffffff811115613eab57613eaa613989565b5b613eb787828801613e0b565b925050606085013567ffffffffffffffff811115613ed857613ed7613989565b5b613ee487828801613e0b565b91505092959194509250565b5f8060408385031215613f0657613f05613985565b5b5f613f13858286016139fd565b9250506020613f24858286016139d3565b9150509250929050565b5f610120820190508181035f830152613f47818c613924565b9050613f56602083018b6138aa565b613f63604083018a6138aa565b613f7060608301896138aa565b613f7d6080830188613a6c565b613f8a60a0830187613a6c565b613f9760c08301866138aa565b613fa460e0830185613bac565b613fb26101008301846138aa565b9a9950505050505050505050565b5f613fca82613bfe565b9050919050565b613fda81613fc0565b82525050565b5f602082019050613ff35f830184613fd1565b92915050565b5f806040838503121561400f5761400e613985565b5b5f61401c858286016139d3565b925050602061402d858286016139d3565b9150509250929050565b5f67ffffffffffffffff82111561405157614050613c50565b5b602082029050602081019050919050565b61406b81613a61565b8114614075575f80fd5b50565b5f8135905061408681614062565b92915050565b5f61409e61409984614037565b613cae565b905080838252602082019050602084028301858111156140c1576140c0613d9f565b5b835b818110156140ea57806140d68882614078565b8452602084019350506020810190506140c3565b5050509392505050565b5f82601f83011261410857614107613c48565b5b813561411884826020860161408c565b91505092915050565b5f806040838503121561413757614136613985565b5b5f614144858286016139fd565b925050602083013567ffffffffffffffff81111561416557614164613989565b5b614171858286016140f4565b9150509250929050565b5f806040838503121561419157614190613985565b5b5f61419e858286016139fd565b92505060206141af85828601614078565b9150509250929050565b5f81519050919050565b5f82825260208201905092915050565b5f819050602082019050919050565b6141eb816138a1565b82525050565b5f6141fc83836141e2565b60208301905092915050565b5f602082019050919050565b5f61421e826141b9565b61422881856141c3565b9350614233836141d3565b805f5b8381101561426357815161424a88826141f1565b975061425583614208565b925050600181019050614236565b5085935050505092915050565b5f6080820190508181035f8301526142888187613924565b905061429760208301866138aa565b81810360408301526142a98185614214565b905081810360608301526142bd8184614214565b905095945050505050565b7f4e487b71000000000000000000000000000000000000000000000000000000005f52603260045260245ffd5b7f4e487b71000000000000000000000000000000000000000000000000000000005f52601160045260245ffd5b5f61432c826138a1565b91507fffffffffffffffffffffffffffffffffffffffffffffffffffffffffffffffff820361435e5761435d6142f5565b5b600182019050919050565b7f4e487b71000000000000000000000000000000000000000000000000000000005f52602260045260245ffd5b5f60028204905060018216806143ad57607f821691505b6020821081036143c0576143bf614369565b5b50919050565b5f6143d0826138a1565b91506143db836138a1565b92508282039050818111156143f3576143f26142f5565b5b92915050565b5f81519050614407816139e7565b92915050565b5f6020828403121561442257614421613985565b5b5f61442f848285016143f9565b91505092915050565b7f4e487b71000000000000000000000000000000000000000000000000000000005f52601260045260245ffd5b5f61446f826138a1565b915061447a836138a1565b92508261448a57614489614438565b5b828204905092915050565b5f6060820190506144a85f830186613bac565b6144b56020830185613bac565b6144c260408301846138aa565b949350505050565b5f815190506144d881614062565b92915050565b5f602082840312156144f3576144f2613985565b5b5f614500848285016144ca565b91505092915050565b5f614513826138a1565b915061451e836138a1565b9250828201905080821115614536576145356142f5565b5b92915050565b5f819050919050565b5f61455f61455a6145558461453c565b613bd4565b6138a1565b9050919050565b61456f81614545565b82525050565b5f6060820190506145885f830186613bac565b6145956020830185613bac565b6145a26040830184614566565b949350505050565b5f819050815f5260205f209050919050565b5f6020601f8301049050919050565b5f82821b905092915050565b5f600883026146067fffffffffffffffffffffffffffffffffffffffffffffffffffffffffffffffff826145cb565b61461086836145cb565b95508019841693508086168417925050509392505050565b5f61464261463d614638846138a1565b613bd4565b6138a1565b9050919050565b5f819050919050565b61465b83614628565b61466f61466782614649565b8484546145d7565b825550505050565b5f90565b614683614677565b61468e818484614652565b505050565b5b818110156146b1576146a65f8261467b565b600181019050614694565b5050565b601f8211156146f6576146c7816145aa565b6146d0846145bc565b810160208510156146df578190505b6146f36146eb856145bc565b830182614693565b50505b505050565b5f82821c905092915050565b5f6147165f19846008026146fb565b1980831691505092915050565b5f61472e8383614707565b9150826002028217905092915050565b614747826138d2565b67ffffffffffffffff8111156147605761475f613c50565b5b61476a8254614396565b6147758282856146b5565b5f60209050601f8311600181146147a6575f8415614794578287015190505b61479e8582614723565b865550614805565b601f1984166147b4866145aa565b5f5b828110156147db578489015182556001820191506020850194506020810190506147b6565b868310156147f857848901516147f4601f891682614707565b8355505b6001600288020188555050505b505050505050565b5f81549050919050565b5f82825260208201905092915050565b5f819050815f5260205f209050919050565b61484281613a61565b82525050565b5f815f1c9050919050565b5f60ff82169050919050565b5f61487161486c83614848565b614853565b9050919050565b5f8160081c9050919050565b5f61489661489183614878565b614853565b9050919050565b5f8160101c9050919050565b5f6148bb6148b68361489d565b614853565b9050919050565b5f8160181c9050919050565b5f6148e06148db836148c2565b614853565b9050919050565b5f8160201c9050919050565b5f614905614900836148e7565b614853565b9050919050565b5f8160281c9050919050565b5f61492a6149258361490c565b614853565b9050919050565b5f8160301c9050919050565b5f61494f61494a83614931565b614853565b9050919050565b5f8160381c9050919050565b5f61497461496f83614956565b614853565b9050919050565b5f8160401c9050919050565b5f6149996149948361497b565b614853565b9050919050565b5f8160481c9050919050565b5f6149be6149b9836149a0565b614853565b9050919050565b5f8160501c9050919050565b5f6149e36149de836149c5565b614853565b9050919050565b5f8160581c9050919050565b5f614a08614a03836149ea565b614853565b9050919050565b5f8160601c9050919050565b5f614a2d614a2883614a0f565b614853565b9050919050565b5f8160681c9050919050565b5f614a52614a4d83614a34565b614853565b9050919050565b5f8160701c9050919050565b5f614a77614a7283614a59565b614853565b9050919050565b5f8160781c9050919050565b5f614a9c614a9783614a7e565b614853565b9050919050565b5f8160801c9050919050565b5f614ac1614abc83614aa3565b614853565b9050919050565b5f8160881c9050919050565b5f614ae6614ae183614ac8565b614853565b9050919050565b5f8160901c9050919050565b5f614b0b614b0683614aed565b614853565b9050919050565b5f8160981c9050919050565b5f614b30614b2b83614b12565b614853565b9050919050565b5f8160a01c9050919050565b5f614b55614b5083614b37565b614853565b9050919050565b5f8160a81c9050919050565b5f614b7a614b7583614b5c565b614853565b9050919050565b5f8160b01c9050919050565b5f614b9f614b9a83614b81565b614853565b9050919050565b5f8160b81c9050919050565b5f614bc4614bbf83614ba6565b614853565b9050919050565b5f8160c01c9050919050565b5f614be9614be483614bcb565b614853565b9050919050565b5f8160c81c9050919050565b5f614c0e614c0983614bf0565b614853565b9050919050565b5f8160d01c9050919050565b5f614c33614c2e83614c15565b614853565b9050919050565b5f8160d81c9050919050565b5f614c58614c5383614c3a565b614853565b9050919050565b5f8160e01c9050919050565b5f614c7d614c7883614c5f565b614853565b9050919050565b5f8160e81c9050919050565b5f614ca2614c9d83614c84565b614853565b9050919050565b5f8160f01c9050919050565b5f614cc7614cc283614ca9565b614853565b9050919050565b5f8160f81c9050919050565b5f614cec614ce783614cce565b614853565b9050919050565b5f614cfd8261480d565b614d078185614817565b935083614d1384614827565b5f60011561503f575b8360016020038201101561503e578154614d3e88614d398361485f565b614839565b602088019750614d5688614d5183614884565b614839565b602088019750614d6e88614d69836148a9565b614839565b602088019750614d8688614d81836148ce565b614839565b602088019750614d9e88614d99836148f3565b614839565b602088019750614db688614db183614918565b614839565b602088019750614dce88614dc98361493d565b614839565b602088019750614de688614de183614962565b614839565b602088019750614dfe88614df983614987565b614839565b602088019750614e1688614e11836149ac565b614839565b602088019750614e2e88614e29836149d1565b614839565b602088019750614e4688614e41836149f6565b614839565b602088019750614e5e88614e5983614a1b565b614839565b602088019750614e7688614e7183614a40565b614839565b602088019750614e8e88614e8983614a65565b614839565b602088019750614ea688614ea183614a8a565b614839565b602088019750614ebe88614eb983614aaf565b614839565b602088019750614ed688614ed183614ad4565b614839565b602088019750614eee88614ee983614af9565b614839565b602088019750614f0688614f0183614b1e565b614839565b602088019750614f1e88614f1983614b43565b614839565b602088019750614f3688614f3183614b68565b614839565b602088019750614f4e88614f4983614b8d565b614839565b602088019750614f6688614f6183614bb2565b614839565b602088019750614f7e88614f7983614bd7565b614839565b602088019750614f9688614f9183614bfc565b614839565b602088019750614fae88614fa983614c21565b614839565b602088019750614fc688614fc183614c46565b614839565b602088019750614fde88614fd983614c6b565b614839565b602088019750614ff688614ff183614c90565b614839565b60208801975061500e8861500983614cb5565b614839565b6020880197506150268861502183614cda565b614839565b60208801975060018301925050602081019050614d1c565b5b60011561552a5781548482101561506f576150628861505d8361485f565b614839565b6020880197506001820191505b84821015615096576150898861508483614884565b614839565b6020880197506001820191505b848210156150bd576150b0886150ab836148a9565b614839565b6020880197506001820191505b848210156150e4576150d7886150d2836148ce565b614839565b6020880197506001820191505b8482101561510b576150fe886150f9836148f3565b614839565b6020880197506001820191505b84821015615132576151258861512083614918565b614839565b6020880197506001820191505b848210156151595761514c886151478361493d565b614839565b6020880197506001820191505b84821015615180576151738861516e83614962565b614839565b6020880197506001820191505b848210156151a75761519a8861519583614987565b614839565b6020880197506001820191505b848210156151ce576151c1886151bc836149ac565b614839565b6020880197506001820191505b848210156151f5576151e8886151e3836149d1565b614839565b6020880197506001820191505b8482101561521c5761520f8861520a836149f6565b614839565b6020880197506001820191505b84821015615243576152368861523183614a1b565b614839565b6020880197506001820191505b8482101561526a5761525d8861525883614a40565b614839565b6020880197506001820191505b84821015615291576152848861527f83614a65565b614839565b6020880197506001820191505b848210156152b8576152ab886152a683614a8a565b614839565b6020880197506001820191505b848210156152df576152d2886152cd83614aaf565b614839565b6020880197506001820191505b84821015615306576152f9886152f483614ad4565b614839565b6020880197506001820191505b8482101561532d576153208861531b83614af9565b614839565b6020880197506001820191505b84821015615354576153478861534283614b1e565b614839565b6020880197506001820191505b8482101561537b5761536e8861536983614b43565b614839565b6020880197506001820191505b848210156153a2576153958861539083614b68565b614839565b6020880197506001820191505b848210156153c9576153bc886153b783614b8d565b614839565b6020880197506001820191505b848210156153f0576153e3886153de83614bb2565b614839565b6020880197506001820191505b848210156154175761540a8861540583614bd7565b614839565b6020880197506001820191505b8482101561543e576154318861542c83614bfc565b614839565b6020880197506001820191505b84821015615465576154588861545383614c21565b614839565b6020880197506001820191505b8482101561548c5761547f8861547a83614c46565b614839565b6020880197506001820191505b848210156154b3576154a6886154a183614c6b565b614839565b6020880197506001820191505b848210156154da576154cd886154c883614c90565b614839565b6020880197506001820191505b84821015615501576154f4886154ef83614cb5565b614839565b6020880197506001820191505b848210156155285761551b8861551683614cda565b614839565b6020880197506001820191505b505b8694505050505092915050565b5f6020820190508181035f83015261554f8184614cf3565b905092915050565b5f81519050919050565b5f819050602082019050919050565b5f61557b8383614839565b60208301905092915050565b5f602082019050919050565b5f61559d82615557565b6155a78185614817565b93506155b283615561565b805f5b838110156155e25781516155c98882615570565b97506155d483615587565b9250506001810190506155b5565b5085935050505092915050565b5f6020820190508181035f8301526156078184615593565b905092915050565b7f496e73756666696369656e74204d79476f762062616c616e63650000000000005f82015250565b5f615643601a836138dc565b915061564e8261560f565b602082019050919050565b5f6020820190508181035f83015261567081615637565b9050919050565b7f496e73756666696369656e74205553442062616c616e636500000000000000005f82015250565b5f6156ab6018836138dc565b91506156b682615677565b602082019050919050565b5f6020820190508181035f8301526156d88161569f565b9050919050565b5f6040820190506156f25f830185613bac565b6156ff60208301846138aa565b9392505050565b5f6060820190506157195f830186613bac565b61572660208301856138aa565b61573360408301846138aa565b94935050505056fea264697066735822122078af75da65ae401729d309fd180497ee81002bec67ab99a08367509741b33f4464736f6c63430008160033",
			"opcodes": "PUSH1 0x80 PUSH1 0x40 MSTORE CALLVALUE DUP1 ISZERO PUSH3 0x10 JUMPI PUSH0 DUP1 REVERT JUMPDEST POP PUSH1 0x40 MLOAD PUSH3 0x5D45 CODESIZE SUB DUP1 PUSH3 0x5D45 DUP4 CODECOPY DUP2 DUP2 ADD PUSH1 0x40 MSTORE DUP2 ADD SWAP1 PUSH3 0x36 SWAP2 SWAP1 PUSH3 0x239 JUMP JUMPDEST DUP2 DUP2 PUSH1 0x40 MLOAD DUP1 PUSH1 0x40 ADD PUSH1 0x40 MSTORE DUP1 PUSH1 0xB DUP2 MSTORE PUSH1 0x20 ADD PUSH32 0x4D79476F7620546F6B656E000000000000000000000000000000000000000000 DUP2 MSTORE POP PUSH1 0x40 MLOAD DUP1 PUSH1 0x40 ADD PUSH1 0x40 MSTORE DUP1 PUSH1 0x2 DUP2 MSTORE PUSH1 0x20 ADD PUSH32 0x4D47000000000000000000000000000000000000000000000000000000000000 DUP2 MSTORE POP DUP2 PUSH1 0x3 SWAP1 DUP2 PUSH3 0xB5 SWAP2 SWAP1 PUSH3 0x4E2 JUMP JUMPDEST POP DUP1 PUSH1 0x4 SWAP1 DUP2 PUSH3 0xC7 SWAP2 SWAP1 PUSH3 0x4E2 JUMP JUMPDEST POP POP POP DUP2 PUSH1 0x5 PUSH0 PUSH2 0x100 EXP DUP2 SLOAD DUP2 PUSH20 0xFFFFFFFFFFFFFFFFFFFFFFFFFFFFFFFFFFFFFFFF MUL NOT AND SWAP1 DUP4 PUSH20 0xFFFFFFFFFFFFFFFFFFFFFFFFFFFFFFFFFFFFFFFF AND MUL OR SWAP1 SSTORE POP DUP1 PUSH1 0x6 PUSH0 PUSH2 0x100 EXP DUP2 SLOAD DUP2 PUSH20 0xFFFFFFFFFFFFFFFFFFFFFFFFFFFFFFFFFFFFFFFF MUL NOT AND SWAP1 DUP4 PUSH20 0xFFFFFFFFFFFFFFFFFFFFFFFFFFFFFFFFFFFFFFFF AND MUL OR SWAP1 SSTORE POP POP POP DUP2 PUSH1 0xC PUSH0 PUSH2 0x100 EXP DUP2 SLOAD DUP2 PUSH20 0xFFFFFFFFFFFFFFFFFFFFFFFFFFFFFFFFFFFFFFFF MUL NOT AND SWAP1 DUP4 PUSH20 0xFFFFFFFFFFFFFFFFFFFFFFFFFFFFFFFFFFFFFFFF AND MUL OR SWAP1 SSTORE POP DUP1 PUSH1 0xD PUSH0 PUSH2 0x100 EXP DUP2 SLOAD DUP2 PUSH20 0xFFFFFFFFFFFFFFFFFFFFFFFFFFFFFFFFFFFFFFFF MUL NOT AND SWAP1 DUP4 PUSH20 0xFFFFFFFFFFFFFFFFFFFFFFFFFFFFFFFFFFFFFFFF AND MUL OR SWAP1 SSTORE POP POP POP PUSH3 0x5C6 JUMP JUMPDEST PUSH0 DUP1 REVERT JUMPDEST PUSH0 PUSH20 0xFFFFFFFFFFFFFFFFFFFFFFFFFFFFFFFFFFFFFFFF DUP3 AND SWAP1 POP SWAP2 SWAP1 POP JUMP JUMPDEST PUSH0 PUSH3 0x203 DUP3 PUSH3 0x1D8 JUMP JUMPDEST SWAP1 POP SWAP2 SWAP1 POP JUMP JUMPDEST PUSH3 0x215 DUP2 PUSH3 0x1F7 JUMP JUMPDEST DUP2 EQ PUSH3 0x220 JUMPI PUSH0 DUP1 REVERT JUMPDEST POP JUMP JUMPDEST PUSH0 DUP2 MLOAD SWAP1 POP PUSH3 0x233 DUP2 PUSH3 0x20A JUMP JUMPDEST SWAP3 SWAP2 POP POP JUMP JUMPDEST PUSH0 DUP1 PUSH1 0x40 DUP4 DUP6 SUB SLT ISZERO PUSH3 0x252 JUMPI PUSH3 0x251 PUSH3 0x1D4 JUMP JUMPDEST JUMPDEST PUSH0 PUSH3 0x261 DUP6 DUP3 DUP7 ADD PUSH3 0x223 JUMP JUMPDEST SWAP3 POP POP PUSH1 0x20 PUSH3 0x274 DUP6 DUP3 DUP7 ADD PUSH3 0x223 JUMP JUMPDEST SWAP2 POP POP SWAP3 POP SWAP3 SWAP1 POP JUMP JUMPDEST PUSH0 DUP2 MLOAD SWAP1 POP SWAP2 SWAP1 POP JUMP JUMPDEST PUSH32 0x4E487B7100000000000000000000000000000000000000000000000000000000 PUSH0 MSTORE PUSH1 0x41 PUSH1 0x4 MSTORE PUSH1 0x24 PUSH0 REVERT JUMPDEST PUSH32 0x4E487B7100000000000000000000000000000000000000000000000000000000 PUSH0 MSTORE PUSH1 0x22 PUSH1 0x4 MSTORE PUSH1 0x24 PUSH0 REVERT JUMPDEST PUSH0 PUSH1 0x2 DUP3 DIV SWAP1 POP PUSH1 0x1 DUP3 AND DUP1 PUSH3 0x2FA JUMPI PUSH1 0x7F DUP3 AND SWAP2 POP JUMPDEST PUSH1 0x20 DUP3 LT DUP2 SUB PUSH3 0x310 JUMPI PUSH3 0x30F PUSH3 0x2B5 JUMP JUMPDEST JUMPDEST POP SWAP2 SWAP1 POP JUMP JUMPDEST PUSH0 DUP2 SWAP1 POP DUP2 PUSH0 MSTORE PUSH1 0x20 PUSH0 KECCAK256 SWAP1 POP SWAP2 SWAP1 POP JUMP JUMPDEST PUSH0 PUSH1 0x20 PUSH1 0x1F DUP4 ADD DIV SWAP1 POP SWAP2 SWAP1 POP JUMP JUMPDEST PUSH0 DUP3 DUP3 SHL SWAP1 POP SWAP3 SWAP2 POP POP JUMP JUMPDEST PUSH0 PUSH1 0x8 DUP4 MUL PUSH3 0x374 PUSH32 0xFFFFFFFFFFFFFFFFFFFFFFFFFFFFFFFFFFFFFFFFFFFFFFFFFFFFFFFFFFFFFFFF DUP3 PUSH3 0x337 JUMP JUMPDEST PUSH3 0x380 DUP7 DUP4 PUSH3 0x337 JUMP JUMPDEST SWAP6 POP DUP1 NOT DUP5 AND SWAP4 POP DUP1 DUP7 AND DUP5 OR SWAP3 POP POP POP SWAP4 SWAP3 POP POP POP JUMP JUMPDEST PUSH0 DUP2 SWAP1 POP SWAP2 SWAP1 POP JUMP JUMPDEST PUSH0 DUP2 SWAP1 POP SWAP2 SWAP1 POP JUMP JUMPDEST PUSH0 PUSH3 0x3CA PUSH3 0x3C4 PUSH3 0x3BE DUP5 PUSH3 0x398 JUMP JUMPDEST PUSH3 0x3A1 JUMP JUMPDEST PUSH3 0x398 JUMP JUMPDEST SWAP1 POP SWAP2 SWAP1 POP JUMP JUMPDEST PUSH0 DUP2 SWAP1 POP SWAP2 SWAP1 POP JUMP JUMPDEST PUSH3 0x3E5 DUP4 PUSH3 0x3AA JUMP JUMPDEST PUSH3 0x3FD PUSH3 0x3F4 DUP3 PUSH3 0x3D1 JUMP JUMPDEST DUP5 DUP5 SLOAD PUSH3 0x343 JUMP JUMPDEST DUP3 SSTORE POP POP POP POP JUMP JUMPDEST PUSH0 SWAP1 JUMP JUMPDEST PUSH3 0x413 PUSH3 0x405 JUMP JUMPDEST PUSH3 0x420 DUP2 DUP5 DUP5 PUSH3 0x3DA JUMP JUMPDEST POP POP POP JUMP JUMPDEST JUMPDEST DUP2 DUP2 LT ISZERO PUSH3 0x447 JUMPI PUSH3 0x43B PUSH0 DUP3 PUSH3 0x409 JUMP JUMPDEST PUSH1 0x1 DUP2 ADD SWAP1 POP PUSH3 0x426 JUMP JUMPDEST POP POP JUMP JUMPDEST PUSH1 0x1F DUP3 GT ISZERO PUSH3 0x496 JUMPI PUSH3 0x460 DUP2 PUSH3 0x316 JUMP JUMPDEST PUSH3 0x46B DUP5 PUSH3 0x328 JUMP JUMPDEST DUP2 ADD PUSH1 0x20 DUP6 LT ISZERO PUSH3 0x47B JUMPI DUP2 SWAP1 POP JUMPDEST PUSH3 0x493 PUSH3 0x48A DUP6 PUSH3 0x328 JUMP JUMPDEST DUP4 ADD DUP3 PUSH3 0x425 JUMP JUMPDEST POP POP JUMPDEST POP POP POP JUMP JUMPDEST PUSH0 DUP3 DUP3 SHR SWAP1 POP SWAP3 SWAP2 POP POP JUMP JUMPDEST PUSH0 PUSH3 0x4B8 PUSH0 NOT DUP5 PUSH1 0x8 MUL PUSH3 0x49B JUMP JUMPDEST NOT DUP1 DUP4 AND SWAP2 POP POP SWAP3 SWAP2 POP POP JUMP JUMPDEST PUSH0 PUSH3 0x4D2 DUP4 DUP4 PUSH3 0x4A7 JUMP JUMPDEST SWAP2 POP DUP3 PUSH1 0x2 MUL DUP3 OR SWAP1 POP SWAP3 SWAP2 POP POP JUMP JUMPDEST PUSH3 0x4ED DUP3 PUSH3 0x27E JUMP JUMPDEST PUSH8 0xFFFFFFFFFFFFFFFF DUP2 GT ISZERO PUSH3 0x509 JUMPI PUSH3 0x508 PUSH3 0x288 JUMP JUMPDEST JUMPDEST PUSH3 0x515 DUP3 SLOAD PUSH3 0x2E2 JUMP JUMPDEST PUSH3 0x522 DUP3 DUP3 DUP6 PUSH3 0x44B JUMP JUMPDEST PUSH0 PUSH1 0x20 SWAP1 POP PUSH1 0x1F DUP4 GT PUSH1 0x1 DUP2 EQ PUSH3 0x558 JUMPI PUSH0 DUP5 ISZERO PUSH3 0x543 JUMPI DUP3 DUP8 ADD MLOAD SWAP1 POP JUMPDEST PUSH3 0x54F DUP6 DUP3 PUSH3 0x4C5 JUMP JUMPDEST DUP7 SSTORE POP PUSH3 0x5BE JUMP JUMPDEST PUSH1 0x1F NOT DUP5 AND PUSH3 0x568 DUP7 PUSH3 0x316 JUMP JUMPDEST PUSH0 JUMPDEST DUP3 DUP2 LT ISZERO PUSH3 0x591 JUMPI DUP5 DUP10 ADD MLOAD DUP3 SSTORE PUSH1 0x1 DUP3 ADD SWAP2 POP PUSH1 0x20 DUP6 ADD SWAP5 POP PUSH1 0x20 DUP2 ADD SWAP1 POP PUSH3 0x56A JUMP JUMPDEST DUP7 DUP4 LT ISZERO PUSH3 0x5B1 JUMPI DUP5 DUP10 ADD MLOAD PUSH3 0x5AD PUSH1 0x1F DUP10 AND DUP3 PUSH3 0x4A7 JUMP JUMPDEST DUP4 SSTORE POP JUMPDEST PUSH1 0x1 PUSH1 0x2 DUP9 MUL ADD DUP9 SSTORE POP POP POP JUMPDEST POP POP POP POP POP POP JUMP JUMPDEST PUSH2 0x5771 DUP1 PUSH3 0x5D4 PUSH0 CODECOPY PUSH0 RETURN INVALID PUSH1 0x80 PUSH1 0x40 MSTORE CALLVALUE DUP1 ISZERO PUSH2 0xF JUMPI PUSH0 DUP1 REVERT JUMPDEST POP PUSH1 0x4 CALLDATASIZE LT PUSH2 0x25C JUMPI PUSH0 CALLDATALOAD PUSH1 0xE0 SHR DUP1 PUSH4 0x99F7FEE1 GT PUSH2 0x144 JUMPI DUP1 PUSH4 0xCBE0135C GT PUSH2 0xC1 JUMPI DUP1 PUSH4 0xDCB57DC0 GT PUSH2 0x85 JUMPI DUP1 PUSH4 0xDCB57DC0 EQ PUSH2 0x7E6 JUMPI DUP1 PUSH4 0xDD62ED3E EQ PUSH2 0x804 JUMPI DUP1 PUSH4 0xDE5F72FD EQ PUSH2 0x834 JUMPI DUP1 PUSH4 0xF190F421 EQ PUSH2 0x83E JUMPI DUP1 PUSH4 0xF22449BA EQ PUSH2 0x85A JUMPI DUP1 PUSH4 0xFABF5968 EQ PUSH2 0x876 JUMPI PUSH2 0x25C JUMP JUMPDEST DUP1 PUSH4 0xCBE0135C EQ PUSH2 0x702 JUMPI DUP1 PUSH4 0xD437E565 EQ PUSH2 0x732 JUMPI DUP1 PUSH4 0xD915902E EQ PUSH2 0x762 JUMPI DUP1 PUSH4 0xDACC5370 EQ PUSH2 0x77E JUMPI DUP1 PUSH4 0xDBC1D569 EQ PUSH2 0x7AE JUMPI PUSH2 0x25C JUMP JUMPDEST DUP1 PUSH4 0xB756441B GT PUSH2 0x108 JUMPI DUP1 PUSH4 0xB756441B EQ PUSH2 0x64C JUMPI DUP1 PUSH4 0xBAF8EFB3 EQ PUSH2 0x67C JUMPI DUP1 PUSH4 0xBD275764 EQ PUSH2 0x698 JUMPI DUP1 PUSH4 0xBF50556D EQ PUSH2 0x6B4 JUMPI DUP1 PUSH4 0xC029AAC6 EQ PUSH2 0x6D2 JUMPI PUSH2 0x25C JUMP JUMPDEST DUP1 PUSH4 0x99F7FEE1 EQ PUSH2 0x584 JUMPI DUP1 PUSH4 0xA1669B32 EQ PUSH2 0x5A0 JUMPI DUP1 PUSH4 0xA220E64A EQ PUSH2 0x5BC JUMPI DUP1 PUSH4 0xA5E898E1 EQ PUSH2 0x5EC JUMPI DUP1 PUSH4 0xA9059CBB EQ PUSH2 0x61C JUMPI PUSH2 0x25C JUMP JUMPDEST DUP1 PUSH4 0x313CE567 GT PUSH2 0x1DD JUMPI DUP1 PUSH4 0x79585AA8 GT PUSH2 0x1A1 JUMPI DUP1 PUSH4 0x79585AA8 EQ PUSH2 0x49C JUMPI DUP1 PUSH4 0x7C405164 EQ PUSH2 0x4CC JUMPI DUP1 PUSH4 0x8F827018 EQ PUSH2 0x4E8 JUMPI DUP1 PUSH4 0x92256AEC EQ PUSH2 0x518 JUMPI DUP1 PUSH4 0x95D89B41 EQ PUSH2 0x548 JUMPI DUP1 PUSH4 0x975D82BE EQ PUSH2 0x566 JUMPI PUSH2 0x25C JUMP JUMPDEST DUP1 PUSH4 0x313CE567 EQ PUSH2 0x3E4 JUMPI DUP1 PUSH4 0x39C94D2D EQ PUSH2 0x402 JUMPI DUP1 PUSH4 0x3C59605A EQ PUSH2 0x41E JUMPI DUP1 PUSH4 0x5DEC5C39 EQ PUSH2 0x43C JUMPI DUP1 PUSH4 0x70A08231 EQ PUSH2 0x46C JUMPI PUSH2 0x25C JUMP JUMPDEST DUP1 PUSH4 0x18160DDD GT PUSH2 0x224 JUMPI DUP1 PUSH4 0x18160DDD EQ PUSH2 0x32C JUMPI DUP1 PUSH4 0x1D2ACDFD EQ PUSH2 0x34A JUMPI DUP1 PUSH4 0x23B872DD EQ PUSH2 0x37A JUMPI DUP1 PUSH4 0x23FD498B EQ PUSH2 0x3AA JUMPI DUP1 PUSH4 0x2FF09CD0 EQ PUSH2 0x3C8 JUMPI PUSH2 0x25C JUMP JUMPDEST DUP1 PUSH4 0x60FBE58 EQ PUSH2 0x260 JUMPI DUP1 PUSH4 0x6FDDE03 EQ PUSH2 0x27E JUMPI DUP1 PUSH4 0x95BCDB6 EQ PUSH2 0x29C JUMPI DUP1 PUSH4 0x95EA7B3 EQ PUSH2 0x2CC JUMPI DUP1 PUSH4 0x158A18B6 EQ PUSH2 0x2FC JUMPI JUMPDEST PUSH0 DUP1 REVERT JUMPDEST PUSH2 0x268 PUSH2 0x8A9 JUMP JUMPDEST PUSH1 0x40 MLOAD PUSH2 0x275 SWAP2 SWAP1 PUSH2 0x38B9 JUMP JUMPDEST PUSH1 0x40 MLOAD DUP1 SWAP2 SUB SWAP1 RETURN JUMPDEST PUSH2 0x286 PUSH2 0xA4B JUMP JUMPDEST PUSH1 0x40 MLOAD PUSH2 0x293 SWAP2 SWAP1 PUSH2 0x395C JUMP JUMPDEST PUSH1 0x40 MLOAD DUP1 SWAP2 SUB SWAP1 RETURN JUMPDEST PUSH2 0x2B6 PUSH1 0x4 DUP1 CALLDATASIZE SUB DUP2 ADD SWAP1 PUSH2 0x2B1 SWAP2 SWAP1 PUSH2 0x3A11 JUMP JUMPDEST PUSH2 0xADB JUMP JUMPDEST PUSH1 0x40 MLOAD PUSH2 0x2C3 SWAP2 SWAP1 PUSH2 0x3A7B JUMP JUMPDEST PUSH1 0x40 MLOAD DUP1 SWAP2 SUB SWAP1 RETURN JUMPDEST PUSH2 0x2E6 PUSH1 0x4 DUP1 CALLDATASIZE SUB DUP2 ADD SWAP1 PUSH2 0x2E1 SWAP2 SWAP1 PUSH2 0x3A94 JUMP JUMPDEST PUSH2 0xAFD JUMP JUMPDEST PUSH1 0x40 MLOAD PUSH2 0x2F3 SWAP2 SWAP1 PUSH2 0x3A7B JUMP JUMPDEST PUSH1 0x40 MLOAD DUP1 SWAP2 SUB SWAP1 RETURN JUMPDEST PUSH2 0x316 PUSH1 0x4 DUP1 CALLDATASIZE SUB DUP2 ADD SWAP1 PUSH2 0x311 SWAP2 SWAP1 PUSH2 0x3AD2 JUMP JUMPDEST PUSH2 0xB1F JUMP JUMPDEST PUSH1 0x40 MLOAD PUSH2 0x323 SWAP2 SWAP1 PUSH2 0x38B9 JUMP JUMPDEST PUSH1 0x40 MLOAD DUP1 SWAP2 SUB SWAP1 RETURN JUMPDEST PUSH2 0x334 PUSH2 0xB65 JUMP JUMPDEST PUSH1 0x40 MLOAD PUSH2 0x341 SWAP2 SWAP1 PUSH2 0x38B9 JUMP JUMPDEST PUSH1 0x40 MLOAD DUP1 SWAP2 SUB SWAP1 RETURN JUMPDEST PUSH2 0x364 PUSH1 0x4 DUP1 CALLDATASIZE SUB DUP2 ADD SWAP1 PUSH2 0x35F SWAP2 SWAP1 PUSH2 0x3AFD JUMP JUMPDEST PUSH2 0xB6E JUMP JUMPDEST PUSH1 0x40 MLOAD PUSH2 0x371 SWAP2 SWAP1 PUSH2 0x38B9 JUMP JUMPDEST PUSH1 0x40 MLOAD DUP1 SWAP2 SUB SWAP1 RETURN JUMPDEST PUSH2 0x394 PUSH1 0x4 DUP1 CALLDATASIZE SUB DUP2 ADD SWAP1 PUSH2 0x38F SWAP2 SWAP1 PUSH2 0x3B28 JUMP JUMPDEST PUSH2 0xC90 JUMP JUMPDEST PUSH1 0x40 MLOAD PUSH2 0x3A1 SWAP2 SWAP1 PUSH2 0x3A7B JUMP JUMPDEST PUSH1 0x40 MLOAD DUP1 SWAP2 SUB SWAP1 RETURN JUMPDEST PUSH2 0x3B2 PUSH2 0xCBE JUMP JUMPDEST PUSH1 0x40 MLOAD PUSH2 0x3BF SWAP2 SWAP1 PUSH2 0x38B9 JUMP JUMPDEST PUSH1 0x40 MLOAD DUP1 SWAP2 SUB SWAP1 RETURN JUMPDEST PUSH2 0x3E2 PUSH1 0x4 DUP1 CALLDATASIZE SUB DUP2 ADD SWAP1 PUSH2 0x3DD SWAP2 SWAP1 PUSH2 0x3A11 JUMP JUMPDEST PUSH2 0xCCA JUMP JUMPDEST STOP JUMPDEST PUSH2 0x3EC PUSH2 0xCE5 JUMP JUMPDEST PUSH1 0x40 MLOAD PUSH2 0x3F9 SWAP2 SWAP1 PUSH2 0x3B93 JUMP JUMPDEST PUSH1 0x40 MLOAD DUP1 SWAP2 SUB SWAP1 RETURN JUMPDEST PUSH2 0x41C PUSH1 0x4 DUP1 CALLDATASIZE SUB DUP2 ADD SWAP1 PUSH2 0x417 SWAP2 SWAP1 PUSH2 0x3AFD JUMP JUMPDEST PUSH2 0xCED JUMP JUMPDEST STOP JUMPDEST PUSH2 0x426 PUSH2 0xD68 JUMP JUMPDEST PUSH1 0x40 MLOAD PUSH2 0x433 SWAP2 SWAP1 PUSH2 0x38B9 JUMP JUMPDEST PUSH1 0x40 MLOAD DUP1 SWAP2 SUB SWAP1 RETURN JUMPDEST PUSH2 0x456 PUSH1 0x4 DUP1 CALLDATASIZE SUB DUP2 ADD SWAP1 PUSH2 0x451 SWAP2 SWAP1 PUSH2 0x3AD2 JUMP JUMPDEST PUSH2 0xE1E JUMP JUMPDEST PUSH1 0x40 MLOAD PUSH2 0x463 SWAP2 SWAP1 PUSH2 0x38B9 JUMP JUMPDEST PUSH1 0x40 MLOAD DUP1 SWAP2 SUB SWAP1 RETURN JUMPDEST PUSH2 0x486 PUSH1 0x4 DUP1 CALLDATASIZE SUB DUP2 ADD SWAP1 PUSH2 0x481 SWAP2 SWAP1 PUSH2 0x3AD2 JUMP JUMPDEST PUSH2 0xE64 JUMP JUMPDEST PUSH1 0x40 MLOAD PUSH2 0x493 SWAP2 SWAP1 PUSH2 0x38B9 JUMP JUMPDEST PUSH1 0x40 MLOAD DUP1 SWAP2 SUB SWAP1 RETURN JUMPDEST PUSH2 0x4B6 PUSH1 0x4 DUP1 CALLDATASIZE SUB DUP2 ADD SWAP1 PUSH2 0x4B1 SWAP2 SWAP1 PUSH2 0x3AFD JUMP JUMPDEST PUSH2 0xEA9 JUMP JUMPDEST PUSH1 0x40 MLOAD PUSH2 0x4C3 SWAP2 SWAP1 PUSH2 0x3A7B JUMP JUMPDEST PUSH1 0x40 MLOAD DUP1 SWAP2 SUB SWAP1 RETURN JUMPDEST PUSH2 0x4E6 PUSH1 0x4 DUP1 CALLDATASIZE SUB DUP2 ADD SWAP1 PUSH2 0x4E1 SWAP2 SWAP1 PUSH2 0x3AFD JUMP JUMPDEST PUSH2 0xEC6 JUMP JUMPDEST STOP JUMPDEST PUSH2 0x502 PUSH1 0x4 DUP1 CALLDATASIZE SUB DUP2 ADD SWAP1 PUSH2 0x4FD SWAP2 SWAP1 PUSH2 0x3AD2 JUMP JUMPDEST PUSH2 0x1026 JUMP JUMPDEST PUSH1 0x40 MLOAD PUSH2 0x50F SWAP2 SWAP1 PUSH2 0x3A7B JUMP JUMPDEST PUSH1 0x40 MLOAD DUP1 SWAP2 SUB SWAP1 RETURN JUMPDEST PUSH2 0x532 PUSH1 0x4 DUP1 CALLDATASIZE SUB DUP2 ADD SWAP1 PUSH2 0x52D SWAP2 SWAP1 PUSH2 0x3AFD JUMP JUMPDEST PUSH2 0x1043 JUMP JUMPDEST PUSH1 0x40 MLOAD PUSH2 0x53F SWAP2 SWAP1 PUSH2 0x3BBB JUMP JUMPDEST PUSH1 0x40 MLOAD DUP1 SWAP2 SUB SWAP1 RETURN JUMPDEST PUSH2 0x550 PUSH2 0x109E JUMP JUMPDEST PUSH1 0x40 MLOAD PUSH2 0x55D SWAP2 SWAP1 PUSH2 0x395C JUMP JUMPDEST PUSH1 0x40 MLOAD DUP1 SWAP2 SUB SWAP1 RETURN JUMPDEST PUSH2 0x56E PUSH2 0x112E JUMP JUMPDEST PUSH1 0x40 MLOAD PUSH2 0x57B SWAP2 SWAP1 PUSH2 0x3C2F JUMP JUMPDEST PUSH1 0x40 MLOAD DUP1 SWAP2 SUB SWAP1 RETURN JUMPDEST PUSH2 0x59E PUSH1 0x4 DUP1 CALLDATASIZE SUB DUP2 ADD SWAP1 PUSH2 0x599 SWAP2 SWAP1 PUSH2 0x3AFD JUMP JUMPDEST PUSH2 0x1153 JUMP JUMPDEST STOP JUMPDEST PUSH2 0x5BA PUSH1 0x4 DUP1 CALLDATASIZE SUB DUP2 ADD SWAP1 PUSH2 0x5B5 SWAP2 SWAP1 PUSH2 0x3A94 JUMP JUMPDEST PUSH2 0x154C JUMP JUMPDEST STOP JUMPDEST PUSH2 0x5D6 PUSH1 0x4 DUP1 CALLDATASIZE SUB DUP2 ADD SWAP1 PUSH2 0x5D1 SWAP2 SWAP1 PUSH2 0x3A94 JUMP JUMPDEST PUSH2 0x1794 JUMP JUMPDEST PUSH1 0x40 MLOAD PUSH2 0x5E3 SWAP2 SWAP1 PUSH2 0x3A7B JUMP JUMPDEST PUSH1 0x40 MLOAD DUP1 SWAP2 SUB SWAP1 RETURN JUMPDEST PUSH2 0x606 PUSH1 0x4 DUP1 CALLDATASIZE SUB DUP2 ADD SWAP1 PUSH2 0x601 SWAP2 SWAP1 PUSH2 0x3E38 JUMP JUMPDEST PUSH2 0x17BE JUMP JUMPDEST PUSH1 0x40 MLOAD PUSH2 0x613 SWAP2 SWAP1 PUSH2 0x38B9 JUMP JUMPDEST PUSH1 0x40 MLOAD DUP1 SWAP2 SUB SWAP1 RETURN JUMPDEST PUSH2 0x636 PUSH1 0x4 DUP1 CALLDATASIZE SUB DUP2 ADD SWAP1 PUSH2 0x631 SWAP2 SWAP1 PUSH2 0x3A94 JUMP JUMPDEST PUSH2 0x1D51 JUMP JUMPDEST PUSH1 0x40 MLOAD PUSH2 0x643 SWAP2 SWAP1 PUSH2 0x3A7B JUMP JUMPDEST PUSH1 0x40 MLOAD DUP1 SWAP2 SUB SWAP1 RETURN JUMPDEST PUSH2 0x666 PUSH1 0x4 DUP1 CALLDATASIZE SUB DUP2 ADD SWAP1 PUSH2 0x661 SWAP2 SWAP1 PUSH2 0x3EF0 JUMP JUMPDEST PUSH2 0x1D73 JUMP JUMPDEST PUSH1 0x40 MLOAD PUSH2 0x673 SWAP2 SWAP1 PUSH2 0x38B9 JUMP JUMPDEST PUSH1 0x40 MLOAD DUP1 SWAP2 SUB SWAP1 RETURN JUMPDEST PUSH2 0x696 PUSH1 0x4 DUP1 CALLDATASIZE SUB DUP2 ADD SWAP1 PUSH2 0x691 SWAP2 SWAP1 PUSH2 0x3AFD JUMP JUMPDEST PUSH2 0x1D93 JUMP JUMPDEST STOP JUMPDEST PUSH2 0x6B2 PUSH1 0x4 DUP1 CALLDATASIZE SUB DUP2 ADD SWAP1 PUSH2 0x6AD SWAP2 SWAP1 PUSH2 0x3AFD JUMP JUMPDEST PUSH2 0x1F3F JUMP JUMPDEST STOP JUMPDEST PUSH2 0x6BC PUSH2 0x2122 JUMP JUMPDEST PUSH1 0x40 MLOAD PUSH2 0x6C9 SWAP2 SWAP1 PUSH2 0x38B9 JUMP JUMPDEST PUSH1 0x40 MLOAD DUP1 SWAP2 SUB SWAP1 RETURN JUMPDEST PUSH2 0x6EC PUSH1 0x4 DUP1 CALLDATASIZE SUB DUP2 ADD SWAP1 PUSH2 0x6E7 SWAP2 SWAP1 PUSH2 0x3EF0 JUMP JUMPDEST PUSH2 0x217D JUMP JUMPDEST PUSH1 0x40 MLOAD PUSH2 0x6F9 SWAP2 SWAP1 PUSH2 0x3A7B JUMP JUMPDEST PUSH1 0x40 MLOAD DUP1 SWAP2 SUB SWAP1 RETURN JUMPDEST PUSH2 0x71C PUSH1 0x4 DUP1 CALLDATASIZE SUB DUP2 ADD SWAP1 PUSH2 0x717 SWAP2 SWAP1 PUSH2 0x3AFD JUMP JUMPDEST PUSH2 0x21A7 JUMP JUMPDEST PUSH1 0x40 MLOAD PUSH2 0x729 SWAP2 SWAP1 PUSH2 0x38B9 JUMP JUMPDEST PUSH1 0x40 MLOAD DUP1 SWAP2 SUB SWAP1 RETURN JUMPDEST PUSH2 0x74C PUSH1 0x4 DUP1 CALLDATASIZE SUB DUP2 ADD SWAP1 PUSH2 0x747 SWAP2 SWAP1 PUSH2 0x3EF0 JUMP JUMPDEST PUSH2 0x21E3 JUMP JUMPDEST PUSH1 0x40 MLOAD PUSH2 0x759 SWAP2 SWAP1 PUSH2 0x3A7B JUMP JUMPDEST PUSH1 0x40 MLOAD DUP1 SWAP2 SUB SWAP1 RETURN JUMPDEST PUSH2 0x77C PUSH1 0x4 DUP1 CALLDATASIZE SUB DUP2 ADD SWAP1 PUSH2 0x777 SWAP2 SWAP1 PUSH2 0x3AFD JUMP JUMPDEST PUSH2 0x220D JUMP JUMPDEST STOP JUMPDEST PUSH2 0x798 PUSH1 0x4 DUP1 CALLDATASIZE SUB DUP2 ADD SWAP1 PUSH2 0x793 SWAP2 SWAP1 PUSH2 0x3AFD JUMP JUMPDEST PUSH2 0x235E JUMP JUMPDEST PUSH1 0x40 MLOAD PUSH2 0x7A5 SWAP2 SWAP1 PUSH2 0x3BBB JUMP JUMPDEST PUSH1 0x40 MLOAD DUP1 SWAP2 SUB SWAP1 RETURN JUMPDEST PUSH2 0x7C8 PUSH1 0x4 DUP1 CALLDATASIZE SUB DUP2 ADD SWAP1 PUSH2 0x7C3 SWAP2 SWAP1 PUSH2 0x3AFD JUMP JUMPDEST PUSH2 0x2399 JUMP JUMPDEST PUSH1 0x40 MLOAD PUSH2 0x7DD SWAP10 SWAP9 SWAP8 SWAP7 SWAP6 SWAP5 SWAP4 SWAP3 SWAP2 SWAP1 PUSH2 0x3F2E JUMP JUMPDEST PUSH1 0x40 MLOAD DUP1 SWAP2 SUB SWAP1 RETURN JUMPDEST PUSH2 0x7EE PUSH2 0x24B0 JUMP JUMPDEST PUSH1 0x40 MLOAD PUSH2 0x7FB SWAP2 SWAP1 PUSH2 0x3FE0 JUMP JUMPDEST PUSH1 0x40 MLOAD DUP1 SWAP2 SUB SWAP1 RETURN JUMPDEST PUSH2 0x81E PUSH1 0x4 DUP1 CALLDATASIZE SUB DUP2 ADD SWAP1 PUSH2 0x819 SWAP2 SWAP1 PUSH2 0x3FF9 JUMP JUMPDEST PUSH2 0x24D5 JUMP JUMPDEST PUSH1 0x40 MLOAD PUSH2 0x82B SWAP2 SWAP1 PUSH2 0x38B9 JUMP JUMPDEST PUSH1 0x40 MLOAD DUP1 SWAP2 SUB SWAP1 RETURN JUMPDEST PUSH2 0x83C PUSH2 0x2557 JUMP JUMPDEST STOP JUMPDEST PUSH2 0x858 PUSH1 0x4 DUP1 CALLDATASIZE SUB DUP2 ADD SWAP1 PUSH2 0x853 SWAP2 SWAP1 PUSH2 0x4121 JUMP JUMPDEST PUSH2 0x260C JUMP JUMPDEST STOP JUMPDEST PUSH2 0x874 PUSH1 0x4 DUP1 CALLDATASIZE SUB DUP2 ADD SWAP1 PUSH2 0x86F SWAP2 SWAP1 PUSH2 0x417B JUMP JUMPDEST PUSH2 0x292D JUMP JUMPDEST STOP JUMPDEST PUSH2 0x890 PUSH1 0x4 DUP1 CALLDATASIZE SUB DUP2 ADD SWAP1 PUSH2 0x88B SWAP2 SWAP1 PUSH2 0x3AFD JUMP JUMPDEST PUSH2 0x2BD7 JUMP JUMPDEST PUSH1 0x40 MLOAD PUSH2 0x8A0 SWAP5 SWAP4 SWAP3 SWAP2 SWAP1 PUSH2 0x4270 JUMP JUMPDEST PUSH1 0x40 MLOAD DUP1 SWAP2 SUB SWAP1 RETURN JUMPDEST PUSH0 DUP1 PUSH0 SWAP1 POP JUMPDEST PUSH1 0x9 DUP1 SLOAD SWAP1 POP DUP2 LT ISZERO PUSH2 0xA47 JUMPI PUSH1 0x1 PUSH2 0x902 PUSH1 0x9 DUP4 DUP2 SLOAD DUP2 LT PUSH2 0x8D5 JUMPI PUSH2 0x8D4 PUSH2 0x42C8 JUMP JUMPDEST JUMPDEST SWAP1 PUSH0 MSTORE PUSH1 0x20 PUSH0 KECCAK256 ADD PUSH0 SWAP1 SLOAD SWAP1 PUSH2 0x100 EXP SWAP1 DIV PUSH20 0xFFFFFFFFFFFFFFFFFFFFFFFFFFFFFFFFFFFFFFFF AND PUSH2 0xE64 JUMP JUMPDEST LT PUSH2 0x9AA JUMPI PUSH1 0x1 PUSH1 0xA PUSH0 PUSH1 0x9 DUP5 DUP2 SLOAD DUP2 LT PUSH2 0x920 JUMPI PUSH2 0x91F PUSH2 0x42C8 JUMP JUMPDEST JUMPDEST SWAP1 PUSH0 MSTORE PUSH1 0x20 PUSH0 KECCAK256 ADD PUSH0 SWAP1 SLOAD SWAP1 PUSH2 0x100 EXP SWAP1 DIV PUSH20 0xFFFFFFFFFFFFFFFFFFFFFFFFFFFFFFFFFFFFFFFF AND PUSH20 0xFFFFFFFFFFFFFFFFFFFFFFFFFFFFFFFFFFFFFFFF AND PUSH20 0xFFFFFFFFFFFFFFFFFFFFFFFFFFFFFFFFFFFFFFFF AND DUP2 MSTORE PUSH1 0x20 ADD SWAP1 DUP2 MSTORE PUSH1 0x20 ADD PUSH0 KECCAK256 PUSH0 PUSH2 0x100 EXP DUP2 SLOAD DUP2 PUSH1 0xFF MUL NOT AND SWAP1 DUP4 ISZERO ISZERO MUL OR SWAP1 SSTORE POP DUP2 DUP1 PUSH2 0x9A2 SWAP1 PUSH2 0x4322 JUMP JUMPDEST SWAP3 POP POP PUSH2 0xA3A JUMP JUMPDEST PUSH0 PUSH1 0xA PUSH0 PUSH1 0x9 DUP5 DUP2 SLOAD DUP2 LT PUSH2 0x9C2 JUMPI PUSH2 0x9C1 PUSH2 0x42C8 JUMP JUMPDEST JUMPDEST SWAP1 PUSH0 MSTORE PUSH1 0x20 PUSH0 KECCAK256 ADD PUSH0 SWAP1 SLOAD SWAP1 PUSH2 0x100 EXP SWAP1 DIV PUSH20 0xFFFFFFFFFFFFFFFFFFFFFFFFFFFFFFFFFFFFFFFF AND PUSH20 0xFFFFFFFFFFFFFFFFFFFFFFFFFFFFFFFFFFFFFFFF AND PUSH20 0xFFFFFFFFFFFFFFFFFFFFFFFFFFFFFFFFFFFFFFFF AND DUP2 MSTORE PUSH1 0x20 ADD SWAP1 DUP2 MSTORE PUSH1 0x20 ADD PUSH0 KECCAK256 PUSH0 PUSH2 0x100 EXP DUP2 SLOAD DUP2 PUSH1 0xFF MUL NOT AND SWAP1 DUP4 ISZERO ISZERO MUL OR SWAP1 SSTORE POP JUMPDEST DUP1 DUP1 PUSH1 0x1 ADD SWAP2 POP POP PUSH2 0x8AF JUMP JUMPDEST POP SWAP1 JUMP JUMPDEST PUSH1 0x60 PUSH1 0x3 DUP1 SLOAD PUSH2 0xA5A SWAP1 PUSH2 0x4396 JUMP JUMPDEST DUP1 PUSH1 0x1F ADD PUSH1 0x20 DUP1 SWAP2 DIV MUL PUSH1 0x20 ADD PUSH1 0x40 MLOAD SWAP1 DUP2 ADD PUSH1 0x40 MSTORE DUP1 SWAP3 SWAP2 SWAP1 DUP2 DUP2 MSTORE PUSH1 0x20 ADD DUP3 DUP1 SLOAD PUSH2 0xA86 SWAP1 PUSH2 0x4396 JUMP JUMPDEST DUP1 ISZERO PUSH2 0xAD1 JUMPI DUP1 PUSH1 0x1F LT PUSH2 0xAA8 JUMPI PUSH2 0x100 DUP1 DUP4 SLOAD DIV MUL DUP4 MSTORE SWAP2 PUSH1 0x20 ADD SWAP2 PUSH2 0xAD1 JUMP JUMPDEST DUP3 ADD SWAP2 SWAP1 PUSH0 MSTORE PUSH1 0x20 PUSH0 KECCAK256 SWAP1 JUMPDEST DUP2 SLOAD DUP2 MSTORE SWAP1 PUSH1 0x1 ADD SWAP1 PUSH1 0x20 ADD DUP1 DUP4 GT PUSH2 0xAB4 JUMPI DUP3 SWAP1 SUB PUSH1 0x1F AND DUP3 ADD SWAP2 JUMPDEST POP POP POP POP POP SWAP1 POP SWAP1 JUMP JUMPDEST PUSH0 PUSH2 0xAE7 CALLER DUP6 DUP5 PUSH2 0x2DB2 JUMP JUMPDEST PUSH2 0xAF2 CALLER DUP6 DUP6 PUSH2 0x2F42 JUMP JUMPDEST PUSH1 0x1 SWAP1 POP SWAP4 SWAP3 POP POP POP JUMP JUMPDEST PUSH0 DUP1 PUSH2 0xB07 PUSH2 0x310A JUMP JUMPDEST SWAP1 POP PUSH2 0xB14 DUP2 DUP6 DUP6 PUSH2 0x3111 JUMP JUMPDEST PUSH1 0x1 SWAP2 POP POP SWAP3 SWAP2 POP POP JUMP JUMPDEST PUSH0 PUSH1 0x8 PUSH0 DUP4 PUSH20 0xFFFFFFFFFFFFFFFFFFFFFFFFFFFFFFFFFFFFFFFF AND PUSH20 0xFFFFFFFFFFFFFFFFFFFFFFFFFFFFFFFFFFFFFFFF AND DUP2 MSTORE PUSH1 0x20 ADD SWAP1 DUP2 MSTORE PUSH1 0x20 ADD PUSH0 KECCAK256 SLOAD SWAP1 POP SWAP2 SWAP1 POP JUMP JUMPDEST PUSH0 PUSH1 0x2 SLOAD SWAP1 POP SWAP1 JUMP JUMPDEST PUSH0 PUSH1 0xE DUP1 SLOAD SWAP1 POP DUP3 LT PUSH2 0xB7F JUMPI PUSH0 DUP1 REVERT JUMPDEST PUSH0 PUSH1 0x1 SWAP1 POP JUMPDEST PUSH1 0xE DUP4 DUP2 SLOAD DUP2 LT PUSH2 0xB99 JUMPI PUSH2 0xB98 PUSH2 0x42C8 JUMP JUMPDEST JUMPDEST SWAP1 PUSH0 MSTORE PUSH1 0x20 PUSH0 KECCAK256 SWAP1 PUSH1 0xD MUL ADD PUSH1 0x3 ADD DUP1 SLOAD SWAP1 POP DUP2 GT ISZERO DUP1 ISZERO PUSH2 0xC1D JUMPI POP PUSH1 0x1 ISZERO ISZERO PUSH1 0xE DUP5 DUP2 SLOAD DUP2 LT PUSH2 0xBCE JUMPI PUSH2 0xBCD PUSH2 0x42C8 JUMP JUMPDEST JUMPDEST SWAP1 PUSH0 MSTORE PUSH1 0x20 PUSH0 KECCAK256 SWAP1 PUSH1 0xD MUL ADD PUSH1 0x4 ADD PUSH1 0x1 DUP4 PUSH2 0xBEA SWAP2 SWAP1 PUSH2 0x43C6 JUMP JUMPDEST DUP2 SLOAD DUP2 LT PUSH2 0xBFB JUMPI PUSH2 0xBFA PUSH2 0x42C8 JUMP JUMPDEST JUMPDEST SWAP1 PUSH0 MSTORE PUSH1 0x20 PUSH0 KECCAK256 SWAP1 PUSH1 0x20 SWAP2 DUP3 DUP3 DIV ADD SWAP2 SWAP1 MOD SWAP1 SLOAD SWAP1 PUSH2 0x100 EXP SWAP1 DIV PUSH1 0xFF AND ISZERO ISZERO EQ JUMPDEST ISZERO PUSH2 0xC86 JUMPI PUSH1 0xE DUP4 DUP2 SLOAD DUP2 LT PUSH2 0xC36 JUMPI PUSH2 0xC35 PUSH2 0x42C8 JUMP JUMPDEST JUMPDEST SWAP1 PUSH0 MSTORE PUSH1 0x20 PUSH0 KECCAK256 SWAP1 PUSH1 0xD MUL ADD PUSH1 0x3 ADD DUP2 DUP2 SLOAD DUP2 LT PUSH2 0xC57 JUMPI PUSH2 0xC56 PUSH2 0x42C8 JUMP JUMPDEST JUMPDEST SWAP1 PUSH0 MSTORE PUSH1 0x20 PUSH0 KECCAK256 ADD SLOAD TIMESTAMP LT ISZERO PUSH2 0xC73 JUMPI DUP1 SWAP2 POP DUP1 SWAP2 POP POP PUSH2 0xC8B JUMP JUMPDEST DUP1 DUP1 PUSH2 0xC7E SWAP1 PUSH2 0x4322 JUMP JUMPDEST SWAP2 POP POP PUSH2 0xB85 JUMP JUMPDEST POP PUSH0 SWAP1 POP JUMPDEST SWAP2 SWAP1 POP JUMP JUMPDEST PUSH0 DUP1 PUSH2 0xC9A PUSH2 0x310A JUMP JUMPDEST SWAP1 POP PUSH2 0xCA7 DUP6 DUP3 DUP6 PUSH2 0x3123 JUMP JUMPDEST PUSH2 0xCB2 DUP6 DUP6 DUP6 PUSH2 0x31B5 JUMP JUMPDEST PUSH1 0x1 SWAP2 POP POP SWAP4 SWAP3 POP POP POP JUMP JUMPDEST PUSH0 PUSH1 0xE DUP1 SLOAD SWAP1 POP SWAP1 POP SWAP1 JUMP JUMPDEST PUSH2 0xCD5 CALLER DUP5 DUP5 PUSH2 0x2DB2 JUMP JUMPDEST PUSH2 0xCE0 CALLER DUP5 DUP4 PUSH2 0x2F42 JUMP JUMPDEST POP POP POP JUMP JUMPDEST PUSH0 PUSH1 0x12 SWAP1 POP SWAP1 JUMP JUMPDEST PUSH0 DUP2 GT PUSH2 0xCF8 JUMPI PUSH0 DUP1 REVERT JUMPDEST DUP1 PUSH2 0xD02 CALLER PUSH2 0xE64 JUMP JUMPDEST LT ISZERO PUSH2 0xD0C JUMPI PUSH0 DUP1 REVERT JUMPDEST PUSH2 0xD17 CALLER ADDRESS DUP4 PUSH2 0x31B5 JUMP JUMPDEST CALLER PUSH20 0xFFFFFFFFFFFFFFFFFFFFFFFFFFFFFFFFFFFFFFFF AND PUSH32 0xCCB8802DD1E68AB676B6EB220A8943F6F2F7F8578C278DF01AA2956D9E2F2B7C DUP3 PUSH1 0x40 MLOAD PUSH2 0xD5D SWAP2 SWAP1 PUSH2 0x38B9 JUMP JUMPDEST PUSH1 0x40 MLOAD DUP1 SWAP2 SUB SWAP1 LOG2 POP JUMP JUMPDEST PUSH0 DUP1 PUSH2 0xD72 PUSH2 0x32A5 JUMP JUMPDEST PUSH1 0x6 PUSH0 SWAP1 SLOAD SWAP1 PUSH2 0x100 EXP SWAP1 DIV PUSH20 0xFFFFFFFFFFFFFFFFFFFFFFFFFFFFFFFFFFFFFFFF AND PUSH20 0xFFFFFFFFFFFFFFFFFFFFFFFFFFFFFFFFFFFFFFFF AND PUSH4 0x70A08231 ADDRESS PUSH1 0x40 MLOAD DUP3 PUSH4 0xFFFFFFFF AND PUSH1 0xE0 SHL DUP2 MSTORE PUSH1 0x4 ADD PUSH2 0xDCC SWAP2 SWAP1 PUSH2 0x3BBB JUMP JUMPDEST PUSH1 0x20 PUSH1 0x40 MLOAD DUP1 DUP4 SUB DUP2 DUP7 GAS STATICCALL ISZERO DUP1 ISZERO PUSH2 0xDE7 JUMPI RETURNDATASIZE PUSH0 DUP1 RETURNDATACOPY RETURNDATASIZE PUSH0 REVERT JUMPDEST POP POP POP POP PUSH1 0x40 MLOAD RETURNDATASIZE PUSH1 0x1F NOT PUSH1 0x1F DUP3 ADD AND DUP3 ADD DUP1 PUSH1 0x40 MSTORE POP DUP2 ADD SWAP1 PUSH2 0xE0B SWAP2 SWAP1 PUSH2 0x440D JUMP JUMPDEST PUSH2 0xE15 SWAP2 SWAP1 PUSH2 0x43C6 JUMP JUMPDEST SWAP1 POP DUP1 SWAP2 POP POP SWAP1 JUMP JUMPDEST PUSH0 PUSH1 0x7 PUSH0 DUP4 PUSH20 0xFFFFFFFFFFFFFFFFFFFFFFFFFFFFFFFFFFFFFFFF AND PUSH20 0xFFFFFFFFFFFFFFFFFFFFFFFFFFFFFFFFFFFFFFFF AND DUP2 MSTORE PUSH1 0x20 ADD SWAP1 DUP2 MSTORE PUSH1 0x20 ADD PUSH0 KECCAK256 SLOAD SWAP1 POP SWAP2 SWAP1 POP JUMP JUMPDEST PUSH0 DUP1 PUSH0 DUP4 PUSH20 0xFFFFFFFFFFFFFFFFFFFFFFFFFFFFFFFFFFFFFFFF AND PUSH20 0xFFFFFFFFFFFFFFFFFFFFFFFFFFFFFFFFFFFFFFFF AND DUP2 MSTORE PUSH1 0x20 ADD SWAP1 DUP2 MSTORE PUSH1 0x20 ADD PUSH0 KECCAK256 SLOAD SWAP1 POP SWAP2 SWAP1 POP JUMP JUMPDEST PUSH1 0x11 PUSH1 0x20 MSTORE DUP1 PUSH0 MSTORE PUSH1 0x40 PUSH0 KECCAK256 PUSH0 SWAP2 POP SLOAD SWAP1 PUSH2 0x100 EXP SWAP1 DIV PUSH1 0xFF AND DUP2 JUMP JUMPDEST PUSH2 0xECE PUSH2 0x8A9 JUMP JUMPDEST POP PUSH1 0xE DUP1 SLOAD SWAP1 POP DUP2 LT PUSH2 0xEDF JUMPI PUSH0 DUP1 REVERT JUMPDEST PUSH1 0xA PUSH2 0xEE9 PUSH2 0x8A9 JUMP JUMPDEST PUSH2 0xEF3 SWAP2 SWAP1 PUSH2 0x4465 JUMP JUMPDEST PUSH1 0xE DUP3 DUP2 SLOAD DUP2 LT PUSH2 0xF07 JUMPI PUSH2 0xF06 PUSH2 0x42C8 JUMP JUMPDEST JUMPDEST SWAP1 PUSH0 MSTORE PUSH1 0x20 PUSH0 KECCAK256 SWAP1 PUSH1 0xD MUL ADD PUSH1 0x7 ADD SLOAD LT ISZERO PUSH2 0xF21 JUMPI PUSH0 DUP1 REVERT JUMPDEST PUSH1 0xE DUP2 DUP2 SLOAD DUP2 LT PUSH2 0xF35 JUMPI PUSH2 0xF34 PUSH2 0x42C8 JUMP JUMPDEST JUMPDEST SWAP1 PUSH0 MSTORE PUSH1 0x20 PUSH0 KECCAK256 SWAP1 PUSH1 0xD MUL ADD PUSH1 0xA ADD SLOAD PUSH1 0x6 PUSH0 SWAP1 SLOAD SWAP1 PUSH2 0x100 EXP SWAP1 DIV PUSH20 0xFFFFFFFFFFFFFFFFFFFFFFFFFFFFFFFFFFFFFFFF AND PUSH20 0xFFFFFFFFFFFFFFFFFFFFFFFFFFFFFFFFFFFFFFFF AND PUSH4 0x70A08231 ADDRESS PUSH1 0x40 MLOAD DUP3 PUSH4 0xFFFFFFFF AND PUSH1 0xE0 SHL DUP2 MSTORE PUSH1 0x4 ADD PUSH2 0xF9F SWAP2 SWAP1 PUSH2 0x3BBB JUMP JUMPDEST PUSH1 0x20 PUSH1 0x40 MLOAD DUP1 DUP4 SUB DUP2 DUP7 GAS STATICCALL ISZERO DUP1 ISZERO PUSH2 0xFBA JUMPI RETURNDATASIZE PUSH0 DUP1 RETURNDATACOPY RETURNDATASIZE PUSH0 REVERT JUMPDEST POP POP POP POP PUSH1 0x40 MLOAD RETURNDATASIZE PUSH1 0x1F NOT PUSH1 0x1F DUP3 ADD AND DUP3 ADD DUP1 PUSH1 0x40 MSTORE POP DUP2 ADD SWAP1 PUSH2 0xFDE SWAP2 SWAP1 PUSH2 0x440D JUMP JUMPDEST LT ISZERO PUSH2 0xFE8 JUMPI PUSH0 DUP1 REVERT JUMPDEST PUSH1 0x1 PUSH1 0xE DUP3 DUP2 SLOAD DUP2 LT PUSH2 0xFFE JUMPI PUSH2 0xFFD PUSH2 0x42C8 JUMP JUMPDEST JUMPDEST SWAP1 PUSH0 MSTORE PUSH1 0x20 PUSH0 KECCAK256 SWAP1 PUSH1 0xD MUL ADD PUSH1 0x9 ADD PUSH0 PUSH2 0x100 EXP DUP2 SLOAD DUP2 PUSH1 0xFF MUL NOT AND SWAP1 DUP4 ISZERO ISZERO MUL OR SWAP1 SSTORE POP POP JUMP JUMPDEST PUSH1 0xA PUSH1 0x20 MSTORE DUP1 PUSH0 MSTORE PUSH1 0x40 PUSH0 KECCAK256 PUSH0 SWAP2 POP SLOAD SWAP1 PUSH2 0x100 EXP SWAP1 DIV PUSH1 0xFF AND DUP2 JUMP JUMPDEST PUSH0 PUSH1 0xE DUP1 SLOAD SWAP1 POP DUP3 LT PUSH2 0x1054 JUMPI PUSH0 DUP1 REVERT JUMPDEST PUSH1 0xE DUP3 DUP2 SLOAD DUP2 LT PUSH2 0x1068 JUMPI PUSH2 0x1067 PUSH2 0x42C8 JUMP JUMPDEST JUMPDEST SWAP1 PUSH0 MSTORE PUSH1 0x20 PUSH0 KECCAK256 SWAP1 PUSH1 0xD MUL ADD PUSH1 0xB ADD PUSH0 SWAP1 SLOAD SWAP1 PUSH2 0x100 EXP SWAP1 DIV PUSH20 0xFFFFFFFFFFFFFFFFFFFFFFFFFFFFFFFFFFFFFFFF AND SWAP1 POP SWAP2 SWAP1 POP JUMP JUMPDEST PUSH1 0x60 PUSH1 0x4 DUP1 SLOAD PUSH2 0x10AD SWAP1 PUSH2 0x4396 JUMP JUMPDEST DUP1 PUSH1 0x1F ADD PUSH1 0x20 DUP1 SWAP2 DIV MUL PUSH1 0x20 ADD PUSH1 0x40 MLOAD SWAP1 DUP2 ADD PUSH1 0x40 MSTORE DUP1 SWAP3 SWAP2 SWAP1 DUP2 DUP2 MSTORE PUSH1 0x20 ADD DUP3 DUP1 SLOAD PUSH2 0x10D9 SWAP1 PUSH2 0x4396 JUMP JUMPDEST DUP1 ISZERO PUSH2 0x1124 JUMPI DUP1 PUSH1 0x1F LT PUSH2 0x10FB JUMPI PUSH2 0x100 DUP1 DUP4 SLOAD DIV MUL DUP4 MSTORE SWAP2 PUSH1 0x20 ADD SWAP2 PUSH2 0x1124 JUMP JUMPDEST DUP3 ADD SWAP2 SWAP1 PUSH0 MSTORE PUSH1 0x20 PUSH0 KECCAK256 SWAP1 JUMPDEST DUP2 SLOAD DUP2 MSTORE SWAP1 PUSH1 0x1 ADD SWAP1 PUSH1 0x20 ADD DUP1 DUP4 GT PUSH2 0x1107 JUMPI DUP3 SWAP1 SUB PUSH1 0x1F AND DUP3 ADD SWAP2 JUMPDEST POP POP POP POP POP SWAP1 POP SWAP1 JUMP JUMPDEST PUSH1 0x5 PUSH0 SWAP1 SLOAD SWAP1 PUSH2 0x100 EXP SWAP1 DIV PUSH20 0xFFFFFFFFFFFFFFFFFFFFFFFFFFFFFFFFFFFFFFFF AND DUP2 JUMP JUMPDEST PUSH1 0xE DUP1 SLOAD SWAP1 POP DUP2 LT PUSH2 0x1163 JUMPI PUSH0 DUP1 REVERT JUMPDEST PUSH1 0xE DUP2 DUP2 SLOAD DUP2 LT PUSH2 0x1177 JUMPI PUSH2 0x1176 PUSH2 0x42C8 JUMP JUMPDEST JUMPDEST SWAP1 PUSH0 MSTORE PUSH1 0x20 PUSH0 KECCAK256 SWAP1 PUSH1 0xD MUL ADD PUSH1 0xB ADD PUSH0 SWAP1 SLOAD SWAP1 PUSH2 0x100 EXP SWAP1 DIV PUSH20 0xFFFFFFFFFFFFFFFFFFFFFFFFFFFFFFFFFFFFFFFF AND PUSH20 0xFFFFFFFFFFFFFFFFFFFFFFFFFFFFFFFFFFFFFFFF AND CALLER PUSH20 0xFFFFFFFFFFFFFFFFFFFFFFFFFFFFFFFFFFFFFFFF AND EQ PUSH2 0x11DC JUMPI PUSH0 DUP1 REVERT JUMPDEST PUSH1 0xE DUP2 DUP2 SLOAD DUP2 LT PUSH2 0x11F0 JUMPI PUSH2 0x11EF PUSH2 0x42C8 JUMP JUMPDEST JUMPDEST SWAP1 PUSH0 MSTORE PUSH1 0x20 PUSH0 KECCAK256 SWAP1 PUSH1 0xD MUL ADD PUSH1 0x9 ADD PUSH1 0x1 SWAP1 SLOAD SWAP1 PUSH2 0x100 EXP SWAP1 DIV PUSH1 0xFF AND PUSH2 0x1215 JUMPI PUSH0 DUP1 REVERT JUMPDEST PUSH0 JUMPDEST PUSH1 0xE DUP3 DUP2 SLOAD DUP2 LT PUSH2 0x122B JUMPI PUSH2 0x122A PUSH2 0x42C8 JUMP JUMPDEST JUMPDEST SWAP1 PUSH0 MSTORE PUSH1 0x20 PUSH0 KECCAK256 SWAP1 PUSH1 0xD MUL ADD PUSH1 0x3 ADD DUP1 SLOAD SWAP1 POP DUP2 LT ISZERO PUSH2 0x1548 JUMPI PUSH1 0xE DUP3 DUP2 SLOAD DUP2 LT PUSH2 0x1259 JUMPI PUSH2 0x1258 PUSH2 0x42C8 JUMP JUMPDEST JUMPDEST SWAP1 PUSH0 MSTORE PUSH1 0x20 PUSH0 KECCAK256 SWAP1 PUSH1 0xD MUL ADD PUSH1 0x3 ADD DUP2 DUP2 SLOAD DUP2 LT PUSH2 0x127A JUMPI PUSH2 0x1279 PUSH2 0x42C8 JUMP JUMPDEST JUMPDEST SWAP1 PUSH0 MSTORE PUSH1 0x20 PUSH0 KECCAK256 ADD SLOAD TIMESTAMP GT ISZERO DUP1 ISZERO PUSH2 0x12E1 JUMPI POP PUSH1 0xE DUP3 DUP2 SLOAD DUP2 LT PUSH2 0x12A1 JUMPI PUSH2 0x12A0 PUSH2 0x42C8 JUMP JUMPDEST JUMPDEST SWAP1 PUSH0 MSTORE PUSH1 0x20 PUSH0 KECCAK256 SWAP1 PUSH1 0xD MUL ADD PUSH1 0x4 ADD DUP2 DUP2 SLOAD DUP2 LT PUSH2 0x12C2 JUMPI PUSH2 0x12C1 PUSH2 0x42C8 JUMP JUMPDEST JUMPDEST SWAP1 PUSH0 MSTORE PUSH1 0x20 PUSH0 KECCAK256 SWAP1 PUSH1 0x20 SWAP2 DUP3 DUP3 DIV ADD SWAP2 SWAP1 MOD SWAP1 SLOAD SWAP1 PUSH2 0x100 EXP SWAP1 DIV PUSH1 0xFF AND JUMPDEST ISZERO PUSH2 0x153B JUMPI PUSH1 0x6 PUSH0 SWAP1 SLOAD SWAP1 PUSH2 0x100 EXP SWAP1 DIV PUSH20 0xFFFFFFFFFFFFFFFFFFFFFFFFFFFFFFFFFFFFFFFF AND PUSH20 0xFFFFFFFFFFFFFFFFFFFFFFFFFFFFFFFFFFFFFFFF AND PUSH4 0x23B872DD ADDRESS CALLER PUSH1 0xE DUP7 DUP2 SLOAD DUP2 LT PUSH2 0x1339 JUMPI PUSH2 0x1338 PUSH2 0x42C8 JUMP JUMPDEST JUMPDEST SWAP1 PUSH0 MSTORE PUSH1 0x20 PUSH0 KECCAK256 SWAP1 PUSH1 0xD MUL ADD PUSH1 0x2 ADD DUP6 DUP2 SLOAD DUP2 LT PUSH2 0x135A JUMPI PUSH2 0x1359 PUSH2 0x42C8 JUMP JUMPDEST JUMPDEST SWAP1 PUSH0 MSTORE PUSH1 0x20 PUSH0 KECCAK256 ADD SLOAD PUSH1 0x40 MLOAD DUP5 PUSH4 0xFFFFFFFF AND PUSH1 0xE0 SHL DUP2 MSTORE PUSH1 0x4 ADD PUSH2 0x1381 SWAP4 SWAP3 SWAP2 SWAP1 PUSH2 0x4495 JUMP JUMPDEST PUSH1 0x20 PUSH1 0x40 MLOAD DUP1 DUP4 SUB DUP2 PUSH0 DUP8 GAS CALL ISZERO DUP1 ISZERO PUSH2 0x139D JUMPI RETURNDATASIZE PUSH0 DUP1 RETURNDATACOPY RETURNDATASIZE PUSH0 REVERT JUMPDEST POP POP POP POP PUSH1 0x40 MLOAD RETURNDATASIZE PUSH1 0x1F NOT PUSH1 0x1F DUP3 ADD AND DUP3 ADD DUP1 PUSH1 0x40 MSTORE POP DUP2 ADD SWAP1 PUSH2 0x13C1 SWAP2 SWAP1 PUSH2 0x44DE JUMP JUMPDEST POP CALLER PUSH20 0xFFFFFFFFFFFFFFFFFFFFFFFFFFFFFFFFFFFFFFFF AND DUP3 PUSH32 0x41045142A60F1B5EBB694509F75C4E837C18604C6D262604B1D28EE1F3129A46 PUSH1 0xE DUP6 DUP2 SLOAD DUP2 LT PUSH2 0x140F JUMPI PUSH2 0x140E PUSH2 0x42C8 JUMP JUMPDEST JUMPDEST SWAP1 PUSH0 MSTORE PUSH1 0x20 PUSH0 KECCAK256 SWAP1 PUSH1 0xD MUL ADD PUSH1 0x2 ADD DUP5 DUP2 SLOAD DUP2 LT PUSH2 0x1430 JUMPI PUSH2 0x142F PUSH2 0x42C8 JUMP JUMPDEST JUMPDEST SWAP1 PUSH0 MSTORE PUSH1 0x20 PUSH0 KECCAK256 ADD SLOAD PUSH1 0x40 MLOAD PUSH2 0x1446 SWAP2 SWAP1 PUSH2 0x38B9 JUMP JUMPDEST PUSH1 0x40 MLOAD DUP1 SWAP2 SUB SWAP1 LOG3 PUSH1 0xE DUP3 DUP2 SLOAD DUP2 LT PUSH2 0x1462 JUMPI PUSH2 0x1461 PUSH2 0x42C8 JUMP JUMPDEST JUMPDEST SWAP1 PUSH0 MSTORE PUSH1 0x20 PUSH0 KECCAK256 SWAP1 PUSH1 0xD MUL ADD PUSH1 0x2 ADD DUP2 DUP2 SLOAD DUP2 LT PUSH2 0x1483 JUMPI PUSH2 0x1482 PUSH2 0x42C8 JUMP JUMPDEST JUMPDEST SWAP1 PUSH0 MSTORE PUSH1 0x20 PUSH0 KECCAK256 ADD SLOAD PUSH1 0xE DUP4 DUP2 SLOAD DUP2 LT PUSH2 0x14A0 JUMPI PUSH2 0x149F PUSH2 0x42C8 JUMP JUMPDEST JUMPDEST SWAP1 PUSH0 MSTORE PUSH1 0x20 PUSH0 KECCAK256 SWAP1 PUSH1 0xD MUL ADD PUSH1 0xA ADD PUSH0 DUP3 DUP3 SLOAD PUSH2 0x14BD SWAP2 SWAP1 PUSH2 0x43C6 JUMP JUMPDEST SWAP3 POP POP DUP2 SWAP1 SSTORE POP PUSH1 0xE DUP3 DUP2 SLOAD DUP2 LT PUSH2 0x14D8 JUMPI PUSH2 0x14D7 PUSH2 0x42C8 JUMP JUMPDEST JUMPDEST SWAP1 PUSH0 MSTORE PUSH1 0x20 PUSH0 KECCAK256 SWAP1 PUSH1 0xD MUL ADD PUSH1 0x2 ADD DUP2 DUP2 SLOAD DUP2 LT PUSH2 0x14F9 JUMPI PUSH2 0x14F8 PUSH2 0x42C8 JUMP JUMPDEST JUMPDEST SWAP1 PUSH0 MSTORE PUSH1 0x20 PUSH0 KECCAK256 ADD SLOAD PUSH1 0xE DUP4 DUP2 SLOAD DUP2 LT PUSH2 0x1516 JUMPI PUSH2 0x1515 PUSH2 0x42C8 JUMP JUMPDEST JUMPDEST SWAP1 PUSH0 MSTORE PUSH1 0x20 PUSH0 KECCAK256 SWAP1 PUSH1 0xD MUL ADD PUSH1 0xC ADD PUSH0 DUP3 DUP3 SLOAD PUSH2 0x1533 SWAP2 SWAP1 PUSH2 0x4509 JUMP JUMPDEST SWAP3 POP POP DUP2 SWAP1 SSTORE POP JUMPDEST DUP1 DUP1 PUSH1 0x1 ADD SWAP2 POP POP PUSH2 0x1217 JUMP JUMPDEST POP POP JUMP JUMPDEST PUSH2 0x1554 PUSH2 0x8A9 JUMP JUMPDEST POP PUSH1 0xE DUP1 SLOAD SWAP1 POP DUP2 LT DUP1 ISZERO PUSH2 0x15AF JUMPI POP PUSH1 0xA PUSH0 DUP4 PUSH20 0xFFFFFFFFFFFFFFFFFFFFFFFFFFFFFFFFFFFFFFFF AND PUSH20 0xFFFFFFFFFFFFFFFFFFFFFFFFFFFFFFFFFFFFFFFF AND DUP2 MSTORE PUSH1 0x20 ADD SWAP1 DUP2 MSTORE PUSH1 0x20 ADD PUSH0 KECCAK256 PUSH0 SWAP1 SLOAD SWAP1 PUSH2 0x100 EXP SWAP1 DIV PUSH1 0xFF AND JUMPDEST DUP1 ISZERO PUSH2 0x1611 JUMPI POP PUSH1 0x10 PUSH0 DUP3 DUP2 MSTORE PUSH1 0x20 ADD SWAP1 DUP2 MSTORE PUSH1 0x20 ADD PUSH0 KECCAK256 PUSH0 CALLER PUSH20 0xFFFFFFFFFFFFFFFFFFFFFFFFFFFFFFFFFFFFFFFF AND PUSH20 0xFFFFFFFFFFFFFFFFFFFFFFFFFFFFFFFFFFFFFFFF AND DUP2 MSTORE PUSH1 0x20 ADD SWAP1 DUP2 MSTORE PUSH1 0x20 ADD PUSH0 KECCAK256 PUSH0 SWAP1 SLOAD SWAP1 PUSH2 0x100 EXP SWAP1 DIV PUSH1 0xFF AND ISZERO JUMPDEST DUP1 ISZERO PUSH2 0x1673 JUMPI POP PUSH1 0x12 PUSH0 DUP3 DUP2 MSTORE PUSH1 0x20 ADD SWAP1 DUP2 MSTORE PUSH1 0x20 ADD PUSH0 KECCAK256 PUSH0 CALLER PUSH20 0xFFFFFFFFFFFFFFFFFFFFFFFFFFFFFFFFFFFFFFFF AND PUSH20 0xFFFFFFFFFFFFFFFFFFFFFFFFFFFFFFFFFFFFFFFF AND DUP2 MSTORE PUSH1 0x20 ADD SWAP1 DUP2 MSTORE PUSH1 0x20 ADD PUSH0 KECCAK256 PUSH0 SWAP1 SLOAD SWAP1 PUSH2 0x100 EXP SWAP1 DIV PUSH1 0xFF AND ISZERO JUMPDEST PUSH2 0x167B JUMPI PUSH0 DUP1 REVERT JUMPDEST PUSH1 0x1 PUSH1 0x12 PUSH0 DUP4 DUP2 MSTORE PUSH1 0x20 ADD SWAP1 DUP2 MSTORE PUSH1 0x20 ADD PUSH0 KECCAK256 PUSH0 CALLER PUSH20 0xFFFFFFFFFFFFFFFFFFFFFFFFFFFFFFFFFFFFFFFF AND PUSH20 0xFFFFFFFFFFFFFFFFFFFFFFFFFFFFFFFFFFFFFFFF AND DUP2 MSTORE PUSH1 0x20 ADD SWAP1 DUP2 MSTORE PUSH1 0x20 ADD PUSH0 KECCAK256 PUSH0 PUSH2 0x100 EXP DUP2 SLOAD DUP2 PUSH1 0xFF MUL NOT AND SWAP1 DUP4 ISZERO ISZERO MUL OR SWAP1 SSTORE POP PUSH1 0x13 PUSH0 DUP3 DUP2 MSTORE PUSH1 0x20 ADD SWAP1 DUP2 MSTORE PUSH1 0x20 ADD PUSH0 KECCAK256 PUSH0 DUP4 PUSH20 0xFFFFFFFFFFFFFFFFFFFFFFFFFFFFFFFFFFFFFFFF AND PUSH20 0xFFFFFFFFFFFFFFFFFFFFFFFFFFFFFFFFFFFFFFFF AND DUP2 MSTORE PUSH1 0x20 ADD SWAP1 DUP2 MSTORE PUSH1 0x20 ADD PUSH0 KECCAK256 PUSH0 DUP2 SLOAD DUP1 SWAP3 SWAP2 SWAP1 PUSH2 0x173B SWAP1 PUSH2 0x4322 JUMP JUMPDEST SWAP2 SWAP1 POP SSTORE POP CALLER PUSH20 0xFFFFFFFFFFFFFFFFFFFFFFFFFFFFFFFFFFFFFFFF AND DUP2 PUSH32 0x8A19902C1356176F164D6EEEE88DB031B1718565C98C90873907B79B920FBAFE PUSH1 0x1 PUSH1 0x40 MLOAD PUSH2 0x1788 SWAP2 SWAP1 PUSH2 0x3A7B JUMP JUMPDEST PUSH1 0x40 MLOAD DUP1 SWAP2 SUB SWAP1 LOG3 POP POP JUMP JUMPDEST PUSH1 0xF PUSH1 0x20 MSTORE DUP2 PUSH0 MSTORE PUSH1 0x40 PUSH0 KECCAK256 PUSH1 0x20 MSTORE DUP1 PUSH0 MSTORE PUSH1 0x40 PUSH0 KECCAK256 PUSH0 SWAP2 POP SWAP2 POP SWAP1 SLOAD SWAP1 PUSH2 0x100 EXP SWAP1 DIV PUSH1 0xFF AND DUP2 JUMP JUMPDEST PUSH0 TIMESTAMP DUP5 GT DUP1 ISZERO PUSH2 0x17E7 JUMPI POP DUP4 DUP3 PUSH0 DUP2 MLOAD DUP2 LT PUSH2 0x17DD JUMPI PUSH2 0x17DC PUSH2 0x42C8 JUMP JUMPDEST JUMPDEST PUSH1 0x20 MUL PUSH1 0x20 ADD ADD MLOAD GT JUMPDEST PUSH2 0x17EF JUMPI PUSH0 DUP1 REVERT JUMPDEST PUSH0 JUMPDEST PUSH1 0x1 DUP4 MLOAD PUSH2 0x17FF SWAP2 SWAP1 PUSH2 0x43C6 JUMP JUMPDEST DUP2 LT ISZERO PUSH2 0x185E JUMPI DUP3 PUSH1 0x1 DUP3 PUSH2 0x1814 SWAP2 SWAP1 PUSH2 0x4509 JUMP JUMPDEST DUP2 MLOAD DUP2 LT PUSH2 0x1825 JUMPI PUSH2 0x1824 PUSH2 0x42C8 JUMP JUMPDEST JUMPDEST PUSH1 0x20 MUL PUSH1 0x20 ADD ADD MLOAD DUP4 DUP3 DUP2 MLOAD DUP2 LT PUSH2 0x1840 JUMPI PUSH2 0x183F PUSH2 0x42C8 JUMP JUMPDEST JUMPDEST PUSH1 0x20 MUL PUSH1 0x20 ADD ADD MLOAD LT PUSH2 0x1851 JUMPI PUSH0 DUP1 REVERT JUMPDEST DUP1 DUP1 PUSH1 0x1 ADD SWAP2 POP POP PUSH2 0x17F1 JUMP JUMPDEST POP PUSH1 0x5 PUSH2 0x186A CALLER PUSH2 0xE64 JUMP JUMPDEST LT ISZERO DUP1 ISZERO PUSH2 0x1911 JUMPI POP PUSH1 0x32 PUSH1 0x6 PUSH0 SWAP1 SLOAD SWAP1 PUSH2 0x100 EXP SWAP1 DIV PUSH20 0xFFFFFFFFFFFFFFFFFFFFFFFFFFFFFFFFFFFFFFFF AND PUSH20 0xFFFFFFFFFFFFFFFFFFFFFFFFFFFFFFFFFFFFFFFF AND PUSH4 0x70A08231 CALLER PUSH1 0x40 MLOAD DUP3 PUSH4 0xFFFFFFFF AND PUSH1 0xE0 SHL DUP2 MSTORE PUSH1 0x4 ADD PUSH2 0x18CF SWAP2 SWAP1 PUSH2 0x3BBB JUMP JUMPDEST PUSH1 0x20 PUSH1 0x40 MLOAD DUP1 DUP4 SUB DUP2 DUP7 GAS STATICCALL ISZERO DUP1 ISZERO PUSH2 0x18EA JUMPI RETURNDATASIZE PUSH0 DUP1 RETURNDATACOPY RETURNDATASIZE PUSH0 REVERT JUMPDEST POP POP POP POP PUSH1 0x40 MLOAD RETURNDATASIZE PUSH1 0x1F NOT PUSH1 0x1F DUP3 ADD AND DUP3 ADD DUP1 PUSH1 0x40 MSTORE POP DUP2 ADD SWAP1 PUSH2 0x190E SWAP2 SWAP1 PUSH2 0x440D JUMP JUMPDEST LT ISZERO JUMPDEST PUSH2 0x1919 JUMPI PUSH0 DUP1 REVERT JUMPDEST PUSH2 0x1924 CALLER PUSH1 0x5 PUSH2 0x1D51 JUMP JUMPDEST POP PUSH1 0x6 PUSH0 SWAP1 SLOAD SWAP1 PUSH2 0x100 EXP SWAP1 DIV PUSH20 0xFFFFFFFFFFFFFFFFFFFFFFFFFFFFFFFFFFFFFFFF AND PUSH20 0xFFFFFFFFFFFFFFFFFFFFFFFFFFFFFFFFFFFFFFFF AND PUSH4 0x23B872DD CALLER ADDRESS PUSH1 0x32 PUSH1 0x40 MLOAD DUP5 PUSH4 0xFFFFFFFF AND PUSH1 0xE0 SHL DUP2 MSTORE PUSH1 0x4 ADD PUSH2 0x1984 SWAP4 SWAP3 SWAP2 SWAP1 PUSH2 0x4575 JUMP JUMPDEST PUSH1 0x20 PUSH1 0x40 MLOAD DUP1 DUP4 SUB DUP2 PUSH0 DUP8 GAS CALL ISZERO DUP1 ISZERO PUSH2 0x19A0 JUMPI RETURNDATASIZE PUSH0 DUP1 RETURNDATACOPY RETURNDATASIZE PUSH0 REVERT JUMPDEST POP POP POP POP PUSH1 0x40 MLOAD RETURNDATASIZE PUSH1 0x1F NOT PUSH1 0x1F DUP3 ADD AND DUP3 ADD DUP1 PUSH1 0x40 MSTORE POP DUP2 ADD SWAP1 PUSH2 0x19C4 SWAP2 SWAP1 PUSH2 0x44DE JUMP JUMPDEST POP PUSH0 DUP1 JUMPDEST DUP5 MLOAD DUP2 LT ISZERO PUSH2 0x1A06 JUMPI DUP5 DUP2 DUP2 MLOAD DUP2 LT PUSH2 0x19E4 JUMPI PUSH2 0x19E3 PUSH2 0x42C8 JUMP JUMPDEST JUMPDEST PUSH1 0x20 MUL PUSH1 0x20 ADD ADD MLOAD DUP3 PUSH2 0x19F7 SWAP2 SWAP1 PUSH2 0x4509 JUMP JUMPDEST SWAP2 POP DUP1 DUP1 PUSH1 0x1 ADD SWAP2 POP POP PUSH2 0x19C8 JUMP JUMPDEST POP PUSH0 DUP2 SWAP1 POP PUSH0 PUSH1 0x40 MLOAD DUP1 PUSH2 0x1C0 ADD PUSH1 0x40 MSTORE DUP1 DUP10 DUP2 MSTORE PUSH1 0x20 ADD DUP9 DUP2 MSTORE PUSH1 0x20 ADD DUP8 DUP2 MSTORE PUSH1 0x20 ADD DUP7 DUP2 MSTORE PUSH1 0x20 ADD DUP7 MLOAD PUSH8 0xFFFFFFFFFFFFFFFF DUP2 GT ISZERO PUSH2 0x1A4B JUMPI PUSH2 0x1A4A PUSH2 0x3C50 JUMP JUMPDEST JUMPDEST PUSH1 0x40 MLOAD SWAP1 DUP1 DUP3 MSTORE DUP1 PUSH1 0x20 MUL PUSH1 0x20 ADD DUP3 ADD PUSH1 0x40 MSTORE DUP1 ISZERO PUSH2 0x1A79 JUMPI DUP2 PUSH1 0x20 ADD PUSH1 0x20 DUP3 MUL DUP1 CALLDATASIZE DUP4 CALLDATACOPY DUP1 DUP3 ADD SWAP2 POP POP SWAP1 POP JUMPDEST POP DUP2 MSTORE PUSH1 0x20 ADD DUP7 MLOAD PUSH8 0xFFFFFFFFFFFFFFFF DUP2 GT ISZERO PUSH2 0x1A9A JUMPI PUSH2 0x1A99 PUSH2 0x3C50 JUMP JUMPDEST JUMPDEST PUSH1 0x40 MLOAD SWAP1 DUP1 DUP3 MSTORE DUP1 PUSH1 0x20 MUL PUSH1 0x20 ADD DUP3 ADD PUSH1 0x40 MSTORE DUP1 ISZERO PUSH2 0x1AC8 JUMPI DUP2 PUSH1 0x20 ADD PUSH1 0x20 DUP3 MUL DUP1 CALLDATASIZE DUP4 CALLDATACOPY DUP1 DUP3 ADD SWAP2 POP POP SWAP1 POP JUMPDEST POP DUP2 MSTORE PUSH1 0x20 ADD DUP7 MLOAD PUSH8 0xFFFFFFFFFFFFFFFF DUP2 GT ISZERO PUSH2 0x1AE9 JUMPI PUSH2 0x1AE8 PUSH2 0x3C50 JUMP JUMPDEST JUMPDEST PUSH1 0x40 MLOAD SWAP1 DUP1 DUP3 MSTORE DUP1 PUSH1 0x20 MUL PUSH1 0x20 ADD DUP3 ADD PUSH1 0x40 MSTORE DUP1 ISZERO PUSH2 0x1B17 JUMPI DUP2 PUSH1 0x20 ADD PUSH1 0x20 DUP3 MUL DUP1 CALLDATASIZE DUP4 CALLDATACOPY DUP1 DUP3 ADD SWAP2 POP POP SWAP1 POP JUMPDEST POP DUP2 MSTORE PUSH1 0x20 ADD PUSH0 DUP2 MSTORE PUSH1 0x20 ADD PUSH0 DUP2 MSTORE PUSH1 0x20 ADD PUSH0 ISZERO ISZERO DUP2 MSTORE PUSH1 0x20 ADD PUSH0 ISZERO ISZERO DUP2 MSTORE PUSH1 0x20 ADD DUP4 DUP2 MSTORE PUSH1 0x20 ADD CALLER PUSH20 0xFFFFFFFFFFFFFFFFFFFFFFFFFFFFFFFFFFFFFFFF AND DUP2 MSTORE PUSH1 0x20 ADD PUSH0 DUP2 MSTORE POP SWAP1 POP PUSH1 0xE DUP2 SWAP1 DUP1 PUSH1 0x1 DUP2 SLOAD ADD DUP1 DUP3 SSTORE DUP1 SWAP2 POP POP PUSH1 0x1 SWAP1 SUB SWAP1 PUSH0 MSTORE PUSH1 0x20 PUSH0 KECCAK256 SWAP1 PUSH1 0xD MUL ADD PUSH0 SWAP1 SWAP2 SWAP1 SWAP2 SWAP1 SWAP2 POP PUSH0 DUP3 ADD MLOAD DUP2 PUSH0 ADD SWAP1 DUP2 PUSH2 0x1B9D SWAP2 SWAP1 PUSH2 0x473E JUMP JUMPDEST POP PUSH1 0x20 DUP3 ADD MLOAD DUP2 PUSH1 0x1 ADD SSTORE PUSH1 0x40 DUP3 ADD MLOAD DUP2 PUSH1 0x2 ADD SWAP1 DUP1 MLOAD SWAP1 PUSH1 0x20 ADD SWAP1 PUSH2 0x1BC4 SWAP3 SWAP2 SWAP1 PUSH2 0x379A JUMP JUMPDEST POP PUSH1 0x60 DUP3 ADD MLOAD DUP2 PUSH1 0x3 ADD SWAP1 DUP1 MLOAD SWAP1 PUSH1 0x20 ADD SWAP1 PUSH2 0x1BE1 SWAP3 SWAP2 SWAP1 PUSH2 0x379A JUMP JUMPDEST POP PUSH1 0x80 DUP3 ADD MLOAD DUP2 PUSH1 0x4 ADD SWAP1 DUP1 MLOAD SWAP1 PUSH1 0x20 ADD SWAP1 PUSH2 0x1BFE SWAP3 SWAP2 SWAP1 PUSH2 0x37E5 JUMP JUMPDEST POP PUSH1 0xA0 DUP3 ADD MLOAD DUP2 PUSH1 0x5 ADD SWAP1 DUP1 MLOAD SWAP1 PUSH1 0x20 ADD SWAP1 PUSH2 0x1C1B SWAP3 SWAP2 SWAP1 PUSH2 0x379A JUMP JUMPDEST POP PUSH1 0xC0 DUP3 ADD MLOAD DUP2 PUSH1 0x6 ADD SWAP1 DUP1 MLOAD SWAP1 PUSH1 0x20 ADD SWAP1 PUSH2 0x1C38 SWAP3 SWAP2 SWAP1 PUSH2 0x379A JUMP JUMPDEST POP PUSH1 0xE0 DUP3 ADD MLOAD DUP2 PUSH1 0x7 ADD SSTORE PUSH2 0x100 DUP3 ADD MLOAD DUP2 PUSH1 0x8 ADD SSTORE PUSH2 0x120 DUP3 ADD MLOAD DUP2 PUSH1 0x9 ADD PUSH0 PUSH2 0x100 EXP DUP2 SLOAD DUP2 PUSH1 0xFF MUL NOT AND SWAP1 DUP4 ISZERO ISZERO MUL OR SWAP1 SSTORE POP PUSH2 0x140 DUP3 ADD MLOAD DUP2 PUSH1 0x9 ADD PUSH1 0x1 PUSH2 0x100 EXP DUP2 SLOAD DUP2 PUSH1 0xFF MUL NOT AND SWAP1 DUP4 ISZERO ISZERO MUL OR SWAP1 SSTORE POP PUSH2 0x160 DUP3 ADD MLOAD DUP2 PUSH1 0xA ADD SSTORE PUSH2 0x180 DUP3 ADD MLOAD DUP2 PUSH1 0xB ADD PUSH0 PUSH2 0x100 EXP DUP2 SLOAD DUP2 PUSH20 0xFFFFFFFFFFFFFFFFFFFFFFFFFFFFFFFFFFFFFFFF MUL NOT AND SWAP1 DUP4 PUSH20 0xFFFFFFFFFFFFFFFFFFFFFFFFFFFFFFFFFFFFFFFF AND MUL OR SWAP1 SSTORE POP PUSH2 0x1A0 DUP3 ADD MLOAD DUP2 PUSH1 0xC ADD SSTORE POP POP PUSH1 0x1 PUSH1 0xE DUP1 SLOAD SWAP1 POP PUSH2 0x1D00 SWAP2 SWAP1 PUSH2 0x43C6 JUMP JUMPDEST SWAP4 POP CALLER PUSH20 0xFFFFFFFFFFFFFFFFFFFFFFFFFFFFFFFFFFFFFFFF AND DUP5 PUSH32 0xE387D723867CD8FF0A5FBFDA99C2183E0C8EB8CAA297784C3E146C0D2F9D0141 PUSH1 0x40 MLOAD PUSH1 0x40 MLOAD DUP1 SWAP2 SUB SWAP1 LOG3 POP POP POP SWAP5 SWAP4 POP POP POP POP JUMP JUMPDEST PUSH0 DUP1 PUSH2 0x1D5B PUSH2 0x310A JUMP JUMPDEST SWAP1 POP PUSH2 0x1D68 DUP2 DUP6 DUP6 PUSH2 0x31B5 JUMP JUMPDEST PUSH1 0x1 SWAP2 POP POP SWAP3 SWAP2 POP POP JUMP JUMPDEST PUSH1 0x13 PUSH1 0x20 MSTORE DUP2 PUSH0 MSTORE PUSH1 0x40 PUSH0 KECCAK256 PUSH1 0x20 MSTORE DUP1 PUSH0 MSTORE PUSH1 0x40 PUSH0 KECCAK256 PUSH0 SWAP2 POP SWAP2 POP POP SLOAD DUP2 JUMP JUMPDEST PUSH2 0x1D9B PUSH2 0x8A9 JUMP JUMPDEST POP PUSH0 JUMPDEST PUSH1 0xE DUP3 DUP2 SLOAD DUP2 LT PUSH2 0x1DB2 JUMPI PUSH2 0x1DB1 PUSH2 0x42C8 JUMP JUMPDEST JUMPDEST SWAP1 PUSH0 MSTORE PUSH1 0x20 PUSH0 KECCAK256 SWAP1 PUSH1 0xD MUL ADD PUSH1 0x3 ADD DUP1 SLOAD SWAP1 POP DUP2 LT ISZERO PUSH2 0x1EE1 JUMPI PUSH1 0x64 PUSH2 0x1DD6 PUSH2 0x8A9 JUMP JUMPDEST PUSH2 0x1DE0 SWAP2 SWAP1 PUSH2 0x4465 JUMP JUMPDEST PUSH1 0xE DUP4 DUP2 SLOAD DUP2 LT PUSH2 0x1DF4 JUMPI PUSH2 0x1DF3 PUSH2 0x42C8 JUMP JUMPDEST JUMPDEST SWAP1 PUSH0 MSTORE PUSH1 0x20 PUSH0 KECCAK256 SWAP1 PUSH1 0xD MUL ADD PUSH1 0x5 ADD DUP3 DUP2 SLOAD DUP2 LT PUSH2 0x1E15 JUMPI PUSH2 0x1E14 PUSH2 0x42C8 JUMP JUMPDEST JUMPDEST SWAP1 PUSH0 MSTORE PUSH1 0x20 PUSH0 KECCAK256 ADD SLOAD LT PUSH2 0x1E7E JUMPI PUSH1 0x1 ISZERO ISZERO PUSH1 0xE DUP4 DUP2 SLOAD DUP2 LT PUSH2 0x1E3B JUMPI PUSH2 0x1E3A PUSH2 0x42C8 JUMP JUMPDEST JUMPDEST SWAP1 PUSH0 MSTORE PUSH1 0x20 PUSH0 KECCAK256 SWAP1 PUSH1 0xD MUL ADD PUSH1 0x4 ADD DUP3 DUP2 SLOAD DUP2 LT PUSH2 0x1E5C JUMPI PUSH2 0x1E5B PUSH2 0x42C8 JUMP JUMPDEST JUMPDEST SWAP1 PUSH0 MSTORE PUSH1 0x20 PUSH0 KECCAK256 SWAP1 PUSH1 0x20 SWAP2 DUP3 DUP3 DIV ADD SWAP2 SWAP1 MOD SWAP1 SLOAD SWAP1 PUSH2 0x100 EXP SWAP1 POP POP POP PUSH2 0x1ED4 JUMP JUMPDEST PUSH0 ISZERO ISZERO PUSH1 0xE DUP4 DUP2 SLOAD DUP2 LT PUSH2 0x1E95 JUMPI PUSH2 0x1E94 PUSH2 0x42C8 JUMP JUMPDEST JUMPDEST SWAP1 PUSH0 MSTORE PUSH1 0x20 PUSH0 KECCAK256 SWAP1 PUSH1 0xD MUL ADD PUSH1 0x4 ADD DUP3 DUP2 SLOAD DUP2 LT PUSH2 0x1EB6 JUMPI PUSH2 0x1EB5 PUSH2 0x42C8 JUMP JUMPDEST JUMPDEST SWAP1 PUSH0 MSTORE PUSH1 0x20 PUSH0 KECCAK256 SWAP1 PUSH1 0x20 SWAP2 DUP3 DUP3 DIV ADD SWAP2 SWAP1 MOD SWAP1 SLOAD SWAP1 PUSH2 0x100 EXP SWAP1 POP POP POP JUMPDEST DUP1 DUP1 PUSH1 0x1 ADD SWAP2 POP POP PUSH2 0x1D9E JUMP JUMPDEST POP DUP1 PUSH32 0x2411B9F6A1E89DC84108FA2518C56C1C8E0994043AF15EEC01F19F7CC996ED2 PUSH1 0xE DUP4 DUP2 SLOAD DUP2 LT PUSH2 0x1F18 JUMPI PUSH2 0x1F17 PUSH2 0x42C8 JUMP JUMPDEST JUMPDEST SWAP1 PUSH0 MSTORE PUSH1 0x20 PUSH0 KECCAK256 SWAP1 PUSH1 0xD MUL ADD PUSH1 0x4 ADD PUSH1 0x40 MLOAD PUSH2 0x1F34 SWAP2 SWAP1 PUSH2 0x5537 JUMP JUMPDEST PUSH1 0x40 MLOAD DUP1 SWAP2 SUB SWAP1 LOG2 POP JUMP JUMPDEST PUSH1 0xE DUP1 SLOAD SWAP1 POP DUP2 LT DUP1 ISZERO PUSH2 0x1FC0 JUMPI POP PUSH1 0xE DUP2 DUP2 SLOAD DUP2 LT PUSH2 0x1F62 JUMPI PUSH2 0x1F61 PUSH2 0x42C8 JUMP JUMPDEST JUMPDEST SWAP1 PUSH0 MSTORE PUSH1 0x20 PUSH0 KECCAK256 SWAP1 PUSH1 0xD MUL ADD PUSH1 0xB ADD PUSH0 SWAP1 SLOAD SWAP1 PUSH2 0x100 EXP SWAP1 DIV PUSH20 0xFFFFFFFFFFFFFFFFFFFFFFFFFFFFFFFFFFFFFFFF AND PUSH20 0xFFFFFFFFFFFFFFFFFFFFFFFFFFFFFFFFFFFFFFFF AND CALLER PUSH20 0xFFFFFFFFFFFFFFFFFFFFFFFFFFFFFFFFFFFFFFFF AND EQ JUMPDEST DUP1 ISZERO PUSH2 0x1FEF JUMPI POP PUSH1 0xE DUP2 DUP2 SLOAD DUP2 LT PUSH2 0x1FDB JUMPI PUSH2 0x1FDA PUSH2 0x42C8 JUMP JUMPDEST JUMPDEST SWAP1 PUSH0 MSTORE PUSH1 0x20 PUSH0 KECCAK256 SWAP1 PUSH1 0xD MUL ADD PUSH1 0x1 ADD SLOAD TIMESTAMP GT ISZERO JUMPDEST DUP1 ISZERO PUSH2 0x2027 JUMPI POP PUSH1 0xE DUP2 DUP2 SLOAD DUP2 LT PUSH2 0x200A JUMPI PUSH2 0x2009 PUSH2 0x42C8 JUMP JUMPDEST JUMPDEST SWAP1 PUSH0 MSTORE PUSH1 0x20 PUSH0 KECCAK256 SWAP1 PUSH1 0xD MUL ADD PUSH1 0x9 ADD PUSH0 SWAP1 SLOAD SWAP1 PUSH2 0x100 EXP SWAP1 DIV PUSH1 0xFF AND JUMPDEST DUP1 ISZERO PUSH2 0x2061 JUMPI POP PUSH1 0xE DUP2 DUP2 SLOAD DUP2 LT PUSH2 0x2042 JUMPI PUSH2 0x2041 PUSH2 0x42C8 JUMP JUMPDEST JUMPDEST SWAP1 PUSH0 MSTORE PUSH1 0x20 PUSH0 KECCAK256 SWAP1 PUSH1 0xD MUL ADD PUSH1 0x9 ADD PUSH1 0x1 SWAP1 SLOAD SWAP1 PUSH2 0x100 EXP SWAP1 DIV PUSH1 0xFF AND ISZERO JUMPDEST PUSH2 0x2069 JUMPI PUSH0 DUP1 REVERT JUMPDEST PUSH1 0xE DUP2 DUP2 SLOAD DUP2 LT PUSH2 0x207D JUMPI PUSH2 0x207C PUSH2 0x42C8 JUMP JUMPDEST JUMPDEST SWAP1 PUSH0 MSTORE PUSH1 0x20 PUSH0 KECCAK256 SWAP1 PUSH1 0xD MUL ADD PUSH1 0xA ADD SLOAD PUSH2 0x2095 PUSH2 0xD68 JUMP JUMPDEST LT ISZERO PUSH2 0x209F JUMPI PUSH0 DUP1 REVERT JUMPDEST PUSH1 0x1 PUSH1 0xE DUP3 DUP2 SLOAD DUP2 LT PUSH2 0x20B5 JUMPI PUSH2 0x20B4 PUSH2 0x42C8 JUMP JUMPDEST JUMPDEST SWAP1 PUSH0 MSTORE PUSH1 0x20 PUSH0 KECCAK256 SWAP1 PUSH1 0xD MUL ADD PUSH1 0x9 ADD PUSH1 0x1 PUSH2 0x100 EXP DUP2 SLOAD DUP2 PUSH1 0xFF MUL NOT AND SWAP1 DUP4 ISZERO ISZERO MUL OR SWAP1 SSTORE POP CALLER PUSH20 0xFFFFFFFFFFFFFFFFFFFFFFFFFFFFFFFFFFFFFFFF AND DUP2 PUSH32 0x4B3A4B609559F6895D2818D4A00B0C8D09C8C1BDC7F9CBD315D3CC8279835B0A PUSH1 0x40 MLOAD PUSH1 0x40 MLOAD DUP1 SWAP2 SUB SWAP1 LOG3 POP JUMP JUMPDEST PUSH0 DUP1 PUSH0 SWAP1 POP PUSH0 JUMPDEST PUSH1 0xE DUP1 SLOAD SWAP1 POP DUP2 LT ISZERO PUSH2 0x2175 JUMPI PUSH1 0x11 PUSH0 DUP3 DUP2 MSTORE PUSH1 0x20 ADD SWAP1 DUP2 MSTORE PUSH1 0x20 ADD PUSH0 KECCAK256 PUSH0 SWAP1 SLOAD SWAP1 PUSH2 0x100 EXP SWAP1 DIV PUSH1 0xFF AND ISZERO PUSH2 0x2168 JUMPI DUP2 DUP1 PUSH2 0x2164 SWAP1 PUSH2 0x4322 JUMP JUMPDEST SWAP3 POP POP JUMPDEST DUP1 DUP1 PUSH1 0x1 ADD SWAP2 POP POP PUSH2 0x2129 JUMP JUMPDEST POP DUP1 SWAP2 POP POP SWAP1 JUMP JUMPDEST PUSH1 0x12 PUSH1 0x20 MSTORE DUP2 PUSH0 MSTORE PUSH1 0x40 PUSH0 KECCAK256 PUSH1 0x20 MSTORE DUP1 PUSH0 MSTORE PUSH1 0x40 PUSH0 KECCAK256 PUSH0 SWAP2 POP SWAP2 POP SWAP1 SLOAD SWAP1 PUSH2 0x100 EXP SWAP1 DIV PUSH1 0xFF AND DUP2 JUMP JUMPDEST PUSH0 PUSH1 0xE DUP1 SLOAD SWAP1 POP DUP3 LT PUSH2 0x21B8 JUMPI PUSH0 DUP1 REVERT JUMPDEST PUSH1 0xE DUP3 DUP2 SLOAD DUP2 LT PUSH2 0x21CC JUMPI PUSH2 0x21CB PUSH2 0x42C8 JUMP JUMPDEST JUMPDEST SWAP1 PUSH0 MSTORE PUSH1 0x20 PUSH0 KECCAK256 SWAP1 PUSH1 0xD MUL ADD PUSH1 0xC ADD SLOAD SWAP1 POP SWAP2 SWAP1 POP JUMP JUMPDEST PUSH1 0x10 PUSH1 0x20 MSTORE DUP2 PUSH0 MSTORE PUSH1 0x40 PUSH0 KECCAK256 PUSH1 0x20 MSTORE DUP1 PUSH0 MSTORE PUSH1 0x40 PUSH0 KECCAK256 PUSH0 SWAP2 POP SWAP2 POP SWAP1 SLOAD SWAP1 PUSH2 0x100 EXP SWAP1 DIV PUSH1 0xFF AND DUP2 JUMP JUMPDEST PUSH0 DUP2 GT PUSH2 0x2218 JUMPI PUSH0 DUP1 REVERT JUMPDEST DUP1 PUSH1 0x6 PUSH0 SWAP1 SLOAD SWAP1 PUSH2 0x100 EXP SWAP1 DIV PUSH20 0xFFFFFFFFFFFFFFFFFFFFFFFFFFFFFFFFFFFFFFFF AND PUSH20 0xFFFFFFFFFFFFFFFFFFFFFFFFFFFFFFFFFFFFFFFF AND PUSH4 0x70A08231 CALLER PUSH1 0x40 MLOAD DUP3 PUSH4 0xFFFFFFFF AND PUSH1 0xE0 SHL DUP2 MSTORE PUSH1 0x4 ADD PUSH2 0x2273 SWAP2 SWAP1 PUSH2 0x3BBB JUMP JUMPDEST PUSH1 0x20 PUSH1 0x40 MLOAD DUP1 DUP4 SUB DUP2 DUP7 GAS STATICCALL ISZERO DUP1 ISZERO PUSH2 0x228E JUMPI RETURNDATASIZE PUSH0 DUP1 RETURNDATACOPY RETURNDATASIZE PUSH0 REVERT JUMPDEST POP POP POP POP PUSH1 0x40 MLOAD RETURNDATASIZE PUSH1 0x1F NOT PUSH1 0x1F DUP3 ADD AND DUP3 ADD DUP1 PUSH1 0x40 MSTORE POP DUP2 ADD SWAP1 PUSH2 0x22B2 SWAP2 SWAP1 PUSH2 0x440D JUMP JUMPDEST LT ISZERO PUSH2 0x22BC JUMPI PUSH0 DUP1 REVERT JUMPDEST PUSH1 0x6 PUSH0 SWAP1 SLOAD SWAP1 PUSH2 0x100 EXP SWAP1 DIV PUSH20 0xFFFFFFFFFFFFFFFFFFFFFFFFFFFFFFFFFFFFFFFF AND PUSH20 0xFFFFFFFFFFFFFFFFFFFFFFFFFFFFFFFFFFFFFFFF AND PUSH4 0x23B872DD CALLER ADDRESS DUP5 PUSH1 0x40 MLOAD DUP5 PUSH4 0xFFFFFFFF AND PUSH1 0xE0 SHL DUP2 MSTORE PUSH1 0x4 ADD PUSH2 0x231A SWAP4 SWAP3 SWAP2 SWAP1 PUSH2 0x4495 JUMP JUMPDEST PUSH1 0x20 PUSH1 0x40 MLOAD DUP1 DUP4 SUB DUP2 PUSH0 DUP8 GAS CALL ISZERO DUP1 ISZERO PUSH2 0x2336 JUMPI RETURNDATASIZE PUSH0 DUP1 RETURNDATACOPY RETURNDATASIZE PUSH0 REVERT JUMPDEST POP POP POP POP PUSH1 0x40 MLOAD RETURNDATASIZE PUSH1 0x1F NOT PUSH1 0x1F DUP3 ADD AND DUP3 ADD DUP1 PUSH1 0x40 MSTORE POP DUP2 ADD SWAP1 PUSH2 0x235A SWAP2 SWAP1 PUSH2 0x44DE JUMP JUMPDEST POP POP JUMP JUMPDEST PUSH1 0x9 DUP2 DUP2 SLOAD DUP2 LT PUSH2 0x236D JUMPI PUSH0 DUP1 REVERT JUMPDEST SWAP1 PUSH0 MSTORE PUSH1 0x20 PUSH0 KECCAK256 ADD PUSH0 SWAP2 POP SLOAD SWAP1 PUSH2 0x100 EXP SWAP1 DIV PUSH20 0xFFFFFFFFFFFFFFFFFFFFFFFFFFFFFFFFFFFFFFFF AND DUP2 JUMP JUMPDEST PUSH1 0xE DUP2 DUP2 SLOAD DUP2 LT PUSH2 0x23A8 JUMPI PUSH0 DUP1 REVERT JUMPDEST SWAP1 PUSH0 MSTORE PUSH1 0x20 PUSH0 KECCAK256 SWAP1 PUSH1 0xD MUL ADD PUSH0 SWAP2 POP SWAP1 POP DUP1 PUSH0 ADD DUP1 SLOAD PUSH2 0x23C7 SWAP1 PUSH2 0x4396 JUMP JUMPDEST DUP1 PUSH1 0x1F ADD PUSH1 0x20 DUP1 SWAP2 DIV MUL PUSH1 0x20 ADD PUSH1 0x40 MLOAD SWAP1 DUP2 ADD PUSH1 0x40 MSTORE DUP1 SWAP3 SWAP2 SWAP1 DUP2 DUP2 MSTORE PUSH1 0x20 ADD DUP3 DUP1 SLOAD PUSH2 0x23F3 SWAP1 PUSH2 0x4396 JUMP JUMPDEST DUP1 ISZERO PUSH2 0x243E JUMPI DUP1 PUSH1 0x1F LT PUSH2 0x2415 JUMPI PUSH2 0x100 DUP1 DUP4 SLOAD DIV MUL DUP4 MSTORE SWAP2 PUSH1 0x20 ADD SWAP2 PUSH2 0x243E JUMP JUMPDEST DUP3 ADD SWAP2 SWAP1 PUSH0 MSTORE PUSH1 0x20 PUSH0 KECCAK256 SWAP1 JUMPDEST DUP2 SLOAD DUP2 MSTORE SWAP1 PUSH1 0x1 ADD SWAP1 PUSH1 0x20 ADD DUP1 DUP4 GT PUSH2 0x2421 JUMPI DUP3 SWAP1 SUB PUSH1 0x1F AND DUP3 ADD SWAP2 JUMPDEST POP POP POP POP POP SWAP1 DUP1 PUSH1 0x1 ADD SLOAD SWAP1 DUP1 PUSH1 0x7 ADD SLOAD SWAP1 DUP1 PUSH1 0x8 ADD SLOAD SWAP1 DUP1 PUSH1 0x9 ADD PUSH0 SWAP1 SLOAD SWAP1 PUSH2 0x100 EXP SWAP1 DIV PUSH1 0xFF AND SWAP1 DUP1 PUSH1 0x9 ADD PUSH1 0x1 SWAP1 SLOAD SWAP1 PUSH2 0x100 EXP SWAP1 DIV PUSH1 0xFF AND SWAP1 DUP1 PUSH1 0xA ADD SLOAD SWAP1 DUP1 PUSH1 0xB ADD PUSH0 SWAP1 SLOAD SWAP1 PUSH2 0x100 EXP SWAP1 DIV PUSH20 0xFFFFFFFFFFFFFFFFFFFFFFFFFFFFFFFFFFFFFFFF AND SWAP1 DUP1 PUSH1 0xC ADD SLOAD SWAP1 POP DUP10 JUMP JUMPDEST PUSH1 0x6 PUSH0 SWAP1 SLOAD SWAP1 PUSH2 0x100 EXP SWAP1 DIV PUSH20 0xFFFFFFFFFFFFFFFFFFFFFFFFFFFFFFFFFFFFFFFF AND DUP2 JUMP JUMPDEST PUSH0 PUSH1 0x1 PUSH0 DUP5 PUSH20 0xFFFFFFFFFFFFFFFFFFFFFFFFFFFFFFFFFFFFFFFF AND PUSH20 0xFFFFFFFFFFFFFFFFFFFFFFFFFFFFFFFFFFFFFFFF AND DUP2 MSTORE PUSH1 0x20 ADD SWAP1 DUP2 MSTORE PUSH1 0x20 ADD PUSH0 KECCAK256 PUSH0 DUP4 PUSH20 0xFFFFFFFFFFFFFFFFFFFFFFFFFFFFFFFFFFFFFFFF AND PUSH20 0xFFFFFFFFFFFFFFFFFFFFFFFFFFFFFFFFFFFFFFFF AND DUP2 MSTORE PUSH1 0x20 ADD SWAP1 DUP2 MSTORE PUSH1 0x20 ADD PUSH0 KECCAK256 SLOAD SWAP1 POP SWAP3 SWAP2 POP POP JUMP JUMPDEST PUSH1 0xB PUSH0 CALLER PUSH20 0xFFFFFFFFFFFFFFFFFFFFFFFFFFFFFFFFFFFFFFFF AND PUSH20 0xFFFFFFFFFFFFFFFFFFFFFFFFFFFFFFFFFFFFFFFF AND DUP2 MSTORE PUSH1 0x20 ADD SWAP1 DUP2 MSTORE PUSH1 0x20 ADD PUSH0 KECCAK256 PUSH0 SWAP1 SLOAD SWAP1 PUSH2 0x100 EXP SWAP1 DIV PUSH1 0xFF AND ISZERO PUSH2 0x25AA JUMPI PUSH0 DUP1 REVERT JUMPDEST PUSH2 0x25B5 CALLER PUSH1 0x1 PUSH2 0x3333 JUMP JUMPDEST PUSH1 0x1 PUSH1 0xB PUSH0 CALLER PUSH20 0xFFFFFFFFFFFFFFFFFFFFFFFFFFFFFFFFFFFFFFFF AND PUSH20 0xFFFFFFFFFFFFFFFFFFFFFFFFFFFFFFFFFFFFFFFF AND DUP2 MSTORE PUSH1 0x20 ADD SWAP1 DUP2 MSTORE PUSH1 0x20 ADD PUSH0 KECCAK256 PUSH0 PUSH2 0x100 EXP DUP2 SLOAD DUP2 PUSH1 0xFF MUL NOT AND SWAP1 DUP4 ISZERO ISZERO MUL OR SWAP1 SSTORE POP JUMP JUMPDEST PUSH1 0xE DUP1 SLOAD SWAP1 POP DUP3 LT DUP1 ISZERO PUSH2 0x2629 JUMPI POP PUSH1 0x1 PUSH2 0x2626 CALLER PUSH2 0xE64 JUMP JUMPDEST LT ISZERO JUMPDEST DUP1 ISZERO PUSH2 0x2657 JUMPI POP PUSH1 0xE DUP3 DUP2 SLOAD DUP2 LT PUSH2 0x2644 JUMPI PUSH2 0x2643 PUSH2 0x42C8 JUMP JUMPDEST JUMPDEST SWAP1 PUSH0 MSTORE PUSH1 0x20 PUSH0 KECCAK256 SWAP1 PUSH1 0xD MUL ADD PUSH1 0x1 ADD SLOAD TIMESTAMP GT JUMPDEST DUP1 ISZERO PUSH2 0x26B9 JUMPI POP PUSH1 0x12 PUSH0 DUP4 DUP2 MSTORE PUSH1 0x20 ADD SWAP1 DUP2 MSTORE PUSH1 0x20 ADD PUSH0 KECCAK256 PUSH0 CALLER PUSH20 0xFFFFFFFFFFFFFFFFFFFFFFFFFFFFFFFFFFFFFFFF AND PUSH20 0xFFFFFFFFFFFFFFFFFFFFFFFFFFFFFFFFFFFFFFFF AND DUP2 MSTORE PUSH1 0x20 ADD SWAP1 DUP2 MSTORE PUSH1 0x20 ADD PUSH0 KECCAK256 PUSH0 SWAP1 SLOAD SWAP1 PUSH2 0x100 EXP SWAP1 DIV PUSH1 0xFF AND ISZERO JUMPDEST DUP1 ISZERO PUSH2 0x271B JUMPI POP PUSH1 0x10 PUSH0 DUP4 DUP2 MSTORE PUSH1 0x20 ADD SWAP1 DUP2 MSTORE PUSH1 0x20 ADD PUSH0 KECCAK256 PUSH0 CALLER PUSH20 0xFFFFFFFFFFFFFFFFFFFFFFFFFFFFFFFFFFFFFFFF AND PUSH20 0xFFFFFFFFFFFFFFFFFFFFFFFFFFFFFFFFFFFFFFFF AND DUP2 MSTORE PUSH1 0x20 ADD SWAP1 DUP2 MSTORE PUSH1 0x20 ADD PUSH0 KECCAK256 PUSH0 SWAP1 SLOAD SWAP1 PUSH2 0x100 EXP SWAP1 DIV PUSH1 0xFF AND ISZERO JUMPDEST PUSH2 0x2723 JUMPI PUSH0 DUP1 REVERT JUMPDEST PUSH0 PUSH1 0x1 PUSH1 0x13 PUSH0 DUP6 DUP2 MSTORE PUSH1 0x20 ADD SWAP1 DUP2 MSTORE PUSH1 0x20 ADD PUSH0 KECCAK256 PUSH0 CALLER PUSH20 0xFFFFFFFFFFFFFFFFFFFFFFFFFFFFFFFFFFFFFFFF AND PUSH20 0xFFFFFFFFFFFFFFFFFFFFFFFFFFFFFFFFFFFFFFFF AND DUP2 MSTORE PUSH1 0x20 ADD SWAP1 DUP2 MSTORE PUSH1 0x20 ADD PUSH0 KECCAK256 SLOAD PUSH2 0x277D SWAP2 SWAP1 PUSH2 0x4509 JUMP JUMPDEST SWAP1 POP PUSH0 PUSH2 0x2789 DUP5 PUSH2 0xB6E JUMP JUMPDEST SWAP1 POP PUSH0 JUMPDEST DUP2 DUP2 GT PUSH2 0x2873 JUMPI DUP4 DUP2 DUP2 MLOAD DUP2 LT PUSH2 0x27A7 JUMPI PUSH2 0x27A6 PUSH2 0x42C8 JUMP JUMPDEST JUMPDEST PUSH1 0x20 MUL PUSH1 0x20 ADD ADD MLOAD ISZERO PUSH2 0x280C JUMPI DUP3 PUSH1 0xE DUP7 DUP2 SLOAD DUP2 LT PUSH2 0x27C9 JUMPI PUSH2 0x27C8 PUSH2 0x42C8 JUMP JUMPDEST JUMPDEST SWAP1 PUSH0 MSTORE PUSH1 0x20 PUSH0 KECCAK256 SWAP1 PUSH1 0xD MUL ADD PUSH1 0x5 ADD DUP3 DUP2 SLOAD DUP2 LT PUSH2 0x27EA JUMPI PUSH2 0x27E9 PUSH2 0x42C8 JUMP JUMPDEST JUMPDEST SWAP1 PUSH0 MSTORE PUSH1 0x20 PUSH0 KECCAK256 ADD PUSH0 DUP3 DUP3 SLOAD PUSH2 0x2800 SWAP2 SWAP1 PUSH2 0x4509 JUMP JUMPDEST SWAP3 POP POP DUP2 SWAP1 SSTORE POP PUSH2 0x2860 JUMP JUMPDEST DUP3 PUSH1 0xE DUP7 DUP2 SLOAD DUP2 LT PUSH2 0x2821 JUMPI PUSH2 0x2820 PUSH2 0x42C8 JUMP JUMPDEST JUMPDEST SWAP1 PUSH0 MSTORE PUSH1 0x20 PUSH0 KECCAK256 SWAP1 PUSH1 0xD MUL ADD PUSH1 0x6 ADD DUP3 DUP2 SLOAD DUP2 LT PUSH2 0x2842 JUMPI PUSH2 0x2841 PUSH2 0x42C8 JUMP JUMPDEST JUMPDEST SWAP1 PUSH0 MSTORE PUSH1 0x20 PUSH0 KECCAK256 ADD PUSH0 DUP3 DUP3 SLOAD PUSH2 0x2858 SWAP2 SWAP1 PUSH2 0x4509 JUMP JUMPDEST SWAP3 POP POP DUP2 SWAP1 SSTORE POP JUMPDEST DUP1 DUP1 PUSH2 0x286B SWAP1 PUSH2 0x4322 JUMP JUMPDEST SWAP2 POP POP PUSH2 0x278D JUMP JUMPDEST POP PUSH1 0x1 PUSH1 0x10 PUSH0 DUP7 DUP2 MSTORE PUSH1 0x20 ADD SWAP1 DUP2 MSTORE PUSH1 0x20 ADD PUSH0 KECCAK256 PUSH0 CALLER PUSH20 0xFFFFFFFFFFFFFFFFFFFFFFFFFFFFFFFFFFFFFFFF AND PUSH20 0xFFFFFFFFFFFFFFFFFFFFFFFFFFFFFFFFFFFFFFFF AND DUP2 MSTORE PUSH1 0x20 ADD SWAP1 DUP2 MSTORE PUSH1 0x20 ADD PUSH0 KECCAK256 PUSH0 PUSH2 0x100 EXP DUP2 SLOAD DUP2 PUSH1 0xFF MUL NOT AND SWAP1 DUP4 ISZERO ISZERO MUL OR SWAP1 SSTORE POP CALLER PUSH20 0xFFFFFFFFFFFFFFFFFFFFFFFFFFFFFFFFFFFFFFFF AND DUP5 PUSH32 0x33B88791871B035ED3FEA6313B68632CCCA172C35D8AE00A6D595CE65F1A7155 DUP6 PUSH1 0x40 MLOAD PUSH2 0x291F SWAP2 SWAP1 PUSH2 0x55EF JUMP JUMPDEST PUSH1 0x40 MLOAD DUP1 SWAP2 SUB SWAP1 LOG3 POP POP POP POP JUMP JUMPDEST PUSH1 0xE DUP1 SLOAD SWAP1 POP DUP3 LT DUP1 ISZERO PUSH2 0x294A JUMPI POP PUSH1 0x1 PUSH2 0x2947 CALLER PUSH2 0xE64 JUMP JUMPDEST LT ISZERO JUMPDEST DUP1 ISZERO PUSH2 0x2979 JUMPI POP PUSH1 0xE DUP3 DUP2 SLOAD DUP2 LT PUSH2 0x2965 JUMPI PUSH2 0x2964 PUSH2 0x42C8 JUMP JUMPDEST JUMPDEST SWAP1 PUSH0 MSTORE PUSH1 0x20 PUSH0 KECCAK256 SWAP1 PUSH1 0xD MUL ADD PUSH1 0x1 ADD SLOAD TIMESTAMP GT ISZERO JUMPDEST DUP1 ISZERO PUSH2 0x29DB JUMPI POP PUSH1 0x12 PUSH0 DUP4 DUP2 MSTORE PUSH1 0x20 ADD SWAP1 DUP2 MSTORE PUSH1 0x20 ADD PUSH0 KECCAK256 PUSH0 CALLER PUSH20 0xFFFFFFFFFFFFFFFFFFFFFFFFFFFFFFFFFFFFFFFF AND PUSH20 0xFFFFFFFFFFFFFFFFFFFFFFFFFFFFFFFFFFFFFFFF AND DUP2 MSTORE PUSH1 0x20 ADD SWAP1 DUP2 MSTORE PUSH1 0x20 ADD PUSH0 KECCAK256 PUSH0 SWAP1 SLOAD SWAP1 PUSH2 0x100 EXP SWAP1 DIV PUSH1 0xFF AND ISZERO JUMPDEST DUP1 ISZERO PUSH2 0x2A3D JUMPI POP PUSH1 0x10 PUSH0 DUP4 DUP2 MSTORE PUSH1 0x20 ADD SWAP1 DUP2 MSTORE PUSH1 0x20 ADD PUSH0 KECCAK256 PUSH0 CALLER PUSH20 0xFFFFFFFFFFFFFFFFFFFFFFFFFFFFFFFFFFFFFFFF AND PUSH20 0xFFFFFFFFFFFFFFFFFFFFFFFFFFFFFFFFFFFFFFFF AND DUP2 MSTORE PUSH1 0x20 ADD SWAP1 DUP2 MSTORE PUSH1 0x20 ADD PUSH0 KECCAK256 PUSH0 SWAP1 SLOAD SWAP1 PUSH2 0x100 EXP SWAP1 DIV PUSH1 0xFF AND ISZERO JUMPDEST PUSH2 0x2A45 JUMPI PUSH0 DUP1 REVERT JUMPDEST PUSH0 PUSH1 0x1 PUSH1 0x13 PUSH0 DUP6 DUP2 MSTORE PUSH1 0x20 ADD SWAP1 DUP2 MSTORE PUSH1 0x20 ADD PUSH0 KECCAK256 PUSH0 CALLER PUSH20 0xFFFFFFFFFFFFFFFFFFFFFFFFFFFFFFFFFFFFFFFF AND PUSH20 0xFFFFFFFFFFFFFFFFFFFFFFFFFFFFFFFFFFFFFFFF AND DUP2 MSTORE PUSH1 0x20 ADD SWAP1 DUP2 MSTORE PUSH1 0x20 ADD PUSH0 KECCAK256 SLOAD PUSH2 0x2A9F SWAP2 SWAP1 PUSH2 0x4509 JUMP JUMPDEST SWAP1 POP DUP2 ISZERO PUSH2 0x2AE5 JUMPI DUP1 PUSH1 0xE DUP5 DUP2 SLOAD DUP2 LT PUSH2 0x2ABC JUMPI PUSH2 0x2ABB PUSH2 0x42C8 JUMP JUMPDEST JUMPDEST SWAP1 PUSH0 MSTORE PUSH1 0x20 PUSH0 KECCAK256 SWAP1 PUSH1 0xD MUL ADD PUSH1 0x7 ADD PUSH0 DUP3 DUP3 SLOAD PUSH2 0x2AD9 SWAP2 SWAP1 PUSH2 0x4509 JUMP JUMPDEST SWAP3 POP POP DUP2 SWAP1 SSTORE POP PUSH2 0x2B1F JUMP JUMPDEST DUP1 PUSH1 0xE DUP5 DUP2 SLOAD DUP2 LT PUSH2 0x2AFA JUMPI PUSH2 0x2AF9 PUSH2 0x42C8 JUMP JUMPDEST JUMPDEST SWAP1 PUSH0 MSTORE PUSH1 0x20 PUSH0 KECCAK256 SWAP1 PUSH1 0xD MUL ADD PUSH1 0x8 ADD PUSH0 DUP3 DUP3 SLOAD PUSH2 0x2B17 SWAP2 SWAP1 PUSH2 0x4509 JUMP JUMPDEST SWAP3 POP POP DUP2 SWAP1 SSTORE POP JUMPDEST PUSH1 0x1 PUSH1 0x10 PUSH0 DUP6 DUP2 MSTORE PUSH1 0x20 ADD SWAP1 DUP2 MSTORE PUSH1 0x20 ADD PUSH0 KECCAK256 PUSH0 CALLER PUSH20 0xFFFFFFFFFFFFFFFFFFFFFFFFFFFFFFFFFFFFFFFF AND PUSH20 0xFFFFFFFFFFFFFFFFFFFFFFFFFFFFFFFFFFFFFFFF AND DUP2 MSTORE PUSH1 0x20 ADD SWAP1 DUP2 MSTORE PUSH1 0x20 ADD PUSH0 KECCAK256 PUSH0 PUSH2 0x100 EXP DUP2 SLOAD DUP2 PUSH1 0xFF MUL NOT AND SWAP1 DUP4 ISZERO ISZERO MUL OR SWAP1 SSTORE POP CALLER PUSH20 0xFFFFFFFFFFFFFFFFFFFFFFFFFFFFFFFFFFFFFFFF AND DUP4 PUSH32 0x8A19902C1356176F164D6EEEE88DB031B1718565C98C90873907B79B920FBAFE DUP5 PUSH1 0x40 MLOAD PUSH2 0x2BCA SWAP2 SWAP1 PUSH2 0x3A7B JUMP JUMPDEST PUSH1 0x40 MLOAD DUP1 SWAP2 SUB SWAP1 LOG3 POP POP POP JUMP JUMPDEST PUSH1 0x60 PUSH0 PUSH1 0x60 DUP1 PUSH1 0xE DUP1 SLOAD SWAP1 POP DUP6 LT PUSH2 0x2BED JUMPI PUSH0 DUP1 REVERT JUMPDEST PUSH1 0xE DUP6 DUP2 SLOAD DUP2 LT PUSH2 0x2C01 JUMPI PUSH2 0x2C00 PUSH2 0x42C8 JUMP JUMPDEST JUMPDEST SWAP1 PUSH0 MSTORE PUSH1 0x20 PUSH0 KECCAK256 SWAP1 PUSH1 0xD MUL ADD PUSH0 ADD PUSH1 0xE DUP7 DUP2 SLOAD DUP2 LT PUSH2 0x2C23 JUMPI PUSH2 0x2C22 PUSH2 0x42C8 JUMP JUMPDEST JUMPDEST SWAP1 PUSH0 MSTORE PUSH1 0x20 PUSH0 KECCAK256 SWAP1 PUSH1 0xD MUL ADD PUSH1 0x1 ADD SLOAD PUSH1 0xE DUP8 DUP2 SLOAD DUP2 LT PUSH2 0x2C47 JUMPI PUSH2 0x2C46 PUSH2 0x42C8 JUMP JUMPDEST JUMPDEST SWAP1 PUSH0 MSTORE PUSH1 0x20 PUSH0 KECCAK256 SWAP1 PUSH1 0xD MUL ADD PUSH1 0x2 ADD PUSH1 0xE DUP9 DUP2 SLOAD DUP2 LT PUSH2 0x2C6A JUMPI PUSH2 0x2C69 PUSH2 0x42C8 JUMP JUMPDEST JUMPDEST SWAP1 PUSH0 MSTORE PUSH1 0x20 PUSH0 KECCAK256 SWAP1 PUSH1 0xD MUL ADD PUSH1 0x3 ADD DUP4 DUP1 SLOAD PUSH2 0x2C85 SWAP1 PUSH2 0x4396 JUMP JUMPDEST DUP1 PUSH1 0x1F ADD PUSH1 0x20 DUP1 SWAP2 DIV MUL PUSH1 0x20 ADD PUSH1 0x40 MLOAD SWAP1 DUP2 ADD PUSH1 0x40 MSTORE DUP1 SWAP3 SWAP2 SWAP1 DUP2 DUP2 MSTORE PUSH1 0x20 ADD DUP3 DUP1 SLOAD PUSH2 0x2CB1 SWAP1 PUSH2 0x4396 JUMP JUMPDEST DUP1 ISZERO PUSH2 0x2CFC JUMPI DUP1 PUSH1 0x1F LT PUSH2 0x2CD3 JUMPI PUSH2 0x100 DUP1 DUP4 SLOAD DIV MUL DUP4 MSTORE SWAP2 PUSH1 0x20 ADD SWAP2 PUSH2 0x2CFC JUMP JUMPDEST DUP3 ADD SWAP2 SWAP1 PUSH0 MSTORE PUSH1 0x20 PUSH0 KECCAK256 SWAP1 JUMPDEST DUP2 SLOAD DUP2 MSTORE SWAP1 PUSH1 0x1 ADD SWAP1 PUSH1 0x20 ADD DUP1 DUP4 GT PUSH2 0x2CDF JUMPI DUP3 SWAP1 SUB PUSH1 0x1F AND DUP3 ADD SWAP2 JUMPDEST POP POP POP POP POP SWAP4 POP DUP2 DUP1 SLOAD DUP1 PUSH1 0x20 MUL PUSH1 0x20 ADD PUSH1 0x40 MLOAD SWAP1 DUP2 ADD PUSH1 0x40 MSTORE DUP1 SWAP3 SWAP2 SWAP1 DUP2 DUP2 MSTORE PUSH1 0x20 ADD DUP3 DUP1 SLOAD DUP1 ISZERO PUSH2 0x2D4C JUMPI PUSH1 0x20 MUL DUP3 ADD SWAP2 SWAP1 PUSH0 MSTORE PUSH1 0x20 PUSH0 KECCAK256 SWAP1 JUMPDEST DUP2 SLOAD DUP2 MSTORE PUSH1 0x20 ADD SWAP1 PUSH1 0x1 ADD SWAP1 DUP1 DUP4 GT PUSH2 0x2D38 JUMPI JUMPDEST POP POP POP POP POP SWAP2 POP DUP1 DUP1 SLOAD DUP1 PUSH1 0x20 MUL PUSH1 0x20 ADD PUSH1 0x40 MLOAD SWAP1 DUP2 ADD PUSH1 0x40 MSTORE DUP1 SWAP3 SWAP2 SWAP1 DUP2 DUP2 MSTORE PUSH1 0x20 ADD DUP3 DUP1 SLOAD DUP1 ISZERO PUSH2 0x2D9C JUMPI PUSH1 0x20 MUL DUP3 ADD SWAP2 SWAP1 PUSH0 MSTORE PUSH1 0x20 PUSH0 KECCAK256 SWAP1 JUMPDEST DUP2 SLOAD DUP2 MSTORE PUSH1 0x20 ADD SWAP1 PUSH1 0x1 ADD SWAP1 DUP1 DUP4 GT PUSH2 0x2D88 JUMPI JUMPDEST POP POP POP POP POP SWAP1 POP SWAP4 POP SWAP4 POP SWAP4 POP SWAP4 POP SWAP2 SWAP4 POP SWAP2 SWAP4 JUMP JUMPDEST DUP1 PUSH1 0x7 PUSH0 DUP6 PUSH20 0xFFFFFFFFFFFFFFFFFFFFFFFFFFFFFFFFFFFFFFFF AND PUSH20 0xFFFFFFFFFFFFFFFFFFFFFFFFFFFFFFFFFFFFFFFF AND DUP2 MSTORE PUSH1 0x20 ADD SWAP1 DUP2 MSTORE PUSH1 0x20 ADD PUSH0 KECCAK256 SLOAD LT ISZERO PUSH2 0x2E32 JUMPI PUSH1 0x40 MLOAD PUSH32 0x8C379A000000000000000000000000000000000000000000000000000000000 DUP2 MSTORE PUSH1 0x4 ADD PUSH2 0x2E29 SWAP1 PUSH2 0x5659 JUMP JUMPDEST PUSH1 0x40 MLOAD DUP1 SWAP2 SUB SWAP1 REVERT JUMPDEST DUP1 PUSH1 0x7 PUSH0 DUP6 PUSH20 0xFFFFFFFFFFFFFFFFFFFFFFFFFFFFFFFFFFFFFFFF AND PUSH20 0xFFFFFFFFFFFFFFFFFFFFFFFFFFFFFFFFFFFFFFFF AND DUP2 MSTORE PUSH1 0x20 ADD SWAP1 DUP2 MSTORE PUSH1 0x20 ADD PUSH0 KECCAK256 PUSH0 DUP3 DUP3 SLOAD PUSH2 0x2E7E SWAP2 SWAP1 PUSH2 0x43C6 JUMP JUMPDEST SWAP3 POP POP DUP2 SWAP1 SSTORE POP DUP1 PUSH1 0x7 PUSH0 DUP5 PUSH20 0xFFFFFFFFFFFFFFFFFFFFFFFFFFFFFFFFFFFFFFFF AND PUSH20 0xFFFFFFFFFFFFFFFFFFFFFFFFFFFFFFFFFFFFFFFF AND DUP2 MSTORE PUSH1 0x20 ADD SWAP1 DUP2 MSTORE PUSH1 0x20 ADD PUSH0 KECCAK256 PUSH0 DUP3 DUP3 SLOAD PUSH2 0x2ED1 SWAP2 SWAP1 PUSH2 0x4509 JUMP JUMPDEST SWAP3 POP POP DUP2 SWAP1 SSTORE POP DUP2 PUSH20 0xFFFFFFFFFFFFFFFFFFFFFFFFFFFFFFFFFFFFFFFF AND DUP4 PUSH20 0xFFFFFFFFFFFFFFFFFFFFFFFFFFFFFFFFFFFFFFFF AND PUSH32 0xDDF252AD1BE2C89B69C2B068FC378DAA952BA7F163C4A11628F55A4DF523B3EF DUP4 PUSH1 0x40 MLOAD PUSH2 0x2F35 SWAP2 SWAP1 PUSH2 0x38B9 JUMP JUMPDEST PUSH1 0x40 MLOAD DUP1 SWAP2 SUB SWAP1 LOG3 POP POP POP JUMP JUMPDEST DUP1 PUSH1 0x8 PUSH0 DUP6 PUSH20 0xFFFFFFFFFFFFFFFFFFFFFFFFFFFFFFFFFFFFFFFF AND PUSH20 0xFFFFFFFFFFFFFFFFFFFFFFFFFFFFFFFFFFFFFFFF AND DUP2 MSTORE PUSH1 0x20 ADD SWAP1 DUP2 MSTORE PUSH1 0x20 ADD PUSH0 KECCAK256 SLOAD LT ISZERO PUSH2 0x2FC2 JUMPI PUSH1 0x40 MLOAD PUSH32 0x8C379A000000000000000000000000000000000000000000000000000000000 DUP2 MSTORE PUSH1 0x4 ADD PUSH2 0x2FB9 SWAP1 PUSH2 0x56C1 JUMP JUMPDEST PUSH1 0x40 MLOAD DUP1 SWAP2 SUB SWAP1 REVERT JUMPDEST DUP1 PUSH1 0x8 PUSH0 DUP6 PUSH20 0xFFFFFFFFFFFFFFFFFFFFFFFFFFFFFFFFFFFFFFFF AND PUSH20 0xFFFFFFFFFFFFFFFFFFFFFFFFFFFFFFFFFFFFFFFF AND DUP2 MSTORE PUSH1 0x20 ADD SWAP1 DUP2 MSTORE PUSH1 0x20 ADD PUSH0 KECCAK256 PUSH0 DUP3 DUP3 SLOAD PUSH2 0x300E SWAP2 SWAP1 PUSH2 0x43C6 JUMP JUMPDEST SWAP3 POP POP DUP2 SWAP1 SSTORE POP DUP1 PUSH1 0x8 PUSH0 DUP5 PUSH20 0xFFFFFFFFFFFFFFFFFFFFFFFFFFFFFFFFFFFFFFFF AND PUSH20 0xFFFFFFFFFFFFFFFFFFFFFFFFFFFFFFFFFFFFFFFF AND DUP2 MSTORE PUSH1 0x20 ADD SWAP1 DUP2 MSTORE PUSH1 0x20 ADD PUSH0 KECCAK256 PUSH0 DUP3 DUP3 SLOAD PUSH2 0x3061 SWAP2 SWAP1 PUSH2 0x4509 JUMP JUMPDEST SWAP3 POP POP DUP2 SWAP1 SSTORE POP PUSH1 0x6 PUSH0 SWAP1 SLOAD SWAP1 PUSH2 0x100 EXP SWAP1 DIV PUSH20 0xFFFFFFFFFFFFFFFFFFFFFFFFFFFFFFFFFFFFFFFF AND PUSH20 0xFFFFFFFFFFFFFFFFFFFFFFFFFFFFFFFFFFFFFFFF AND PUSH4 0xA9059CBB DUP4 DUP4 PUSH1 0x40 MLOAD DUP4 PUSH4 0xFFFFFFFF AND PUSH1 0xE0 SHL DUP2 MSTORE PUSH1 0x4 ADD PUSH2 0x30C4 SWAP3 SWAP2 SWAP1 PUSH2 0x56DF JUMP JUMPDEST PUSH1 0x20 PUSH1 0x40 MLOAD DUP1 DUP4 SUB DUP2 PUSH0 DUP8 GAS CALL ISZERO DUP1 ISZERO PUSH2 0x30E0 JUMPI RETURNDATASIZE PUSH0 DUP1 RETURNDATACOPY RETURNDATASIZE PUSH0 REVERT JUMPDEST POP POP POP POP PUSH1 0x40 MLOAD RETURNDATASIZE PUSH1 0x1F NOT PUSH1 0x1F DUP3 ADD AND DUP3 ADD DUP1 PUSH1 0x40 MSTORE POP DUP2 ADD SWAP1 PUSH2 0x3104 SWAP2 SWAP1 PUSH2 0x44DE JUMP JUMPDEST POP POP POP POP JUMP JUMPDEST PUSH0 CALLER SWAP1 POP SWAP1 JUMP JUMPDEST PUSH2 0x311E DUP4 DUP4 DUP4 PUSH1 0x1 PUSH2 0x33B2 JUMP JUMPDEST POP POP POP JUMP JUMPDEST PUSH0 PUSH2 0x312E DUP5 DUP5 PUSH2 0x24D5 JUMP JUMPDEST SWAP1 POP PUSH32 0xFFFFFFFFFFFFFFFFFFFFFFFFFFFFFFFFFFFFFFFFFFFFFFFFFFFFFFFFFFFFFFFF DUP2 EQ PUSH2 0x31AF JUMPI DUP2 DUP2 LT ISZERO PUSH2 0x31A0 JUMPI DUP3 DUP2 DUP4 PUSH1 0x40 MLOAD PUSH32 0xFB8F41B200000000000000000000000000000000000000000000000000000000 DUP2 MSTORE PUSH1 0x4 ADD PUSH2 0x3197 SWAP4 SWAP3 SWAP2 SWAP1 PUSH2 0x5706 JUMP JUMPDEST PUSH1 0x40 MLOAD DUP1 SWAP2 SUB SWAP1 REVERT JUMPDEST PUSH2 0x31AE DUP5 DUP5 DUP5 DUP5 SUB PUSH0 PUSH2 0x33B2 JUMP JUMPDEST JUMPDEST POP POP POP POP JUMP JUMPDEST PUSH0 PUSH20 0xFFFFFFFFFFFFFFFFFFFFFFFFFFFFFFFFFFFFFFFF AND DUP4 PUSH20 0xFFFFFFFFFFFFFFFFFFFFFFFFFFFFFFFFFFFFFFFF AND SUB PUSH2 0x3225 JUMPI PUSH0 PUSH1 0x40 MLOAD PUSH32 0x96C6FD1E00000000000000000000000000000000000000000000000000000000 DUP2 MSTORE PUSH1 0x4 ADD PUSH2 0x321C SWAP2 SWAP1 PUSH2 0x3BBB JUMP JUMPDEST PUSH1 0x40 MLOAD DUP1 SWAP2 SUB SWAP1 REVERT JUMPDEST PUSH0 PUSH20 0xFFFFFFFFFFFFFFFFFFFFFFFFFFFFFFFFFFFFFFFF AND DUP3 PUSH20 0xFFFFFFFFFFFFFFFFFFFFFFFFFFFFFFFFFFFFFFFF AND SUB PUSH2 0x3295 JUMPI PUSH0 PUSH1 0x40 MLOAD PUSH32 0xEC442F0500000000000000000000000000000000000000000000000000000000 DUP2 MSTORE PUSH1 0x4 ADD PUSH2 0x328C SWAP2 SWAP1 PUSH2 0x3BBB JUMP JUMPDEST PUSH1 0x40 MLOAD DUP1 SWAP2 SUB SWAP1 REVERT JUMPDEST PUSH2 0x32A0 DUP4 DUP4 DUP4 PUSH2 0x3581 JUMP JUMPDEST POP POP POP JUMP JUMPDEST PUSH0 DUP1 PUSH0 SWAP1 POP JUMPDEST PUSH1 0xE DUP1 SLOAD SWAP1 POP DUP2 LT ISZERO PUSH2 0x332F JUMPI PUSH1 0xE DUP2 DUP2 SLOAD DUP2 LT PUSH2 0x32CC JUMPI PUSH2 0x32CB PUSH2 0x42C8 JUMP JUMPDEST JUMPDEST SWAP1 PUSH0 MSTORE PUSH1 0x20 PUSH0 KECCAK256 SWAP1 PUSH1 0xD MUL ADD PUSH1 0x9 ADD PUSH1 0x1 SWAP1 SLOAD SWAP1 PUSH2 0x100 EXP SWAP1 DIV PUSH1 0xFF AND PUSH2 0x32F1 JUMPI PUSH0 DUP1 REVERT JUMPDEST PUSH1 0xE DUP2 DUP2 SLOAD DUP2 LT PUSH2 0x3305 JUMPI PUSH2 0x3304 PUSH2 0x42C8 JUMP JUMPDEST JUMPDEST SWAP1 PUSH0 MSTORE PUSH1 0x20 PUSH0 KECCAK256 SWAP1 PUSH1 0xD MUL ADD PUSH1 0xA ADD SLOAD DUP3 PUSH2 0x3320 SWAP2 SWAP1 PUSH2 0x4509 JUMP JUMPDEST SWAP2 POP DUP1 DUP1 PUSH1 0x1 ADD SWAP2 POP POP PUSH2 0x32AB JUMP JUMPDEST POP SWAP1 JUMP JUMPDEST PUSH0 PUSH20 0xFFFFFFFFFFFFFFFFFFFFFFFFFFFFFFFFFFFFFFFF AND DUP3 PUSH20 0xFFFFFFFFFFFFFFFFFFFFFFFFFFFFFFFFFFFFFFFF AND SUB PUSH2 0x33A3 JUMPI PUSH0 PUSH1 0x40 MLOAD PUSH32 0xEC442F0500000000000000000000000000000000000000000000000000000000 DUP2 MSTORE PUSH1 0x4 ADD PUSH2 0x339A SWAP2 SWAP1 PUSH2 0x3BBB JUMP JUMPDEST PUSH1 0x40 MLOAD DUP1 SWAP2 SUB SWAP1 REVERT JUMPDEST PUSH2 0x33AE PUSH0 DUP4 DUP4 PUSH2 0x3581 JUMP JUMPDEST POP POP JUMP JUMPDEST PUSH0 PUSH20 0xFFFFFFFFFFFFFFFFFFFFFFFFFFFFFFFFFFFFFFFF AND DUP5 PUSH20 0xFFFFFFFFFFFFFFFFFFFFFFFFFFFFFFFFFFFFFFFF AND SUB PUSH2 0x3422 JUMPI PUSH0 PUSH1 0x40 MLOAD PUSH32 0xE602DF0500000000000000000000000000000000000000000000000000000000 DUP2 MSTORE PUSH1 0x4 ADD PUSH2 0x3419 SWAP2 SWAP1 PUSH2 0x3BBB JUMP JUMPDEST PUSH1 0x40 MLOAD DUP1 SWAP2 SUB SWAP1 REVERT JUMPDEST PUSH0 PUSH20 0xFFFFFFFFFFFFFFFFFFFFFFFFFFFFFFFFFFFFFFFF AND DUP4 PUSH20 0xFFFFFFFFFFFFFFFFFFFFFFFFFFFFFFFFFFFFFFFF AND SUB PUSH2 0x3492 JUMPI PUSH0 PUSH1 0x40 MLOAD PUSH32 0x94280D6200000000000000000000000000000000000000000000000000000000 DUP2 MSTORE PUSH1 0x4 ADD PUSH2 0x3489 SWAP2 SWAP1 PUSH2 0x3BBB JUMP JUMPDEST PUSH1 0x40 MLOAD DUP1 SWAP2 SUB SWAP1 REVERT JUMPDEST DUP2 PUSH1 0x1 PUSH0 DUP7 PUSH20 0xFFFFFFFFFFFFFFFFFFFFFFFFFFFFFFFFFFFFFFFF AND PUSH20 0xFFFFFFFFFFFFFFFFFFFFFFFFFFFFFFFFFFFFFFFF AND DUP2 MSTORE PUSH1 0x20 ADD SWAP1 DUP2 MSTORE PUSH1 0x20 ADD PUSH0 KECCAK256 PUSH0 DUP6 PUSH20 0xFFFFFFFFFFFFFFFFFFFFFFFFFFFFFFFFFFFFFFFF AND PUSH20 0xFFFFFFFFFFFFFFFFFFFFFFFFFFFFFFFFFFFFFFFF AND DUP2 MSTORE PUSH1 0x20 ADD SWAP1 DUP2 MSTORE PUSH1 0x20 ADD PUSH0 KECCAK256 DUP2 SWAP1 SSTORE POP DUP1 ISZERO PUSH2 0x357B JUMPI DUP3 PUSH20 0xFFFFFFFFFFFFFFFFFFFFFFFFFFFFFFFFFFFFFFFF AND DUP5 PUSH20 0xFFFFFFFFFFFFFFFFFFFFFFFFFFFFFFFFFFFFFFFF AND PUSH32 0x8C5BE1E5EBEC7D5BD14F71427D1E84F3DD0314C0F7B2291E5B200AC8C7C3B925 DUP5 PUSH1 0x40 MLOAD PUSH2 0x3572 SWAP2 SWAP1 PUSH2 0x38B9 JUMP JUMPDEST PUSH1 0x40 MLOAD DUP1 SWAP2 SUB SWAP1 LOG3 JUMPDEST POP POP POP POP JUMP JUMPDEST PUSH0 PUSH20 0xFFFFFFFFFFFFFFFFFFFFFFFFFFFFFFFFFFFFFFFF AND DUP4 PUSH20 0xFFFFFFFFFFFFFFFFFFFFFFFFFFFFFFFFFFFFFFFF AND SUB PUSH2 0x35D1 JUMPI DUP1 PUSH1 0x2 PUSH0 DUP3 DUP3 SLOAD PUSH2 0x35C5 SWAP2 SWAP1 PUSH2 0x4509 JUMP JUMPDEST SWAP3 POP POP DUP2 SWAP1 SSTORE POP PUSH2 0x369F JUMP JUMPDEST PUSH0 DUP1 PUSH0 DUP6 PUSH20 0xFFFFFFFFFFFFFFFFFFFFFFFFFFFFFFFFFFFFFFFF AND PUSH20 0xFFFFFFFFFFFFFFFFFFFFFFFFFFFFFFFFFFFFFFFF AND DUP2 MSTORE PUSH1 0x20 ADD SWAP1 DUP2 MSTORE PUSH1 0x20 ADD PUSH0 KECCAK256 SLOAD SWAP1 POP DUP2 DUP2 LT ISZERO PUSH2 0x365A JUMPI DUP4 DUP2 DUP4 PUSH1 0x40 MLOAD PUSH32 0xE450D38C00000000000000000000000000000000000000000000000000000000 DUP2 MSTORE PUSH1 0x4 ADD PUSH2 0x3651 SWAP4 SWAP3 SWAP2 SWAP1 PUSH2 0x5706 JUMP JUMPDEST PUSH1 0x40 MLOAD DUP1 SWAP2 SUB SWAP1 REVERT JUMPDEST DUP2 DUP2 SUB PUSH0 DUP1 DUP7 PUSH20 0xFFFFFFFFFFFFFFFFFFFFFFFFFFFFFFFFFFFFFFFF AND PUSH20 0xFFFFFFFFFFFFFFFFFFFFFFFFFFFFFFFFFFFFFFFF AND DUP2 MSTORE PUSH1 0x20 ADD SWAP1 DUP2 MSTORE PUSH1 0x20 ADD PUSH0 KECCAK256 DUP2 SWAP1 SSTORE POP POP JUMPDEST PUSH0 PUSH20 0xFFFFFFFFFFFFFFFFFFFFFFFFFFFFFFFFFFFFFFFF AND DUP3 PUSH20 0xFFFFFFFFFFFFFFFFFFFFFFFFFFFFFFFFFFFFFFFF AND SUB PUSH2 0x36E6 JUMPI DUP1 PUSH1 0x2 PUSH0 DUP3 DUP3 SLOAD SUB SWAP3 POP POP DUP2 SWAP1 SSTORE POP PUSH2 0x3730 JUMP JUMPDEST DUP1 PUSH0 DUP1 DUP5 PUSH20 0xFFFFFFFFFFFFFFFFFFFFFFFFFFFFFFFFFFFFFFFF AND PUSH20 0xFFFFFFFFFFFFFFFFFFFFFFFFFFFFFFFFFFFFFFFF AND DUP2 MSTORE PUSH1 0x20 ADD SWAP1 DUP2 MSTORE PUSH1 0x20 ADD PUSH0 KECCAK256 PUSH0 DUP3 DUP3 SLOAD ADD SWAP3 POP POP DUP2 SWAP1 SSTORE POP JUMPDEST DUP2 PUSH20 0xFFFFFFFFFFFFFFFFFFFFFFFFFFFFFFFFFFFFFFFF AND DUP4 PUSH20 0xFFFFFFFFFFFFFFFFFFFFFFFFFFFFFFFFFFFFFFFF AND PUSH32 0xDDF252AD1BE2C89B69C2B068FC378DAA952BA7F163C4A11628F55A4DF523B3EF DUP4 PUSH1 0x40 MLOAD PUSH2 0x378D SWAP2 SWAP1 PUSH2 0x38B9 JUMP JUMPDEST PUSH1 0x40 MLOAD DUP1 SWAP2 SUB SWAP1 LOG3 POP POP POP JUMP JUMPDEST DUP3 DUP1 SLOAD DUP3 DUP3 SSTORE SWAP1 PUSH0 MSTORE PUSH1 0x20 PUSH0 KECCAK256 SWAP1 DUP2 ADD SWAP3 DUP3 ISZERO PUSH2 0x37D4 JUMPI SWAP2 PUSH1 0x20 MUL DUP3 ADD JUMPDEST DUP3 DUP2 GT ISZERO PUSH2 0x37D3 JUMPI DUP3 MLOAD DUP3 SSTORE SWAP2 PUSH1 0x20 ADD SWAP2 SWAP1 PUSH1 0x1 ADD SWAP1 PUSH2 0x37B8 JUMP JUMPDEST JUMPDEST POP SWAP1 POP PUSH2 0x37E1 SWAP2 SWAP1 PUSH2 0x3886 JUMP JUMPDEST POP SWAP1 JUMP JUMPDEST DUP3 DUP1 SLOAD DUP3 DUP3 SSTORE SWAP1 PUSH0 MSTORE PUSH1 0x20 PUSH0 KECCAK256 SWAP1 PUSH1 0x1F ADD PUSH1 0x20 SWAP1 DIV DUP2 ADD SWAP3 DUP3 ISZERO PUSH2 0x3875 JUMPI SWAP2 PUSH1 0x20 MUL DUP3 ADD PUSH0 JUMPDEST DUP4 DUP3 GT ISZERO PUSH2 0x3847 JUMPI DUP4 MLOAD DUP4 DUP3 PUSH2 0x100 EXP DUP2 SLOAD DUP2 PUSH1 0xFF MUL NOT AND SWAP1 DUP4 ISZERO ISZERO MUL OR SWAP1 SSTORE POP SWAP3 PUSH1 0x20 ADD SWAP3 PUSH1 0x1 ADD PUSH1 0x20 DUP2 PUSH0 ADD DIV SWAP3 DUP4 ADD SWAP3 PUSH1 0x1 SUB MUL PUSH2 0x380B JUMP JUMPDEST DUP1 ISZERO PUSH2 0x3873 JUMPI DUP3 DUP2 PUSH2 0x100 EXP DUP2 SLOAD SWAP1 PUSH1 0xFF MUL NOT AND SWAP1 SSTORE PUSH1 0x1 ADD PUSH1 0x20 DUP2 PUSH0 ADD DIV SWAP3 DUP4 ADD SWAP3 PUSH1 0x1 SUB MUL PUSH2 0x3847 JUMP JUMPDEST POP JUMPDEST POP SWAP1 POP PUSH2 0x3882 SWAP2 SWAP1 PUSH2 0x3886 JUMP JUMPDEST POP SWAP1 JUMP JUMPDEST JUMPDEST DUP1 DUP3 GT ISZERO PUSH2 0x389D JUMPI PUSH0 DUP2 PUSH0 SWAP1 SSTORE POP PUSH1 0x1 ADD PUSH2 0x3887 JUMP JUMPDEST POP SWAP1 JUMP JUMPDEST PUSH0 DUP2 SWAP1 POP SWAP2 SWAP1 POP JUMP JUMPDEST PUSH2 0x38B3 DUP2 PUSH2 0x38A1 JUMP JUMPDEST DUP3 MSTORE POP POP JUMP JUMPDEST PUSH0 PUSH1 0x20 DUP3 ADD SWAP1 POP PUSH2 0x38CC PUSH0 DUP4 ADD DUP5 PUSH2 0x38AA JUMP JUMPDEST SWAP3 SWAP2 POP POP JUMP JUMPDEST PUSH0 DUP2 MLOAD SWAP1 POP SWAP2 SWAP1 POP JUMP JUMPDEST PUSH0 DUP3 DUP3 MSTORE PUSH1 0x20 DUP3 ADD SWAP1 POP SWAP3 SWAP2 POP POP JUMP JUMPDEST PUSH0 JUMPDEST DUP4 DUP2 LT ISZERO PUSH2 0x3909 JUMPI DUP1 DUP3 ADD MLOAD DUP2 DUP5 ADD MSTORE PUSH1 0x20 DUP2 ADD SWAP1 POP PUSH2 0x38EE JUMP JUMPDEST PUSH0 DUP5 DUP5 ADD MSTORE POP POP POP POP JUMP JUMPDEST PUSH0 PUSH1 0x1F NOT PUSH1 0x1F DUP4 ADD AND SWAP1 POP SWAP2 SWAP1 POP JUMP JUMPDEST PUSH0 PUSH2 0x392E DUP3 PUSH2 0x38D2 JUMP JUMPDEST PUSH2 0x3938 DUP2 DUP6 PUSH2 0x38DC JUMP JUMPDEST SWAP4 POP PUSH2 0x3948 DUP2 DUP6 PUSH1 0x20 DUP7 ADD PUSH2 0x38EC JUMP JUMPDEST PUSH2 0x3951 DUP2 PUSH2 0x3914 JUMP JUMPDEST DUP5 ADD SWAP2 POP POP SWAP3 SWAP2 POP POP JUMP JUMPDEST PUSH0 PUSH1 0x20 DUP3 ADD SWAP1 POP DUP2 DUP2 SUB PUSH0 DUP4 ADD MSTORE PUSH2 0x3974 DUP2 DUP5 PUSH2 0x3924 JUMP JUMPDEST SWAP1 POP SWAP3 SWAP2 POP POP JUMP JUMPDEST PUSH0 PUSH1 0x40 MLOAD SWAP1 POP SWAP1 JUMP JUMPDEST PUSH0 DUP1 REVERT JUMPDEST PUSH0 DUP1 REVERT JUMPDEST PUSH0 PUSH20 0xFFFFFFFFFFFFFFFFFFFFFFFFFFFFFFFFFFFFFFFF DUP3 AND SWAP1 POP SWAP2 SWAP1 POP JUMP JUMPDEST PUSH0 PUSH2 0x39B6 DUP3 PUSH2 0x398D JUMP JUMPDEST SWAP1 POP SWAP2 SWAP1 POP JUMP JUMPDEST PUSH2 0x39C6 DUP2 PUSH2 0x39AC JUMP JUMPDEST DUP2 EQ PUSH2 0x39D0 JUMPI PUSH0 DUP1 REVERT JUMPDEST POP JUMP JUMPDEST PUSH0 DUP2 CALLDATALOAD SWAP1 POP PUSH2 0x39E1 DUP2 PUSH2 0x39BD JUMP JUMPDEST SWAP3 SWAP2 POP POP JUMP JUMPDEST PUSH2 0x39F0 DUP2 PUSH2 0x38A1 JUMP JUMPDEST DUP2 EQ PUSH2 0x39FA JUMPI PUSH0 DUP1 REVERT JUMPDEST POP JUMP JUMPDEST PUSH0 DUP2 CALLDATALOAD SWAP1 POP PUSH2 0x3A0B DUP2 PUSH2 0x39E7 JUMP JUMPDEST SWAP3 SWAP2 POP POP JUMP JUMPDEST PUSH0 DUP1 PUSH0 PUSH1 0x60 DUP5 DUP7 SUB SLT ISZERO PUSH2 0x3A28 JUMPI PUSH2 0x3A27 PUSH2 0x3985 JUMP JUMPDEST JUMPDEST PUSH0 PUSH2 0x3A35 DUP7 DUP3 DUP8 ADD PUSH2 0x39D3 JUMP JUMPDEST SWAP4 POP POP PUSH1 0x20 PUSH2 0x3A46 DUP7 DUP3 DUP8 ADD PUSH2 0x39FD JUMP JUMPDEST SWAP3 POP POP PUSH1 0x40 PUSH2 0x3A57 DUP7 DUP3 DUP8 ADD PUSH2 0x39FD JUMP JUMPDEST SWAP2 POP POP SWAP3 POP SWAP3 POP SWAP3 JUMP JUMPDEST PUSH0 DUP2 ISZERO ISZERO SWAP1 POP SWAP2 SWAP1 POP JUMP JUMPDEST PUSH2 0x3A75 DUP2 PUSH2 0x3A61 JUMP JUMPDEST DUP3 MSTORE POP POP JUMP JUMPDEST PUSH0 PUSH1 0x20 DUP3 ADD SWAP1 POP PUSH2 0x3A8E PUSH0 DUP4 ADD DUP5 PUSH2 0x3A6C JUMP JUMPDEST SWAP3 SWAP2 POP POP JUMP JUMPDEST PUSH0 DUP1 PUSH1 0x40 DUP4 DUP6 SUB SLT ISZERO PUSH2 0x3AAA JUMPI PUSH2 0x3AA9 PUSH2 0x3985 JUMP JUMPDEST JUMPDEST PUSH0 PUSH2 0x3AB7 DUP6 DUP3 DUP7 ADD PUSH2 0x39D3 JUMP JUMPDEST SWAP3 POP POP PUSH1 0x20 PUSH2 0x3AC8 DUP6 DUP3 DUP7 ADD PUSH2 0x39FD JUMP JUMPDEST SWAP2 POP POP SWAP3 POP SWAP3 SWAP1 POP JUMP JUMPDEST PUSH0 PUSH1 0x20 DUP3 DUP5 SUB SLT ISZERO PUSH2 0x3AE7 JUMPI PUSH2 0x3AE6 PUSH2 0x3985 JUMP JUMPDEST JUMPDEST PUSH0 PUSH2 0x3AF4 DUP5 DUP3 DUP6 ADD PUSH2 0x39D3 JUMP JUMPDEST SWAP2 POP POP SWAP3 SWAP2 POP POP JUMP JUMPDEST PUSH0 PUSH1 0x20 DUP3 DUP5 SUB SLT ISZERO PUSH2 0x3B12 JUMPI PUSH2 0x3B11 PUSH2 0x3985 JUMP JUMPDEST JUMPDEST PUSH0 PUSH2 0x3B1F DUP5 DUP3 DUP6 ADD PUSH2 0x39FD JUMP JUMPDEST SWAP2 POP POP SWAP3 SWAP2 POP POP JUMP JUMPDEST PUSH0 DUP1 PUSH0 PUSH1 0x60 DUP5 DUP7 SUB SLT ISZERO PUSH2 0x3B3F JUMPI PUSH2 0x3B3E PUSH2 0x3985 JUMP JUMPDEST JUMPDEST PUSH0 PUSH2 0x3B4C DUP7 DUP3 DUP8 ADD PUSH2 0x39D3 JUMP JUMPDEST SWAP4 POP POP PUSH1 0x20 PUSH2 0x3B5D DUP7 DUP3 DUP8 ADD PUSH2 0x39D3 JUMP JUMPDEST SWAP3 POP POP PUSH1 0x40 PUSH2 0x3B6E DUP7 DUP3 DUP8 ADD PUSH2 0x39FD JUMP JUMPDEST SWAP2 POP POP SWAP3 POP SWAP3 POP SWAP3 JUMP JUMPDEST PUSH0 PUSH1 0xFF DUP3 AND SWAP1 POP SWAP2 SWAP1 POP JUMP JUMPDEST PUSH2 0x3B8D DUP2 PUSH2 0x3B78 JUMP JUMPDEST DUP3 MSTORE POP POP JUMP JUMPDEST PUSH0 PUSH1 0x20 DUP3 ADD SWAP1 POP PUSH2 0x3BA6 PUSH0 DUP4 ADD DUP5 PUSH2 0x3B84 JUMP JUMPDEST SWAP3 SWAP2 POP POP JUMP JUMPDEST PUSH2 0x3BB5 DUP2 PUSH2 0x39AC JUMP JUMPDEST DUP3 MSTORE POP POP JUMP JUMPDEST PUSH0 PUSH1 0x20 DUP3 ADD SWAP1 POP PUSH2 0x3BCE PUSH0 DUP4 ADD DUP5 PUSH2 0x3BAC JUMP JUMPDEST SWAP3 SWAP2 POP POP JUMP JUMPDEST PUSH0 DUP2 SWAP1 POP SWAP2 SWAP1 POP JUMP JUMPDEST PUSH0 PUSH2 0x3BF7 PUSH2 0x3BF2 PUSH2 0x3BED DUP5 PUSH2 0x398D JUMP JUMPDEST PUSH2 0x3BD4 JUMP JUMPDEST PUSH2 0x398D JUMP JUMPDEST SWAP1 POP SWAP2 SWAP1 POP JUMP JUMPDEST PUSH0 PUSH2 0x3C08 DUP3 PUSH2 0x3BDD JUMP JUMPDEST SWAP1 POP SWAP2 SWAP1 POP JUMP JUMPDEST PUSH0 PUSH2 0x3C19 DUP3 PUSH2 0x3BFE JUMP JUMPDEST SWAP1 POP SWAP2 SWAP1 POP JUMP JUMPDEST PUSH2 0x3C29 DUP2 PUSH2 0x3C0F JUMP JUMPDEST DUP3 MSTORE POP POP JUMP JUMPDEST PUSH0 PUSH1 0x20 DUP3 ADD SWAP1 POP PUSH2 0x3C42 PUSH0 DUP4 ADD DUP5 PUSH2 0x3C20 JUMP JUMPDEST SWAP3 SWAP2 POP POP JUMP JUMPDEST PUSH0 DUP1 REVERT JUMPDEST PUSH0 DUP1 REVERT JUMPDEST PUSH32 0x4E487B7100000000000000000000000000000000000000000000000000000000 PUSH0 MSTORE PUSH1 0x41 PUSH1 0x4 MSTORE PUSH1 0x24 PUSH0 REVERT JUMPDEST PUSH2 0x3C86 DUP3 PUSH2 0x3914 JUMP JUMPDEST DUP2 ADD DUP2 DUP2 LT PUSH8 0xFFFFFFFFFFFFFFFF DUP3 GT OR ISZERO PUSH2 0x3CA5 JUMPI PUSH2 0x3CA4 PUSH2 0x3C50 JUMP JUMPDEST JUMPDEST DUP1 PUSH1 0x40 MSTORE POP POP POP JUMP JUMPDEST PUSH0 PUSH2 0x3CB7 PUSH2 0x397C JUMP JUMPDEST SWAP1 POP PUSH2 0x3CC3 DUP3 DUP3 PUSH2 0x3C7D JUMP JUMPDEST SWAP2 SWAP1 POP JUMP JUMPDEST PUSH0 PUSH8 0xFFFFFFFFFFFFFFFF DUP3 GT ISZERO PUSH2 0x3CE2 JUMPI PUSH2 0x3CE1 PUSH2 0x3C50 JUMP JUMPDEST JUMPDEST PUSH2 0x3CEB DUP3 PUSH2 0x3914 JUMP JUMPDEST SWAP1 POP PUSH1 0x20 DUP2 ADD SWAP1 POP SWAP2 SWAP1 POP JUMP JUMPDEST DUP3 DUP2 DUP4 CALLDATACOPY PUSH0 DUP4 DUP4 ADD MSTORE POP POP POP JUMP JUMPDEST PUSH0 PUSH2 0x3D18 PUSH2 0x3D13 DUP5 PUSH2 0x3CC8 JUMP JUMPDEST PUSH2 0x3CAE JUMP JUMPDEST SWAP1 POP DUP3 DUP2 MSTORE PUSH1 0x20 DUP2 ADD DUP5 DUP5 DUP5 ADD GT ISZERO PUSH2 0x3D34 JUMPI PUSH2 0x3D33 PUSH2 0x3C4C JUMP JUMPDEST JUMPDEST PUSH2 0x3D3F DUP5 DUP3 DUP6 PUSH2 0x3CF8 JUMP JUMPDEST POP SWAP4 SWAP3 POP POP POP JUMP JUMPDEST PUSH0 DUP3 PUSH1 0x1F DUP4 ADD SLT PUSH2 0x3D5B JUMPI PUSH2 0x3D5A PUSH2 0x3C48 JUMP JUMPDEST JUMPDEST DUP2 CALLDATALOAD PUSH2 0x3D6B DUP5 DUP3 PUSH1 0x20 DUP7 ADD PUSH2 0x3D06 JUMP JUMPDEST SWAP2 POP POP SWAP3 SWAP2 POP POP JUMP JUMPDEST PUSH0 PUSH8 0xFFFFFFFFFFFFFFFF DUP3 GT ISZERO PUSH2 0x3D8E JUMPI PUSH2 0x3D8D PUSH2 0x3C50 JUMP JUMPDEST JUMPDEST PUSH1 0x20 DUP3 MUL SWAP1 POP PUSH1 0x20 DUP2 ADD SWAP1 POP SWAP2 SWAP1 POP JUMP JUMPDEST PUSH0 DUP1 REVERT JUMPDEST PUSH0 PUSH2 0x3DB5 PUSH2 0x3DB0 DUP5 PUSH2 0x3D74 JUMP JUMPDEST PUSH2 0x3CAE JUMP JUMPDEST SWAP1 POP DUP1 DUP4 DUP3 MSTORE PUSH1 0x20 DUP3 ADD SWAP1 POP PUSH1 0x20 DUP5 MUL DUP4 ADD DUP6 DUP2 GT ISZERO PUSH2 0x3DD8 JUMPI PUSH2 0x3DD7 PUSH2 0x3D9F JUMP JUMPDEST JUMPDEST DUP4 JUMPDEST DUP2 DUP2 LT ISZERO PUSH2 0x3E01 JUMPI DUP1 PUSH2 0x3DED DUP9 DUP3 PUSH2 0x39FD JUMP JUMPDEST DUP5 MSTORE PUSH1 0x20 DUP5 ADD SWAP4 POP POP PUSH1 0x20 DUP2 ADD SWAP1 POP PUSH2 0x3DDA JUMP JUMPDEST POP POP POP SWAP4 SWAP3 POP POP POP JUMP JUMPDEST PUSH0 DUP3 PUSH1 0x1F DUP4 ADD SLT PUSH2 0x3E1F JUMPI PUSH2 0x3E1E PUSH2 0x3C48 JUMP JUMPDEST JUMPDEST DUP2 CALLDATALOAD PUSH2 0x3E2F DUP5 DUP3 PUSH1 0x20 DUP7 ADD PUSH2 0x3DA3 JUMP JUMPDEST SWAP2 POP POP SWAP3 SWAP2 POP POP JUMP JUMPDEST PUSH0 DUP1 PUSH0 DUP1 PUSH1 0x80 DUP6 DUP8 SUB SLT ISZERO PUSH2 0x3E50 JUMPI PUSH2 0x3E4F PUSH2 0x3985 JUMP JUMPDEST JUMPDEST PUSH0 DUP6 ADD CALLDATALOAD PUSH8 0xFFFFFFFFFFFFFFFF DUP2 GT ISZERO PUSH2 0x3E6D JUMPI PUSH2 0x3E6C PUSH2 0x3989 JUMP JUMPDEST JUMPDEST PUSH2 0x3E79 DUP8 DUP3 DUP9 ADD PUSH2 0x3D47 JUMP JUMPDEST SWAP5 POP POP PUSH1 0x20 PUSH2 0x3E8A DUP8 DUP3 DUP9 ADD PUSH2 0x39FD JUMP JUMPDEST SWAP4 POP POP PUSH1 0x40 DUP6 ADD CALLDATALOAD PUSH8 0xFFFFFFFFFFFFFFFF DUP2 GT ISZERO PUSH2 0x3EAB JUMPI PUSH2 0x3EAA PUSH2 0x3989 JUMP JUMPDEST JUMPDEST PUSH2 0x3EB7 DUP8 DUP3 DUP9 ADD PUSH2 0x3E0B JUMP JUMPDEST SWAP3 POP POP PUSH1 0x60 DUP6 ADD CALLDATALOAD PUSH8 0xFFFFFFFFFFFFFFFF DUP2 GT ISZERO PUSH2 0x3ED8 JUMPI PUSH2 0x3ED7 PUSH2 0x3989 JUMP JUMPDEST JUMPDEST PUSH2 0x3EE4 DUP8 DUP3 DUP9 ADD PUSH2 0x3E0B JUMP JUMPDEST SWAP2 POP POP SWAP3 SWAP6 SWAP2 SWAP5 POP SWAP3 POP JUMP JUMPDEST PUSH0 DUP1 PUSH1 0x40 DUP4 DUP6 SUB SLT ISZERO PUSH2 0x3F06 JUMPI PUSH2 0x3F05 PUSH2 0x3985 JUMP JUMPDEST JUMPDEST PUSH0 PUSH2 0x3F13 DUP6 DUP3 DUP7 ADD PUSH2 0x39FD JUMP JUMPDEST SWAP3 POP POP PUSH1 0x20 PUSH2 0x3F24 DUP6 DUP3 DUP7 ADD PUSH2 0x39D3 JUMP JUMPDEST SWAP2 POP POP SWAP3 POP SWAP3 SWAP1 POP JUMP JUMPDEST PUSH0 PUSH2 0x120 DUP3 ADD SWAP1 POP DUP2 DUP2 SUB PUSH0 DUP4 ADD MSTORE PUSH2 0x3F47 DUP2 DUP13 PUSH2 0x3924 JUMP JUMPDEST SWAP1 POP PUSH2 0x3F56 PUSH1 0x20 DUP4 ADD DUP12 PUSH2 0x38AA JUMP JUMPDEST PUSH2 0x3F63 PUSH1 0x40 DUP4 ADD DUP11 PUSH2 0x38AA JUMP JUMPDEST PUSH2 0x3F70 PUSH1 0x60 DUP4 ADD DUP10 PUSH2 0x38AA JUMP JUMPDEST PUSH2 0x3F7D PUSH1 0x80 DUP4 ADD DUP9 PUSH2 0x3A6C JUMP JUMPDEST PUSH2 0x3F8A PUSH1 0xA0 DUP4 ADD DUP8 PUSH2 0x3A6C JUMP JUMPDEST PUSH2 0x3F97 PUSH1 0xC0 DUP4 ADD DUP7 PUSH2 0x38AA JUMP JUMPDEST PUSH2 0x3FA4 PUSH1 0xE0 DUP4 ADD DUP6 PUSH2 0x3BAC JUMP JUMPDEST PUSH2 0x3FB2 PUSH2 0x100 DUP4 ADD DUP5 PUSH2 0x38AA JUMP JUMPDEST SWAP11 SWAP10 POP POP POP POP POP POP POP POP POP POP JUMP JUMPDEST PUSH0 PUSH2 0x3FCA DUP3 PUSH2 0x3BFE JUMP JUMPDEST SWAP1 POP SWAP2 SWAP1 POP JUMP JUMPDEST PUSH2 0x3FDA DUP2 PUSH2 0x3FC0 JUMP JUMPDEST DUP3 MSTORE POP POP JUMP JUMPDEST PUSH0 PUSH1 0x20 DUP3 ADD SWAP1 POP PUSH2 0x3FF3 PUSH0 DUP4 ADD DUP5 PUSH2 0x3FD1 JUMP JUMPDEST SWAP3 SWAP2 POP POP JUMP JUMPDEST PUSH0 DUP1 PUSH1 0x40 DUP4 DUP6 SUB SLT ISZERO PUSH2 0x400F JUMPI PUSH2 0x400E PUSH2 0x3985 JUMP JUMPDEST JUMPDEST PUSH0 PUSH2 0x401C DUP6 DUP3 DUP7 ADD PUSH2 0x39D3 JUMP JUMPDEST SWAP3 POP POP PUSH1 0x20 PUSH2 0x402D DUP6 DUP3 DUP7 ADD PUSH2 0x39D3 JUMP JUMPDEST SWAP2 POP POP SWAP3 POP SWAP3 SWAP1 POP JUMP JUMPDEST PUSH0 PUSH8 0xFFFFFFFFFFFFFFFF DUP3 GT ISZERO PUSH2 0x4051 JUMPI PUSH2 0x4050 PUSH2 0x3C50 JUMP JUMPDEST JUMPDEST PUSH1 0x20 DUP3 MUL SWAP1 POP PUSH1 0x20 DUP2 ADD SWAP1 POP SWAP2 SWAP1 POP JUMP JUMPDEST PUSH2 0x406B DUP2 PUSH2 0x3A61 JUMP JUMPDEST DUP2 EQ PUSH2 0x4075 JUMPI PUSH0 DUP1 REVERT JUMPDEST POP JUMP JUMPDEST PUSH0 DUP2 CALLDATALOAD SWAP1 POP PUSH2 0x4086 DUP2 PUSH2 0x4062 JUMP JUMPDEST SWAP3 SWAP2 POP POP JUMP JUMPDEST PUSH0 PUSH2 0x409E PUSH2 0x4099 DUP5 PUSH2 0x4037 JUMP JUMPDEST PUSH2 0x3CAE JUMP JUMPDEST SWAP1 POP DUP1 DUP4 DUP3 MSTORE PUSH1 0x20 DUP3 ADD SWAP1 POP PUSH1 0x20 DUP5 MUL DUP4 ADD DUP6 DUP2 GT ISZERO PUSH2 0x40C1 JUMPI PUSH2 0x40C0 PUSH2 0x3D9F JUMP JUMPDEST JUMPDEST DUP4 JUMPDEST DUP2 DUP2 LT ISZERO PUSH2 0x40EA JUMPI DUP1 PUSH2 0x40D6 DUP9 DUP3 PUSH2 0x4078 JUMP JUMPDEST DUP5 MSTORE PUSH1 0x20 DUP5 ADD SWAP4 POP POP PUSH1 0x20 DUP2 ADD SWAP1 POP PUSH2 0x40C3 JUMP JUMPDEST POP POP POP SWAP4 SWAP3 POP POP POP JUMP JUMPDEST PUSH0 DUP3 PUSH1 0x1F DUP4 ADD SLT PUSH2 0x4108 JUMPI PUSH2 0x4107 PUSH2 0x3C48 JUMP JUMPDEST JUMPDEST DUP2 CALLDATALOAD PUSH2 0x4118 DUP5 DUP3 PUSH1 0x20 DUP7 ADD PUSH2 0x408C JUMP JUMPDEST SWAP2 POP POP SWAP3 SWAP2 POP POP JUMP JUMPDEST PUSH0 DUP1 PUSH1 0x40 DUP4 DUP6 SUB SLT ISZERO PUSH2 0x4137 JUMPI PUSH2 0x4136 PUSH2 0x3985 JUMP JUMPDEST JUMPDEST PUSH0 PUSH2 0x4144 DUP6 DUP3 DUP7 ADD PUSH2 0x39FD JUMP JUMPDEST SWAP3 POP POP PUSH1 0x20 DUP4 ADD CALLDATALOAD PUSH8 0xFFFFFFFFFFFFFFFF DUP2 GT ISZERO PUSH2 0x4165 JUMPI PUSH2 0x4164 PUSH2 0x3989 JUMP JUMPDEST JUMPDEST PUSH2 0x4171 DUP6 DUP3 DUP7 ADD PUSH2 0x40F4 JUMP JUMPDEST SWAP2 POP POP SWAP3 POP SWAP3 SWAP1 POP JUMP JUMPDEST PUSH0 DUP1 PUSH1 0x40 DUP4 DUP6 SUB SLT ISZERO PUSH2 0x4191 JUMPI PUSH2 0x4190 PUSH2 0x3985 JUMP JUMPDEST JUMPDEST PUSH0 PUSH2 0x419E DUP6 DUP3 DUP7 ADD PUSH2 0x39FD JUMP JUMPDEST SWAP3 POP POP PUSH1 0x20 PUSH2 0x41AF DUP6 DUP3 DUP7 ADD PUSH2 0x4078 JUMP JUMPDEST SWAP2 POP POP SWAP3 POP SWAP3 SWAP1 POP JUMP JUMPDEST PUSH0 DUP2 MLOAD SWAP1 POP SWAP2 SWAP1 POP JUMP JUMPDEST PUSH0 DUP3 DUP3 MSTORE PUSH1 0x20 DUP3 ADD SWAP1 POP SWAP3 SWAP2 POP POP JUMP JUMPDEST PUSH0 DUP2 SWAP1 POP PUSH1 0x20 DUP3 ADD SWAP1 POP SWAP2 SWAP1 POP JUMP JUMPDEST PUSH2 0x41EB DUP2 PUSH2 0x38A1 JUMP JUMPDEST DUP3 MSTORE POP POP JUMP JUMPDEST PUSH0 PUSH2 0x41FC DUP4 DUP4 PUSH2 0x41E2 JUMP JUMPDEST PUSH1 0x20 DUP4 ADD SWAP1 POP SWAP3 SWAP2 POP POP JUMP JUMPDEST PUSH0 PUSH1 0x20 DUP3 ADD SWAP1 POP SWAP2 SWAP1 POP JUMP JUMPDEST PUSH0 PUSH2 0x421E DUP3 PUSH2 0x41B9 JUMP JUMPDEST PUSH2 0x4228 DUP2 DUP6 PUSH2 0x41C3 JUMP JUMPDEST SWAP4 POP PUSH2 0x4233 DUP4 PUSH2 0x41D3 JUMP JUMPDEST DUP1 PUSH0 JUMPDEST DUP4 DUP2 LT ISZERO PUSH2 0x4263 JUMPI DUP2 MLOAD PUSH2 0x424A DUP9 DUP3 PUSH2 0x41F1 JUMP JUMPDEST SWAP8 POP PUSH2 0x4255 DUP4 PUSH2 0x4208 JUMP JUMPDEST SWAP3 POP POP PUSH1 0x1 DUP2 ADD SWAP1 POP PUSH2 0x4236 JUMP JUMPDEST POP DUP6 SWAP4 POP POP POP POP SWAP3 SWAP2 POP POP JUMP JUMPDEST PUSH0 PUSH1 0x80 DUP3 ADD SWAP1 POP DUP2 DUP2 SUB PUSH0 DUP4 ADD MSTORE PUSH2 0x4288 DUP2 DUP8 PUSH2 0x3924 JUMP JUMPDEST SWAP1 POP PUSH2 0x4297 PUSH1 0x20 DUP4 ADD DUP7 PUSH2 0x38AA JUMP JUMPDEST DUP2 DUP2 SUB PUSH1 0x40 DUP4 ADD MSTORE PUSH2 0x42A9 DUP2 DUP6 PUSH2 0x4214 JUMP JUMPDEST SWAP1 POP DUP2 DUP2 SUB PUSH1 0x60 DUP4 ADD MSTORE PUSH2 0x42BD DUP2 DUP5 PUSH2 0x4214 JUMP JUMPDEST SWAP1 POP SWAP6 SWAP5 POP POP POP POP POP JUMP JUMPDEST PUSH32 0x4E487B7100000000000000000000000000000000000000000000000000000000 PUSH0 MSTORE PUSH1 0x32 PUSH1 0x4 MSTORE PUSH1 0x24 PUSH0 REVERT JUMPDEST PUSH32 0x4E487B7100000000000000000000000000000000000000000000000000000000 PUSH0 MSTORE PUSH1 0x11 PUSH1 0x4 MSTORE PUSH1 0x24 PUSH0 REVERT JUMPDEST PUSH0 PUSH2 0x432C DUP3 PUSH2 0x38A1 JUMP JUMPDEST SWAP2 POP PUSH32 0xFFFFFFFFFFFFFFFFFFFFFFFFFFFFFFFFFFFFFFFFFFFFFFFFFFFFFFFFFFFFFFFF DUP3 SUB PUSH2 0x435E JUMPI PUSH2 0x435D PUSH2 0x42F5 JUMP JUMPDEST JUMPDEST PUSH1 0x1 DUP3 ADD SWAP1 POP SWAP2 SWAP1 POP JUMP JUMPDEST PUSH32 0x4E487B7100000000000000000000000000000000000000000000000000000000 PUSH0 MSTORE PUSH1 0x22 PUSH1 0x4 MSTORE PUSH1 0x24 PUSH0 REVERT JUMPDEST PUSH0 PUSH1 0x2 DUP3 DIV SWAP1 POP PUSH1 0x1 DUP3 AND DUP1 PUSH2 0x43AD JUMPI PUSH1 0x7F DUP3 AND SWAP2 POP JUMPDEST PUSH1 0x20 DUP3 LT DUP2 SUB PUSH2 0x43C0 JUMPI PUSH2 0x43BF PUSH2 0x4369 JUMP JUMPDEST JUMPDEST POP SWAP2 SWAP1 POP JUMP JUMPDEST PUSH0 PUSH2 0x43D0 DUP3 PUSH2 0x38A1 JUMP JUMPDEST SWAP2 POP PUSH2 0x43DB DUP4 PUSH2 0x38A1 JUMP JUMPDEST SWAP3 POP DUP3 DUP3 SUB SWAP1 POP DUP2 DUP2 GT ISZERO PUSH2 0x43F3 JUMPI PUSH2 0x43F2 PUSH2 0x42F5 JUMP JUMPDEST JUMPDEST SWAP3 SWAP2 POP POP JUMP JUMPDEST PUSH0 DUP2 MLOAD SWAP1 POP PUSH2 0x4407 DUP2 PUSH2 0x39E7 JUMP JUMPDEST SWAP3 SWAP2 POP POP JUMP JUMPDEST PUSH0 PUSH1 0x20 DUP3 DUP5 SUB SLT ISZERO PUSH2 0x4422 JUMPI PUSH2 0x4421 PUSH2 0x3985 JUMP JUMPDEST JUMPDEST PUSH0 PUSH2 0x442F DUP5 DUP3 DUP6 ADD PUSH2 0x43F9 JUMP JUMPDEST SWAP2 POP POP SWAP3 SWAP2 POP POP JUMP JUMPDEST PUSH32 0x4E487B7100000000000000000000000000000000000000000000000000000000 PUSH0 MSTORE PUSH1 0x12 PUSH1 0x4 MSTORE PUSH1 0x24 PUSH0 REVERT JUMPDEST PUSH0 PUSH2 0x446F DUP3 PUSH2 0x38A1 JUMP JUMPDEST SWAP2 POP PUSH2 0x447A DUP4 PUSH2 0x38A1 JUMP JUMPDEST SWAP3 POP DUP3 PUSH2 0x448A JUMPI PUSH2 0x4489 PUSH2 0x4438 JUMP JUMPDEST JUMPDEST DUP3 DUP3 DIV SWAP1 POP SWAP3 SWAP2 POP POP JUMP JUMPDEST PUSH0 PUSH1 0x60 DUP3 ADD SWAP1 POP PUSH2 0x44A8 PUSH0 DUP4 ADD DUP7 PUSH2 0x3BAC JUMP JUMPDEST PUSH2 0x44B5 PUSH1 0x20 DUP4 ADD DUP6 PUSH2 0x3BAC JUMP JUMPDEST PUSH2 0x44C2 PUSH1 0x40 DUP4 ADD DUP5 PUSH2 0x38AA JUMP JUMPDEST SWAP5 SWAP4 POP POP POP POP JUMP JUMPDEST PUSH0 DUP2 MLOAD SWAP1 POP PUSH2 0x44D8 DUP2 PUSH2 0x4062 JUMP JUMPDEST SWAP3 SWAP2 POP POP JUMP JUMPDEST PUSH0 PUSH1 0x20 DUP3 DUP5 SUB SLT ISZERO PUSH2 0x44F3 JUMPI PUSH2 0x44F2 PUSH2 0x3985 JUMP JUMPDEST JUMPDEST PUSH0 PUSH2 0x4500 DUP5 DUP3 DUP6 ADD PUSH2 0x44CA JUMP JUMPDEST SWAP2 POP POP SWAP3 SWAP2 POP POP JUMP JUMPDEST PUSH0 PUSH2 0x4513 DUP3 PUSH2 0x38A1 JUMP JUMPDEST SWAP2 POP PUSH2 0x451E DUP4 PUSH2 0x38A1 JUMP JUMPDEST SWAP3 POP DUP3 DUP3 ADD SWAP1 POP DUP1 DUP3 GT ISZERO PUSH2 0x4536 JUMPI PUSH2 0x4535 PUSH2 0x42F5 JUMP JUMPDEST JUMPDEST SWAP3 SWAP2 POP POP JUMP JUMPDEST PUSH0 DUP2 SWAP1 POP SWAP2 SWAP1 POP JUMP JUMPDEST PUSH0 PUSH2 0x455F PUSH2 0x455A PUSH2 0x4555 DUP5 PUSH2 0x453C JUMP JUMPDEST PUSH2 0x3BD4 JUMP JUMPDEST PUSH2 0x38A1 JUMP JUMPDEST SWAP1 POP SWAP2 SWAP1 POP JUMP JUMPDEST PUSH2 0x456F DUP2 PUSH2 0x4545 JUMP JUMPDEST DUP3 MSTORE POP POP JUMP JUMPDEST PUSH0 PUSH1 0x60 DUP3 ADD SWAP1 POP PUSH2 0x4588 PUSH0 DUP4 ADD DUP7 PUSH2 0x3BAC JUMP JUMPDEST PUSH2 0x4595 PUSH1 0x20 DUP4 ADD DUP6 PUSH2 0x3BAC JUMP JUMPDEST PUSH2 0x45A2 PUSH1 0x40 DUP4 ADD DUP5 PUSH2 0x4566 JUMP JUMPDEST SWAP5 SWAP4 POP POP POP POP JUMP JUMPDEST PUSH0 DUP2 SWAP1 POP DUP2 PUSH0 MSTORE PUSH1 0x20 PUSH0 KECCAK256 SWAP1 POP SWAP2 SWAP1 POP JUMP JUMPDEST PUSH0 PUSH1 0x20 PUSH1 0x1F DUP4 ADD DIV SWAP1 POP SWAP2 SWAP1 POP JUMP JUMPDEST PUSH0 DUP3 DUP3 SHL SWAP1 POP SWAP3 SWAP2 POP POP JUMP JUMPDEST PUSH0 PUSH1 0x8 DUP4 MUL PUSH2 0x4606 PUSH32 0xFFFFFFFFFFFFFFFFFFFFFFFFFFFFFFFFFFFFFFFFFFFFFFFFFFFFFFFFFFFFFFFF DUP3 PUSH2 0x45CB JUMP JUMPDEST PUSH2 0x4610 DUP7 DUP4 PUSH2 0x45CB JUMP JUMPDEST SWAP6 POP DUP1 NOT DUP5 AND SWAP4 POP DUP1 DUP7 AND DUP5 OR SWAP3 POP POP POP SWAP4 SWAP3 POP POP POP JUMP JUMPDEST PUSH0 PUSH2 0x4642 PUSH2 0x463D PUSH2 0x4638 DUP5 PUSH2 0x38A1 JUMP JUMPDEST PUSH2 0x3BD4 JUMP JUMPDEST PUSH2 0x38A1 JUMP JUMPDEST SWAP1 POP SWAP2 SWAP1 POP JUMP JUMPDEST PUSH0 DUP2 SWAP1 POP SWAP2 SWAP1 POP JUMP JUMPDEST PUSH2 0x465B DUP4 PUSH2 0x4628 JUMP JUMPDEST PUSH2 0x466F PUSH2 0x4667 DUP3 PUSH2 0x4649 JUMP JUMPDEST DUP5 DUP5 SLOAD PUSH2 0x45D7 JUMP JUMPDEST DUP3 SSTORE POP POP POP POP JUMP JUMPDEST PUSH0 SWAP1 JUMP JUMPDEST PUSH2 0x4683 PUSH2 0x4677 JUMP JUMPDEST PUSH2 0x468E DUP2 DUP5 DUP5 PUSH2 0x4652 JUMP JUMPDEST POP POP POP JUMP JUMPDEST JUMPDEST DUP2 DUP2 LT ISZERO PUSH2 0x46B1 JUMPI PUSH2 0x46A6 PUSH0 DUP3 PUSH2 0x467B JUMP JUMPDEST PUSH1 0x1 DUP2 ADD SWAP1 POP PUSH2 0x4694 JUMP JUMPDEST POP POP JUMP JUMPDEST PUSH1 0x1F DUP3 GT ISZERO PUSH2 0x46F6 JUMPI PUSH2 0x46C7 DUP2 PUSH2 0x45AA JUMP JUMPDEST PUSH2 0x46D0 DUP5 PUSH2 0x45BC JUMP JUMPDEST DUP2 ADD PUSH1 0x20 DUP6 LT ISZERO PUSH2 0x46DF JUMPI DUP2 SWAP1 POP JUMPDEST PUSH2 0x46F3 PUSH2 0x46EB DUP6 PUSH2 0x45BC JUMP JUMPDEST DUP4 ADD DUP3 PUSH2 0x4693 JUMP JUMPDEST POP POP JUMPDEST POP POP POP JUMP JUMPDEST PUSH0 DUP3 DUP3 SHR SWAP1 POP SWAP3 SWAP2 POP POP JUMP JUMPDEST PUSH0 PUSH2 0x4716 PUSH0 NOT DUP5 PUSH1 0x8 MUL PUSH2 0x46FB JUMP JUMPDEST NOT DUP1 DUP4 AND SWAP2 POP POP SWAP3 SWAP2 POP POP JUMP JUMPDEST PUSH0 PUSH2 0x472E DUP4 DUP4 PUSH2 0x4707 JUMP JUMPDEST SWAP2 POP DUP3 PUSH1 0x2 MUL DUP3 OR SWAP1 POP SWAP3 SWAP2 POP POP JUMP JUMPDEST PUSH2 0x4747 DUP3 PUSH2 0x38D2 JUMP JUMPDEST PUSH8 0xFFFFFFFFFFFFFFFF DUP2 GT ISZERO PUSH2 0x4760 JUMPI PUSH2 0x475F PUSH2 0x3C50 JUMP JUMPDEST JUMPDEST PUSH2 0x476A DUP3 SLOAD PUSH2 0x4396 JUMP JUMPDEST PUSH2 0x4775 DUP3 DUP3 DUP6 PUSH2 0x46B5 JUMP JUMPDEST PUSH0 PUSH1 0x20 SWAP1 POP PUSH1 0x1F DUP4 GT PUSH1 0x1 DUP2 EQ PUSH2 0x47A6 JUMPI PUSH0 DUP5 ISZERO PUSH2 0x4794 JUMPI DUP3 DUP8 ADD MLOAD SWAP1 POP JUMPDEST PUSH2 0x479E DUP6 DUP3 PUSH2 0x4723 JUMP JUMPDEST DUP7 SSTORE POP PUSH2 0x4805 JUMP JUMPDEST PUSH1 0x1F NOT DUP5 AND PUSH2 0x47B4 DUP7 PUSH2 0x45AA JUMP JUMPDEST PUSH0 JUMPDEST DUP3 DUP2 LT ISZERO PUSH2 0x47DB JUMPI DUP5 DUP10 ADD MLOAD DUP3 SSTORE PUSH1 0x1 DUP3 ADD SWAP2 POP PUSH1 0x20 DUP6 ADD SWAP5 POP PUSH1 0x20 DUP2 ADD SWAP1 POP PUSH2 0x47B6 JUMP JUMPDEST DUP7 DUP4 LT ISZERO PUSH2 0x47F8 JUMPI DUP5 DUP10 ADD MLOAD PUSH2 0x47F4 PUSH1 0x1F DUP10 AND DUP3 PUSH2 0x4707 JUMP JUMPDEST DUP4 SSTORE POP JUMPDEST PUSH1 0x1 PUSH1 0x2 DUP9 MUL ADD DUP9 SSTORE POP POP POP JUMPDEST POP POP POP POP POP POP JUMP JUMPDEST PUSH0 DUP2 SLOAD SWAP1 POP SWAP2 SWAP1 POP JUMP JUMPDEST PUSH0 DUP3 DUP3 MSTORE PUSH1 0x20 DUP3 ADD SWAP1 POP SWAP3 SWAP2 POP POP JUMP JUMPDEST PUSH0 DUP2 SWAP1 POP DUP2 PUSH0 MSTORE PUSH1 0x20 PUSH0 KECCAK256 SWAP1 POP SWAP2 SWAP1 POP JUMP JUMPDEST PUSH2 0x4842 DUP2 PUSH2 0x3A61 JUMP JUMPDEST DUP3 MSTORE POP POP JUMP JUMPDEST PUSH0 DUP2 PUSH0 SHR SWAP1 POP SWAP2 SWAP1 POP JUMP JUMPDEST PUSH0 PUSH1 0xFF DUP3 AND SWAP1 POP SWAP2 SWAP1 POP JUMP JUMPDEST PUSH0 PUSH2 0x4871 PUSH2 0x486C DUP4 PUSH2 0x4848 JUMP JUMPDEST PUSH2 0x4853 JUMP JUMPDEST SWAP1 POP SWAP2 SWAP1 POP JUMP JUMPDEST PUSH0 DUP2 PUSH1 0x8 SHR SWAP1 POP SWAP2 SWAP1 POP JUMP JUMPDEST PUSH0 PUSH2 0x4896 PUSH2 0x4891 DUP4 PUSH2 0x4878 JUMP JUMPDEST PUSH2 0x4853 JUMP JUMPDEST SWAP1 POP SWAP2 SWAP1 POP JUMP JUMPDEST PUSH0 DUP2 PUSH1 0x10 SHR SWAP1 POP SWAP2 SWAP1 POP JUMP JUMPDEST PUSH0 PUSH2 0x48BB PUSH2 0x48B6 DUP4 PUSH2 0x489D JUMP JUMPDEST PUSH2 0x4853 JUMP JUMPDEST SWAP1 POP SWAP2 SWAP1 POP JUMP JUMPDEST PUSH0 DUP2 PUSH1 0x18 SHR SWAP1 POP SWAP2 SWAP1 POP JUMP JUMPDEST PUSH0 PUSH2 0x48E0 PUSH2 0x48DB DUP4 PUSH2 0x48C2 JUMP JUMPDEST PUSH2 0x4853 JUMP JUMPDEST SWAP1 POP SWAP2 SWAP1 POP JUMP JUMPDEST PUSH0 DUP2 PUSH1 0x20 SHR SWAP1 POP SWAP2 SWAP1 POP JUMP JUMPDEST PUSH0 PUSH2 0x4905 PUSH2 0x4900 DUP4 PUSH2 0x48E7 JUMP JUMPDEST PUSH2 0x4853 JUMP JUMPDEST SWAP1 POP SWAP2 SWAP1 POP JUMP JUMPDEST PUSH0 DUP2 PUSH1 0x28 SHR SWAP1 POP SWAP2 SWAP1 POP JUMP JUMPDEST PUSH0 PUSH2 0x492A PUSH2 0x4925 DUP4 PUSH2 0x490C JUMP JUMPDEST PUSH2 0x4853 JUMP JUMPDEST SWAP1 POP SWAP2 SWAP1 POP JUMP JUMPDEST PUSH0 DUP2 PUSH1 0x30 SHR SWAP1 POP SWAP2 SWAP1 POP JUMP JUMPDEST PUSH0 PUSH2 0x494F PUSH2 0x494A DUP4 PUSH2 0x4931 JUMP JUMPDEST PUSH2 0x4853 JUMP JUMPDEST SWAP1 POP SWAP2 SWAP1 POP JUMP JUMPDEST PUSH0 DUP2 PUSH1 0x38 SHR SWAP1 POP SWAP2 SWAP1 POP JUMP JUMPDEST PUSH0 PUSH2 0x4974 PUSH2 0x496F DUP4 PUSH2 0x4956 JUMP JUMPDEST PUSH2 0x4853 JUMP JUMPDEST SWAP1 POP SWAP2 SWAP1 POP JUMP JUMPDEST PUSH0 DUP2 PUSH1 0x40 SHR SWAP1 POP SWAP2 SWAP1 POP JUMP JUMPDEST PUSH0 PUSH2 0x4999 PUSH2 0x4994 DUP4 PUSH2 0x497B JUMP JUMPDEST PUSH2 0x4853 JUMP JUMPDEST SWAP1 POP SWAP2 SWAP1 POP JUMP JUMPDEST PUSH0 DUP2 PUSH1 0x48 SHR SWAP1 POP SWAP2 SWAP1 POP JUMP JUMPDEST PUSH0 PUSH2 0x49BE PUSH2 0x49B9 DUP4 PUSH2 0x49A0 JUMP JUMPDEST PUSH2 0x4853 JUMP JUMPDEST SWAP1 POP SWAP2 SWAP1 POP JUMP JUMPDEST PUSH0 DUP2 PUSH1 0x50 SHR SWAP1 POP SWAP2 SWAP1 POP JUMP JUMPDEST PUSH0 PUSH2 0x49E3 PUSH2 0x49DE DUP4 PUSH2 0x49C5 JUMP JUMPDEST PUSH2 0x4853 JUMP JUMPDEST SWAP1 POP SWAP2 SWAP1 POP JUMP JUMPDEST PUSH0 DUP2 PUSH1 0x58 SHR SWAP1 POP SWAP2 SWAP1 POP JUMP JUMPDEST PUSH0 PUSH2 0x4A08 PUSH2 0x4A03 DUP4 PUSH2 0x49EA JUMP JUMPDEST PUSH2 0x4853 JUMP JUMPDEST SWAP1 POP SWAP2 SWAP1 POP JUMP JUMPDEST PUSH0 DUP2 PUSH1 0x60 SHR SWAP1 POP SWAP2 SWAP1 POP JUMP JUMPDEST PUSH0 PUSH2 0x4A2D PUSH2 0x4A28 DUP4 PUSH2 0x4A0F JUMP JUMPDEST PUSH2 0x4853 JUMP JUMPDEST SWAP1 POP SWAP2 SWAP1 POP JUMP JUMPDEST PUSH0 DUP2 PUSH1 0x68 SHR SWAP1 POP SWAP2 SWAP1 POP JUMP JUMPDEST PUSH0 PUSH2 0x4A52 PUSH2 0x4A4D DUP4 PUSH2 0x4A34 JUMP JUMPDEST PUSH2 0x4853 JUMP JUMPDEST SWAP1 POP SWAP2 SWAP1 POP JUMP JUMPDEST PUSH0 DUP2 PUSH1 0x70 SHR SWAP1 POP SWAP2 SWAP1 POP JUMP JUMPDEST PUSH0 PUSH2 0x4A77 PUSH2 0x4A72 DUP4 PUSH2 0x4A59 JUMP JUMPDEST PUSH2 0x4853 JUMP JUMPDEST SWAP1 POP SWAP2 SWAP1 POP JUMP JUMPDEST PUSH0 DUP2 PUSH1 0x78 SHR SWAP1 POP SWAP2 SWAP1 POP JUMP JUMPDEST PUSH0 PUSH2 0x4A9C PUSH2 0x4A97 DUP4 PUSH2 0x4A7E JUMP JUMPDEST PUSH2 0x4853 JUMP JUMPDEST SWAP1 POP SWAP2 SWAP1 POP JUMP JUMPDEST PUSH0 DUP2 PUSH1 0x80 SHR SWAP1 POP SWAP2 SWAP1 POP JUMP JUMPDEST PUSH0 PUSH2 0x4AC1 PUSH2 0x4ABC DUP4 PUSH2 0x4AA3 JUMP JUMPDEST PUSH2 0x4853 JUMP JUMPDEST SWAP1 POP SWAP2 SWAP1 POP JUMP JUMPDEST PUSH0 DUP2 PUSH1 0x88 SHR SWAP1 POP SWAP2 SWAP1 POP JUMP JUMPDEST PUSH0 PUSH2 0x4AE6 PUSH2 0x4AE1 DUP4 PUSH2 0x4AC8 JUMP JUMPDEST PUSH2 0x4853 JUMP JUMPDEST SWAP1 POP SWAP2 SWAP1 POP JUMP JUMPDEST PUSH0 DUP2 PUSH1 0x90 SHR SWAP1 POP SWAP2 SWAP1 POP JUMP JUMPDEST PUSH0 PUSH2 0x4B0B PUSH2 0x4B06 DUP4 PUSH2 0x4AED JUMP JUMPDEST PUSH2 0x4853 JUMP JUMPDEST SWAP1 POP SWAP2 SWAP1 POP JUMP JUMPDEST PUSH0 DUP2 PUSH1 0x98 SHR SWAP1 POP SWAP2 SWAP1 POP JUMP JUMPDEST PUSH0 PUSH2 0x4B30 PUSH2 0x4B2B DUP4 PUSH2 0x4B12 JUMP JUMPDEST PUSH2 0x4853 JUMP JUMPDEST SWAP1 POP SWAP2 SWAP1 POP JUMP JUMPDEST PUSH0 DUP2 PUSH1 0xA0 SHR SWAP1 POP SWAP2 SWAP1 POP JUMP JUMPDEST PUSH0 PUSH2 0x4B55 PUSH2 0x4B50 DUP4 PUSH2 0x4B37 JUMP JUMPDEST PUSH2 0x4853 JUMP JUMPDEST SWAP1 POP SWAP2 SWAP1 POP JUMP JUMPDEST PUSH0 DUP2 PUSH1 0xA8 SHR SWAP1 POP SWAP2 SWAP1 POP JUMP JUMPDEST PUSH0 PUSH2 0x4B7A PUSH2 0x4B75 DUP4 PUSH2 0x4B5C JUMP JUMPDEST PUSH2 0x4853 JUMP JUMPDEST SWAP1 POP SWAP2 SWAP1 POP JUMP JUMPDEST PUSH0 DUP2 PUSH1 0xB0 SHR SWAP1 POP SWAP2 SWAP1 POP JUMP JUMPDEST PUSH0 PUSH2 0x4B9F PUSH2 0x4B9A DUP4 PUSH2 0x4B81 JUMP JUMPDEST PUSH2 0x4853 JUMP JUMPDEST SWAP1 POP SWAP2 SWAP1 POP JUMP JUMPDEST PUSH0 DUP2 PUSH1 0xB8 SHR SWAP1 POP SWAP2 SWAP1 POP JUMP JUMPDEST PUSH0 PUSH2 0x4BC4 PUSH2 0x4BBF DUP4 PUSH2 0x4BA6 JUMP JUMPDEST PUSH2 0x4853 JUMP JUMPDEST SWAP1 POP SWAP2 SWAP1 POP JUMP JUMPDEST PUSH0 DUP2 PUSH1 0xC0 SHR SWAP1 POP SWAP2 SWAP1 POP JUMP JUMPDEST PUSH0 PUSH2 0x4BE9 PUSH2 0x4BE4 DUP4 PUSH2 0x4BCB JUMP JUMPDEST PUSH2 0x4853 JUMP JUMPDEST SWAP1 POP SWAP2 SWAP1 POP JUMP JUMPDEST PUSH0 DUP2 PUSH1 0xC8 SHR SWAP1 POP SWAP2 SWAP1 POP JUMP JUMPDEST PUSH0 PUSH2 0x4C0E PUSH2 0x4C09 DUP4 PUSH2 0x4BF0 JUMP JUMPDEST PUSH2 0x4853 JUMP JUMPDEST SWAP1 POP SWAP2 SWAP1 POP JUMP JUMPDEST PUSH0 DUP2 PUSH1 0xD0 SHR SWAP1 POP SWAP2 SWAP1 POP JUMP JUMPDEST PUSH0 PUSH2 0x4C33 PUSH2 0x4C2E DUP4 PUSH2 0x4C15 JUMP JUMPDEST PUSH2 0x4853 JUMP JUMPDEST SWAP1 POP SWAP2 SWAP1 POP JUMP JUMPDEST PUSH0 DUP2 PUSH1 0xD8 SHR SWAP1 POP SWAP2 SWAP1 POP JUMP JUMPDEST PUSH0 PUSH2 0x4C58 PUSH2 0x4C53 DUP4 PUSH2 0x4C3A JUMP JUMPDEST PUSH2 0x4853 JUMP JUMPDEST SWAP1 POP SWAP2 SWAP1 POP JUMP JUMPDEST PUSH0 DUP2 PUSH1 0xE0 SHR SWAP1 POP SWAP2 SWAP1 POP JUMP JUMPDEST PUSH0 PUSH2 0x4C7D PUSH2 0x4C78 DUP4 PUSH2 0x4C5F JUMP JUMPDEST PUSH2 0x4853 JUMP JUMPDEST SWAP1 POP SWAP2 SWAP1 POP JUMP JUMPDEST PUSH0 DUP2 PUSH1 0xE8 SHR SWAP1 POP SWAP2 SWAP1 POP JUMP JUMPDEST PUSH0 PUSH2 0x4CA2 PUSH2 0x4C9D DUP4 PUSH2 0x4C84 JUMP JUMPDEST PUSH2 0x4853 JUMP JUMPDEST SWAP1 POP SWAP2 SWAP1 POP JUMP JUMPDEST PUSH0 DUP2 PUSH1 0xF0 SHR SWAP1 POP SWAP2 SWAP1 POP JUMP JUMPDEST PUSH0 PUSH2 0x4CC7 PUSH2 0x4CC2 DUP4 PUSH2 0x4CA9 JUMP JUMPDEST PUSH2 0x4853 JUMP JUMPDEST SWAP1 POP SWAP2 SWAP1 POP JUMP JUMPDEST PUSH0 DUP2 PUSH1 0xF8 SHR SWAP1 POP SWAP2 SWAP1 POP JUMP JUMPDEST PUSH0 PUSH2 0x4CEC PUSH2 0x4CE7 DUP4 PUSH2 0x4CCE JUMP JUMPDEST PUSH2 0x4853 JUMP JUMPDEST SWAP1 POP SWAP2 SWAP1 POP JUMP JUMPDEST PUSH0 PUSH2 0x4CFD DUP3 PUSH2 0x480D JUMP JUMPDEST PUSH2 0x4D07 DUP2 DUP6 PUSH2 0x4817 JUMP JUMPDEST SWAP4 POP DUP4 PUSH2 0x4D13 DUP5 PUSH2 0x4827 JUMP JUMPDEST PUSH0 PUSH1 0x1 ISZERO PUSH2 0x503F JUMPI JUMPDEST DUP4 PUSH1 0x1 PUSH1 0x20 SUB DUP3 ADD LT ISZERO PUSH2 0x503E JUMPI DUP2 SLOAD PUSH2 0x4D3E DUP9 PUSH2 0x4D39 DUP4 PUSH2 0x485F JUMP JUMPDEST PUSH2 0x4839 JUMP JUMPDEST PUSH1 0x20 DUP9 ADD SWAP8 POP PUSH2 0x4D56 DUP9 PUSH2 0x4D51 DUP4 PUSH2 0x4884 JUMP JUMPDEST PUSH2 0x4839 JUMP JUMPDEST PUSH1 0x20 DUP9 ADD SWAP8 POP PUSH2 0x4D6E DUP9 PUSH2 0x4D69 DUP4 PUSH2 0x48A9 JUMP JUMPDEST PUSH2 0x4839 JUMP JUMPDEST PUSH1 0x20 DUP9 ADD SWAP8 POP PUSH2 0x4D86 DUP9 PUSH2 0x4D81 DUP4 PUSH2 0x48CE JUMP JUMPDEST PUSH2 0x4839 JUMP JUMPDEST PUSH1 0x20 DUP9 ADD SWAP8 POP PUSH2 0x4D9E DUP9 PUSH2 0x4D99 DUP4 PUSH2 0x48F3 JUMP JUMPDEST PUSH2 0x4839 JUMP JUMPDEST PUSH1 0x20 DUP9 ADD SWAP8 POP PUSH2 0x4DB6 DUP9 PUSH2 0x4DB1 DUP4 PUSH2 0x4918 JUMP JUMPDEST PUSH2 0x4839 JUMP JUMPDEST PUSH1 0x20 DUP9 ADD SWAP8 POP PUSH2 0x4DCE DUP9 PUSH2 0x4DC9 DUP4 PUSH2 0x493D JUMP JUMPDEST PUSH2 0x4839 JUMP JUMPDEST PUSH1 0x20 DUP9 ADD SWAP8 POP PUSH2 0x4DE6 DUP9 PUSH2 0x4DE1 DUP4 PUSH2 0x4962 JUMP JUMPDEST PUSH2 0x4839 JUMP JUMPDEST PUSH1 0x20 DUP9 ADD SWAP8 POP PUSH2 0x4DFE DUP9 PUSH2 0x4DF9 DUP4 PUSH2 0x4987 JUMP JUMPDEST PUSH2 0x4839 JUMP JUMPDEST PUSH1 0x20 DUP9 ADD SWAP8 POP PUSH2 0x4E16 DUP9 PUSH2 0x4E11 DUP4 PUSH2 0x49AC JUMP JUMPDEST PUSH2 0x4839 JUMP JUMPDEST PUSH1 0x20 DUP9 ADD SWAP8 POP PUSH2 0x4E2E DUP9 PUSH2 0x4E29 DUP4 PUSH2 0x49D1 JUMP JUMPDEST PUSH2 0x4839 JUMP JUMPDEST PUSH1 0x20 DUP9 ADD SWAP8 POP PUSH2 0x4E46 DUP9 PUSH2 0x4E41 DUP4 PUSH2 0x49F6 JUMP JUMPDEST PUSH2 0x4839 JUMP JUMPDEST PUSH1 0x20 DUP9 ADD SWAP8 POP PUSH2 0x4E5E DUP9 PUSH2 0x4E59 DUP4 PUSH2 0x4A1B JUMP JUMPDEST PUSH2 0x4839 JUMP JUMPDEST PUSH1 0x20 DUP9 ADD SWAP8 POP PUSH2 0x4E76 DUP9 PUSH2 0x4E71 DUP4 PUSH2 0x4A40 JUMP JUMPDEST PUSH2 0x4839 JUMP JUMPDEST PUSH1 0x20 DUP9 ADD SWAP8 POP PUSH2 0x4E8E DUP9 PUSH2 0x4E89 DUP4 PUSH2 0x4A65 JUMP JUMPDEST PUSH2 0x4839 JUMP JUMPDEST PUSH1 0x20 DUP9 ADD SWAP8 POP PUSH2 0x4EA6 DUP9 PUSH2 0x4EA1 DUP4 PUSH2 0x4A8A JUMP JUMPDEST PUSH2 0x4839 JUMP JUMPDEST PUSH1 0x20 DUP9 ADD SWAP8 POP PUSH2 0x4EBE DUP9 PUSH2 0x4EB9 DUP4 PUSH2 0x4AAF JUMP JUMPDEST PUSH2 0x4839 JUMP JUMPDEST PUSH1 0x20 DUP9 ADD SWAP8 POP PUSH2 0x4ED6 DUP9 PUSH2 0x4ED1 DUP4 PUSH2 0x4AD4 JUMP JUMPDEST PUSH2 0x4839 JUMP JUMPDEST PUSH1 0x20 DUP9 ADD SWAP8 POP PUSH2 0x4EEE DUP9 PUSH2 0x4EE9 DUP4 PUSH2 0x4AF9 JUMP JUMPDEST PUSH2 0x4839 JUMP JUMPDEST PUSH1 0x20 DUP9 ADD SWAP8 POP PUSH2 0x4F06 DUP9 PUSH2 0x4F01 DUP4 PUSH2 0x4B1E JUMP JUMPDEST PUSH2 0x4839 JUMP JUMPDEST PUSH1 0x20 DUP9 ADD SWAP8 POP PUSH2 0x4F1E DUP9 PUSH2 0x4F19 DUP4 PUSH2 0x4B43 JUMP JUMPDEST PUSH2 0x4839 JUMP JUMPDEST PUSH1 0x20 DUP9 ADD SWAP8 POP PUSH2 0x4F36 DUP9 PUSH2 0x4F31 DUP4 PUSH2 0x4B68 JUMP JUMPDEST PUSH2 0x4839 JUMP JUMPDEST PUSH1 0x20 DUP9 ADD SWAP8 POP PUSH2 0x4F4E DUP9 PUSH2 0x4F49 DUP4 PUSH2 0x4B8D JUMP JUMPDEST PUSH2 0x4839 JUMP JUMPDEST PUSH1 0x20 DUP9 ADD SWAP8 POP PUSH2 0x4F66 DUP9 PUSH2 0x4F61 DUP4 PUSH2 0x4BB2 JUMP JUMPDEST PUSH2 0x4839 JUMP JUMPDEST PUSH1 0x20 DUP9 ADD SWAP8 POP PUSH2 0x4F7E DUP9 PUSH2 0x4F79 DUP4 PUSH2 0x4BD7 JUMP JUMPDEST PUSH2 0x4839 JUMP JUMPDEST PUSH1 0x20 DUP9 ADD SWAP8 POP PUSH2 0x4F96 DUP9 PUSH2 0x4F91 DUP4 PUSH2 0x4BFC JUMP JUMPDEST PUSH2 0x4839 JUMP JUMPDEST PUSH1 0x20 DUP9 ADD SWAP8 POP PUSH2 0x4FAE DUP9 PUSH2 0x4FA9 DUP4 PUSH2 0x4C21 JUMP JUMPDEST PUSH2 0x4839 JUMP JUMPDEST PUSH1 0x20 DUP9 ADD SWAP8 POP PUSH2 0x4FC6 DUP9 PUSH2 0x4FC1 DUP4 PUSH2 0x4C46 JUMP JUMPDEST PUSH2 0x4839 JUMP JUMPDEST PUSH1 0x20 DUP9 ADD SWAP8 POP PUSH2 0x4FDE DUP9 PUSH2 0x4FD9 DUP4 PUSH2 0x4C6B JUMP JUMPDEST PUSH2 0x4839 JUMP JUMPDEST PUSH1 0x20 DUP9 ADD SWAP8 POP PUSH2 0x4FF6 DUP9 PUSH2 0x4FF1 DUP4 PUSH2 0x4C90 JUMP JUMPDEST PUSH2 0x4839 JUMP JUMPDEST PUSH1 0x20 DUP9 ADD SWAP8 POP PUSH2 0x500E DUP9 PUSH2 0x5009 DUP4 PUSH2 0x4CB5 JUMP JUMPDEST PUSH2 0x4839 JUMP JUMPDEST PUSH1 0x20 DUP9 ADD SWAP8 POP PUSH2 0x5026 DUP9 PUSH2 0x5021 DUP4 PUSH2 0x4CDA JUMP JUMPDEST PUSH2 0x4839 JUMP JUMPDEST PUSH1 0x20 DUP9 ADD SWAP8 POP PUSH1 0x1 DUP4 ADD SWAP3 POP POP PUSH1 0x20 DUP2 ADD SWAP1 POP PUSH2 0x4D1C JUMP JUMPDEST JUMPDEST PUSH1 0x1 ISZERO PUSH2 0x552A JUMPI DUP2 SLOAD DUP5 DUP3 LT ISZERO PUSH2 0x506F JUMPI PUSH2 0x5062 DUP9 PUSH2 0x505D DUP4 PUSH2 0x485F JUMP JUMPDEST PUSH2 0x4839 JUMP JUMPDEST PUSH1 0x20 DUP9 ADD SWAP8 POP PUSH1 0x1 DUP3 ADD SWAP2 POP JUMPDEST DUP5 DUP3 LT ISZERO PUSH2 0x5096 JUMPI PUSH2 0x5089 DUP9 PUSH2 0x5084 DUP4 PUSH2 0x4884 JUMP JUMPDEST PUSH2 0x4839 JUMP JUMPDEST PUSH1 0x20 DUP9 ADD SWAP8 POP PUSH1 0x1 DUP3 ADD SWAP2 POP JUMPDEST DUP5 DUP3 LT ISZERO PUSH2 0x50BD JUMPI PUSH2 0x50B0 DUP9 PUSH2 0x50AB DUP4 PUSH2 0x48A9 JUMP JUMPDEST PUSH2 0x4839 JUMP JUMPDEST PUSH1 0x20 DUP9 ADD SWAP8 POP PUSH1 0x1 DUP3 ADD SWAP2 POP JUMPDEST DUP5 DUP3 LT ISZERO PUSH2 0x50E4 JUMPI PUSH2 0x50D7 DUP9 PUSH2 0x50D2 DUP4 PUSH2 0x48CE JUMP JUMPDEST PUSH2 0x4839 JUMP JUMPDEST PUSH1 0x20 DUP9 ADD SWAP8 POP PUSH1 0x1 DUP3 ADD SWAP2 POP JUMPDEST DUP5 DUP3 LT ISZERO PUSH2 0x510B JUMPI PUSH2 0x50FE DUP9 PUSH2 0x50F9 DUP4 PUSH2 0x48F3 JUMP JUMPDEST PUSH2 0x4839 JUMP JUMPDEST PUSH1 0x20 DUP9 ADD SWAP8 POP PUSH1 0x1 DUP3 ADD SWAP2 POP JUMPDEST DUP5 DUP3 LT ISZERO PUSH2 0x5132 JUMPI PUSH2 0x5125 DUP9 PUSH2 0x5120 DUP4 PUSH2 0x4918 JUMP JUMPDEST PUSH2 0x4839 JUMP JUMPDEST PUSH1 0x20 DUP9 ADD SWAP8 POP PUSH1 0x1 DUP3 ADD SWAP2 POP JUMPDEST DUP5 DUP3 LT ISZERO PUSH2 0x5159 JUMPI PUSH2 0x514C DUP9 PUSH2 0x5147 DUP4 PUSH2 0x493D JUMP JUMPDEST PUSH2 0x4839 JUMP JUMPDEST PUSH1 0x20 DUP9 ADD SWAP8 POP PUSH1 0x1 DUP3 ADD SWAP2 POP JUMPDEST DUP5 DUP3 LT ISZERO PUSH2 0x5180 JUMPI PUSH2 0x5173 DUP9 PUSH2 0x516E DUP4 PUSH2 0x4962 JUMP JUMPDEST PUSH2 0x4839 JUMP JUMPDEST PUSH1 0x20 DUP9 ADD SWAP8 POP PUSH1 0x1 DUP3 ADD SWAP2 POP JUMPDEST DUP5 DUP3 LT ISZERO PUSH2 0x51A7 JUMPI PUSH2 0x519A DUP9 PUSH2 0x5195 DUP4 PUSH2 0x4987 JUMP JUMPDEST PUSH2 0x4839 JUMP JUMPDEST PUSH1 0x20 DUP9 ADD SWAP8 POP PUSH1 0x1 DUP3 ADD SWAP2 POP JUMPDEST DUP5 DUP3 LT ISZERO PUSH2 0x51CE JUMPI PUSH2 0x51C1 DUP9 PUSH2 0x51BC DUP4 PUSH2 0x49AC JUMP JUMPDEST PUSH2 0x4839 JUMP JUMPDEST PUSH1 0x20 DUP9 ADD SWAP8 POP PUSH1 0x1 DUP3 ADD SWAP2 POP JUMPDEST DUP5 DUP3 LT ISZERO PUSH2 0x51F5 JUMPI PUSH2 0x51E8 DUP9 PUSH2 0x51E3 DUP4 PUSH2 0x49D1 JUMP JUMPDEST PUSH2 0x4839 JUMP JUMPDEST PUSH1 0x20 DUP9 ADD SWAP8 POP PUSH1 0x1 DUP3 ADD SWAP2 POP JUMPDEST DUP5 DUP3 LT ISZERO PUSH2 0x521C JUMPI PUSH2 0x520F DUP9 PUSH2 0x520A DUP4 PUSH2 0x49F6 JUMP JUMPDEST PUSH2 0x4839 JUMP JUMPDEST PUSH1 0x20 DUP9 ADD SWAP8 POP PUSH1 0x1 DUP3 ADD SWAP2 POP JUMPDEST DUP5 DUP3 LT ISZERO PUSH2 0x5243 JUMPI PUSH2 0x5236 DUP9 PUSH2 0x5231 DUP4 PUSH2 0x4A1B JUMP JUMPDEST PUSH2 0x4839 JUMP JUMPDEST PUSH1 0x20 DUP9 ADD SWAP8 POP PUSH1 0x1 DUP3 ADD SWAP2 POP JUMPDEST DUP5 DUP3 LT ISZERO PUSH2 0x526A JUMPI PUSH2 0x525D DUP9 PUSH2 0x5258 DUP4 PUSH2 0x4A40 JUMP JUMPDEST PUSH2 0x4839 JUMP JUMPDEST PUSH1 0x20 DUP9 ADD SWAP8 POP PUSH1 0x1 DUP3 ADD SWAP2 POP JUMPDEST DUP5 DUP3 LT ISZERO PUSH2 0x5291 JUMPI PUSH2 0x5284 DUP9 PUSH2 0x527F DUP4 PUSH2 0x4A65 JUMP JUMPDEST PUSH2 0x4839 JUMP JUMPDEST PUSH1 0x20 DUP9 ADD SWAP8 POP PUSH1 0x1 DUP3 ADD SWAP2 POP JUMPDEST DUP5 DUP3 LT ISZERO PUSH2 0x52B8 JUMPI PUSH2 0x52AB DUP9 PUSH2 0x52A6 DUP4 PUSH2 0x4A8A JUMP JUMPDEST PUSH2 0x4839 JUMP JUMPDEST PUSH1 0x20 DUP9 ADD SWAP8 POP PUSH1 0x1 DUP3 ADD SWAP2 POP JUMPDEST DUP5 DUP3 LT ISZERO PUSH2 0x52DF JUMPI PUSH2 0x52D2 DUP9 PUSH2 0x52CD DUP4 PUSH2 0x4AAF JUMP JUMPDEST PUSH2 0x4839 JUMP JUMPDEST PUSH1 0x20 DUP9 ADD SWAP8 POP PUSH1 0x1 DUP3 ADD SWAP2 POP JUMPDEST DUP5 DUP3 LT ISZERO PUSH2 0x5306 JUMPI PUSH2 0x52F9 DUP9 PUSH2 0x52F4 DUP4 PUSH2 0x4AD4 JUMP JUMPDEST PUSH2 0x4839 JUMP JUMPDEST PUSH1 0x20 DUP9 ADD SWAP8 POP PUSH1 0x1 DUP3 ADD SWAP2 POP JUMPDEST DUP5 DUP3 LT ISZERO PUSH2 0x532D JUMPI PUSH2 0x5320 DUP9 PUSH2 0x531B DUP4 PUSH2 0x4AF9 JUMP JUMPDEST PUSH2 0x4839 JUMP JUMPDEST PUSH1 0x20 DUP9 ADD SWAP8 POP PUSH1 0x1 DUP3 ADD SWAP2 POP JUMPDEST DUP5 DUP3 LT ISZERO PUSH2 0x5354 JUMPI PUSH2 0x5347 DUP9 PUSH2 0x5342 DUP4 PUSH2 0x4B1E JUMP JUMPDEST PUSH2 0x4839 JUMP JUMPDEST PUSH1 0x20 DUP9 ADD SWAP8 POP PUSH1 0x1 DUP3 ADD SWAP2 POP JUMPDEST DUP5 DUP3 LT ISZERO PUSH2 0x537B JUMPI PUSH2 0x536E DUP9 PUSH2 0x5369 DUP4 PUSH2 0x4B43 JUMP JUMPDEST PUSH2 0x4839 JUMP JUMPDEST PUSH1 0x20 DUP9 ADD SWAP8 POP PUSH1 0x1 DUP3 ADD SWAP2 POP JUMPDEST DUP5 DUP3 LT ISZERO PUSH2 0x53A2 JUMPI PUSH2 0x5395 DUP9 PUSH2 0x5390 DUP4 PUSH2 0x4B68 JUMP JUMPDEST PUSH2 0x4839 JUMP JUMPDEST PUSH1 0x20 DUP9 ADD SWAP8 POP PUSH1 0x1 DUP3 ADD SWAP2 POP JUMPDEST DUP5 DUP3 LT ISZERO PUSH2 0x53C9 JUMPI PUSH2 0x53BC DUP9 PUSH2 0x53B7 DUP4 PUSH2 0x4B8D JUMP JUMPDEST PUSH2 0x4839 JUMP JUMPDEST PUSH1 0x20 DUP9 ADD SWAP8 POP PUSH1 0x1 DUP3 ADD SWAP2 POP JUMPDEST DUP5 DUP3 LT ISZERO PUSH2 0x53F0 JUMPI PUSH2 0x53E3 DUP9 PUSH2 0x53DE DUP4 PUSH2 0x4BB2 JUMP JUMPDEST PUSH2 0x4839 JUMP JUMPDEST PUSH1 0x20 DUP9 ADD SWAP8 POP PUSH1 0x1 DUP3 ADD SWAP2 POP JUMPDEST DUP5 DUP3 LT ISZERO PUSH2 0x5417 JUMPI PUSH2 0x540A DUP9 PUSH2 0x5405 DUP4 PUSH2 0x4BD7 JUMP JUMPDEST PUSH2 0x4839 JUMP JUMPDEST PUSH1 0x20 DUP9 ADD SWAP8 POP PUSH1 0x1 DUP3 ADD SWAP2 POP JUMPDEST DUP5 DUP3 LT ISZERO PUSH2 0x543E JUMPI PUSH2 0x5431 DUP9 PUSH2 0x542C DUP4 PUSH2 0x4BFC JUMP JUMPDEST PUSH2 0x4839 JUMP JUMPDEST PUSH1 0x20 DUP9 ADD SWAP8 POP PUSH1 0x1 DUP3 ADD SWAP2 POP JUMPDEST DUP5 DUP3 LT ISZERO PUSH2 0x5465 JUMPI PUSH2 0x5458 DUP9 PUSH2 0x5453 DUP4 PUSH2 0x4C21 JUMP JUMPDEST PUSH2 0x4839 JUMP JUMPDEST PUSH1 0x20 DUP9 ADD SWAP8 POP PUSH1 0x1 DUP3 ADD SWAP2 POP JUMPDEST DUP5 DUP3 LT ISZERO PUSH2 0x548C JUMPI PUSH2 0x547F DUP9 PUSH2 0x547A DUP4 PUSH2 0x4C46 JUMP JUMPDEST PUSH2 0x4839 JUMP JUMPDEST PUSH1 0x20 DUP9 ADD SWAP8 POP PUSH1 0x1 DUP3 ADD SWAP2 POP JUMPDEST DUP5 DUP3 LT ISZERO PUSH2 0x54B3 JUMPI PUSH2 0x54A6 DUP9 PUSH2 0x54A1 DUP4 PUSH2 0x4C6B JUMP JUMPDEST PUSH2 0x4839 JUMP JUMPDEST PUSH1 0x20 DUP9 ADD SWAP8 POP PUSH1 0x1 DUP3 ADD SWAP2 POP JUMPDEST DUP5 DUP3 LT ISZERO PUSH2 0x54DA JUMPI PUSH2 0x54CD DUP9 PUSH2 0x54C8 DUP4 PUSH2 0x4C90 JUMP JUMPDEST PUSH2 0x4839 JUMP JUMPDEST PUSH1 0x20 DUP9 ADD SWAP8 POP PUSH1 0x1 DUP3 ADD SWAP2 POP JUMPDEST DUP5 DUP3 LT ISZERO PUSH2 0x5501 JUMPI PUSH2 0x54F4 DUP9 PUSH2 0x54EF DUP4 PUSH2 0x4CB5 JUMP JUMPDEST PUSH2 0x4839 JUMP JUMPDEST PUSH1 0x20 DUP9 ADD SWAP8 POP PUSH1 0x1 DUP3 ADD SWAP2 POP JUMPDEST DUP5 DUP3 LT ISZERO PUSH2 0x5528 JUMPI PUSH2 0x551B DUP9 PUSH2 0x5516 DUP4 PUSH2 0x4CDA JUMP JUMPDEST PUSH2 0x4839 JUMP JUMPDEST PUSH1 0x20 DUP9 ADD SWAP8 POP PUSH1 0x1 DUP3 ADD SWAP2 POP JUMPDEST POP JUMPDEST DUP7 SWAP5 POP POP POP POP POP SWAP3 SWAP2 POP POP JUMP JUMPDEST PUSH0 PUSH1 0x20 DUP3 ADD SWAP1 POP DUP2 DUP2 SUB PUSH0 DUP4 ADD MSTORE PUSH2 0x554F DUP2 DUP5 PUSH2 0x4CF3 JUMP JUMPDEST SWAP1 POP SWAP3 SWAP2 POP POP JUMP JUMPDEST PUSH0 DUP2 MLOAD SWAP1 POP SWAP2 SWAP1 POP JUMP JUMPDEST PUSH0 DUP2 SWAP1 POP PUSH1 0x20 DUP3 ADD SWAP1 POP SWAP2 SWAP1 POP JUMP JUMPDEST PUSH0 PUSH2 0x557B DUP4 DUP4 PUSH2 0x4839 JUMP JUMPDEST PUSH1 0x20 DUP4 ADD SWAP1 POP SWAP3 SWAP2 POP POP JUMP JUMPDEST PUSH0 PUSH1 0x20 DUP3 ADD SWAP1 POP SWAP2 SWAP1 POP JUMP JUMPDEST PUSH0 PUSH2 0x559D DUP3 PUSH2 0x5557 JUMP JUMPDEST PUSH2 0x55A7 DUP2 DUP6 PUSH2 0x4817 JUMP JUMPDEST SWAP4 POP PUSH2 0x55B2 DUP4 PUSH2 0x5561 JUMP JUMPDEST DUP1 PUSH0 JUMPDEST DUP4 DUP2 LT ISZERO PUSH2 0x55E2 JUMPI DUP2 MLOAD PUSH2 0x55C9 DUP9 DUP3 PUSH2 0x5570 JUMP JUMPDEST SWAP8 POP PUSH2 0x55D4 DUP4 PUSH2 0x5587 JUMP JUMPDEST SWAP3 POP POP PUSH1 0x1 DUP2 ADD SWAP1 POP PUSH2 0x55B5 JUMP JUMPDEST POP DUP6 SWAP4 POP POP POP POP SWAP3 SWAP2 POP POP JUMP JUMPDEST PUSH0 PUSH1 0x20 DUP3 ADD SWAP1 POP DUP2 DUP2 SUB PUSH0 DUP4 ADD MSTORE PUSH2 0x5607 DUP2 DUP5 PUSH2 0x5593 JUMP JUMPDEST SWAP1 POP SWAP3 SWAP2 POP POP JUMP JUMPDEST PUSH32 0x496E73756666696369656E74204D79476F762062616C616E6365000000000000 PUSH0 DUP3 ADD MSTORE POP JUMP JUMPDEST PUSH0 PUSH2 0x5643 PUSH1 0x1A DUP4 PUSH2 0x38DC JUMP JUMPDEST SWAP2 POP PUSH2 0x564E DUP3 PUSH2 0x560F JUMP JUMPDEST PUSH1 0x20 DUP3 ADD SWAP1 POP SWAP2 SWAP1 POP JUMP JUMPDEST PUSH0 PUSH1 0x20 DUP3 ADD SWAP1 POP DUP2 DUP2 SUB PUSH0 DUP4 ADD MSTORE PUSH2 0x5670 DUP2 PUSH2 0x5637 JUMP JUMPDEST SWAP1 POP SWAP2 SWAP1 POP JUMP JUMPDEST PUSH32 0x496E73756666696369656E74205553442062616C616E63650000000000000000 PUSH0 DUP3 ADD MSTORE POP JUMP JUMPDEST PUSH0 PUSH2 0x56AB PUSH1 0x18 DUP4 PUSH2 0x38DC JUMP JUMPDEST SWAP2 POP PUSH2 0x56B6 DUP3 PUSH2 0x5677 JUMP JUMPDEST PUSH1 0x20 DUP3 ADD SWAP1 POP SWAP2 SWAP1 POP JUMP JUMPDEST PUSH0 PUSH1 0x20 DUP3 ADD SWAP1 POP DUP2 DUP2 SUB PUSH0 DUP4 ADD MSTORE PUSH2 0x56D8 DUP2 PUSH2 0x569F JUMP JUMPDEST SWAP1 POP SWAP2 SWAP1 POP JUMP JUMPDEST PUSH0 PUSH1 0x40 DUP3 ADD SWAP1 POP PUSH2 0x56F2 PUSH0 DUP4 ADD DUP6 PUSH2 0x3BAC JUMP JUMPDEST PUSH2 0x56FF PUSH1 0x20 DUP4 ADD DUP5 PUSH2 0x38AA JUMP JUMPDEST SWAP4 SWAP3 POP POP POP JUMP JUMPDEST PUSH0 PUSH1 0x60 DUP3 ADD SWAP1 POP PUSH2 0x5719 PUSH0 DUP4 ADD DUP7 PUSH2 0x3BAC JUMP JUMPDEST PUSH2 0x5726 PUSH1 0x20 DUP4 ADD DUP6 PUSH2 0x38AA JUMP JUMPDEST PUSH2 0x5733 PUSH1 0x40 DUP4 ADD DUP5 PUSH2 0x38AA JUMP JUMPDEST SWAP5 SWAP4 POP POP POP POP JUMP INVALID LOG2 PUSH5 0x6970667358 0x22 SLT KECCAK256 PUSH25 0xAF75DA65AE401729D309FD180497EE81002BEC67AB99A08367 POP SWAP8 COINBASE 0xB3 EXTCODEHASH PREVRANDAO PUSH5 0x736F6C6343 STOP ADDMOD AND STOP CALLER "
		},
		"gasEstimates": {
			"creation": {
				"codeDepositCost": "4477000",
				"executionCost": "infinite",
				"totalCost": "infinite"
			},
			"external": {
				"allAddresses(uint256)": "5055",
				"allowance(address,address)": "infinite",
				"approve(address,uint256)": "infinite",
				"balanceOf(address)": "2963",
				"decimals()": "384",
				"delegateVoteTo(address,uint256)": "infinite",
				"donateMyGovToken(uint256)": "infinite",
				"donateUSD(uint256)": "infinite",
				"faucet()": "infinite",
				"getIsProjectFunded(uint256)": "infinite",
				"getNoOfFundedProjects()": "infinite",
				"getNoOfProjectProposals()": "2552",
				"getProjectInfo(uint256)": "infinite",
				"getProjectNextPayment(uint256)": "infinite",
				"getProjectOwner(uint256)": "7213",
				"getUSDReceivedByProject(uint256)": "infinite",
				"getVoteForPaymentsValue(uint256)": "infinite",
				"hasDelegatedVote(uint256,address)": "3204",
				"memberHasVoted(address,uint256)": "3161",
				"memberstatus(address)": "2922",
				"myGovBalanceOf(address)": "2941",
				"myGovToken()": "infinite",
				"name()": "infinite",
				"projectFunded(uint256)": "2830",
				"projectProposals(uint256)": "infinite",
				"projectVotes(uint256,address)": "3138",
				"reserveProjectGrant(uint256)": "infinite",
				"submitProjectProposal(string,uint256,uint256[],uint256[])": "infinite",
				"symbol()": "infinite",
				"totalReservablaAmount()": "infinite",
				"totalSupply()": "2478",
				"transfer(address,uint256)": "infinite",
				"transfer(address,uint256,uint256)": "infinite",
				"transferAndReceiveUSD(address,uint256,uint256)": "infinite",
				"transferFrom(address,address,uint256)": "infinite",
				"updateAndGetTotalMembers()": "infinite",
				"usdBalanceOf(address)": "2964",
				"usdStableCoin()": "infinite",
				"voteForProjectPayments(uint256,bool[])": "infinite",
				"voteForProjectProposal(uint256,bool)": "infinite",
				"votingImpact(uint256,address)": "infinite",
				"withdrawProjectPayments(uint256)": "infinite"
			},
			"internal": {
				"calculateTotalReserve()": "infinite"
			}
		},
		"methodIdentifiers": {
			"allAddresses(uint256)": "dacc5370",
			"allowance(address,address)": "dd62ed3e",
			"approve(address,uint256)": "095ea7b3",
			"balanceOf(address)": "70a08231",
			"decimals()": "313ce567",
			"delegateVoteTo(address,uint256)": "a1669b32",
			"donateMyGovToken(uint256)": "39c94d2d",
			"donateUSD(uint256)": "d915902e",
			"faucet()": "de5f72fd",
			"getIsProjectFunded(uint256)": "7c405164",
			"getNoOfFundedProjects()": "bf50556d",
			"getNoOfProjectProposals()": "23fd498b",
			"getProjectInfo(uint256)": "fabf5968",
			"getProjectNextPayment(uint256)": "1d2acdfd",
			"getProjectOwner(uint256)": "92256aec",
			"getUSDReceivedByProject(uint256)": "cbe0135c",
			"getVoteForPaymentsValue(uint256)": "baf8efb3",
			"hasDelegatedVote(uint256,address)": "c029aac6",
			"memberHasVoted(address,uint256)": "a220e64a",
			"memberstatus(address)": "8f827018",
			"myGovBalanceOf(address)": "5dec5c39",
			"myGovToken()": "975d82be",
			"name()": "06fdde03",
			"projectFunded(uint256)": "79585aa8",
			"projectProposals(uint256)": "dbc1d569",
			"projectVotes(uint256,address)": "d437e565",
			"reserveProjectGrant(uint256)": "bd275764",
			"submitProjectProposal(string,uint256,uint256[],uint256[])": "a5e898e1",
			"symbol()": "95d89b41",
			"totalReservablaAmount()": "3c59605a",
			"totalSupply()": "18160ddd",
			"transfer(address,uint256)": "a9059cbb",
			"transfer(address,uint256,uint256)": "095bcdb6",
			"transferAndReceiveUSD(address,uint256,uint256)": "2ff09cd0",
			"transferFrom(address,address,uint256)": "23b872dd",
			"updateAndGetTotalMembers()": "060fbe58",
			"usdBalanceOf(address)": "158a18b6",
			"usdStableCoin()": "dcb57dc0",
			"voteForProjectPayments(uint256,bool[])": "f190f421",
			"voteForProjectProposal(uint256,bool)": "f22449ba",
			"votingImpact(uint256,address)": "b756441b",
			"withdrawProjectPayments(uint256)": "99f7fee1"
		}
	},
	"abi": [
		{
			"inputs": [
				{
					"internalType": "address",
					"name": "_myGovTokenAddress",
					"type": "address"
				},
				{
					"internalType": "address",
					"name": "_usdStableCoinAddress",
					"type": "address"
				}
			],
			"stateMutability": "nonpayable",
			"type": "constructor"
		},
		{
			"inputs": [
				{
					"internalType": "address",
					"name": "spender",
					"type": "address"
				},
				{
					"internalType": "uint256",
					"name": "allowance",
					"type": "uint256"
				},
				{
					"internalType": "uint256",
					"name": "needed",
					"type": "uint256"
				}
			],
			"name": "ERC20InsufficientAllowance",
			"type": "error"
		},
		{
			"inputs": [
				{
					"internalType": "address",
					"name": "sender",
					"type": "address"
				},
				{
					"internalType": "uint256",
					"name": "balance",
					"type": "uint256"
				},
				{
					"internalType": "uint256",
					"name": "needed",
					"type": "uint256"
				}
			],
			"name": "ERC20InsufficientBalance",
			"type": "error"
		},
		{
			"inputs": [
				{
					"internalType": "address",
					"name": "approver",
					"type": "address"
				}
			],
			"name": "ERC20InvalidApprover",
			"type": "error"
		},
		{
			"inputs": [
				{
					"internalType": "address",
					"name": "receiver",
					"type": "address"
				}
			],
			"name": "ERC20InvalidReceiver",
			"type": "error"
		},
		{
			"inputs": [
				{
					"internalType": "address",
					"name": "sender",
					"type": "address"
				}
			],
			"name": "ERC20InvalidSender",
			"type": "error"
		},
		{
			"inputs": [
				{
					"internalType": "address",
					"name": "spender",
					"type": "address"
				}
			],
			"name": "ERC20InvalidSpender",
			"type": "error"
		},
		{
			"anonymous": false,
			"inputs": [
				{
					"indexed": true,
					"internalType": "address",
					"name": "owner",
					"type": "address"
				},
				{
					"indexed": true,
					"internalType": "address",
					"name": "spender",
					"type": "address"
				},
				{
					"indexed": false,
					"internalType": "uint256",
					"name": "value",
					"type": "uint256"
				}
			],
			"name": "Approval",
			"type": "event"
		},
		{
			"anonymous": false,
			"inputs": [
				{
					"indexed": true,
					"internalType": "address",
					"name": "donor",
					"type": "address"
				},
				{
					"indexed": false,
					"internalType": "uint256",
					"name": "amount",
					"type": "uint256"
				}
			],
			"name": "MyGovTokenDonated",
			"type": "event"
		},
		{
			"anonymous": false,
			"inputs": [
				{
					"indexed": true,
					"internalType": "uint256",
					"name": "projectid",
					"type": "uint256"
				},
				{
					"indexed": true,
					"internalType": "address",
					"name": "projectOwner",
					"type": "address"
				}
			],
			"name": "ProjectFundingReserved",
			"type": "event"
		},
		{
			"anonymous": false,
			"inputs": [
				{
					"indexed": true,
					"internalType": "uint256",
					"name": "projectid",
					"type": "uint256"
				},
				{
					"indexed": true,
					"internalType": "address",
					"name": "projectOwner",
					"type": "address"
				},
				{
					"indexed": false,
					"internalType": "uint256",
					"name": "amount",
					"type": "uint256"
				}
			],
			"name": "ProjectPaymentWithdrawn",
			"type": "event"
		},
		{
			"anonymous": false,
			"inputs": [
				{
					"indexed": true,
					"internalType": "uint256",
					"name": "projectid",
					"type": "uint256"
				},
				{
					"indexed": false,
					"internalType": "bool[]",
					"name": "voteForPayments",
					"type": "bool[]"
				}
			],
			"name": "ProjectPaymentsDesicion",
			"type": "event"
		},
		{
			"anonymous": false,
			"inputs": [
				{
					"indexed": true,
					"internalType": "uint256",
					"name": "projectid",
					"type": "uint256"
				},
				{
					"indexed": true,
					"internalType": "address",
					"name": "voter",
					"type": "address"
				},
				{
					"indexed": false,
					"internalType": "bool[]",
					"name": "choicePay",
					"type": "bool[]"
				}
			],
			"name": "ProjectPaymentsVoting",
			"type": "event"
		},
		{
			"anonymous": false,
			"inputs": [
				{
					"indexed": true,
					"internalType": "uint256",
					"name": "projectid",
					"type": "uint256"
				},
				{
					"indexed": true,
					"internalType": "address",
					"name": "proposalOwner",
					"type": "address"
				}
			],
			"name": "ProjectProposalSubmitted",
			"type": "event"
		},
		{
			"anonymous": false,
			"inputs": [
				{
					"indexed": true,
					"internalType": "uint256",
					"name": "projectid",
					"type": "uint256"
				},
				{
					"indexed": true,
					"internalType": "address",
					"name": "voter",
					"type": "address"
				},
				{
					"indexed": false,
					"internalType": "bool",
					"name": "choice",
					"type": "bool"
				}
			],
			"name": "ProjectVoteCasted",
			"type": "event"
		},
		{
			"anonymous": false,
			"inputs": [
				{
					"indexed": true,
					"internalType": "address",
					"name": "from",
					"type": "address"
				},
				{
					"indexed": true,
					"internalType": "address",
					"name": "to",
					"type": "address"
				},
				{
					"indexed": false,
					"internalType": "uint256",
					"name": "value",
					"type": "uint256"
				}
			],
			"name": "Transfer",
			"type": "event"
		},
		{
			"inputs": [
				{
					"internalType": "uint256",
					"name": "",
					"type": "uint256"
				}
			],
			"name": "allAddresses",
			"outputs": [
				{
					"internalType": "address",
					"name": "",
					"type": "address"
				}
			],
			"stateMutability": "view",
			"type": "function"
		},
		{
			"inputs": [
				{
					"internalType": "address",
					"name": "owner",
					"type": "address"
				},
				{
					"internalType": "address",
					"name": "spender",
					"type": "address"
				}
			],
			"name": "allowance",
			"outputs": [
				{
					"internalType": "uint256",
					"name": "",
					"type": "uint256"
				}
			],
			"stateMutability": "view",
			"type": "function"
		},
		{
			"inputs": [
				{
					"internalType": "address",
					"name": "spender",
					"type": "address"
				},
				{
					"internalType": "uint256",
					"name": "value",
					"type": "uint256"
				}
			],
			"name": "approve",
			"outputs": [
				{
					"internalType": "bool",
					"name": "",
					"type": "bool"
				}
			],
			"stateMutability": "nonpayable",
			"type": "function"
		},
		{
			"inputs": [
				{
					"internalType": "address",
					"name": "account",
					"type": "address"
				}
			],
			"name": "balanceOf",
			"outputs": [
				{
					"internalType": "uint256",
					"name": "",
					"type": "uint256"
				}
			],
			"stateMutability": "view",
			"type": "function"
		},
		{
			"inputs": [],
			"name": "decimals",
			"outputs": [
				{
					"internalType": "uint8",
					"name": "",
					"type": "uint8"
				}
			],
			"stateMutability": "view",
			"type": "function"
		},
		{
			"inputs": [
				{
					"internalType": "address",
					"name": "delegatee",
					"type": "address"
				},
				{
					"internalType": "uint256",
					"name": "projectId",
					"type": "uint256"
				}
			],
			"name": "delegateVoteTo",
			"outputs": [],
			"stateMutability": "nonpayable",
			"type": "function"
		},
		{
			"inputs": [
				{
					"internalType": "uint256",
					"name": "amount",
					"type": "uint256"
				}
			],
			"name": "donateMyGovToken",
			"outputs": [],
			"stateMutability": "nonpayable",
			"type": "function"
		},
		{
			"inputs": [
				{
					"internalType": "uint256",
					"name": "amount",
					"type": "uint256"
				}
			],
			"name": "donateUSD",
			"outputs": [],
			"stateMutability": "nonpayable",
			"type": "function"
		},
		{
			"inputs": [],
			"name": "faucet",
			"outputs": [],
			"stateMutability": "nonpayable",
			"type": "function"
		},
		{
			"inputs": [
				{
					"internalType": "uint256",
					"name": "projectid",
					"type": "uint256"
				}
			],
			"name": "getIsProjectFunded",
			"outputs": [],
			"stateMutability": "nonpayable",
			"type": "function"
		},
		{
			"inputs": [],
			"name": "getNoOfFundedProjects",
			"outputs": [
				{
					"internalType": "uint256",
					"name": "numFunded",
					"type": "uint256"
				}
			],
			"stateMutability": "view",
			"type": "function"
		},
		{
			"inputs": [],
			"name": "getNoOfProjectProposals",
			"outputs": [
				{
					"internalType": "uint256",
					"name": "numProposals",
					"type": "uint256"
				}
			],
			"stateMutability": "view",
			"type": "function"
		},
		{
			"inputs": [
				{
					"internalType": "uint256",
					"name": "projectid",
					"type": "uint256"
				}
			],
			"name": "getProjectInfo",
			"outputs": [
				{
					"internalType": "string",
					"name": "ipfsHash",
					"type": "string"
				},
				{
					"internalType": "uint256",
					"name": "voteDeadline",
					"type": "uint256"
				},
				{
					"internalType": "uint256[]",
					"name": "paymentAmounts",
					"type": "uint256[]"
				},
				{
					"internalType": "uint256[]",
					"name": "paySchedule",
					"type": "uint256[]"
				}
			],
			"stateMutability": "view",
			"type": "function"
		},
		{
			"inputs": [
				{
					"internalType": "uint256",
					"name": "projectid",
					"type": "uint256"
				}
			],
			"name": "getProjectNextPayment",
			"outputs": [
				{
					"internalType": "uint256",
					"name": "nextPayment",
					"type": "uint256"
				}
			],
			"stateMutability": "view",
			"type": "function"
		},
		{
			"inputs": [
				{
					"internalType": "uint256",
					"name": "projectid",
					"type": "uint256"
				}
			],
			"name": "getProjectOwner",
			"outputs": [
				{
					"internalType": "address",
					"name": "projectOwner",
					"type": "address"
				}
			],
			"stateMutability": "view",
			"type": "function"
		},
		{
			"inputs": [
				{
					"internalType": "uint256",
					"name": "projectid",
					"type": "uint256"
				}
			],
			"name": "getUSDReceivedByProject",
			"outputs": [
				{
					"internalType": "uint256",
					"name": "amount",
					"type": "uint256"
				}
			],
			"stateMutability": "view",
			"type": "function"
		},
		{
			"inputs": [
				{
					"internalType": "uint256",
					"name": "projectid",
					"type": "uint256"
				}
			],
			"name": "getVoteForPaymentsValue",
			"outputs": [],
			"stateMutability": "nonpayable",
			"type": "function"
		},
		{
			"inputs": [
				{
					"internalType": "uint256",
					"name": "",
					"type": "uint256"
				},
				{
					"internalType": "address",
					"name": "",
					"type": "address"
				}
			],
			"name": "hasDelegatedVote",
			"outputs": [
				{
					"internalType": "bool",
					"name": "",
					"type": "bool"
				}
			],
			"stateMutability": "view",
			"type": "function"
		},
		{
			"inputs": [
				{
					"internalType": "address",
					"name": "",
					"type": "address"
				},
				{
					"internalType": "uint256",
					"name": "",
					"type": "uint256"
				}
			],
			"name": "memberHasVoted",
			"outputs": [
				{
					"internalType": "bool",
					"name": "",
					"type": "bool"
				}
			],
			"stateMutability": "view",
			"type": "function"
		},
		{
			"inputs": [
				{
					"internalType": "address",
					"name": "",
					"type": "address"
				}
			],
			"name": "memberstatus",
			"outputs": [
				{
					"internalType": "bool",
					"name": "",
					"type": "bool"
				}
			],
			"stateMutability": "view",
			"type": "function"
		},
		{
			"inputs": [
				{
					"internalType": "address",
					"name": "account",
					"type": "address"
				}
			],
			"name": "myGovBalanceOf",
			"outputs": [
				{
					"internalType": "uint256",
					"name": "",
					"type": "uint256"
				}
			],
			"stateMutability": "view",
			"type": "function"
		},
		{
			"inputs": [],
			"name": "myGovToken",
			"outputs": [
				{
					"internalType": "contract MyGovToken",
					"name": "",
					"type": "address"
				}
			],
			"stateMutability": "view",
			"type": "function"
		},
		{
			"inputs": [],
			"name": "name",
			"outputs": [
				{
					"internalType": "string",
					"name": "",
					"type": "string"
				}
			],
			"stateMutability": "view",
			"type": "function"
		},
		{
			"inputs": [
				{
					"internalType": "uint256",
					"name": "",
					"type": "uint256"
				}
			],
			"name": "projectFunded",
			"outputs": [
				{
					"internalType": "bool",
					"name": "",
					"type": "bool"
				}
			],
			"stateMutability": "view",
			"type": "function"
		},
		{
			"inputs": [
				{
					"internalType": "uint256",
					"name": "",
					"type": "uint256"
				}
			],
			"name": "projectProposals",
			"outputs": [
				{
					"internalType": "string",
					"name": "ipfsHash",
					"type": "string"
				},
				{
					"internalType": "uint256",
					"name": "voteDeadline",
					"type": "uint256"
				},
				{
					"internalType": "uint256",
					"name": "votesFor",
					"type": "uint256"
				},
				{
					"internalType": "uint256",
					"name": "votesAgainst",
					"type": "uint256"
				},
				{
					"internalType": "bool",
					"name": "isFunded",
					"type": "bool"
				},
				{
					"internalType": "bool",
					"name": "reserved",
					"type": "bool"
				},
				{
					"internalType": "uint256",
					"name": "reservedAmount",
					"type": "uint256"
				},
				{
					"internalType": "address",
					"name": "projectOwner",
					"type": "address"
				},
				{
					"internalType": "uint256",
					"name": "usdReceived",
					"type": "uint256"
				}
			],
			"stateMutability": "view",
			"type": "function"
		},
		{
			"inputs": [
				{
					"internalType": "uint256",
					"name": "",
					"type": "uint256"
				},
				{
					"internalType": "address",
					"name": "",
					"type": "address"
				}
			],
			"name": "projectVotes",
			"outputs": [
				{
					"internalType": "bool",
					"name": "",
					"type": "bool"
				}
			],
			"stateMutability": "view",
			"type": "function"
		},
		{
			"inputs": [
				{
					"internalType": "uint256",
					"name": "projectid",
					"type": "uint256"
				}
			],
			"name": "reserveProjectGrant",
			"outputs": [],
			"stateMutability": "nonpayable",
			"type": "function"
		},
		{
			"inputs": [
				{
					"internalType": "string",
					"name": "ipfsHash",
					"type": "string"
				},
				{
					"internalType": "uint256",
					"name": "voteDeadline",
					"type": "uint256"
				},
				{
					"internalType": "uint256[]",
					"name": "paymentAmounts",
					"type": "uint256[]"
				},
				{
					"internalType": "uint256[]",
					"name": "paySchedule",
					"type": "uint256[]"
				}
			],
			"name": "submitProjectProposal",
			"outputs": [
				{
					"internalType": "uint256",
					"name": "projectId",
					"type": "uint256"
				}
			],
			"stateMutability": "nonpayable",
			"type": "function"
		},
		{
			"inputs": [],
			"name": "symbol",
			"outputs": [
				{
					"internalType": "string",
					"name": "",
					"type": "string"
				}
			],
			"stateMutability": "view",
			"type": "function"
		},
		{
			"inputs": [],
			"name": "totalReservablaAmount",
			"outputs": [
				{
					"internalType": "uint256",
					"name": "",
					"type": "uint256"
				}
			],
			"stateMutability": "view",
			"type": "function"
		},
		{
			"inputs": [],
			"name": "totalSupply",
			"outputs": [
				{
					"internalType": "uint256",
					"name": "",
					"type": "uint256"
				}
			],
			"stateMutability": "view",
			"type": "function"
		},
		{
			"inputs": [
				{
					"internalType": "address",
					"name": "recipient",
					"type": "address"
				},
				{
					"internalType": "uint256",
					"name": "usdamount",
					"type": "uint256"
				},
				{
					"internalType": "uint256",
					"name": "mygovamount",
					"type": "uint256"
				}
			],
			"name": "transfer",
			"outputs": [
				{
					"internalType": "bool",
					"name": "",
					"type": "bool"
				}
			],
			"stateMutability": "nonpayable",
			"type": "function"
		},
		{
			"inputs": [
				{
					"internalType": "address",
					"name": "to",
					"type": "address"
				},
				{
					"internalType": "uint256",
					"name": "value",
					"type": "uint256"
				}
			],
			"name": "transfer",
			"outputs": [
				{
					"internalType": "bool",
					"name": "",
					"type": "bool"
				}
			],
			"stateMutability": "nonpayable",
			"type": "function"
		},
		{
			"inputs": [
				{
					"internalType": "address",
					"name": "recipient",
					"type": "address"
				},
				{
					"internalType": "uint256",
					"name": "myGovAmount",
					"type": "uint256"
				},
				{
					"internalType": "uint256",
					"name": "usdAmount",
					"type": "uint256"
				}
			],
			"name": "transferAndReceiveUSD",
			"outputs": [],
			"stateMutability": "nonpayable",
			"type": "function"
		},
		{
			"inputs": [
				{
					"internalType": "address",
					"name": "from",
					"type": "address"
				},
				{
					"internalType": "address",
					"name": "to",
					"type": "address"
				},
				{
					"internalType": "uint256",
					"name": "value",
					"type": "uint256"
				}
			],
			"name": "transferFrom",
			"outputs": [
				{
					"internalType": "bool",
					"name": "",
					"type": "bool"
				}
			],
			"stateMutability": "nonpayable",
			"type": "function"
		},
		{
			"inputs": [],
			"name": "updateAndGetTotalMembers",
			"outputs": [
				{
					"internalType": "uint256",
					"name": "totalMembers",
					"type": "uint256"
				}
			],
			"stateMutability": "nonpayable",
			"type": "function"
		},
		{
			"inputs": [
				{
					"internalType": "address",
					"name": "account",
					"type": "address"
				}
			],
			"name": "usdBalanceOf",
			"outputs": [
				{
					"internalType": "uint256",
					"name": "",
					"type": "uint256"
				}
			],
			"stateMutability": "view",
			"type": "function"
		},
		{
			"inputs": [],
			"name": "usdStableCoin",
			"outputs": [
				{
					"internalType": "contract USDStablecoin",
					"name": "",
					"type": "address"
				}
			],
			"stateMutability": "view",
			"type": "function"
		},
		{
			"inputs": [
				{
					"internalType": "uint256",
					"name": "projectid",
					"type": "uint256"
				},
				{
					"internalType": "bool[]",
					"name": "choicePay",
					"type": "bool[]"
				}
			],
			"name": "voteForProjectPayments",
			"outputs": [],
			"stateMutability": "nonpayable",
			"type": "function"
		},
		{
			"inputs": [
				{
					"internalType": "uint256",
					"name": "projectid",
					"type": "uint256"
				},
				{
					"internalType": "bool",
					"name": "choice",
					"type": "bool"
				}
			],
			"name": "voteForProjectProposal",
			"outputs": [],
			"stateMutability": "nonpayable",
			"type": "function"
		},
		{
			"inputs": [
				{
					"internalType": "uint256",
					"name": "",
					"type": "uint256"
				},
				{
					"internalType": "address",
					"name": "",
					"type": "address"
				}
			],
			"name": "votingImpact",
			"outputs": [
				{
					"internalType": "uint256",
					"name": "",
					"type": "uint256"
				}
			],
			"stateMutability": "view",
			"type": "function"
		},
		{
			"inputs": [
				{
					"internalType": "uint256",
					"name": "projectid",
					"type": "uint256"
				}
			],
			"name": "withdrawProjectPayments",
			"outputs": [],
			"stateMutability": "nonpayable",
			"type": "function"
		}
	]
}