{
  "_format": "hh-sol-artifact-1",
  "contractName": "Project",
  "sourceName": "contracts/Project.sol",
  "abi": [
    {
      "inputs": [
        {
          "internalType": "address",
          "name": "_myGovTokenAddress",
          "type": "address"
        },
        {
          "internalType": "address",
          "name": "_usdStableCoinAddress",
          "type": "address"
        }
      ],
      "stateMutability": "nonpayable",
      "type": "constructor"
    },
    {
      "inputs": [
        {
          "internalType": "address",
          "name": "spender",
          "type": "address"
        },
        {
          "internalType": "uint256",
          "name": "allowance",
          "type": "uint256"
        },
        {
          "internalType": "uint256",
          "name": "needed",
          "type": "uint256"
        }
      ],
      "name": "ERC20InsufficientAllowance",
      "type": "error"
    },
    {
      "inputs": [
        {
          "internalType": "address",
          "name": "sender",
          "type": "address"
        },
        {
          "internalType": "uint256",
          "name": "balance",
          "type": "uint256"
        },
        {
          "internalType": "uint256",
          "name": "needed",
          "type": "uint256"
        }
      ],
      "name": "ERC20InsufficientBalance",
      "type": "error"
    },
    {
      "inputs": [
        {
          "internalType": "address",
          "name": "approver",
          "type": "address"
        }
      ],
      "name": "ERC20InvalidApprover",
      "type": "error"
    },
    {
      "inputs": [
        {
          "internalType": "address",
          "name": "receiver",
          "type": "address"
        }
      ],
      "name": "ERC20InvalidReceiver",
      "type": "error"
    },
    {
      "inputs": [
        {
          "internalType": "address",
          "name": "sender",
          "type": "address"
        }
      ],
      "name": "ERC20InvalidSender",
      "type": "error"
    },
    {
      "inputs": [
        {
          "internalType": "address",
          "name": "spender",
          "type": "address"
        }
      ],
      "name": "ERC20InvalidSpender",
      "type": "error"
    },
    {
      "anonymous": false,
      "inputs": [
        {
          "indexed": true,
          "internalType": "address",
          "name": "owner",
          "type": "address"
        },
        {
          "indexed": true,
          "internalType": "address",
          "name": "spender",
          "type": "address"
        },
        {
          "indexed": false,
          "internalType": "uint256",
          "name": "value",
          "type": "uint256"
        }
      ],
      "name": "Approval",
      "type": "event"
    },
    {
      "anonymous": false,
      "inputs": [
        {
          "indexed": true,
          "internalType": "uint256",
          "name": "projectid",
          "type": "uint256"
        },
        {
          "indexed": true,
          "internalType": "address",
          "name": "projectOwner",
          "type": "address"
        }
      ],
      "name": "ProjectFundingReserved",
      "type": "event"
    },
    {
      "anonymous": false,
      "inputs": [
        {
          "indexed": true,
          "internalType": "uint256",
          "name": "projectid",
          "type": "uint256"
        },
        {
          "indexed": true,
          "internalType": "address",
          "name": "projectOwner",
          "type": "address"
        },
        {
          "indexed": false,
          "internalType": "uint256",
          "name": "amount",
          "type": "uint256"
        }
      ],
      "name": "ProjectPaymentWithdrawn",
      "type": "event"
    },
    {
      "anonymous": false,
      "inputs": [
        {
          "indexed": true,
          "internalType": "uint256",
          "name": "projectid",
          "type": "uint256"
        },
        {
          "indexed": false,
          "internalType": "bool[]",
          "name": "voteForPayments",
          "type": "bool[]"
        }
      ],
      "name": "ProjectPaymentsDesicion",
      "type": "event"
    },
    {
      "anonymous": false,
      "inputs": [
        {
          "indexed": true,
          "internalType": "uint256",
          "name": "projectid",
          "type": "uint256"
        },
        {
          "indexed": true,
          "internalType": "address",
          "name": "voter",
          "type": "address"
        },
        {
          "indexed": false,
          "internalType": "bool[]",
          "name": "choicePay",
          "type": "bool[]"
        }
      ],
      "name": "ProjectPaymentsVoting",
      "type": "event"
    },
    {
      "anonymous": false,
      "inputs": [
        {
          "indexed": true,
          "internalType": "uint256",
          "name": "projectid",
          "type": "uint256"
        },
        {
          "indexed": true,
          "internalType": "address",
          "name": "proposalOwner",
          "type": "address"
        }
      ],
      "name": "ProjectProposalSubmitted",
      "type": "event"
    },
    {
      "anonymous": false,
      "inputs": [
        {
          "indexed": true,
          "internalType": "uint256",
          "name": "projectid",
          "type": "uint256"
        },
        {
          "indexed": true,
          "internalType": "address",
          "name": "voter",
          "type": "address"
        },
        {
          "indexed": false,
          "internalType": "bool",
          "name": "choice",
          "type": "bool"
        }
      ],
      "name": "ProjectVoteCasted",
      "type": "event"
    },
    {
      "anonymous": false,
      "inputs": [
        {
          "indexed": true,
          "internalType": "address",
          "name": "from",
          "type": "address"
        },
        {
          "indexed": true,
          "internalType": "address",
          "name": "to",
          "type": "address"
        },
        {
          "indexed": false,
          "internalType": "uint256",
          "name": "value",
          "type": "uint256"
        }
      ],
      "name": "Transfer",
      "type": "event"
    },
    {
      "inputs": [
        {
          "internalType": "address",
          "name": "sender",
          "type": "address"
        },
        {
          "internalType": "address",
          "name": "recipient",
          "type": "address"
        },
        {
          "internalType": "uint256",
          "name": "mygovamount",
          "type": "uint256"
        }
      ],
      "name": "_transferMyGov",
      "outputs": [],
      "stateMutability": "payable",
      "type": "function"
    },
    {
      "inputs": [
        {
          "internalType": "address",
          "name": "sender",
          "type": "address"
        },
        {
          "internalType": "address",
          "name": "recipient",
          "type": "address"
        },
        {
          "internalType": "uint256",
          "name": "usdamount",
          "type": "uint256"
        }
      ],
      "name": "_transferUSD",
      "outputs": [],
      "stateMutability": "payable",
      "type": "function"
    },
    {
      "inputs": [
        {
          "internalType": "uint256",
          "name": "",
          "type": "uint256"
        }
      ],
      "name": "allAddresses",
      "outputs": [
        {
          "internalType": "address",
          "name": "",
          "type": "address"
        }
      ],
      "stateMutability": "view",
      "type": "function"
    },
    {
      "inputs": [
        {
          "internalType": "address",
          "name": "owner",
          "type": "address"
        },
        {
          "internalType": "address",
          "name": "spender",
          "type": "address"
        }
      ],
      "name": "allowance",
      "outputs": [
        {
          "internalType": "uint256",
          "name": "",
          "type": "uint256"
        }
      ],
      "stateMutability": "view",
      "type": "function"
    },
    {
      "inputs": [
        {
          "internalType": "address",
          "name": "spender",
          "type": "address"
        },
        {
          "internalType": "uint256",
          "name": "value",
          "type": "uint256"
        }
      ],
      "name": "approve",
      "outputs": [
        {
          "internalType": "bool",
          "name": "",
          "type": "bool"
        }
      ],
      "stateMutability": "nonpayable",
      "type": "function"
    },
    {
      "inputs": [
        {
          "internalType": "address",
          "name": "account",
          "type": "address"
        }
      ],
      "name": "balanceOf",
      "outputs": [
        {
          "internalType": "uint256",
          "name": "",
          "type": "uint256"
        }
      ],
      "stateMutability": "view",
      "type": "function"
    },
    {
      "inputs": [],
      "name": "decimals",
      "outputs": [
        {
          "internalType": "uint8",
          "name": "",
          "type": "uint8"
        }
      ],
      "stateMutability": "view",
      "type": "function"
    },
    {
      "inputs": [
        {
          "internalType": "address",
          "name": "delegatee",
          "type": "address"
        },
        {
          "internalType": "uint256",
          "name": "projectId",
          "type": "uint256"
        }
      ],
      "name": "delegateVoteTo",
      "outputs": [],
      "stateMutability": "nonpayable",
      "type": "function"
    },
    {
      "inputs": [
        {
          "internalType": "uint256",
          "name": "amount",
          "type": "uint256"
        }
      ],
      "name": "donateMyGovToken",
      "outputs": [],
      "stateMutability": "nonpayable",
      "type": "function"
    },
    {
      "inputs": [
        {
          "internalType": "uint256",
          "name": "amount",
          "type": "uint256"
        }
      ],
      "name": "donateUSD",
      "outputs": [],
      "stateMutability": "nonpayable",
      "type": "function"
    },
    {
      "inputs": [],
      "name": "faucet",
      "outputs": [],
      "stateMutability": "nonpayable",
      "type": "function"
    },
    {
      "inputs": [
        {
          "internalType": "uint256",
          "name": "projectid",
          "type": "uint256"
        }
      ],
      "name": "getIsProjectFunded",
      "outputs": [],
      "stateMutability": "nonpayable",
      "type": "function"
    },
    {
      "inputs": [],
      "name": "getNoOfFundedProjects",
      "outputs": [
        {
          "internalType": "uint256",
          "name": "numFunded",
          "type": "uint256"
        }
      ],
      "stateMutability": "view",
      "type": "function"
    },
    {
      "inputs": [],
      "name": "getNoOfProjectProposals",
      "outputs": [
        {
          "internalType": "uint256",
          "name": "numProposals",
          "type": "uint256"
        }
      ],
      "stateMutability": "view",
      "type": "function"
    },
    {
      "inputs": [
        {
          "internalType": "uint256",
          "name": "projectid",
          "type": "uint256"
        }
      ],
      "name": "getProjectInfo",
      "outputs": [
        {
          "internalType": "string",
          "name": "ipfsHash",
          "type": "string"
        },
        {
          "internalType": "uint256",
          "name": "voteDeadline",
          "type": "uint256"
        },
        {
          "internalType": "uint256[]",
          "name": "paymentAmounts",
          "type": "uint256[]"
        },
        {
          "internalType": "uint256[]",
          "name": "paySchedule",
          "type": "uint256[]"
        }
      ],
      "stateMutability": "view",
      "type": "function"
    },
    {
      "inputs": [
        {
          "internalType": "uint256",
          "name": "projectid",
          "type": "uint256"
        }
      ],
      "name": "getProjectNextPayment",
      "outputs": [
        {
          "internalType": "uint256",
          "name": "nextPayment",
          "type": "uint256"
        }
      ],
      "stateMutability": "view",
      "type": "function"
    },
    {
      "inputs": [
        {
          "internalType": "uint256",
          "name": "projectid",
          "type": "uint256"
        }
      ],
      "name": "getProjectOwner",
      "outputs": [
        {
          "internalType": "address",
          "name": "projectOwner",
          "type": "address"
        }
      ],
      "stateMutability": "view",
      "type": "function"
    },
    {
      "inputs": [
        {
          "internalType": "uint256",
          "name": "projectid",
          "type": "uint256"
        }
      ],
      "name": "getUSDReceivedByProject",
      "outputs": [
        {
          "internalType": "uint256",
          "name": "amount",
          "type": "uint256"
        }
      ],
      "stateMutability": "view",
      "type": "function"
    },
    {
      "inputs": [
        {
          "internalType": "uint256",
          "name": "projectid",
          "type": "uint256"
        }
      ],
      "name": "getVoteForPaymentsValue",
      "outputs": [],
      "stateMutability": "nonpayable",
      "type": "function"
    },
    {
      "inputs": [
        {
          "internalType": "uint256",
          "name": "",
          "type": "uint256"
        },
        {
          "internalType": "address",
          "name": "",
          "type": "address"
        }
      ],
      "name": "hasDelegatedVote",
      "outputs": [
        {
          "internalType": "bool",
          "name": "",
          "type": "bool"
        }
      ],
      "stateMutability": "view",
      "type": "function"
    },
    {
      "inputs": [
        {
          "internalType": "address",
          "name": "",
          "type": "address"
        },
        {
          "internalType": "uint256",
          "name": "",
          "type": "uint256"
        }
      ],
      "name": "memberHasVoted",
      "outputs": [
        {
          "internalType": "bool",
          "name": "",
          "type": "bool"
        }
      ],
      "stateMutability": "view",
      "type": "function"
    },
    {
      "inputs": [
        {
          "internalType": "address",
          "name": "",
          "type": "address"
        }
      ],
      "name": "memberstatus",
      "outputs": [
        {
          "internalType": "bool",
          "name": "",
          "type": "bool"
        }
      ],
      "stateMutability": "view",
      "type": "function"
    },
    {
      "inputs": [
        {
          "internalType": "address",
          "name": "account",
          "type": "address"
        }
      ],
      "name": "myGovBalanceOf",
      "outputs": [
        {
          "internalType": "uint256",
          "name": "",
          "type": "uint256"
        }
      ],
      "stateMutability": "view",
      "type": "function"
    },
    {
      "inputs": [],
      "name": "myGovToken",
      "outputs": [
        {
          "internalType": "contract MyGovToken",
          "name": "",
          "type": "address"
        }
      ],
      "stateMutability": "view",
      "type": "function"
    },
    {
      "inputs": [],
      "name": "name",
      "outputs": [
        {
          "internalType": "string",
          "name": "",
          "type": "string"
        }
      ],
      "stateMutability": "view",
      "type": "function"
    },
    {
      "inputs": [
        {
          "internalType": "uint256",
          "name": "",
          "type": "uint256"
        }
      ],
      "name": "projectFunded",
      "outputs": [
        {
          "internalType": "bool",
          "name": "",
          "type": "bool"
        }
      ],
      "stateMutability": "view",
      "type": "function"
    },
    {
      "inputs": [
        {
          "internalType": "uint256",
          "name": "",
          "type": "uint256"
        }
      ],
      "name": "projectProposals",
      "outputs": [
        {
          "internalType": "string",
          "name": "ipfsHash",
          "type": "string"
        },
        {
          "internalType": "uint256",
          "name": "voteDeadline",
          "type": "uint256"
        },
        {
          "internalType": "uint256",
          "name": "votesFor",
          "type": "uint256"
        },
        {
          "internalType": "uint256",
          "name": "votesAgainst",
          "type": "uint256"
        },
        {
          "internalType": "bool",
          "name": "isFunded",
          "type": "bool"
        },
        {
          "internalType": "bool",
          "name": "reserved",
          "type": "bool"
        },
        {
          "internalType": "uint256",
          "name": "reservedAmount",
          "type": "uint256"
        },
        {
          "internalType": "address",
          "name": "projectOwner",
          "type": "address"
        },
        {
          "internalType": "uint256",
          "name": "usdReceived",
          "type": "uint256"
        }
      ],
      "stateMutability": "view",
      "type": "function"
    },
    {
      "inputs": [
        {
          "internalType": "uint256",
          "name": "",
          "type": "uint256"
        },
        {
          "internalType": "address",
          "name": "",
          "type": "address"
        }
      ],
      "name": "projectVotes",
      "outputs": [
        {
          "internalType": "bool",
          "name": "",
          "type": "bool"
        }
      ],
      "stateMutability": "view",
      "type": "function"
    },
    {
      "inputs": [
        {
          "internalType": "uint256",
          "name": "projectid",
          "type": "uint256"
        }
      ],
      "name": "reserveProjectGrant",
      "outputs": [],
      "stateMutability": "nonpayable",
      "type": "function"
    },
    {
      "inputs": [
        {
          "internalType": "string",
          "name": "ipfsHash",
          "type": "string"
        },
        {
          "internalType": "uint256",
          "name": "voteDeadline",
          "type": "uint256"
        },
        {
          "internalType": "uint256[]",
          "name": "paymentAmounts",
          "type": "uint256[]"
        },
        {
          "internalType": "uint256[]",
          "name": "paySchedule",
          "type": "uint256[]"
        }
      ],
      "name": "submitProjectProposal",
      "outputs": [
        {
          "internalType": "uint256",
          "name": "projectId",
          "type": "uint256"
        }
      ],
      "stateMutability": "nonpayable",
      "type": "function"
    },
    {
      "inputs": [],
      "name": "symbol",
      "outputs": [
        {
          "internalType": "string",
          "name": "",
          "type": "string"
        }
      ],
      "stateMutability": "view",
      "type": "function"
    },
    {
      "inputs": [],
      "name": "totalReservablaAmount",
      "outputs": [
        {
          "internalType": "uint256",
          "name": "",
          "type": "uint256"
        }
      ],
      "stateMutability": "view",
      "type": "function"
    },
    {
      "inputs": [],
      "name": "totalSupply",
      "outputs": [
        {
          "internalType": "uint256",
          "name": "",
          "type": "uint256"
        }
      ],
      "stateMutability": "view",
      "type": "function"
    },
    {
      "inputs": [
        {
          "internalType": "address",
          "name": "to",
          "type": "address"
        },
        {
          "internalType": "uint256",
          "name": "value",
          "type": "uint256"
        }
      ],
      "name": "transfer",
      "outputs": [
        {
          "internalType": "bool",
          "name": "",
          "type": "bool"
        }
      ],
      "stateMutability": "nonpayable",
      "type": "function"
    },
    {
      "inputs": [
        {
          "internalType": "address",
          "name": "sender",
          "type": "address"
        },
        {
          "internalType": "address",
          "name": "recipient",
          "type": "address"
        },
        {
          "internalType": "uint256",
          "name": "usdamount",
          "type": "uint256"
        },
        {
          "internalType": "uint256",
          "name": "mygovamount",
          "type": "uint256"
        }
      ],
      "name": "transferAll",
      "outputs": [],
      "stateMutability": "nonpayable",
      "type": "function"
    },
    {
      "inputs": [
        {
          "internalType": "address",
          "name": "from",
          "type": "address"
        },
        {
          "internalType": "address",
          "name": "to",
          "type": "address"
        },
        {
          "internalType": "uint256",
          "name": "value",
          "type": "uint256"
        }
      ],
      "name": "transferFrom",
      "outputs": [
        {
          "internalType": "bool",
          "name": "",
          "type": "bool"
        }
      ],
      "stateMutability": "nonpayable",
      "type": "function"
    },
    {
      "inputs": [],
      "name": "updateAndGetTotalMembers",
      "outputs": [
        {
          "internalType": "uint256",
          "name": "totalMembers",
          "type": "uint256"
        }
      ],
      "stateMutability": "nonpayable",
      "type": "function"
    },
    {
      "inputs": [
        {
          "internalType": "address",
          "name": "account",
          "type": "address"
        }
      ],
      "name": "usdBalanceOf",
      "outputs": [
        {
          "internalType": "uint256",
          "name": "",
          "type": "uint256"
        }
      ],
      "stateMutability": "view",
      "type": "function"
    },
    {
      "inputs": [],
      "name": "usdStableCoin",
      "outputs": [
        {
          "internalType": "contract USDStablecoin",
          "name": "",
          "type": "address"
        }
      ],
      "stateMutability": "view",
      "type": "function"
    },
    {
      "inputs": [
        {
          "internalType": "uint256",
          "name": "projectid",
          "type": "uint256"
        },
        {
          "internalType": "bool[]",
          "name": "choicePay",
          "type": "bool[]"
        }
      ],
      "name": "voteForProjectPayments",
      "outputs": [],
      "stateMutability": "nonpayable",
      "type": "function"
    },
    {
      "inputs": [
        {
          "internalType": "uint256",
          "name": "projectid",
          "type": "uint256"
        },
        {
          "internalType": "bool",
          "name": "choice",
          "type": "bool"
        }
      ],
      "name": "voteForProjectProposal",
      "outputs": [],
      "stateMutability": "nonpayable",
      "type": "function"
    },
    {
      "inputs": [
        {
          "internalType": "uint256",
          "name": "",
          "type": "uint256"
        },
        {
          "internalType": "address",
          "name": "",
          "type": "address"
        }
      ],
      "name": "votingImpact",
      "outputs": [
        {
          "internalType": "uint256",
          "name": "",
          "type": "uint256"
        }
      ],
      "stateMutability": "view",
      "type": "function"
    },
    {
      "inputs": [
        {
          "internalType": "uint256",
          "name": "projectid",
          "type": "uint256"
        }
      ],
      "name": "withdrawProjectPayments",
      "outputs": [],
      "stateMutability": "nonpayable",
      "type": "function"
    }
  ],
  "bytecode": "0x60806040523480156200001157600080fd5b506040516200655a3803806200655a833981810160405281019062000037919062000243565b81816040518060400160405280600b81526020017f4d79476f7620546f6b656e0000000000000000000000000000000000000000008152506040518060400160405280600281526020017f4d470000000000000000000000000000000000000000000000000000000000008152508160039081620000b6919062000504565b508060049081620000c8919062000504565b50505081600560006101000a81548173ffffffffffffffffffffffffffffffffffffffff021916908373ffffffffffffffffffffffffffffffffffffffff16021790555080600660006101000a81548173ffffffffffffffffffffffffffffffffffffffff021916908373ffffffffffffffffffffffffffffffffffffffff160217905550505081600c60006101000a81548173ffffffffffffffffffffffffffffffffffffffff021916908373ffffffffffffffffffffffffffffffffffffffff16021790555080600d60006101000a81548173ffffffffffffffffffffffffffffffffffffffff021916908373ffffffffffffffffffffffffffffffffffffffff1602179055505050620005eb565b600080fd5b600073ffffffffffffffffffffffffffffffffffffffff82169050919050565b60006200020b82620001de565b9050919050565b6200021d81620001fe565b81146200022957600080fd5b50565b6000815190506200023d8162000212565b92915050565b600080604083850312156200025d576200025c620001d9565b5b60006200026d858286016200022c565b925050602062000280858286016200022c565b9150509250929050565b600081519050919050565b7f4e487b7100000000000000000000000000000000000000000000000000000000600052604160045260246000fd5b7f4e487b7100000000000000000000000000000000000000000000000000000000600052602260045260246000fd5b600060028204905060018216806200030c57607f821691505b602082108103620003225762000321620002c4565b5b50919050565b60008190508160005260206000209050919050565b60006020601f8301049050919050565b600082821b905092915050565b6000600883026200038c7fffffffffffffffffffffffffffffffffffffffffffffffffffffffffffffffff826200034d565b6200039886836200034d565b95508019841693508086168417925050509392505050565b6000819050919050565b6000819050919050565b6000620003e5620003df620003d984620003b0565b620003ba565b620003b0565b9050919050565b6000819050919050565b6200040183620003c4565b620004196200041082620003ec565b8484546200035a565b825550505050565b600090565b6200043062000421565b6200043d818484620003f6565b505050565b5b8181101562000465576200045960008262000426565b60018101905062000443565b5050565b601f821115620004b4576200047e8162000328565b62000489846200033d565b8101602085101562000499578190505b620004b1620004a8856200033d565b83018262000442565b50505b505050565b600082821c905092915050565b6000620004d960001984600802620004b9565b1980831691505092915050565b6000620004f48383620004c6565b9150826002028217905092915050565b6200050f826200028a565b67ffffffffffffffff8111156200052b576200052a62000295565b5b620005378254620002f3565b6200054482828562000469565b600060209050601f8311600181146200057c576000841562000567578287015190505b620005738582620004e6565b865550620005e3565b601f1984166200058c8662000328565b60005b82811015620005b6578489015182556001820191506020850194506020810190506200058f565b86831015620005d65784890151620005d2601f891682620004c6565b8355505b6001600288020188555050505b505050505050565b615f5f80620005fb6000396000f3fe60806040526004361061025c5760003560e01c8063a1669b3211610144578063d437e565116100b6578063dd62ed3e1161007a578063dd62ed3e146109b8578063de5f72fd146109f5578063e166c3b014610a0c578063f190f42114610a35578063f22449ba14610a5e578063fabf596814610a875761025c565b8063d437e565146108a5578063d915902e146108e2578063dacc53701461090b578063dbc1d56914610948578063dcb57dc01461098d5761025c565b8063b756441b11610108578063b756441b14610771578063baf8efb3146107ae578063bd275764146107d7578063bf50556d14610800578063c029aac61461082b578063cbe0135c146108685761025c565b8063a1669b3214610675578063a220e64a1461069e578063a5e898e1146106db578063a9059cbb14610718578063aeeeebe7146107555761025c565b80633c59605a116101dd5780637c405164116101a15780637c405164146105535780638f8270181461057c57806392256aec146105b957806395d89b41146105f6578063975d82be1461062157806399f7fee11461064c5761025c565b80633c59605a146104555780635a3b6534146104805780635dec5c391461049c57806370a08231146104d957806379585aa8146105165761025c565b80631d2acdfd116102245780631d2acdfd1461035c57806323b872dd1461039957806323fd498b146103d6578063313ce5671461040157806339c94d2d1461042c5761025c565b8063060fbe581461026157806306fdde031461028c578063095ea7b3146102b7578063158a18b6146102f457806318160ddd14610331575b600080fd5b34801561026d57600080fd5b50610276610ac7565b6040516102839190613f69565b60405180910390f35b34801561029857600080fd5b506102a1610c81565b6040516102ae9190614014565b60405180910390f35b3480156102c357600080fd5b506102de60048036038101906102d991906140d4565b610d13565b6040516102eb919061412f565b60405180910390f35b34801561030057600080fd5b5061031b6004803603810190610316919061414a565b610d36565b6040516103289190613f69565b60405180910390f35b34801561033d57600080fd5b50610346610d7f565b6040516103539190613f69565b60405180910390f35b34801561036857600080fd5b50610383600480360381019061037e9190614177565b610d89565b6040516103909190613f69565b60405180910390f35b3480156103a557600080fd5b506103c060048036038101906103bb91906141a4565b610eb9565b6040516103cd919061412f565b60405180910390f35b3480156103e257600080fd5b506103eb610ee8565b6040516103f89190613f69565b60405180910390f35b34801561040d57600080fd5b50610416610ef5565b6040516104239190614213565b60405180910390f35b34801561043857600080fd5b50610453600480360381019061044e9190614177565b610efe565b005b34801561046157600080fd5b5061046a611059565b6040516104779190613f69565b60405180910390f35b61049a600480360381019061049591906141a4565b611113565b005b3480156104a857600080fd5b506104c360048036038101906104be919061414a565b6112e9565b6040516104d09190613f69565b60405180910390f35b3480156104e557600080fd5b5061050060048036038101906104fb919061414a565b611332565b60405161050d9190613f69565b60405180910390f35b34801561052257600080fd5b5061053d60048036038101906105389190614177565b61137a565b60405161054a919061412f565b60405180910390f35b34801561055f57600080fd5b5061057a60048036038101906105759190614177565b61139a565b005b34801561058857600080fd5b506105a3600480360381019061059e919061414a565b611507565b6040516105b0919061412f565b60405180910390f35b3480156105c557600080fd5b506105e060048036038101906105db9190614177565b611527565b6040516105ed919061423d565b60405180910390f35b34801561060257600080fd5b5061060b611587565b6040516106189190614014565b60405180910390f35b34801561062d57600080fd5b50610636611619565b60405161064391906142b7565b60405180910390f35b34801561065857600080fd5b50610673600480360381019061066e9190614177565b61163f565b005b34801561068157600080fd5b5061069c600480360381019061069791906140d4565b611a6b565b005b3480156106aa57600080fd5b506106c560048036038101906106c091906140d4565b611ccb565b6040516106d2919061412f565b60405180910390f35b3480156106e757600080fd5b5061070260048036038101906106fd91906144cf565b611cfa565b60405161070f9190613f69565b60405180910390f35b34801561072457600080fd5b5061073f600480360381019061073a91906140d4565b6123df565b60405161074c919061412f565b60405180910390f35b61076f600480360381019061076a91906141a4565b612402565b005b34801561077d57600080fd5b506107986004803603810190610793919061458a565b6125d8565b6040516107a59190613f69565b60405180910390f35b3480156107ba57600080fd5b506107d560048036038101906107d09190614177565b6125fd565b005b3480156107e357600080fd5b506107fe60048036038101906107f99190614177565b6127c1565b005b34801561080c57600080fd5b506108156129b4565b6040516108229190613f69565b60405180910390f35b34801561083757600080fd5b50610852600480360381019061084d919061458a565b612a1b565b60405161085f919061412f565b60405180910390f35b34801561087457600080fd5b5061088f600480360381019061088a9190614177565b612a4a565b60405161089c9190613f69565b60405180910390f35b3480156108b157600080fd5b506108cc60048036038101906108c7919061458a565b612a8a565b6040516108d9919061412f565b60405180910390f35b3480156108ee57600080fd5b5061090960048036038101906109049190614177565b612ab9565b005b34801561091757600080fd5b50610932600480360381019061092d9190614177565b612c14565b60405161093f919061423d565b60405180910390f35b34801561095457600080fd5b5061096f600480360381019061096a9190614177565b612c53565b604051610984999897969594939291906145ca565b60405180910390f35b34801561099957600080fd5b506109a2612d73565b6040516109af919061467f565b60405180910390f35b3480156109c457600080fd5b506109df60048036038101906109da919061469a565b612d99565b6040516109ec9190613f69565b60405180910390f35b348015610a0157600080fd5b50610a0a612e20565b005b348015610a1857600080fd5b50610a336004803603810190610a2e91906146da565b612edc565b005b348015610a4157600080fd5b50610a5c6004803603810190610a579190614830565b612efb565b005b348015610a6a57600080fd5b50610a856004803603810190610a80919061488c565b61323f565b005b348015610a9357600080fd5b50610aae6004803603810190610aa99190614177565b613599565b604051610abe949392919061498a565b60405180910390f35b600080600090505b600980549050811015610c7d576001610b2560098381548110610af557610af46149e4565b5b9060005260206000200160009054906101000a900473ffffffffffffffffffffffffffffffffffffffff16611332565b10610bd3576001600a600060098481548110610b4457610b436149e4565b5b9060005260206000200160009054906101000a900473ffffffffffffffffffffffffffffffffffffffff1673ffffffffffffffffffffffffffffffffffffffff1673ffffffffffffffffffffffffffffffffffffffff16815260200190815260200160002060006101000a81548160ff0219169083151502179055508180610bcb90614a42565b925050610c6a565b6000600a600060098481548110610bed57610bec6149e4565b5b9060005260206000200160009054906101000a900473ffffffffffffffffffffffffffffffffffffffff1673ffffffffffffffffffffffffffffffffffffffff1673ffffffffffffffffffffffffffffffffffffffff16815260200190815260200160002060006101000a81548160ff0219169083151502179055505b8080610c7590614a42565b915050610acf565b5090565b606060038054610c9090614ab9565b80601f0160208091040260200160405190810160405280929190818152602001828054610cbc90614ab9565b8015610d095780601f10610cde57610100808354040283529160200191610d09565b820191906000526020600020905b815481529060010190602001808311610cec57829003601f168201915b5050505050905090565b600080610d1e613785565b9050610d2b81858561378d565b600191505092915050565b6000600860008373ffffffffffffffffffffffffffffffffffffffff1673ffffffffffffffffffffffffffffffffffffffff168152602001908152602001600020549050919050565b6000600254905090565b6000600e805490508210610d9c57600080fd5b6000600190505b600e8381548110610db757610db66149e4565b5b90600052602060002090600d0201600301805490508111158015610e41575060011515600e8481548110610dee57610ded6149e4565b5b90600052602060002090600d0201600401600183610e0c9190614aea565b81548110610e1d57610e1c6149e4565b5b90600052602060002090602091828204019190069054906101000a900460ff161515145b15610eae57600e8381548110610e5a57610e596149e4565b5b90600052602060002090600d02016003018181548110610e7d57610e7c6149e4565b5b9060005260206000200154421015610e9b5780915080915050610eb4565b8080610ea690614a42565b915050610da3565b50600090505b919050565b600080610ec4613785565b9050610ed185828561379f565b610edc858585613833565b60019150509392505050565b6000600e80549050905090565b60006012905090565b60008111610f0b57600080fd5b80600560009054906101000a900473ffffffffffffffffffffffffffffffffffffffff1673ffffffffffffffffffffffffffffffffffffffff166370a08231336040518263ffffffff1660e01b8152600401610f67919061423d565b602060405180830381865afa158015610f84573d6000803e3d6000fd5b505050506040513d601f19601f82011682018060405250810190610fa89190614b33565b1015610fb357600080fd5b600560009054906101000a900473ffffffffffffffffffffffffffffffffffffffff1673ffffffffffffffffffffffffffffffffffffffff166323b872dd3330846040518463ffffffff1660e01b815260040161101293929190614b60565b6020604051808303816000875af1158015611031573d6000803e3d6000fd5b505050506040513d601f19601f820116820180604052508101906110559190614bac565b5050565b600080611064613927565b600660009054906101000a900473ffffffffffffffffffffffffffffffffffffffff1673ffffffffffffffffffffffffffffffffffffffff166370a08231306040518263ffffffff1660e01b81526004016110bf919061423d565b602060405180830381865afa1580156110dc573d6000803e3d6000fd5b505050506040513d601f19601f820116820180604052508101906111009190614b33565b61110a9190614aea565b90508091505090565b80600760008573ffffffffffffffffffffffffffffffffffffffff1673ffffffffffffffffffffffffffffffffffffffff168152602001908152602001600020541015611195576040517f08c379a000000000000000000000000000000000000000000000000000000000815260040161118c90614c25565b60405180910390fd5b80600760008573ffffffffffffffffffffffffffffffffffffffff1673ffffffffffffffffffffffffffffffffffffffff16815260200190815260200160002060008282546111e49190614aea565b9250508190555080600760008473ffffffffffffffffffffffffffffffffffffffff1673ffffffffffffffffffffffffffffffffffffffff168152602001908152602001600020600082825461123a9190614c45565b92505081905550600560009054906101000a900473ffffffffffffffffffffffffffffffffffffffff1673ffffffffffffffffffffffffffffffffffffffff166323b872dd8484846040518463ffffffff1660e01b81526004016112a093929190614b60565b6020604051808303816000875af11580156112bf573d6000803e3d6000fd5b505050506040513d601f19601f820116820180604052508101906112e39190614bac565b50505050565b6000600760008373ffffffffffffffffffffffffffffffffffffffff1673ffffffffffffffffffffffffffffffffffffffff168152602001908152602001600020549050919050565b60008060008373ffffffffffffffffffffffffffffffffffffffff1673ffffffffffffffffffffffffffffffffffffffff168152602001908152602001600020549050919050565b60116020528060005260406000206000915054906101000a900460ff1681565b6113a2610ac7565b50600e8054905081106113b457600080fd5b600a6113be610ac7565b6113c89190614ca8565b600e82815481106113dc576113db6149e4565b5b90600052602060002090600d02016007015410156113f957600080fd5b600e818154811061140d5761140c6149e4565b5b90600052602060002090600d0201600a0154600660009054906101000a900473ffffffffffffffffffffffffffffffffffffffff1673ffffffffffffffffffffffffffffffffffffffff166370a08231306040518263ffffffff1660e01b815260040161147a919061423d565b602060405180830381865afa158015611497573d6000803e3d6000fd5b505050506040513d601f19601f820116820180604052508101906114bb9190614b33565b10156114c657600080fd5b6001600e82815481106114dc576114db6149e4565b5b90600052602060002090600d020160090160006101000a81548160ff02191690831515021790555050565b600a6020528060005260406000206000915054906101000a900460ff1681565b6000600e80549050821061153a57600080fd5b600e828154811061154e5761154d6149e4565b5b90600052602060002090600d0201600b0160009054906101000a900473ffffffffffffffffffffffffffffffffffffffff169050919050565b60606004805461159690614ab9565b80601f01602080910402602001604051908101604052809291908181526020018280546115c290614ab9565b801561160f5780601f106115e45761010080835404028352916020019161160f565b820191906000526020600020905b8154815290600101906020018083116115f257829003601f168201915b5050505050905090565b600560009054906101000a900473ffffffffffffffffffffffffffffffffffffffff1681565b600e80549050811061165057600080fd5b600e8181548110611664576116636149e4565b5b90600052602060002090600d0201600b0160009054906101000a900473ffffffffffffffffffffffffffffffffffffffff1673ffffffffffffffffffffffffffffffffffffffff163373ffffffffffffffffffffffffffffffffffffffff16146116cd57600080fd5b600e81815481106116e1576116e06149e4565b5b90600052602060002090600d020160090160019054906101000a900460ff1661170957600080fd5b60005b600e82815481106117205761171f6149e4565b5b90600052602060002090600d020160030180549050811015611a6757600e82815481106117505761174f6149e4565b5b90600052602060002090600d02016003018181548110611773576117726149e4565b5b906000526020600020015442111580156117e05750600e828154811061179c5761179b6149e4565b5b90600052602060002090600d020160040181815481106117bf576117be6149e4565b5b90600052602060002090602091828204019190069054906101000a900460ff165b15611a5457600660009054906101000a900473ffffffffffffffffffffffffffffffffffffffff1673ffffffffffffffffffffffffffffffffffffffff166323b872dd3033600e8681548110611839576118386149e4565b5b90600052602060002090600d0201600201858154811061185c5761185b6149e4565b5b90600052602060002001546040518463ffffffff1660e01b815260040161188593929190614b60565b6020604051808303816000875af11580156118a4573d6000803e3d6000fd5b505050506040513d601f19601f820116820180604052508101906118c89190614bac565b503373ffffffffffffffffffffffffffffffffffffffff16827f41045142a60f1b5ebb694509f75c4e837c18604c6d262604b1d28ee1f3129a46600e8581548110611916576119156149e4565b5b90600052602060002090600d02016002018481548110611939576119386149e4565b5b90600052602060002001546040516119519190613f69565b60405180910390a3600e828154811061196d5761196c6149e4565b5b90600052602060002090600d020160020181815481106119905761198f6149e4565b5b9060005260206000200154600e83815481106119af576119ae6149e4565b5b90600052602060002090600d0201600a0160008282546119cf9190614aea565b92505081905550600e82815481106119ea576119e96149e4565b5b90600052602060002090600d02016002018181548110611a0d57611a0c6149e4565b5b9060005260206000200154600e8381548110611a2c57611a2b6149e4565b5b90600052602060002090600d0201600c016000828254611a4c9190614c45565b925050819055505b8080611a5f90614a42565b91505061170c565b5050565b611a73610ac7565b50600e8054905081108015611ad15750600a60008373ffffffffffffffffffffffffffffffffffffffff1673ffffffffffffffffffffffffffffffffffffffff16815260200190815260200160002060009054906101000a900460ff165b8015611b3857506010600082815260200190815260200160002060003373ffffffffffffffffffffffffffffffffffffffff1673ffffffffffffffffffffffffffffffffffffffff16815260200190815260200160002060009054906101000a900460ff16155b8015611b9f57506012600082815260200190815260200160002060003373ffffffffffffffffffffffffffffffffffffffff1673ffffffffffffffffffffffffffffffffffffffff16815260200190815260200160002060009054906101000a900460ff16155b611ba857600080fd5b60016012600083815260200190815260200160002060003373ffffffffffffffffffffffffffffffffffffffff1673ffffffffffffffffffffffffffffffffffffffff16815260200190815260200160002060006101000a81548160ff0219169083151502179055506013600082815260200190815260200160002060008373ffffffffffffffffffffffffffffffffffffffff1673ffffffffffffffffffffffffffffffffffffffff1681526020019081526020016000206000815480929190611c7290614a42565b91905055503373ffffffffffffffffffffffffffffffffffffffff16817f8a19902c1356176f164d6eeee88db031b1718565c98c90873907b79b920fbafe6001604051611cbf919061412f565b60405180910390a35050565b600f6020528160005260406000206020528060005260406000206000915091509054906101000a900460ff1681565b60004284118015611d2557508382600081518110611d1b57611d1a6149e4565b5b6020026020010151115b611d2e57600080fd5b60005b60018351611d3f9190614aea565b811015611da55782600182611d549190614c45565b81518110611d6557611d646149e4565b5b6020026020010151838281518110611d8057611d7f6149e4565b5b602002602001015110611d9257600080fd5b8080611d9d90614a42565b915050611d31565b5060058060009054906101000a900473ffffffffffffffffffffffffffffffffffffffff1673ffffffffffffffffffffffffffffffffffffffff166370a08231336040518263ffffffff1660e01b8152600401611e02919061423d565b602060405180830381865afa158015611e1f573d6000803e3d6000fd5b505050506040513d601f19601f82011682018060405250810190611e439190614b33565b10158015611eed57506032600660009054906101000a900473ffffffffffffffffffffffffffffffffffffffff1673ffffffffffffffffffffffffffffffffffffffff166370a08231336040518263ffffffff1660e01b8152600401611ea9919061423d565b602060405180830381865afa158015611ec6573d6000803e3d6000fd5b505050506040513d601f19601f82011682018060405250810190611eea9190614b33565b10155b611ef657600080fd5b600560009054906101000a900473ffffffffffffffffffffffffffffffffffffffff1673ffffffffffffffffffffffffffffffffffffffff166323b872dd333060056040518463ffffffff1660e01b8152600401611f5693929190614d14565b6020604051808303816000875af1158015611f75573d6000803e3d6000fd5b505050506040513d601f19601f82011682018060405250810190611f999190614bac565b50600660009054906101000a900473ffffffffffffffffffffffffffffffffffffffff1673ffffffffffffffffffffffffffffffffffffffff166323b872dd333060326040518463ffffffff1660e01b8152600401611ffa93929190614d86565b6020604051808303816000875af1158015612019573d6000803e3d6000fd5b505050506040513d601f19601f8201168201806040525081019061203d9190614bac565b506000805b84518110156120865784818151811061205e5761205d6149e4565b5b6020026020010151826120719190614c45565b9150808061207e90614a42565b915050612042565b5060008190506000604051806101c00160405280898152602001888152602001878152602001868152602001865167ffffffffffffffff8111156120cd576120cc6142dc565b5b6040519080825280602002602001820160405280156120fb5781602001602082028036833780820191505090505b508152602001865167ffffffffffffffff81111561211c5761211b6142dc565b5b60405190808252806020026020018201604052801561214a5781602001602082028036833780820191505090505b508152602001865167ffffffffffffffff81111561216b5761216a6142dc565b5b6040519080825280602002602001820160405280156121995781602001602082028036833780820191505090505b50815260200160008152602001600081526020016000151581526020016000151581526020018381526020013373ffffffffffffffffffffffffffffffffffffffff16815260200160008152509050600e8190806001815401808255809150506001900390600052602060002090600d020160009091909190915060008201518160000190816122299190614f5f565b50602082015181600101556040820151816002019080519060200190612250929190613e40565b50606082015181600301908051906020019061226d929190613e40565b50608082015181600401908051906020019061228a929190613e8d565b5060a08201518160050190805190602001906122a7929190613e40565b5060c08201518160060190805190602001906122c4929190613e40565b5060e0820151816007015561010082015181600801556101208201518160090160006101000a81548160ff0219169083151502179055506101408201518160090160016101000a81548160ff02191690831515021790555061016082015181600a015561018082015181600b0160006101000a81548173ffffffffffffffffffffffffffffffffffffffff021916908373ffffffffffffffffffffffffffffffffffffffff1602179055506101a082015181600c015550506001600e8054905061238e9190614aea565b93503373ffffffffffffffffffffffffffffffffffffffff16847fe387d723867cd8ff0a5fbfda99c2183e0c8eb8caa297784c3e146c0d2f9d014160405160405180910390a3505050949350505050565b6000806123ea613785565b90506123f7818585613833565b600191505092915050565b80600860008573ffffffffffffffffffffffffffffffffffffffff1673ffffffffffffffffffffffffffffffffffffffff168152602001908152602001600020541015612484576040517f08c379a000000000000000000000000000000000000000000000000000000000815260040161247b9061507d565b60405180910390fd5b80600860008573ffffffffffffffffffffffffffffffffffffffff1673ffffffffffffffffffffffffffffffffffffffff16815260200190815260200160002060008282546124d39190614aea565b9250508190555080600860008473ffffffffffffffffffffffffffffffffffffffff1673ffffffffffffffffffffffffffffffffffffffff16815260200190815260200160002060008282546125299190614c45565b92505081905550600660009054906101000a900473ffffffffffffffffffffffffffffffffffffffff1673ffffffffffffffffffffffffffffffffffffffff166323b872dd8484846040518463ffffffff1660e01b815260040161258f93929190614b60565b6020604051808303816000875af11580156125ae573d6000803e3d6000fd5b505050506040513d601f19601f820116820180604052508101906125d29190614bac565b50505050565b6013602052816000526040600020602052806000526040600020600091509150505481565b612605610ac7565b5060005b600e828154811061261d5761261c6149e4565b5b90600052602060002090600d020160030180549050811015612761576064612643610ac7565b61264d9190614ca8565b600e8381548110612661576126606149e4565b5b90600052602060002090600d02016005018281548110612684576126836149e4565b5b9060005260206000200154106126f35760011515600e83815481106126ac576126ab6149e4565b5b90600052602060002090600d020160040182815481106126cf576126ce6149e4565b5b90600052602060002090602091828204019190069054906101000a9050505061274e565b60001515600e838154811061270b5761270a6149e4565b5b90600052602060002090600d0201600401828154811061272e5761272d6149e4565b5b90600052602060002090602091828204019190069054906101000a905050505b808061275990614a42565b915050612609565b50807f02411b9f6a1e89dc84108fa2518c56c1c8e0994043af15eec01f19f7cc996ed2600e8381548110612798576127976149e4565b5b90600052602060002090600d02016004016040516127b69190615e10565b60405180910390a250565b600e80549050811080156128455750600e81815481106127e4576127e36149e4565b5b90600052602060002090600d0201600b0160009054906101000a900473ffffffffffffffffffffffffffffffffffffffff1673ffffffffffffffffffffffffffffffffffffffff163373ffffffffffffffffffffffffffffffffffffffff16145b80156128765750600e81815481106128605761285f6149e4565b5b90600052602060002090600d0201600101544211155b80156128b15750600e8181548110612891576128906149e4565b5b90600052602060002090600d020160090160009054906101000a900460ff165b80156128ed5750600e81815481106128cc576128cb6149e4565b5b90600052602060002090600d020160090160019054906101000a900460ff16155b6128f657600080fd5b600e818154811061290a576129096149e4565b5b90600052602060002090600d0201600a0154612924611059565b101561292f57600080fd5b6001600e8281548110612945576129446149e4565b5b90600052602060002090600d020160090160016101000a81548160ff0219169083151502179055503373ffffffffffffffffffffffffffffffffffffffff16817f4b3a4b609559f6895d2818d4a00b0c8d09c8c1bdc7f9cbd315d3cc8279835b0a60405160405180910390a350565b6000806000905060005b600e80549050811015612a13576011600082815260200190815260200160002060009054906101000a900460ff1615612a005781806129fc90614a42565b9250505b8080612a0b90614a42565b9150506129be565b508091505090565b60126020528160005260406000206020528060005260406000206000915091509054906101000a900460ff1681565b6000600e805490508210612a5d57600080fd5b600e8281548110612a7157612a706149e4565b5b90600052602060002090600d0201600c01549050919050565b60106020528160005260406000206020528060005260406000206000915091509054906101000a900460ff1681565b60008111612ac657600080fd5b80600660009054906101000a900473ffffffffffffffffffffffffffffffffffffffff1673ffffffffffffffffffffffffffffffffffffffff166370a08231336040518263ffffffff1660e01b8152600401612b22919061423d565b602060405180830381865afa158015612b3f573d6000803e3d6000fd5b505050506040513d601f19601f82011682018060405250810190612b639190614b33565b1015612b6e57600080fd5b600660009054906101000a900473ffffffffffffffffffffffffffffffffffffffff1673ffffffffffffffffffffffffffffffffffffffff166323b872dd3330846040518463ffffffff1660e01b8152600401612bcd93929190614b60565b6020604051808303816000875af1158015612bec573d6000803e3d6000fd5b505050506040513d601f19601f82011682018060405250810190612c109190614bac565b5050565b60098181548110612c2457600080fd5b906000526020600020016000915054906101000a900473ffffffffffffffffffffffffffffffffffffffff1681565b600e8181548110612c6357600080fd5b90600052602060002090600d0201600091509050806000018054612c8690614ab9565b80601f0160208091040260200160405190810160405280929190818152602001828054612cb290614ab9565b8015612cff5780601f10612cd457610100808354040283529160200191612cff565b820191906000526020600020905b815481529060010190602001808311612ce257829003601f168201915b5050505050908060010154908060070154908060080154908060090160009054906101000a900460ff16908060090160019054906101000a900460ff169080600a01549080600b0160009054906101000a900473ffffffffffffffffffffffffffffffffffffffff169080600c0154905089565b600660009054906101000a900473ffffffffffffffffffffffffffffffffffffffff1681565b6000600160008473ffffffffffffffffffffffffffffffffffffffff1673ffffffffffffffffffffffffffffffffffffffff16815260200190815260200160002060008373ffffffffffffffffffffffffffffffffffffffff1673ffffffffffffffffffffffffffffffffffffffff16815260200190815260200160002054905092915050565b600b60003373ffffffffffffffffffffffffffffffffffffffff1673ffffffffffffffffffffffffffffffffffffffff16815260200190815260200160002060009054906101000a900460ff1615612e7757600080fd5b612e823360016139c2565b6001600b60003373ffffffffffffffffffffffffffffffffffffffff1673ffffffffffffffffffffffffffffffffffffffff16815260200190815260200160002060006101000a81548160ff021916908315150217905550565b339350612eea848483611113565b612ef5848484612402565b50505050565b600e8054905082108015612f1857506001612f1533611332565b10155b8015612f485750600e8281548110612f3357612f326149e4565b5b90600052602060002090600d02016001015442115b8015612faf57506012600083815260200190815260200160002060003373ffffffffffffffffffffffffffffffffffffffff1673ffffffffffffffffffffffffffffffffffffffff16815260200190815260200160002060009054906101000a900460ff16155b801561301657506010600083815260200190815260200160002060003373ffffffffffffffffffffffffffffffffffffffff1673ffffffffffffffffffffffffffffffffffffffff16815260200190815260200160002060009054906101000a900460ff16155b61301f57600080fd5b600060016013600085815260200190815260200160002060003373ffffffffffffffffffffffffffffffffffffffff1673ffffffffffffffffffffffffffffffffffffffff1681526020019081526020016000205461307e9190614c45565b9050600061308b84610d89565b905060005b818111613180578381815181106130aa576130a96149e4565b5b6020026020010151156131145782600e86815481106130cc576130cb6149e4565b5b90600052602060002090600d020160050182815481106130ef576130ee6149e4565b5b9060005260206000200160008282546131089190614c45565b9250508190555061316d565b82600e8681548110613129576131286149e4565b5b90600052602060002090600d0201600601828154811061314c5761314b6149e4565b5b9060005260206000200160008282546131659190614c45565b925050819055505b808061317890614a42565b915050613090565b5060016010600086815260200190815260200160002060003373ffffffffffffffffffffffffffffffffffffffff1673ffffffffffffffffffffffffffffffffffffffff16815260200190815260200160002060006101000a81548160ff0219169083151502179055503373ffffffffffffffffffffffffffffffffffffffff16847f33b88791871b035ed3fea6313b68632ccca172c35d8ae00a6d595ce65f1a7155856040516132319190615ed0565b60405180910390a350505050565b600e80549050821080156132ef57506001600560009054906101000a900473ffffffffffffffffffffffffffffffffffffffff1673ffffffffffffffffffffffffffffffffffffffff166370a08231336040518263ffffffff1660e01b81526004016132ab919061423d565b602060405180830381865afa1580156132c8573d6000803e3d6000fd5b505050506040513d601f19601f820116820180604052508101906132ec9190614b33565b10155b80156133205750600e828154811061330a576133096149e4565b5b90600052602060002090600d0201600101544211155b801561338757506012600083815260200190815260200160002060003373ffffffffffffffffffffffffffffffffffffffff1673ffffffffffffffffffffffffffffffffffffffff16815260200190815260200160002060009054906101000a900460ff16155b80156133ee57506010600083815260200190815260200160002060003373ffffffffffffffffffffffffffffffffffffffff1673ffffffffffffffffffffffffffffffffffffffff16815260200190815260200160002060009054906101000a900460ff16155b6133f757600080fd5b600060016013600085815260200190815260200160002060003373ffffffffffffffffffffffffffffffffffffffff1673ffffffffffffffffffffffffffffffffffffffff168152602001908152602001600020546134569190614c45565b9050811561349f5780600e8481548110613473576134726149e4565b5b90600052602060002090600d020160070160008282546134939190614c45565b925050819055506134dc565b80600e84815481106134b4576134b36149e4565b5b90600052602060002090600d020160080160008282546134d49190614c45565b925050819055505b60016010600085815260200190815260200160002060003373ffffffffffffffffffffffffffffffffffffffff1673ffffffffffffffffffffffffffffffffffffffff16815260200190815260200160002060006101000a81548160ff0219169083151502179055503373ffffffffffffffffffffffffffffffffffffffff16837f8a19902c1356176f164d6eeee88db031b1718565c98c90873907b79b920fbafe8460405161358c919061412f565b60405180910390a3505050565b60606000606080600e8054905085106135b157600080fd5b600e85815481106135c5576135c46149e4565b5b90600052602060002090600d0201600001600e86815481106135ea576135e96149e4565b5b90600052602060002090600d020160010154600e87815481106136105761360f6149e4565b5b90600052602060002090600d0201600201600e8881548110613635576136346149e4565b5b90600052602060002090600d020160030183805461365290614ab9565b80601f016020809104026020016040519081016040528092919081815260200182805461367e90614ab9565b80156136cb5780601f106136a0576101008083540402835291602001916136cb565b820191906000526020600020905b8154815290600101906020018083116136ae57829003601f168201915b505050505093508180548060200260200160405190810160405280929190818152602001828054801561371d57602002820191906000526020600020905b815481526020019060010190808311613709575b505050505091508080548060200260200160405190810160405280929190818152602001828054801561376f57602002820191906000526020600020905b81548152602001906001019080831161375b575b5050505050905093509350935093509193509193565b600033905090565b61379a8383836001613a44565b505050565b60006137ab8484612d99565b90507fffffffffffffffffffffffffffffffffffffffffffffffffffffffffffffffff811461382d578181101561381d578281836040517ffb8f41b200000000000000000000000000000000000000000000000000000000815260040161381493929190615ef2565b60405180910390fd5b61382c84848484036000613a44565b5b50505050565b600073ffffffffffffffffffffffffffffffffffffffff168373ffffffffffffffffffffffffffffffffffffffff16036138a55760006040517f96c6fd1e00000000000000000000000000000000000000000000000000000000815260040161389c919061423d565b60405180910390fd5b600073ffffffffffffffffffffffffffffffffffffffff168273ffffffffffffffffffffffffffffffffffffffff16036139175760006040517fec442f0500000000000000000000000000000000000000000000000000000000815260040161390e919061423d565b60405180910390fd5b613922838383613c1b565b505050565b600080600090505b600e805490508110156139be57600e81815481106139505761394f6149e4565b5b90600052602060002090600d020160090160019054906101000a900460ff1661397857600080fd5b600e818154811061398c5761398b6149e4565b5b90600052602060002090600d0201600a0154826139a99190614c45565b915080806139b690614a42565b91505061392f565b5090565b600073ffffffffffffffffffffffffffffffffffffffff168273ffffffffffffffffffffffffffffffffffffffff1603613a345760006040517fec442f05000000000000000000000000000000000000000000000000000000008152600401613a2b919061423d565b60405180910390fd5b613a4060008383613c1b565b5050565b600073ffffffffffffffffffffffffffffffffffffffff168473ffffffffffffffffffffffffffffffffffffffff1603613ab65760006040517fe602df05000000000000000000000000000000000000000000000000000000008152600401613aad919061423d565b60405180910390fd5b600073ffffffffffffffffffffffffffffffffffffffff168373ffffffffffffffffffffffffffffffffffffffff1603613b285760006040517f94280d62000000000000000000000000000000000000000000000000000000008152600401613b1f919061423d565b60405180910390fd5b81600160008673ffffffffffffffffffffffffffffffffffffffff1673ffffffffffffffffffffffffffffffffffffffff16815260200190815260200160002060008573ffffffffffffffffffffffffffffffffffffffff1673ffffffffffffffffffffffffffffffffffffffff168152602001908152602001600020819055508015613c15578273ffffffffffffffffffffffffffffffffffffffff168473ffffffffffffffffffffffffffffffffffffffff167f8c5be1e5ebec7d5bd14f71427d1e84f3dd0314c0f7b2291e5b200ac8c7c3b92584604051613c0c9190613f69565b60405180910390a35b50505050565b600073ffffffffffffffffffffffffffffffffffffffff168373ffffffffffffffffffffffffffffffffffffffff1603613c6d578060026000828254613c619190614c45565b92505081905550613d40565b60008060008573ffffffffffffffffffffffffffffffffffffffff1673ffffffffffffffffffffffffffffffffffffffff16815260200190815260200160002054905081811015613cf9578381836040517fe450d38c000000000000000000000000000000000000000000000000000000008152600401613cf093929190615ef2565b60405180910390fd5b8181036000808673ffffffffffffffffffffffffffffffffffffffff1673ffffffffffffffffffffffffffffffffffffffff16815260200190815260200160002081905550505b600073ffffffffffffffffffffffffffffffffffffffff168273ffffffffffffffffffffffffffffffffffffffff1603613d895780600260008282540392505081905550613dd6565b806000808473ffffffffffffffffffffffffffffffffffffffff1673ffffffffffffffffffffffffffffffffffffffff168152602001908152602001600020600082825401925050819055505b8173ffffffffffffffffffffffffffffffffffffffff168373ffffffffffffffffffffffffffffffffffffffff167fddf252ad1be2c89b69c2b068fc378daa952ba7f163c4a11628f55a4df523b3ef83604051613e339190613f69565b60405180910390a3505050565b828054828255906000526020600020908101928215613e7c579160200282015b82811115613e7b578251825591602001919060010190613e60565b5b509050613e899190613f33565b5090565b82805482825590600052602060002090601f01602090048101928215613f225791602002820160005b83821115613ef357835183826101000a81548160ff0219169083151502179055509260200192600101602081600001049283019260010302613eb6565b8015613f205782816101000a81549060ff0219169055600101602081600001049283019260010302613ef3565b505b509050613f2f9190613f33565b5090565b5b80821115613f4c576000816000905550600101613f34565b5090565b6000819050919050565b613f6381613f50565b82525050565b6000602082019050613f7e6000830184613f5a565b92915050565b600081519050919050565b600082825260208201905092915050565b60005b83811015613fbe578082015181840152602081019050613fa3565b60008484015250505050565b6000601f19601f8301169050919050565b6000613fe682613f84565b613ff08185613f8f565b9350614000818560208601613fa0565b61400981613fca565b840191505092915050565b6000602082019050818103600083015261402e8184613fdb565b905092915050565b6000604051905090565b600080fd5b600080fd5b600073ffffffffffffffffffffffffffffffffffffffff82169050919050565b60006140758261404a565b9050919050565b6140858161406a565b811461409057600080fd5b50565b6000813590506140a28161407c565b92915050565b6140b181613f50565b81146140bc57600080fd5b50565b6000813590506140ce816140a8565b92915050565b600080604083850312156140eb576140ea614040565b5b60006140f985828601614093565b925050602061410a858286016140bf565b9150509250929050565b60008115159050919050565b61412981614114565b82525050565b60006020820190506141446000830184614120565b92915050565b6000602082840312156141605761415f614040565b5b600061416e84828501614093565b91505092915050565b60006020828403121561418d5761418c614040565b5b600061419b848285016140bf565b91505092915050565b6000806000606084860312156141bd576141bc614040565b5b60006141cb86828701614093565b93505060206141dc86828701614093565b92505060406141ed868287016140bf565b9150509250925092565b600060ff82169050919050565b61420d816141f7565b82525050565b60006020820190506142286000830184614204565b92915050565b6142378161406a565b82525050565b6000602082019050614252600083018461422e565b92915050565b6000819050919050565b600061427d6142786142738461404a565b614258565b61404a565b9050919050565b600061428f82614262565b9050919050565b60006142a182614284565b9050919050565b6142b181614296565b82525050565b60006020820190506142cc60008301846142a8565b92915050565b600080fd5b600080fd5b7f4e487b7100000000000000000000000000000000000000000000000000000000600052604160045260246000fd5b61431482613fca565b810181811067ffffffffffffffff82111715614333576143326142dc565b5b80604052505050565b6000614346614036565b9050614352828261430b565b919050565b600067ffffffffffffffff821115614372576143716142dc565b5b61437b82613fca565b9050602081019050919050565b82818337600083830152505050565b60006143aa6143a584614357565b61433c565b9050828152602081018484840111156143c6576143c56142d7565b5b6143d1848285614388565b509392505050565b600082601f8301126143ee576143ed6142d2565b5b81356143fe848260208601614397565b91505092915050565b600067ffffffffffffffff821115614422576144216142dc565b5b602082029050602081019050919050565b600080fd5b600061444b61444684614407565b61433c565b9050808382526020820190506020840283018581111561446e5761446d614433565b5b835b81811015614497578061448388826140bf565b845260208401935050602081019050614470565b5050509392505050565b600082601f8301126144b6576144b56142d2565b5b81356144c6848260208601614438565b91505092915050565b600080600080608085870312156144e9576144e8614040565b5b600085013567ffffffffffffffff81111561450757614506614045565b5b614513878288016143d9565b9450506020614524878288016140bf565b935050604085013567ffffffffffffffff81111561454557614544614045565b5b614551878288016144a1565b925050606085013567ffffffffffffffff81111561457257614571614045565b5b61457e878288016144a1565b91505092959194509250565b600080604083850312156145a1576145a0614040565b5b60006145af858286016140bf565b92505060206145c085828601614093565b9150509250929050565b60006101208201905081810360008301526145e5818c613fdb565b90506145f4602083018b613f5a565b614601604083018a613f5a565b61460e6060830189613f5a565b61461b6080830188614120565b61462860a0830187614120565b61463560c0830186613f5a565b61464260e083018561422e565b614650610100830184613f5a565b9a9950505050505050505050565b600061466982614284565b9050919050565b6146798161465e565b82525050565b60006020820190506146946000830184614670565b92915050565b600080604083850312156146b1576146b0614040565b5b60006146bf85828601614093565b92505060206146d085828601614093565b9150509250929050565b600080600080608085870312156146f4576146f3614040565b5b600061470287828801614093565b945050602061471387828801614093565b9350506040614724878288016140bf565b9250506060614735878288016140bf565b91505092959194509250565b600067ffffffffffffffff82111561475c5761475b6142dc565b5b602082029050602081019050919050565b61477681614114565b811461478157600080fd5b50565b6000813590506147938161476d565b92915050565b60006147ac6147a784614741565b61433c565b905080838252602082019050602084028301858111156147cf576147ce614433565b5b835b818110156147f857806147e48882614784565b8452602084019350506020810190506147d1565b5050509392505050565b600082601f830112614817576148166142d2565b5b8135614827848260208601614799565b91505092915050565b6000806040838503121561484757614846614040565b5b6000614855858286016140bf565b925050602083013567ffffffffffffffff81111561487657614875614045565b5b61488285828601614802565b9150509250929050565b600080604083850312156148a3576148a2614040565b5b60006148b1858286016140bf565b92505060206148c285828601614784565b9150509250929050565b600081519050919050565b600082825260208201905092915050565b6000819050602082019050919050565b61490181613f50565b82525050565b600061491383836148f8565b60208301905092915050565b6000602082019050919050565b6000614937826148cc565b61494181856148d7565b935061494c836148e8565b8060005b8381101561497d5781516149648882614907565b975061496f8361491f565b925050600181019050614950565b5085935050505092915050565b600060808201905081810360008301526149a48187613fdb565b90506149b36020830186613f5a565b81810360408301526149c5818561492c565b905081810360608301526149d9818461492c565b905095945050505050565b7f4e487b7100000000000000000000000000000000000000000000000000000000600052603260045260246000fd5b7f4e487b7100000000000000000000000000000000000000000000000000000000600052601160045260246000fd5b6000614a4d82613f50565b91507fffffffffffffffffffffffffffffffffffffffffffffffffffffffffffffffff8203614a7f57614a7e614a13565b5b600182019050919050565b7f4e487b7100000000000000000000000000000000000000000000000000000000600052602260045260246000fd5b60006002820490506001821680614ad157607f821691505b602082108103614ae457614ae3614a8a565b5b50919050565b6000614af582613f50565b9150614b0083613f50565b9250828203905081811115614b1857614b17614a13565b5b92915050565b600081519050614b2d816140a8565b92915050565b600060208284031215614b4957614b48614040565b5b6000614b5784828501614b1e565b91505092915050565b6000606082019050614b75600083018661422e565b614b82602083018561422e565b614b8f6040830184613f5a565b949350505050565b600081519050614ba68161476d565b92915050565b600060208284031215614bc257614bc1614040565b5b6000614bd084828501614b97565b91505092915050565b7f496e73756666696369656e74204d79476f762062616c616e6365000000000000600082015250565b6000614c0f601a83613f8f565b9150614c1a82614bd9565b602082019050919050565b60006020820190508181036000830152614c3e81614c02565b9050919050565b6000614c5082613f50565b9150614c5b83613f50565b9250828201905080821115614c7357614c72614a13565b5b92915050565b7f4e487b7100000000000000000000000000000000000000000000000000000000600052601260045260246000fd5b6000614cb382613f50565b9150614cbe83613f50565b925082614cce57614ccd614c79565b5b828204905092915050565b6000819050919050565b6000614cfe614cf9614cf484614cd9565b614258565b613f50565b9050919050565b614d0e81614ce3565b82525050565b6000606082019050614d29600083018661422e565b614d36602083018561422e565b614d436040830184614d05565b949350505050565b6000819050919050565b6000614d70614d6b614d6684614d4b565b614258565b613f50565b9050919050565b614d8081614d55565b82525050565b6000606082019050614d9b600083018661422e565b614da8602083018561422e565b614db56040830184614d77565b949350505050565b60008190508160005260206000209050919050565b60006020601f8301049050919050565b600082821b905092915050565b600060088302614e1f7fffffffffffffffffffffffffffffffffffffffffffffffffffffffffffffffff82614de2565b614e298683614de2565b95508019841693508086168417925050509392505050565b6000614e5c614e57614e5284613f50565b614258565b613f50565b9050919050565b6000819050919050565b614e7683614e41565b614e8a614e8282614e63565b848454614def565b825550505050565b600090565b614e9f614e92565b614eaa818484614e6d565b505050565b5b81811015614ece57614ec3600082614e97565b600181019050614eb0565b5050565b601f821115614f1357614ee481614dbd565b614eed84614dd2565b81016020851015614efc578190505b614f10614f0885614dd2565b830182614eaf565b50505b505050565b600082821c905092915050565b6000614f3660001984600802614f18565b1980831691505092915050565b6000614f4f8383614f25565b9150826002028217905092915050565b614f6882613f84565b67ffffffffffffffff811115614f8157614f806142dc565b5b614f8b8254614ab9565b614f96828285614ed2565b600060209050601f831160018114614fc95760008415614fb7578287015190505b614fc18582614f43565b865550615029565b601f198416614fd786614dbd565b60005b82811015614fff57848901518255600182019150602085019450602081019050614fda565b8683101561501c5784890151615018601f891682614f25565b8355505b6001600288020188555050505b505050505050565b7f496e73756666696369656e74205553442062616c616e63650000000000000000600082015250565b6000615067601883613f8f565b915061507282615031565b602082019050919050565b600060208201905081810360008301526150968161505a565b9050919050565b600081549050919050565b600082825260208201905092915050565b60008190508160005260206000209050919050565b6150d781614114565b82525050565b60008160001c9050919050565b600060ff82169050919050565b600061510a615105836150dd565b6150ea565b9050919050565b60008160081c9050919050565b600061513161512c83615111565b6150ea565b9050919050565b60008160101c9050919050565b600061515861515383615138565b6150ea565b9050919050565b60008160181c9050919050565b600061517f61517a8361515f565b6150ea565b9050919050565b60008160201c9050919050565b60006151a66151a183615186565b6150ea565b9050919050565b60008160281c9050919050565b60006151cd6151c8836151ad565b6150ea565b9050919050565b60008160301c9050919050565b60006151f46151ef836151d4565b6150ea565b9050919050565b60008160381c9050919050565b600061521b615216836151fb565b6150ea565b9050919050565b60008160401c9050919050565b600061524261523d83615222565b6150ea565b9050919050565b60008160481c9050919050565b600061526961526483615249565b6150ea565b9050919050565b60008160501c9050919050565b600061529061528b83615270565b6150ea565b9050919050565b60008160581c9050919050565b60006152b76152b283615297565b6150ea565b9050919050565b60008160601c9050919050565b60006152de6152d9836152be565b6150ea565b9050919050565b60008160681c9050919050565b6000615305615300836152e5565b6150ea565b9050919050565b60008160701c9050919050565b600061532c6153278361530c565b6150ea565b9050919050565b60008160781c9050919050565b600061535361534e83615333565b6150ea565b9050919050565b60008160801c9050919050565b600061537a6153758361535a565b6150ea565b9050919050565b60008160881c9050919050565b60006153a161539c83615381565b6150ea565b9050919050565b60008160901c9050919050565b60006153c86153c3836153a8565b6150ea565b9050919050565b60008160981c9050919050565b60006153ef6153ea836153cf565b6150ea565b9050919050565b60008160a01c9050919050565b6000615416615411836153f6565b6150ea565b9050919050565b60008160a81c9050919050565b600061543d6154388361541d565b6150ea565b9050919050565b60008160b01c9050919050565b600061546461545f83615444565b6150ea565b9050919050565b60008160b81c9050919050565b600061548b6154868361546b565b6150ea565b9050919050565b60008160c01c9050919050565b60006154b26154ad83615492565b6150ea565b9050919050565b60008160c81c9050919050565b60006154d96154d4836154b9565b6150ea565b9050919050565b60008160d01c9050919050565b60006155006154fb836154e0565b6150ea565b9050919050565b60008160d81c9050919050565b600061552761552283615507565b6150ea565b9050919050565b60008160e01c9050919050565b600061554e6155498361552e565b6150ea565b9050919050565b60008160e81c9050919050565b600061557561557083615555565b6150ea565b9050919050565b60008160f01c9050919050565b600061559c6155978361557c565b6150ea565b9050919050565b60008160f81c9050919050565b60006155c36155be836155a3565b6150ea565b9050919050565b60006155d58261509d565b6155df81856150a8565b9350836155eb846150b9565b6000600115615918575b8360016020038201101561591757815461561788615612836150f7565b6150ce565b60208801975061562f8861562a8361511e565b6150ce565b6020880197506156478861564283615145565b6150ce565b60208801975061565f8861565a8361516c565b6150ce565b6020880197506156778861567283615193565b6150ce565b60208801975061568f8861568a836151ba565b6150ce565b6020880197506156a7886156a2836151e1565b6150ce565b6020880197506156bf886156ba83615208565b6150ce565b6020880197506156d7886156d28361522f565b6150ce565b6020880197506156ef886156ea83615256565b6150ce565b602088019750615707886157028361527d565b6150ce565b60208801975061571f8861571a836152a4565b6150ce565b60208801975061573788615732836152cb565b6150ce565b60208801975061574f8861574a836152f2565b6150ce565b6020880197506157678861576283615319565b6150ce565b60208801975061577f8861577a83615340565b6150ce565b6020880197506157978861579283615367565b6150ce565b6020880197506157af886157aa8361538e565b6150ce565b6020880197506157c7886157c2836153b5565b6150ce565b6020880197506157df886157da836153dc565b6150ce565b6020880197506157f7886157f283615403565b6150ce565b60208801975061580f8861580a8361542a565b6150ce565b6020880197506158278861582283615451565b6150ce565b60208801975061583f8861583a83615478565b6150ce565b602088019750615857886158528361549f565b6150ce565b60208801975061586f8861586a836154c6565b6150ce565b60208801975061588788615882836154ed565b6150ce565b60208801975061589f8861589a83615514565b6150ce565b6020880197506158b7886158b28361553b565b6150ce565b6020880197506158cf886158ca83615562565b6150ce565b6020880197506158e7886158e283615589565b6150ce565b6020880197506158ff886158fa836155b0565b6150ce565b602088019750600183019250506020810190506155f5565b5b600115615e03578154848210156159485761593b88615936836150f7565b6150ce565b6020880197506001820191505b8482101561596f576159628861595d8361511e565b6150ce565b6020880197506001820191505b84821015615996576159898861598483615145565b6150ce565b6020880197506001820191505b848210156159bd576159b0886159ab8361516c565b6150ce565b6020880197506001820191505b848210156159e4576159d7886159d283615193565b6150ce565b6020880197506001820191505b84821015615a0b576159fe886159f9836151ba565b6150ce565b6020880197506001820191505b84821015615a3257615a2588615a20836151e1565b6150ce565b6020880197506001820191505b84821015615a5957615a4c88615a4783615208565b6150ce565b6020880197506001820191505b84821015615a8057615a7388615a6e8361522f565b6150ce565b6020880197506001820191505b84821015615aa757615a9a88615a9583615256565b6150ce565b6020880197506001820191505b84821015615ace57615ac188615abc8361527d565b6150ce565b6020880197506001820191505b84821015615af557615ae888615ae3836152a4565b6150ce565b6020880197506001820191505b84821015615b1c57615b0f88615b0a836152cb565b6150ce565b6020880197506001820191505b84821015615b4357615b3688615b31836152f2565b6150ce565b6020880197506001820191505b84821015615b6a57615b5d88615b5883615319565b6150ce565b6020880197506001820191505b84821015615b9157615b8488615b7f83615340565b6150ce565b6020880197506001820191505b84821015615bb857615bab88615ba683615367565b6150ce565b6020880197506001820191505b84821015615bdf57615bd288615bcd8361538e565b6150ce565b6020880197506001820191505b84821015615c0657615bf988615bf4836153b5565b6150ce565b6020880197506001820191505b84821015615c2d57615c2088615c1b836153dc565b6150ce565b6020880197506001820191505b84821015615c5457615c4788615c4283615403565b6150ce565b6020880197506001820191505b84821015615c7b57615c6e88615c698361542a565b6150ce565b6020880197506001820191505b84821015615ca257615c9588615c9083615451565b6150ce565b6020880197506001820191505b84821015615cc957615cbc88615cb783615478565b6150ce565b6020880197506001820191505b84821015615cf057615ce388615cde8361549f565b6150ce565b6020880197506001820191505b84821015615d1757615d0a88615d05836154c6565b6150ce565b6020880197506001820191505b84821015615d3e57615d3188615d2c836154ed565b6150ce565b6020880197506001820191505b84821015615d6557615d5888615d5383615514565b6150ce565b6020880197506001820191505b84821015615d8c57615d7f88615d7a8361553b565b6150ce565b6020880197506001820191505b84821015615db357615da688615da183615562565b6150ce565b6020880197506001820191505b84821015615dda57615dcd88615dc883615589565b6150ce565b6020880197506001820191505b84821015615e0157615df488615def836155b0565b6150ce565b6020880197506001820191505b505b8694505050505092915050565b60006020820190508181036000830152615e2a81846155ca565b905092915050565b600081519050919050565b6000819050602082019050919050565b6000615e5983836150ce565b60208301905092915050565b6000602082019050919050565b6000615e7d82615e32565b615e8781856150a8565b9350615e9283615e3d565b8060005b83811015615ec3578151615eaa8882615e4d565b9750615eb583615e65565b925050600181019050615e96565b5085935050505092915050565b60006020820190508181036000830152615eea8184615e72565b905092915050565b6000606082019050615f07600083018661422e565b615f146020830185613f5a565b615f216040830184613f5a565b94935050505056fea2646970667358221220c032f65f47f783ea3858bf29e2899098858d38c985389e333d824994243a040864736f6c63430008140033",
  "linkReferences": {},
  "deployedLinkReferences": {}
}